{
	"myNFT.sol": {
		"MyNFT": {
			"abi": [
				{
					"inputs": [
						{
							"internalType": "string",
							"name": "_name",
							"type": "string"
						},
						{
							"internalType": "string",
							"name": "_symbol",
							"type": "string"
						}
					],
					"stateMutability": "nonpayable",
					"type": "constructor"
				},
				{
					"inputs": [
						{
							"internalType": "address",
							"name": "sender",
							"type": "address"
						},
						{
							"internalType": "uint256",
							"name": "tokenId",
							"type": "uint256"
						},
						{
							"internalType": "address",
							"name": "owner",
							"type": "address"
						}
					],
					"name": "ERC721IncorrectOwner",
					"type": "error"
				},
				{
					"inputs": [
						{
							"internalType": "address",
							"name": "operator",
							"type": "address"
						},
						{
							"internalType": "uint256",
							"name": "tokenId",
							"type": "uint256"
						}
					],
					"name": "ERC721InsufficientApproval",
					"type": "error"
				},
				{
					"inputs": [
						{
							"internalType": "address",
							"name": "approver",
							"type": "address"
						}
					],
					"name": "ERC721InvalidApprover",
					"type": "error"
				},
				{
					"inputs": [
						{
							"internalType": "address",
							"name": "operator",
							"type": "address"
						}
					],
					"name": "ERC721InvalidOperator",
					"type": "error"
				},
				{
					"inputs": [
						{
							"internalType": "address",
							"name": "owner",
							"type": "address"
						}
					],
					"name": "ERC721InvalidOwner",
					"type": "error"
				},
				{
					"inputs": [
						{
							"internalType": "address",
							"name": "receiver",
							"type": "address"
						}
					],
					"name": "ERC721InvalidReceiver",
					"type": "error"
				},
				{
					"inputs": [
						{
							"internalType": "address",
							"name": "sender",
							"type": "address"
						}
					],
					"name": "ERC721InvalidSender",
					"type": "error"
				},
				{
					"inputs": [
						{
							"internalType": "uint256",
							"name": "tokenId",
							"type": "uint256"
						}
					],
					"name": "ERC721NonexistentToken",
					"type": "error"
				},
				{
					"anonymous": false,
					"inputs": [
						{
							"indexed": true,
							"internalType": "address",
							"name": "owner",
							"type": "address"
						},
						{
							"indexed": true,
							"internalType": "address",
							"name": "approved",
							"type": "address"
						},
						{
							"indexed": true,
							"internalType": "uint256",
							"name": "tokenId",
							"type": "uint256"
						}
					],
					"name": "Approval",
					"type": "event"
				},
				{
					"anonymous": false,
					"inputs": [
						{
							"indexed": true,
							"internalType": "address",
							"name": "owner",
							"type": "address"
						},
						{
							"indexed": true,
							"internalType": "address",
							"name": "operator",
							"type": "address"
						},
						{
							"indexed": false,
							"internalType": "bool",
							"name": "approved",
							"type": "bool"
						}
					],
					"name": "ApprovalForAll",
					"type": "event"
				},
				{
					"anonymous": false,
					"inputs": [
						{
							"indexed": true,
							"internalType": "address",
							"name": "from",
							"type": "address"
						},
						{
							"indexed": true,
							"internalType": "address",
							"name": "to",
							"type": "address"
						},
						{
							"indexed": true,
							"internalType": "uint256",
							"name": "tokenId",
							"type": "uint256"
						}
					],
					"name": "Transfer",
					"type": "event"
				},
				{
					"inputs": [
						{
							"internalType": "address",
							"name": "to",
							"type": "address"
						},
						{
							"internalType": "uint256",
							"name": "tokenId",
							"type": "uint256"
						}
					],
					"name": "approve",
					"outputs": [],
					"stateMutability": "nonpayable",
					"type": "function"
				},
				{
					"inputs": [
						{
							"internalType": "address",
							"name": "owner",
							"type": "address"
						}
					],
					"name": "balanceOf",
					"outputs": [
						{
							"internalType": "uint256",
							"name": "",
							"type": "uint256"
						}
					],
					"stateMutability": "view",
					"type": "function"
				},
				{
					"inputs": [
						{
							"internalType": "uint256",
							"name": "tokenId",
							"type": "uint256"
						}
					],
					"name": "getApproved",
					"outputs": [
						{
							"internalType": "address",
							"name": "",
							"type": "address"
						}
					],
					"stateMutability": "view",
					"type": "function"
				},
				{
					"inputs": [
						{
							"internalType": "address",
							"name": "owner",
							"type": "address"
						},
						{
							"internalType": "address",
							"name": "operator",
							"type": "address"
						}
					],
					"name": "isApprovedForAll",
					"outputs": [
						{
							"internalType": "bool",
							"name": "",
							"type": "bool"
						}
					],
					"stateMutability": "view",
					"type": "function"
				},
				{
					"inputs": [
						{
							"internalType": "string",
							"name": "jsonHash",
							"type": "string"
						},
						{
							"internalType": "address",
							"name": "sender",
							"type": "address"
						}
					],
					"name": "minting",
					"outputs": [
						{
							"internalType": "uint256",
							"name": "",
							"type": "uint256"
						}
					],
					"stateMutability": "nonpayable",
					"type": "function"
				},
				{
					"inputs": [],
					"name": "name",
					"outputs": [
						{
							"internalType": "string",
							"name": "",
							"type": "string"
						}
					],
					"stateMutability": "view",
					"type": "function"
				},
				{
					"inputs": [
						{
							"internalType": "uint256",
							"name": "tokenId",
							"type": "uint256"
						}
					],
					"name": "ownerOf",
					"outputs": [
						{
							"internalType": "address",
							"name": "",
							"type": "address"
						}
					],
					"stateMutability": "view",
					"type": "function"
				},
				{
					"inputs": [
						{
							"internalType": "address",
							"name": "from",
							"type": "address"
						},
						{
							"internalType": "address",
							"name": "to",
							"type": "address"
						},
						{
							"internalType": "uint256",
							"name": "tokenId",
							"type": "uint256"
						}
					],
					"name": "safeTransferFrom",
					"outputs": [],
					"stateMutability": "nonpayable",
					"type": "function"
				},
				{
					"inputs": [
						{
							"internalType": "address",
							"name": "from",
							"type": "address"
						},
						{
							"internalType": "address",
							"name": "to",
							"type": "address"
						},
						{
							"internalType": "uint256",
							"name": "tokenId",
							"type": "uint256"
						},
						{
							"internalType": "bytes",
							"name": "data",
							"type": "bytes"
						}
					],
					"name": "safeTransferFrom",
					"outputs": [],
					"stateMutability": "nonpayable",
					"type": "function"
				},
				{
					"inputs": [
						{
							"internalType": "address",
							"name": "owner",
							"type": "address"
						},
						{
							"internalType": "address",
							"name": "operator",
							"type": "address"
						},
						{
							"internalType": "bool",
							"name": "approved",
							"type": "bool"
						}
					],
					"name": "setAppAll",
					"outputs": [],
					"stateMutability": "nonpayable",
					"type": "function"
				},
				{
					"inputs": [
						{
							"internalType": "address",
							"name": "operator",
							"type": "address"
						},
						{
							"internalType": "bool",
							"name": "approved",
							"type": "bool"
						}
					],
					"name": "setApprovalForAll",
					"outputs": [],
					"stateMutability": "nonpayable",
					"type": "function"
				},
				{
					"inputs": [
						{
							"internalType": "bytes4",
							"name": "interfaceId",
							"type": "bytes4"
						}
					],
					"name": "supportsInterface",
					"outputs": [
						{
							"internalType": "bool",
							"name": "",
							"type": "bool"
						}
					],
					"stateMutability": "view",
					"type": "function"
				},
				{
					"inputs": [],
					"name": "symbol",
					"outputs": [
						{
							"internalType": "string",
							"name": "",
							"type": "string"
						}
					],
					"stateMutability": "view",
					"type": "function"
				},
				{
					"inputs": [
						{
							"internalType": "uint256",
							"name": "_tokenId",
							"type": "uint256"
						}
					],
					"name": "tokenURI",
					"outputs": [
						{
							"internalType": "string",
							"name": "",
							"type": "string"
						}
					],
					"stateMutability": "view",
					"type": "function"
				},
				{
					"inputs": [
						{
							"internalType": "address",
							"name": "from",
							"type": "address"
						},
						{
							"internalType": "address",
							"name": "to",
							"type": "address"
						},
						{
							"internalType": "uint256",
							"name": "tokenId",
							"type": "uint256"
						}
					],
					"name": "transferFrom",
					"outputs": [],
					"stateMutability": "nonpayable",
					"type": "function"
				}
			],
			"devdoc": {
				"errors": {
					"ERC721IncorrectOwner(address,uint256,address)": [
						{
							"details": "Indicates an error related to the ownership over a particular token. Used in transfers.",
							"params": {
								"owner": "Address of the current owner of a token.",
								"sender": "Address whose tokens are being transferred.",
								"tokenId": "Identifier number of a token."
							}
						}
					],
					"ERC721InsufficientApproval(address,uint256)": [
						{
							"details": "Indicates a failure with the `operator`’s approval. Used in transfers.",
							"params": {
								"operator": "Address that may be allowed to operate on tokens without being their owner.",
								"tokenId": "Identifier number of a token."
							}
						}
					],
					"ERC721InvalidApprover(address)": [
						{
							"details": "Indicates a failure with the `approver` of a token to be approved. Used in approvals.",
							"params": {
								"approver": "Address initiating an approval operation."
							}
						}
					],
					"ERC721InvalidOperator(address)": [
						{
							"details": "Indicates a failure with the `operator` to be approved. Used in approvals.",
							"params": {
								"operator": "Address that may be allowed to operate on tokens without being their owner."
							}
						}
					],
					"ERC721InvalidOwner(address)": [
						{
							"details": "Indicates that an address can't be an owner. For example, `address(0)` is a forbidden owner in EIP-20. Used in balance queries.",
							"params": {
								"owner": "Address of the current owner of a token."
							}
						}
					],
					"ERC721InvalidReceiver(address)": [
						{
							"details": "Indicates a failure with the token `receiver`. Used in transfers.",
							"params": {
								"receiver": "Address to which tokens are being transferred."
							}
						}
					],
					"ERC721InvalidSender(address)": [
						{
							"details": "Indicates a failure with the token `sender`. Used in transfers.",
							"params": {
								"sender": "Address whose tokens are being transferred."
							}
						}
					],
					"ERC721NonexistentToken(uint256)": [
						{
							"details": "Indicates a `tokenId` whose `owner` is the zero address.",
							"params": {
								"tokenId": "Identifier number of a token."
							}
						}
					]
				},
				"events": {
					"Approval(address,address,uint256)": {
						"details": "Emitted when `owner` enables `approved` to manage the `tokenId` token."
					},
					"ApprovalForAll(address,address,bool)": {
						"details": "Emitted when `owner` enables or disables (`approved`) `operator` to manage all of its assets."
					},
					"Transfer(address,address,uint256)": {
						"details": "Emitted when `tokenId` token is transferred from `from` to `to`."
					}
				},
				"kind": "dev",
				"methods": {
					"approve(address,uint256)": {
						"details": "See {IERC721-approve}."
					},
					"balanceOf(address)": {
						"details": "See {IERC721-balanceOf}."
					},
					"getApproved(uint256)": {
						"details": "See {IERC721-getApproved}."
					},
					"isApprovedForAll(address,address)": {
						"details": "See {IERC721-isApprovedForAll}."
					},
					"name()": {
						"details": "See {IERC721Metadata-name}."
					},
					"ownerOf(uint256)": {
						"details": "See {IERC721-ownerOf}."
					},
					"safeTransferFrom(address,address,uint256)": {
						"details": "See {IERC721-safeTransferFrom}."
					},
					"safeTransferFrom(address,address,uint256,bytes)": {
						"details": "See {IERC721-safeTransferFrom}."
					},
					"setApprovalForAll(address,bool)": {
						"details": "See {IERC721-setApprovalForAll}."
					},
					"supportsInterface(bytes4)": {
						"details": "See {IERC165-supportsInterface}."
					},
					"symbol()": {
						"details": "See {IERC721Metadata-symbol}."
					},
					"transferFrom(address,address,uint256)": {
						"details": "See {IERC721-transferFrom}."
					}
				},
				"version": 1
			},
			"evm": {
				"assembly": "    /* \"myNFT.sol\":172:1350  contract MyNFT is ERC721 {... */\n  mstore(0x40, 0x80)\n    /* \"myNFT.sol\":222:223  0 */\n  0x00\n    /* \"myNFT.sol\":204:223  uint256 tokenId = 0 */\n  0x06\n  sstore\n    /* \"myNFT.sol\":310:416  constructor(... */\n  callvalue\n  dup1\n  iszero\n  tag_1\n  jumpi\n  0x00\n  dup1\n  revert\ntag_1:\n  pop\n  mload(0x40)\n  sub(codesize, bytecodeSize)\n  dup1\n  bytecodeSize\n  dup4\n  codecopy\n  dup2\n  dup2\n  add\n  0x40\n  mstore\n  dup2\n  add\n  swap1\n  tag_2\n  swap2\n  swap1\n  tag_3\n  jump\t// in\ntag_2:\n    /* \"myNFT.sol\":398:403  _name */\n  dup2\n    /* \"myNFT.sol\":405:412  _symbol */\n  dup2\n    /* \"node_modules/@openzeppelin/contracts/token/ERC721/ERC721.sol\":1455:1460  name_ */\n  dup2\n    /* \"node_modules/@openzeppelin/contracts/token/ERC721/ERC721.sol\":1447:1452  _name */\n  0x00\n    /* \"node_modules/@openzeppelin/contracts/token/ERC721/ERC721.sol\":1447:1460  _name = name_ */\n  swap1\n  dup2\n  tag_7\n  swap2\n  swap1\n  tag_8\n  jump\t// in\ntag_7:\n  pop\n    /* \"node_modules/@openzeppelin/contracts/token/ERC721/ERC721.sol\":1480:1487  symbol_ */\n  dup1\n    /* \"node_modules/@openzeppelin/contracts/token/ERC721/ERC721.sol\":1470:1477  _symbol */\n  0x01\n    /* \"node_modules/@openzeppelin/contracts/token/ERC721/ERC721.sol\":1470:1487  _symbol = symbol_ */\n  swap1\n  dup2\n  tag_9\n  swap2\n  swap1\n  tag_8\n  jump\t// in\ntag_9:\n  pop\n    /* \"node_modules/@openzeppelin/contracts/token/ERC721/ERC721.sol\":1381:1494  constructor(string memory name_, string memory symbol_) {... */\n  pop\n  pop\n    /* \"myNFT.sol\":310:416  constructor(... */\n  pop\n  pop\n    /* \"myNFT.sol\":172:1350  contract MyNFT is ERC721 {... */\n  jump(tag_11)\n    /* \"#utility.yul\":7:82   */\ntag_12:\n    /* \"#utility.yul\":40:46   */\n  0x00\n    /* \"#utility.yul\":73:75   */\n  0x40\n    /* \"#utility.yul\":67:76   */\n  mload\n    /* \"#utility.yul\":57:76   */\n  swap1\n  pop\n    /* \"#utility.yul\":7:82   */\n  swap1\n  jump\t// out\n    /* \"#utility.yul\":88:205   */\ntag_13:\n    /* \"#utility.yul\":197:198   */\n  0x00\n    /* \"#utility.yul\":194:195   */\n  dup1\n    /* \"#utility.yul\":187:199   */\n  revert\n    /* \"#utility.yul\":211:328   */\ntag_14:\n    /* \"#utility.yul\":320:321   */\n  0x00\n    /* \"#utility.yul\":317:318   */\n  dup1\n    /* \"#utility.yul\":310:322   */\n  revert\n    /* \"#utility.yul\":334:451   */\ntag_15:\n    /* \"#utility.yul\":443:444   */\n  0x00\n    /* \"#utility.yul\":440:441   */\n  dup1\n    /* \"#utility.yul\":433:445   */\n  revert\n    /* \"#utility.yul\":457:574   */\ntag_16:\n    /* \"#utility.yul\":566:567   */\n  0x00\n    /* \"#utility.yul\":563:564   */\n  dup1\n    /* \"#utility.yul\":556:568   */\n  revert\n    /* \"#utility.yul\":580:682   */\ntag_17:\n    /* \"#utility.yul\":621:627   */\n  0x00\n    /* \"#utility.yul\":672:674   */\n  0x1f\n    /* \"#utility.yul\":668:675   */\n  not\n    /* \"#utility.yul\":663:665   */\n  0x1f\n    /* \"#utility.yul\":656:661   */\n  dup4\n    /* \"#utility.yul\":652:666   */\n  add\n    /* \"#utility.yul\":648:676   */\n  and\n    /* \"#utility.yul\":638:676   */\n  swap1\n  pop\n    /* \"#utility.yul\":580:682   */\n  swap2\n  swap1\n  pop\n  jump\t// out\n    /* \"#utility.yul\":688:868   */\ntag_18:\n    /* \"#utility.yul\":736:813   */\n  0x4e487b7100000000000000000000000000000000000000000000000000000000\n    /* \"#utility.yul\":733:734   */\n  0x00\n    /* \"#utility.yul\":726:814   */\n  mstore\n    /* \"#utility.yul\":833:837   */\n  0x41\n    /* \"#utility.yul\":830:831   */\n  0x04\n    /* \"#utility.yul\":823:838   */\n  mstore\n    /* \"#utility.yul\":857:861   */\n  0x24\n    /* \"#utility.yul\":854:855   */\n  0x00\n    /* \"#utility.yul\":847:862   */\n  revert\n    /* \"#utility.yul\":874:1155   */\ntag_19:\n    /* \"#utility.yul\":957:984   */\n  tag_53\n    /* \"#utility.yul\":979:983   */\n  dup3\n    /* \"#utility.yul\":957:984   */\n  tag_17\n  jump\t// in\ntag_53:\n    /* \"#utility.yul\":949:955   */\n  dup2\n    /* \"#utility.yul\":945:985   */\n  add\n    /* \"#utility.yul\":1087:1093   */\n  dup2\n    /* \"#utility.yul\":1075:1085   */\n  dup2\n    /* \"#utility.yul\":1072:1094   */\n  lt\n    /* \"#utility.yul\":1051:1069   */\n  0xffffffffffffffff\n    /* \"#utility.yul\":1039:1049   */\n  dup3\n    /* \"#utility.yul\":1036:1070   */\n  gt\n    /* \"#utility.yul\":1033:1095   */\n  or\n    /* \"#utility.yul\":1030:1118   */\n  iszero\n  tag_54\n  jumpi\n    /* \"#utility.yul\":1098:1116   */\n  tag_55\n  tag_18\n  jump\t// in\ntag_55:\n    /* \"#utility.yul\":1030:1118   */\ntag_54:\n    /* \"#utility.yul\":1138:1148   */\n  dup1\n    /* \"#utility.yul\":1134:1136   */\n  0x40\n    /* \"#utility.yul\":1127:1149   */\n  mstore\n    /* \"#utility.yul\":917:1155   */\n  pop\n    /* \"#utility.yul\":874:1155   */\n  pop\n  pop\n  jump\t// out\n    /* \"#utility.yul\":1161:1290   */\ntag_20:\n    /* \"#utility.yul\":1195:1201   */\n  0x00\n    /* \"#utility.yul\":1222:1242   */\n  tag_57\n  tag_12\n  jump\t// in\ntag_57:\n    /* \"#utility.yul\":1212:1242   */\n  swap1\n  pop\n    /* \"#utility.yul\":1251:1284   */\n  tag_58\n    /* \"#utility.yul\":1279:1283   */\n  dup3\n    /* \"#utility.yul\":1271:1277   */\n  dup3\n    /* \"#utility.yul\":1251:1284   */\n  tag_19\n  jump\t// in\ntag_58:\n    /* \"#utility.yul\":1161:1290   */\n  swap2\n  swap1\n  pop\n  jump\t// out\n    /* \"#utility.yul\":1296:1604   */\ntag_21:\n    /* \"#utility.yul\":1358:1362   */\n  0x00\n    /* \"#utility.yul\":1448:1466   */\n  0xffffffffffffffff\n    /* \"#utility.yul\":1440:1446   */\n  dup3\n    /* \"#utility.yul\":1437:1467   */\n  gt\n    /* \"#utility.yul\":1434:1490   */\n  iszero\n  tag_60\n  jumpi\n    /* \"#utility.yul\":1470:1488   */\n  tag_61\n  tag_18\n  jump\t// in\ntag_61:\n    /* \"#utility.yul\":1434:1490   */\ntag_60:\n    /* \"#utility.yul\":1508:1537   */\n  tag_62\n    /* \"#utility.yul\":1530:1536   */\n  dup3\n    /* \"#utility.yul\":1508:1537   */\n  tag_17\n  jump\t// in\ntag_62:\n    /* \"#utility.yul\":1500:1537   */\n  swap1\n  pop\n    /* \"#utility.yul\":1592:1596   */\n  0x20\n    /* \"#utility.yul\":1586:1590   */\n  dup2\n    /* \"#utility.yul\":1582:1597   */\n  add\n    /* \"#utility.yul\":1574:1597   */\n  swap1\n  pop\n    /* \"#utility.yul\":1296:1604   */\n  swap2\n  swap1\n  pop\n  jump\t// out\n    /* \"#utility.yul\":1610:1856   */\ntag_22:\n    /* \"#utility.yul\":1691:1692   */\n  0x00\n    /* \"#utility.yul\":1701:1814   */\ntag_64:\n    /* \"#utility.yul\":1715:1721   */\n  dup4\n    /* \"#utility.yul\":1712:1713   */\n  dup2\n    /* \"#utility.yul\":1709:1722   */\n  lt\n    /* \"#utility.yul\":1701:1814   */\n  iszero\n  tag_66\n  jumpi\n    /* \"#utility.yul\":1800:1801   */\n  dup1\n    /* \"#utility.yul\":1795:1798   */\n  dup3\n    /* \"#utility.yul\":1791:1802   */\n  add\n    /* \"#utility.yul\":1785:1803   */\n  mload\n    /* \"#utility.yul\":1781:1782   */\n  dup2\n    /* \"#utility.yul\":1776:1779   */\n  dup5\n    /* \"#utility.yul\":1772:1783   */\n  add\n    /* \"#utility.yul\":1765:1804   */\n  mstore\n    /* \"#utility.yul\":1737:1739   */\n  0x20\n    /* \"#utility.yul\":1734:1735   */\n  dup2\n    /* \"#utility.yul\":1730:1740   */\n  add\n    /* \"#utility.yul\":1725:1740   */\n  swap1\n  pop\n    /* \"#utility.yul\":1701:1814   */\n  jump(tag_64)\ntag_66:\n    /* \"#utility.yul\":1848:1849   */\n  0x00\n    /* \"#utility.yul\":1839:1845   */\n  dup5\n    /* \"#utility.yul\":1834:1837   */\n  dup5\n    /* \"#utility.yul\":1830:1846   */\n  add\n    /* \"#utility.yul\":1823:1850   */\n  mstore\n    /* \"#utility.yul\":1672:1856   */\n  pop\n    /* \"#utility.yul\":1610:1856   */\n  pop\n  pop\n  pop\n  jump\t// out\n    /* \"#utility.yul\":1862:2296   */\ntag_23:\n    /* \"#utility.yul\":1951:1956   */\n  0x00\n    /* \"#utility.yul\":1976:2042   */\n  tag_68\n    /* \"#utility.yul\":1992:2041   */\n  tag_69\n    /* \"#utility.yul\":2034:2040   */\n  dup5\n    /* \"#utility.yul\":1992:2041   */\n  tag_21\n  jump\t// in\ntag_69:\n    /* \"#utility.yul\":1976:2042   */\n  tag_20\n  jump\t// in\ntag_68:\n    /* \"#utility.yul\":1967:2042   */\n  swap1\n  pop\n    /* \"#utility.yul\":2065:2071   */\n  dup3\n    /* \"#utility.yul\":2058:2063   */\n  dup2\n    /* \"#utility.yul\":2051:2072   */\n  mstore\n    /* \"#utility.yul\":2103:2107   */\n  0x20\n    /* \"#utility.yul\":2096:2101   */\n  dup2\n    /* \"#utility.yul\":2092:2108   */\n  add\n    /* \"#utility.yul\":2141:2144   */\n  dup5\n    /* \"#utility.yul\":2132:2138   */\n  dup5\n    /* \"#utility.yul\":2127:2130   */\n  dup5\n    /* \"#utility.yul\":2123:2139   */\n  add\n    /* \"#utility.yul\":2120:2145   */\n  gt\n    /* \"#utility.yul\":2117:2229   */\n  iszero\n  tag_70\n  jumpi\n    /* \"#utility.yul\":2148:2227   */\n  tag_71\n  tag_16\n  jump\t// in\ntag_71:\n    /* \"#utility.yul\":2117:2229   */\ntag_70:\n    /* \"#utility.yul\":2238:2290   */\n  tag_72\n    /* \"#utility.yul\":2283:2289   */\n  dup5\n    /* \"#utility.yul\":2278:2281   */\n  dup3\n    /* \"#utility.yul\":2273:2276   */\n  dup6\n    /* \"#utility.yul\":2238:2290   */\n  tag_22\n  jump\t// in\ntag_72:\n    /* \"#utility.yul\":1957:2296   */\n  pop\n    /* \"#utility.yul\":1862:2296   */\n  swap4\n  swap3\n  pop\n  pop\n  pop\n  jump\t// out\n    /* \"#utility.yul\":2316:2671   */\ntag_24:\n    /* \"#utility.yul\":2383:2388   */\n  0x00\n    /* \"#utility.yul\":2432:2435   */\n  dup3\n    /* \"#utility.yul\":2425:2429   */\n  0x1f\n    /* \"#utility.yul\":2417:2423   */\n  dup4\n    /* \"#utility.yul\":2413:2430   */\n  add\n    /* \"#utility.yul\":2409:2436   */\n  slt\n    /* \"#utility.yul\":2399:2521   */\n  tag_74\n  jumpi\n    /* \"#utility.yul\":2440:2519   */\n  tag_75\n  tag_15\n  jump\t// in\ntag_75:\n    /* \"#utility.yul\":2399:2521   */\ntag_74:\n    /* \"#utility.yul\":2550:2556   */\n  dup2\n    /* \"#utility.yul\":2544:2557   */\n  mload\n    /* \"#utility.yul\":2575:2665   */\n  tag_76\n    /* \"#utility.yul\":2661:2664   */\n  dup5\n    /* \"#utility.yul\":2653:2659   */\n  dup3\n    /* \"#utility.yul\":2646:2650   */\n  0x20\n    /* \"#utility.yul\":2638:2644   */\n  dup7\n    /* \"#utility.yul\":2634:2651   */\n  add\n    /* \"#utility.yul\":2575:2665   */\n  tag_23\n  jump\t// in\ntag_76:\n    /* \"#utility.yul\":2566:2665   */\n  swap2\n  pop\n    /* \"#utility.yul\":2389:2671   */\n  pop\n    /* \"#utility.yul\":2316:2671   */\n  swap3\n  swap2\n  pop\n  pop\n  jump\t// out\n    /* \"#utility.yul\":2677:3530   */\ntag_3:\n    /* \"#utility.yul\":2776:2782   */\n  0x00\n    /* \"#utility.yul\":2784:2790   */\n  dup1\n    /* \"#utility.yul\":2833:2835   */\n  0x40\n    /* \"#utility.yul\":2821:2830   */\n  dup4\n    /* \"#utility.yul\":2812:2819   */\n  dup6\n    /* \"#utility.yul\":2808:2831   */\n  sub\n    /* \"#utility.yul\":2804:2836   */\n  slt\n    /* \"#utility.yul\":2801:2920   */\n  iszero\n  tag_78\n  jumpi\n    /* \"#utility.yul\":2839:2918   */\n  tag_79\n  tag_13\n  jump\t// in\ntag_79:\n    /* \"#utility.yul\":2801:2920   */\ntag_78:\n    /* \"#utility.yul\":2980:2981   */\n  0x00\n    /* \"#utility.yul\":2969:2978   */\n  dup4\n    /* \"#utility.yul\":2965:2982   */\n  add\n    /* \"#utility.yul\":2959:2983   */\n  mload\n    /* \"#utility.yul\":3010:3028   */\n  0xffffffffffffffff\n    /* \"#utility.yul\":3002:3008   */\n  dup2\n    /* \"#utility.yul\":2999:3029   */\n  gt\n    /* \"#utility.yul\":2996:3113   */\n  iszero\n  tag_80\n  jumpi\n    /* \"#utility.yul\":3032:3111   */\n  tag_81\n  tag_14\n  jump\t// in\ntag_81:\n    /* \"#utility.yul\":2996:3113   */\ntag_80:\n    /* \"#utility.yul\":3137:3211   */\n  tag_82\n    /* \"#utility.yul\":3203:3210   */\n  dup6\n    /* \"#utility.yul\":3194:3200   */\n  dup3\n    /* \"#utility.yul\":3183:3192   */\n  dup7\n    /* \"#utility.yul\":3179:3201   */\n  add\n    /* \"#utility.yul\":3137:3211   */\n  tag_24\n  jump\t// in\ntag_82:\n    /* \"#utility.yul\":3127:3211   */\n  swap3\n  pop\n    /* \"#utility.yul\":2930:3221   */\n  pop\n    /* \"#utility.yul\":3281:3283   */\n  0x20\n    /* \"#utility.yul\":3270:3279   */\n  dup4\n    /* \"#utility.yul\":3266:3284   */\n  add\n    /* \"#utility.yul\":3260:3285   */\n  mload\n    /* \"#utility.yul\":3312:3330   */\n  0xffffffffffffffff\n    /* \"#utility.yul\":3304:3310   */\n  dup2\n    /* \"#utility.yul\":3301:3331   */\n  gt\n    /* \"#utility.yul\":3298:3415   */\n  iszero\n  tag_83\n  jumpi\n    /* \"#utility.yul\":3334:3413   */\n  tag_84\n  tag_14\n  jump\t// in\ntag_84:\n    /* \"#utility.yul\":3298:3415   */\ntag_83:\n    /* \"#utility.yul\":3439:3513   */\n  tag_85\n    /* \"#utility.yul\":3505:3512   */\n  dup6\n    /* \"#utility.yul\":3496:3502   */\n  dup3\n    /* \"#utility.yul\":3485:3494   */\n  dup7\n    /* \"#utility.yul\":3481:3503   */\n  add\n    /* \"#utility.yul\":3439:3513   */\n  tag_24\n  jump\t// in\ntag_85:\n    /* \"#utility.yul\":3429:3513   */\n  swap2\n  pop\n    /* \"#utility.yul\":3231:3523   */\n  pop\n    /* \"#utility.yul\":2677:3530   */\n  swap3\n  pop\n  swap3\n  swap1\n  pop\n  jump\t// out\n    /* \"#utility.yul\":3536:3635   */\ntag_25:\n    /* \"#utility.yul\":3588:3594   */\n  0x00\n    /* \"#utility.yul\":3622:3627   */\n  dup2\n    /* \"#utility.yul\":3616:3628   */\n  mload\n    /* \"#utility.yul\":3606:3628   */\n  swap1\n  pop\n    /* \"#utility.yul\":3536:3635   */\n  swap2\n  swap1\n  pop\n  jump\t// out\n    /* \"#utility.yul\":3641:3821   */\ntag_26:\n    /* \"#utility.yul\":3689:3766   */\n  0x4e487b7100000000000000000000000000000000000000000000000000000000\n    /* \"#utility.yul\":3686:3687   */\n  0x00\n    /* \"#utility.yul\":3679:3767   */\n  mstore\n    /* \"#utility.yul\":3786:3790   */\n  0x22\n    /* \"#utility.yul\":3783:3784   */\n  0x04\n    /* \"#utility.yul\":3776:3791   */\n  mstore\n    /* \"#utility.yul\":3810:3814   */\n  0x24\n    /* \"#utility.yul\":3807:3808   */\n  0x00\n    /* \"#utility.yul\":3800:3815   */\n  revert\n    /* \"#utility.yul\":3827:4147   */\ntag_27:\n    /* \"#utility.yul\":3871:3877   */\n  0x00\n    /* \"#utility.yul\":3908:3909   */\n  0x02\n    /* \"#utility.yul\":3902:3906   */\n  dup3\n    /* \"#utility.yul\":3898:3910   */\n  div\n    /* \"#utility.yul\":3888:3910   */\n  swap1\n  pop\n    /* \"#utility.yul\":3955:3956   */\n  0x01\n    /* \"#utility.yul\":3949:3953   */\n  dup3\n    /* \"#utility.yul\":3945:3957   */\n  and\n    /* \"#utility.yul\":3976:3994   */\n  dup1\n    /* \"#utility.yul\":3966:4047   */\n  tag_89\n  jumpi\n    /* \"#utility.yul\":4032:4036   */\n  0x7f\n    /* \"#utility.yul\":4024:4030   */\n  dup3\n    /* \"#utility.yul\":4020:4037   */\n  and\n    /* \"#utility.yul\":4010:4037   */\n  swap2\n  pop\n    /* \"#utility.yul\":3966:4047   */\ntag_89:\n    /* \"#utility.yul\":4094:4096   */\n  0x20\n    /* \"#utility.yul\":4086:4092   */\n  dup3\n    /* \"#utility.yul\":4083:4097   */\n  lt\n    /* \"#utility.yul\":4063:4081   */\n  dup2\n    /* \"#utility.yul\":4060:4098   */\n  sub\n    /* \"#utility.yul\":4057:4141   */\n  tag_90\n  jumpi\n    /* \"#utility.yul\":4113:4131   */\n  tag_91\n  tag_26\n  jump\t// in\ntag_91:\n    /* \"#utility.yul\":4057:4141   */\ntag_90:\n    /* \"#utility.yul\":3878:4147   */\n  pop\n    /* \"#utility.yul\":3827:4147   */\n  swap2\n  swap1\n  pop\n  jump\t// out\n    /* \"#utility.yul\":4153:4294   */\ntag_28:\n    /* \"#utility.yul\":4202:4206   */\n  0x00\n    /* \"#utility.yul\":4225:4228   */\n  dup2\n    /* \"#utility.yul\":4217:4228   */\n  swap1\n  pop\n    /* \"#utility.yul\":4248:4251   */\n  dup2\n    /* \"#utility.yul\":4245:4246   */\n  0x00\n    /* \"#utility.yul\":4238:4252   */\n  mstore\n    /* \"#utility.yul\":4282:4286   */\n  0x20\n    /* \"#utility.yul\":4279:4280   */\n  0x00\n    /* \"#utility.yul\":4269:4287   */\n  keccak256\n    /* \"#utility.yul\":4261:4287   */\n  swap1\n  pop\n    /* \"#utility.yul\":4153:4294   */\n  swap2\n  swap1\n  pop\n  jump\t// out\n    /* \"#utility.yul\":4300:4393   */\ntag_29:\n    /* \"#utility.yul\":4337:4343   */\n  0x00\n    /* \"#utility.yul\":4384:4386   */\n  0x20\n    /* \"#utility.yul\":4379:4381   */\n  0x1f\n    /* \"#utility.yul\":4372:4377   */\n  dup4\n    /* \"#utility.yul\":4368:4382   */\n  add\n    /* \"#utility.yul\":4364:4387   */\n  div\n    /* \"#utility.yul\":4354:4387   */\n  swap1\n  pop\n    /* \"#utility.yul\":4300:4393   */\n  swap2\n  swap1\n  pop\n  jump\t// out\n    /* \"#utility.yul\":4399:4506   */\ntag_30:\n    /* \"#utility.yul\":4443:4451   */\n  0x00\n    /* \"#utility.yul\":4493:4498   */\n  dup3\n    /* \"#utility.yul\":4487:4491   */\n  dup3\n    /* \"#utility.yul\":4483:4499   */\n  shl\n    /* \"#utility.yul\":4462:4499   */\n  swap1\n  pop\n    /* \"#utility.yul\":4399:4506   */\n  swap3\n  swap2\n  pop\n  pop\n  jump\t// out\n    /* \"#utility.yul\":4512:4905   */\ntag_31:\n    /* \"#utility.yul\":4581:4587   */\n  0x00\n    /* \"#utility.yul\":4631:4632   */\n  0x08\n    /* \"#utility.yul\":4619:4629   */\n  dup4\n    /* \"#utility.yul\":4615:4633   */\n  mul\n    /* \"#utility.yul\":4654:4751   */\n  tag_96\n    /* \"#utility.yul\":4684:4750   */\n  0xffffffffffffffffffffffffffffffffffffffffffffffffffffffffffffffff\n    /* \"#utility.yul\":4673:4682   */\n  dup3\n    /* \"#utility.yul\":4654:4751   */\n  tag_30\n  jump\t// in\ntag_96:\n    /* \"#utility.yul\":4772:4811   */\n  tag_97\n    /* \"#utility.yul\":4802:4810   */\n  dup7\n    /* \"#utility.yul\":4791:4800   */\n  dup4\n    /* \"#utility.yul\":4772:4811   */\n  tag_30\n  jump\t// in\ntag_97:\n    /* \"#utility.yul\":4760:4811   */\n  swap6\n  pop\n    /* \"#utility.yul\":4844:4848   */\n  dup1\n    /* \"#utility.yul\":4840:4849   */\n  not\n    /* \"#utility.yul\":4833:4838   */\n  dup5\n    /* \"#utility.yul\":4829:4850   */\n  and\n    /* \"#utility.yul\":4820:4850   */\n  swap4\n  pop\n    /* \"#utility.yul\":4893:4897   */\n  dup1\n    /* \"#utility.yul\":4883:4891   */\n  dup7\n    /* \"#utility.yul\":4879:4898   */\n  and\n    /* \"#utility.yul\":4872:4877   */\n  dup5\n    /* \"#utility.yul\":4869:4899   */\n  or\n    /* \"#utility.yul\":4859:4899   */\n  swap3\n  pop\n    /* \"#utility.yul\":4588:4905   */\n  pop\n  pop\n    /* \"#utility.yul\":4512:4905   */\n  swap4\n  swap3\n  pop\n  pop\n  pop\n  jump\t// out\n    /* \"#utility.yul\":4911:4988   */\ntag_32:\n    /* \"#utility.yul\":4948:4955   */\n  0x00\n    /* \"#utility.yul\":4977:4982   */\n  dup2\n    /* \"#utility.yul\":4966:4982   */\n  swap1\n  pop\n    /* \"#utility.yul\":4911:4988   */\n  swap2\n  swap1\n  pop\n  jump\t// out\n    /* \"#utility.yul\":4994:5054   */\ntag_33:\n    /* \"#utility.yul\":5022:5025   */\n  0x00\n    /* \"#utility.yul\":5043:5048   */\n  dup2\n    /* \"#utility.yul\":5036:5048   */\n  swap1\n  pop\n    /* \"#utility.yul\":4994:5054   */\n  swap2\n  swap1\n  pop\n  jump\t// out\n    /* \"#utility.yul\":5060:5202   */\ntag_34:\n    /* \"#utility.yul\":5110:5119   */\n  0x00\n    /* \"#utility.yul\":5143:5196   */\n  tag_101\n    /* \"#utility.yul\":5161:5195   */\n  tag_102\n    /* \"#utility.yul\":5170:5194   */\n  tag_103\n    /* \"#utility.yul\":5188:5193   */\n  dup5\n    /* \"#utility.yul\":5170:5194   */\n  tag_32\n  jump\t// in\ntag_103:\n    /* \"#utility.yul\":5161:5195   */\n  tag_33\n  jump\t// in\ntag_102:\n    /* \"#utility.yul\":5143:5196   */\n  tag_32\n  jump\t// in\ntag_101:\n    /* \"#utility.yul\":5130:5196   */\n  swap1\n  pop\n    /* \"#utility.yul\":5060:5202   */\n  swap2\n  swap1\n  pop\n  jump\t// out\n    /* \"#utility.yul\":5208:5283   */\ntag_35:\n    /* \"#utility.yul\":5251:5254   */\n  0x00\n    /* \"#utility.yul\":5272:5277   */\n  dup2\n    /* \"#utility.yul\":5265:5277   */\n  swap1\n  pop\n    /* \"#utility.yul\":5208:5283   */\n  swap2\n  swap1\n  pop\n  jump\t// out\n    /* \"#utility.yul\":5289:5558   */\ntag_36:\n    /* \"#utility.yul\":5399:5438   */\n  tag_106\n    /* \"#utility.yul\":5430:5437   */\n  dup4\n    /* \"#utility.yul\":5399:5438   */\n  tag_34\n  jump\t// in\ntag_106:\n    /* \"#utility.yul\":5460:5551   */\n  tag_107\n    /* \"#utility.yul\":5509:5550   */\n  tag_108\n    /* \"#utility.yul\":5533:5549   */\n  dup3\n    /* \"#utility.yul\":5509:5550   */\n  tag_35\n  jump\t// in\ntag_108:\n    /* \"#utility.yul\":5501:5507   */\n  dup5\n    /* \"#utility.yul\":5494:5498   */\n  dup5\n    /* \"#utility.yul\":5488:5499   */\n  sload\n    /* \"#utility.yul\":5460:5551   */\n  tag_31\n  jump\t// in\ntag_107:\n    /* \"#utility.yul\":5454:5458   */\n  dup3\n    /* \"#utility.yul\":5447:5552   */\n  sstore\n    /* \"#utility.yul\":5365:5558   */\n  pop\n    /* \"#utility.yul\":5289:5558   */\n  pop\n  pop\n  pop\n  jump\t// out\n    /* \"#utility.yul\":5564:5637   */\ntag_37:\n    /* \"#utility.yul\":5609:5612   */\n  0x00\n    /* \"#utility.yul\":5564:5637   */\n  swap1\n  jump\t// out\n    /* \"#utility.yul\":5643:5832   */\ntag_38:\n    /* \"#utility.yul\":5720:5752   */\n  tag_111\n  tag_37\n  jump\t// in\ntag_111:\n    /* \"#utility.yul\":5761:5826   */\n  tag_112\n    /* \"#utility.yul\":5819:5825   */\n  dup2\n    /* \"#utility.yul\":5811:5817   */\n  dup5\n    /* \"#utility.yul\":5805:5809   */\n  dup5\n    /* \"#utility.yul\":5761:5826   */\n  tag_36\n  jump\t// in\ntag_112:\n    /* \"#utility.yul\":5696:5832   */\n  pop\n    /* \"#utility.yul\":5643:5832   */\n  pop\n  pop\n  jump\t// out\n    /* \"#utility.yul\":5838:6024   */\ntag_39:\n    /* \"#utility.yul\":5898:6018   */\ntag_114:\n    /* \"#utility.yul\":5915:5918   */\n  dup2\n    /* \"#utility.yul\":5908:5913   */\n  dup2\n    /* \"#utility.yul\":5905:5919   */\n  lt\n    /* \"#utility.yul\":5898:6018   */\n  iszero\n  tag_116\n  jumpi\n    /* \"#utility.yul\":5969:6008   */\n  tag_117\n    /* \"#utility.yul\":6006:6007   */\n  0x00\n    /* \"#utility.yul\":5999:6004   */\n  dup3\n    /* \"#utility.yul\":5969:6008   */\n  tag_38\n  jump\t// in\ntag_117:\n    /* \"#utility.yul\":5942:5943   */\n  0x01\n    /* \"#utility.yul\":5935:5940   */\n  dup2\n    /* \"#utility.yul\":5931:5944   */\n  add\n    /* \"#utility.yul\":5922:5944   */\n  swap1\n  pop\n    /* \"#utility.yul\":5898:6018   */\n  jump(tag_114)\ntag_116:\n    /* \"#utility.yul\":5838:6024   */\n  pop\n  pop\n  jump\t// out\n    /* \"#utility.yul\":6030:6573   */\ntag_40:\n    /* \"#utility.yul\":6131:6133   */\n  0x1f\n    /* \"#utility.yul\":6126:6129   */\n  dup3\n    /* \"#utility.yul\":6123:6134   */\n  gt\n    /* \"#utility.yul\":6120:6566   */\n  iszero\n  tag_119\n  jumpi\n    /* \"#utility.yul\":6165:6203   */\n  tag_120\n    /* \"#utility.yul\":6197:6202   */\n  dup2\n    /* \"#utility.yul\":6165:6203   */\n  tag_28\n  jump\t// in\ntag_120:\n    /* \"#utility.yul\":6249:6278   */\n  tag_121\n    /* \"#utility.yul\":6267:6277   */\n  dup5\n    /* \"#utility.yul\":6249:6278   */\n  tag_29\n  jump\t// in\ntag_121:\n    /* \"#utility.yul\":6239:6247   */\n  dup2\n    /* \"#utility.yul\":6235:6279   */\n  add\n    /* \"#utility.yul\":6432:6434   */\n  0x20\n    /* \"#utility.yul\":6420:6430   */\n  dup6\n    /* \"#utility.yul\":6417:6435   */\n  lt\n    /* \"#utility.yul\":6414:6463   */\n  iszero\n  tag_122\n  jumpi\n    /* \"#utility.yul\":6453:6461   */\n  dup2\n    /* \"#utility.yul\":6438:6461   */\n  swap1\n  pop\n    /* \"#utility.yul\":6414:6463   */\ntag_122:\n    /* \"#utility.yul\":6476:6556   */\n  tag_123\n    /* \"#utility.yul\":6532:6554   */\n  tag_124\n    /* \"#utility.yul\":6550:6553   */\n  dup6\n    /* \"#utility.yul\":6532:6554   */\n  tag_29\n  jump\t// in\ntag_124:\n    /* \"#utility.yul\":6522:6530   */\n  dup4\n    /* \"#utility.yul\":6518:6555   */\n  add\n    /* \"#utility.yul\":6505:6516   */\n  dup3\n    /* \"#utility.yul\":6476:6556   */\n  tag_39\n  jump\t// in\ntag_123:\n    /* \"#utility.yul\":6135:6566   */\n  pop\n  pop\n    /* \"#utility.yul\":6120:6566   */\ntag_119:\n    /* \"#utility.yul\":6030:6573   */\n  pop\n  pop\n  pop\n  jump\t// out\n    /* \"#utility.yul\":6579:6696   */\ntag_41:\n    /* \"#utility.yul\":6633:6641   */\n  0x00\n    /* \"#utility.yul\":6683:6688   */\n  dup3\n    /* \"#utility.yul\":6677:6681   */\n  dup3\n    /* \"#utility.yul\":6673:6689   */\n  shr\n    /* \"#utility.yul\":6652:6689   */\n  swap1\n  pop\n    /* \"#utility.yul\":6579:6696   */\n  swap3\n  swap2\n  pop\n  pop\n  jump\t// out\n    /* \"#utility.yul\":6702:6871   */\ntag_42:\n    /* \"#utility.yul\":6746:6752   */\n  0x00\n    /* \"#utility.yul\":6779:6830   */\n  tag_127\n    /* \"#utility.yul\":6827:6828   */\n  0x00\n    /* \"#utility.yul\":6823:6829   */\n  not\n    /* \"#utility.yul\":6815:6820   */\n  dup5\n    /* \"#utility.yul\":6812:6813   */\n  0x08\n    /* \"#utility.yul\":6808:6821   */\n  mul\n    /* \"#utility.yul\":6779:6830   */\n  tag_41\n  jump\t// in\ntag_127:\n    /* \"#utility.yul\":6775:6831   */\n  not\n    /* \"#utility.yul\":6860:6864   */\n  dup1\n    /* \"#utility.yul\":6854:6858   */\n  dup4\n    /* \"#utility.yul\":6850:6865   */\n  and\n    /* \"#utility.yul\":6840:6865   */\n  swap2\n  pop\n    /* \"#utility.yul\":6753:6871   */\n  pop\n    /* \"#utility.yul\":6702:6871   */\n  swap3\n  swap2\n  pop\n  pop\n  jump\t// out\n    /* \"#utility.yul\":6876:7171   */\ntag_43:\n    /* \"#utility.yul\":6952:6956   */\n  0x00\n    /* \"#utility.yul\":7098:7127   */\n  tag_129\n    /* \"#utility.yul\":7123:7126   */\n  dup4\n    /* \"#utility.yul\":7117:7121   */\n  dup4\n    /* \"#utility.yul\":7098:7127   */\n  tag_42\n  jump\t// in\ntag_129:\n    /* \"#utility.yul\":7090:7127   */\n  swap2\n  pop\n    /* \"#utility.yul\":7160:7163   */\n  dup3\n    /* \"#utility.yul\":7157:7158   */\n  0x02\n    /* \"#utility.yul\":7153:7164   */\n  mul\n    /* \"#utility.yul\":7147:7151   */\n  dup3\n    /* \"#utility.yul\":7144:7165   */\n  or\n    /* \"#utility.yul\":7136:7165   */\n  swap1\n  pop\n    /* \"#utility.yul\":6876:7171   */\n  swap3\n  swap2\n  pop\n  pop\n  jump\t// out\n    /* \"#utility.yul\":7176:8571   */\ntag_8:\n    /* \"#utility.yul\":7293:7330   */\n  tag_131\n    /* \"#utility.yul\":7326:7329   */\n  dup3\n    /* \"#utility.yul\":7293:7330   */\n  tag_25\n  jump\t// in\ntag_131:\n    /* \"#utility.yul\":7395:7413   */\n  0xffffffffffffffff\n    /* \"#utility.yul\":7387:7393   */\n  dup2\n    /* \"#utility.yul\":7384:7414   */\n  gt\n    /* \"#utility.yul\":7381:7437   */\n  iszero\n  tag_132\n  jumpi\n    /* \"#utility.yul\":7417:7435   */\n  tag_133\n  tag_18\n  jump\t// in\ntag_133:\n    /* \"#utility.yul\":7381:7437   */\ntag_132:\n    /* \"#utility.yul\":7461:7499   */\n  tag_134\n    /* \"#utility.yul\":7493:7497   */\n  dup3\n    /* \"#utility.yul\":7487:7498   */\n  sload\n    /* \"#utility.yul\":7461:7499   */\n  tag_27\n  jump\t// in\ntag_134:\n    /* \"#utility.yul\":7546:7613   */\n  tag_135\n    /* \"#utility.yul\":7606:7612   */\n  dup3\n    /* \"#utility.yul\":7598:7604   */\n  dup3\n    /* \"#utility.yul\":7592:7596   */\n  dup6\n    /* \"#utility.yul\":7546:7613   */\n  tag_40\n  jump\t// in\ntag_135:\n    /* \"#utility.yul\":7640:7641   */\n  0x00\n    /* \"#utility.yul\":7664:7668   */\n  0x20\n    /* \"#utility.yul\":7651:7668   */\n  swap1\n  pop\n    /* \"#utility.yul\":7696:7698   */\n  0x1f\n    /* \"#utility.yul\":7688:7694   */\n  dup4\n    /* \"#utility.yul\":7685:7699   */\n  gt\n    /* \"#utility.yul\":7713:7714   */\n  0x01\n    /* \"#utility.yul\":7708:8326   */\n  dup2\n  eq\n  tag_137\n  jumpi\n    /* \"#utility.yul\":8370:8371   */\n  0x00\n    /* \"#utility.yul\":8387:8393   */\n  dup5\n    /* \"#utility.yul\":8384:8461   */\n  iszero\n  tag_138\n  jumpi\n    /* \"#utility.yul\":8436:8445   */\n  dup3\n    /* \"#utility.yul\":8431:8434   */\n  dup8\n    /* \"#utility.yul\":8427:8446   */\n  add\n    /* \"#utility.yul\":8421:8447   */\n  mload\n    /* \"#utility.yul\":8412:8447   */\n  swap1\n  pop\n    /* \"#utility.yul\":8384:8461   */\ntag_138:\n    /* \"#utility.yul\":8487:8554   */\n  tag_139\n    /* \"#utility.yul\":8547:8553   */\n  dup6\n    /* \"#utility.yul\":8540:8545   */\n  dup3\n    /* \"#utility.yul\":8487:8554   */\n  tag_43\n  jump\t// in\ntag_139:\n    /* \"#utility.yul\":8481:8485   */\n  dup7\n    /* \"#utility.yul\":8474:8555   */\n  sstore\n    /* \"#utility.yul\":8343:8565   */\n  pop\n    /* \"#utility.yul\":7678:8565   */\n  jump(tag_136)\n    /* \"#utility.yul\":7708:8326   */\ntag_137:\n    /* \"#utility.yul\":7760:7764   */\n  0x1f\n    /* \"#utility.yul\":7756:7765   */\n  not\n    /* \"#utility.yul\":7748:7754   */\n  dup5\n    /* \"#utility.yul\":7744:7766   */\n  and\n    /* \"#utility.yul\":7794:7831   */\n  tag_140\n    /* \"#utility.yul\":7826:7830   */\n  dup7\n    /* \"#utility.yul\":7794:7831   */\n  tag_28\n  jump\t// in\ntag_140:\n    /* \"#utility.yul\":7853:7854   */\n  0x00\n    /* \"#utility.yul\":7867:8075   */\ntag_141:\n    /* \"#utility.yul\":7881:7888   */\n  dup3\n    /* \"#utility.yul\":7878:7879   */\n  dup2\n    /* \"#utility.yul\":7875:7889   */\n  lt\n    /* \"#utility.yul\":7867:8075   */\n  iszero\n  tag_143\n  jumpi\n    /* \"#utility.yul\":7960:7969   */\n  dup5\n    /* \"#utility.yul\":7955:7958   */\n  dup10\n    /* \"#utility.yul\":7951:7970   */\n  add\n    /* \"#utility.yul\":7945:7971   */\n  mload\n    /* \"#utility.yul\":7937:7943   */\n  dup3\n    /* \"#utility.yul\":7930:7972   */\n  sstore\n    /* \"#utility.yul\":8011:8012   */\n  0x01\n    /* \"#utility.yul\":8003:8009   */\n  dup3\n    /* \"#utility.yul\":7999:8013   */\n  add\n    /* \"#utility.yul\":7989:8013   */\n  swap2\n  pop\n    /* \"#utility.yul\":8058:8060   */\n  0x20\n    /* \"#utility.yul\":8047:8056   */\n  dup6\n    /* \"#utility.yul\":8043:8061   */\n  add\n    /* \"#utility.yul\":8030:8061   */\n  swap5\n  pop\n    /* \"#utility.yul\":7904:7908   */\n  0x20\n    /* \"#utility.yul\":7901:7902   */\n  dup2\n    /* \"#utility.yul\":7897:7909   */\n  add\n    /* \"#utility.yul\":7892:7909   */\n  swap1\n  pop\n    /* \"#utility.yul\":7867:8075   */\n  jump(tag_141)\ntag_143:\n    /* \"#utility.yul\":8103:8109   */\n  dup7\n    /* \"#utility.yul\":8094:8101   */\n  dup4\n    /* \"#utility.yul\":8091:8110   */\n  lt\n    /* \"#utility.yul\":8088:8267   */\n  iszero\n  tag_144\n  jumpi\n    /* \"#utility.yul\":8161:8170   */\n  dup5\n    /* \"#utility.yul\":8156:8159   */\n  dup10\n    /* \"#utility.yul\":8152:8171   */\n  add\n    /* \"#utility.yul\":8146:8172   */\n  mload\n    /* \"#utility.yul\":8204:8252   */\n  tag_145\n    /* \"#utility.yul\":8246:8250   */\n  0x1f\n    /* \"#utility.yul\":8238:8244   */\n  dup10\n    /* \"#utility.yul\":8234:8251   */\n  and\n    /* \"#utility.yul\":8223:8232   */\n  dup3\n    /* \"#utility.yul\":8204:8252   */\n  tag_42\n  jump\t// in\ntag_145:\n    /* \"#utility.yul\":8196:8202   */\n  dup4\n    /* \"#utility.yul\":8189:8253   */\n  sstore\n    /* \"#utility.yul\":8111:8267   */\n  pop\n    /* \"#utility.yul\":8088:8267   */\ntag_144:\n    /* \"#utility.yul\":8313:8314   */\n  0x01\n    /* \"#utility.yul\":8309:8310   */\n  0x02\n    /* \"#utility.yul\":8301:8307   */\n  dup9\n    /* \"#utility.yul\":8297:8311   */\n  mul\n    /* \"#utility.yul\":8293:8315   */\n  add\n    /* \"#utility.yul\":8287:8291   */\n  dup9\n    /* \"#utility.yul\":8280:8316   */\n  sstore\n    /* \"#utility.yul\":7715:8326   */\n  pop\n  pop\n  pop\n    /* \"#utility.yul\":7678:8565   */\ntag_136:\n  pop\n    /* \"#utility.yul\":7268:8571   */\n  pop\n  pop\n  pop\n    /* \"#utility.yul\":7176:8571   */\n  pop\n  pop\n  jump\t// out\n    /* \"myNFT.sol\":172:1350  contract MyNFT is ERC721 {... */\ntag_11:\n  dataSize(sub_0)\n  dup1\n  dataOffset(sub_0)\n  0x00\n  codecopy\n  0x00\n  return\nstop\n\nsub_0: assembly {\n        /* \"myNFT.sol\":172:1350  contract MyNFT is ERC721 {... */\n      mstore(0x40, 0x80)\n      callvalue\n      dup1\n      iszero\n      tag_1\n      jumpi\n      0x00\n      dup1\n      revert\n    tag_1:\n      pop\n      jumpi(tag_2, lt(calldatasize, 0x04))\n      shr(0xe0, calldataload(0x00))\n      dup1\n      0x6352211e\n      gt\n      tag_18\n      jumpi\n      dup1\n      0xb458438f\n      gt\n      tag_19\n      jumpi\n      dup1\n      0xb458438f\n      eq\n      tag_14\n      jumpi\n      dup1\n      0xb88d4fde\n      eq\n      tag_15\n      jumpi\n      dup1\n      0xc87b56dd\n      eq\n      tag_16\n      jumpi\n      dup1\n      0xe985e9c5\n      eq\n      tag_17\n      jumpi\n      jump(tag_2)\n    tag_19:\n      dup1\n      0x6352211e\n      eq\n      tag_10\n      jumpi\n      dup1\n      0x70a08231\n      eq\n      tag_11\n      jumpi\n      dup1\n      0x95d89b41\n      eq\n      tag_12\n      jumpi\n      dup1\n      0xa22cb465\n      eq\n      tag_13\n      jumpi\n      jump(tag_2)\n    tag_18:\n      dup1\n      0x095ea7b3\n      gt\n      tag_20\n      jumpi\n      dup1\n      0x095ea7b3\n      eq\n      tag_6\n      jumpi\n      dup1\n      0x23b872dd\n      eq\n      tag_7\n      jumpi\n      dup1\n      0x29d6724e\n      eq\n      tag_8\n      jumpi\n      dup1\n      0x42842e0e\n      eq\n      tag_9\n      jumpi\n      jump(tag_2)\n    tag_20:\n      dup1\n      0x01ffc9a7\n      eq\n      tag_3\n      jumpi\n      dup1\n      0x06fdde03\n      eq\n      tag_4\n      jumpi\n      dup1\n      0x081812fc\n      eq\n      tag_5\n      jumpi\n    tag_2:\n      0x00\n      dup1\n      revert\n        /* \"node_modules/@openzeppelin/contracts/token/ERC721/ERC721.sol\":1561:1861  function supportsInterface(bytes4 interfaceId) public view virtual override(ERC165, IERC165) returns (bool) {... */\n    tag_3:\n      tag_21\n      0x04\n      dup1\n      calldatasize\n      sub\n      dup2\n      add\n      swap1\n      tag_22\n      swap2\n      swap1\n      tag_23\n      jump\t// in\n    tag_22:\n      tag_24\n      jump\t// in\n    tag_21:\n      mload(0x40)\n      tag_25\n      swap2\n      swap1\n      tag_26\n      jump\t// in\n    tag_25:\n      mload(0x40)\n      dup1\n      swap2\n      sub\n      swap1\n      return\n        /* \"node_modules/@openzeppelin/contracts/token/ERC721/ERC721.sol\":2365:2454  function name() public view virtual returns (string memory) {... */\n    tag_4:\n      tag_27\n      tag_28\n      jump\t// in\n    tag_27:\n      mload(0x40)\n      tag_29\n      swap2\n      swap1\n      tag_30\n      jump\t// in\n    tag_29:\n      mload(0x40)\n      dup1\n      swap2\n      sub\n      swap1\n      return\n        /* \"node_modules/@openzeppelin/contracts/token/ERC721/ERC721.sol\":3497:3651  function getApproved(uint256 tokenId) public view virtual returns (address) {... */\n    tag_5:\n      tag_31\n      0x04\n      dup1\n      calldatasize\n      sub\n      dup2\n      add\n      swap1\n      tag_32\n      swap2\n      swap1\n      tag_33\n      jump\t// in\n    tag_32:\n      tag_34\n      jump\t// in\n    tag_31:\n      mload(0x40)\n      tag_35\n      swap2\n      swap1\n      tag_36\n      jump\t// in\n    tag_35:\n      mload(0x40)\n      dup1\n      swap2\n      sub\n      swap1\n      return\n        /* \"node_modules/@openzeppelin/contracts/token/ERC721/ERC721.sol\":3323:3436  function approve(address to, uint256 tokenId) public virtual {... */\n    tag_6:\n      tag_37\n      0x04\n      dup1\n      calldatasize\n      sub\n      dup2\n      add\n      swap1\n      tag_38\n      swap2\n      swap1\n      tag_39\n      jump\t// in\n    tag_38:\n      tag_40\n      jump\t// in\n    tag_37:\n      stop\n        /* \"node_modules/@openzeppelin/contracts/token/ERC721/ERC721.sol\":4143:4721  function transferFrom(address from, address to, uint256 tokenId) public virtual {... */\n    tag_7:\n      tag_41\n      0x04\n      dup1\n      calldatasize\n      sub\n      dup2\n      add\n      swap1\n      tag_42\n      swap2\n      swap1\n      tag_43\n      jump\t// in\n    tag_42:\n      tag_44\n      jump\t// in\n    tag_41:\n      stop\n        /* \"myNFT.sol\":1207:1345  function setAppAll(address owner, address operator, bool approved) public {... */\n    tag_8:\n      tag_45\n      0x04\n      dup1\n      calldatasize\n      sub\n      dup2\n      add\n      swap1\n      tag_46\n      swap2\n      swap1\n      tag_47\n      jump\t// in\n    tag_46:\n      tag_48\n      jump\t// in\n    tag_45:\n      stop\n        /* \"node_modules/@openzeppelin/contracts/token/ERC721/ERC721.sol\":4787:4919  function safeTransferFrom(address from, address to, uint256 tokenId) public {... */\n    tag_9:\n      tag_49\n      0x04\n      dup1\n      calldatasize\n      sub\n      dup2\n      add\n      swap1\n      tag_50\n      swap2\n      swap1\n      tag_43\n      jump\t// in\n    tag_50:\n      tag_51\n      jump\t// in\n    tag_49:\n      stop\n        /* \"node_modules/@openzeppelin/contracts/token/ERC721/ERC721.sol\":2185:2303  function ownerOf(uint256 tokenId) public view virtual returns (address) {... */\n    tag_10:\n      tag_52\n      0x04\n      dup1\n      calldatasize\n      sub\n      dup2\n      add\n      swap1\n      tag_53\n      swap2\n      swap1\n      tag_33\n      jump\t// in\n    tag_53:\n      tag_54\n      jump\t// in\n    tag_52:\n      mload(0x40)\n      tag_55\n      swap2\n      swap1\n      tag_36\n      jump\t// in\n    tag_55:\n      mload(0x40)\n      dup1\n      swap2\n      sub\n      swap1\n      return\n        /* \"node_modules/@openzeppelin/contracts/token/ERC721/ERC721.sol\":1920:2128  function balanceOf(address owner) public view virtual returns (uint256) {... */\n    tag_11:\n      tag_56\n      0x04\n      dup1\n      calldatasize\n      sub\n      dup2\n      add\n      swap1\n      tag_57\n      swap2\n      swap1\n      tag_58\n      jump\t// in\n    tag_57:\n      tag_59\n      jump\t// in\n    tag_56:\n      mload(0x40)\n      tag_60\n      swap2\n      swap1\n      tag_61\n      jump\t// in\n    tag_60:\n      mload(0x40)\n      dup1\n      swap2\n      sub\n      swap1\n      return\n        /* \"node_modules/@openzeppelin/contracts/token/ERC721/ERC721.sol\":2518:2611  function symbol() public view virtual returns (string memory) {... */\n    tag_12:\n      tag_62\n      tag_63\n      jump\t// in\n    tag_62:\n      mload(0x40)\n      tag_64\n      swap2\n      swap1\n      tag_30\n      jump\t// in\n    tag_64:\n      mload(0x40)\n      dup1\n      swap2\n      sub\n      swap1\n      return\n        /* \"node_modules/@openzeppelin/contracts/token/ERC721/ERC721.sol\":3718:3862  function setApprovalForAll(address operator, bool approved) public virtual {... */\n    tag_13:\n      tag_65\n      0x04\n      dup1\n      calldatasize\n      sub\n      dup2\n      add\n      swap1\n      tag_66\n      swap2\n      swap1\n      tag_67\n      jump\t// in\n    tag_66:\n      tag_68\n      jump\t// in\n    tag_65:\n      stop\n        /* \"myNFT.sol\":424:787  function minting(string memory jsonHash, address sender) public returns (uint256) {... */\n    tag_14:\n      tag_69\n      0x04\n      dup1\n      calldatasize\n      sub\n      dup2\n      add\n      swap1\n      tag_70\n      swap2\n      swap1\n      tag_71\n      jump\t// in\n    tag_70:\n      tag_72\n      jump\t// in\n    tag_69:\n      mload(0x40)\n      tag_73\n      swap2\n      swap1\n      tag_61\n      jump\t// in\n    tag_73:\n      mload(0x40)\n      dup1\n      swap2\n      sub\n      swap1\n      return\n        /* \"node_modules/@openzeppelin/contracts/token/ERC721/ERC721.sol\":4985:5193  function safeTransferFrom(address from, address to, uint256 tokenId, bytes memory data) public virtual {... */\n    tag_15:\n      tag_74\n      0x04\n      dup1\n      calldatasize\n      sub\n      dup2\n      add\n      swap1\n      tag_75\n      swap2\n      swap1\n      tag_76\n      jump\t// in\n    tag_75:\n      tag_77\n      jump\t// in\n    tag_74:\n      stop\n        /* \"myNFT.sol\":795:998  function tokenURI(... */\n    tag_16:\n      tag_78\n      0x04\n      dup1\n      calldatasize\n      sub\n      dup2\n      add\n      swap1\n      tag_79\n      swap2\n      swap1\n      tag_33\n      jump\t// in\n    tag_79:\n      tag_80\n      jump\t// in\n    tag_78:\n      mload(0x40)\n      tag_81\n      swap2\n      swap1\n      tag_30\n      jump\t// in\n    tag_81:\n      mload(0x40)\n      dup1\n      swap2\n      sub\n      swap1\n      return\n        /* \"node_modules/@openzeppelin/contracts/token/ERC721/ERC721.sol\":3928:4081  function isApprovedForAll(address owner, address operator) public view virtual returns (bool) {... */\n    tag_17:\n      tag_82\n      0x04\n      dup1\n      calldatasize\n      sub\n      dup2\n      add\n      swap1\n      tag_83\n      swap2\n      swap1\n      tag_84\n      jump\t// in\n    tag_83:\n      tag_85\n      jump\t// in\n    tag_82:\n      mload(0x40)\n      tag_86\n      swap2\n      swap1\n      tag_26\n      jump\t// in\n    tag_86:\n      mload(0x40)\n      dup1\n      swap2\n      sub\n      swap1\n      return\n        /* \"node_modules/@openzeppelin/contracts/token/ERC721/ERC721.sol\":1561:1861  function supportsInterface(bytes4 interfaceId) public view virtual override(ERC165, IERC165) returns (bool) {... */\n    tag_24:\n        /* \"node_modules/@openzeppelin/contracts/token/ERC721/ERC721.sol\":1663:1667  bool */\n      0x00\n        /* \"node_modules/@openzeppelin/contracts/token/ERC721/ERC721.sol\":1713:1738  type(IERC721).interfaceId */\n      0x80ac58cd00000000000000000000000000000000000000000000000000000000\n        /* \"node_modules/@openzeppelin/contracts/token/ERC721/ERC721.sol\":1698:1738  interfaceId == type(IERC721).interfaceId */\n      not(0xffffffffffffffffffffffffffffffffffffffffffffffffffffffff)\n      and\n        /* \"node_modules/@openzeppelin/contracts/token/ERC721/ERC721.sol\":1698:1709  interfaceId */\n      dup3\n        /* \"node_modules/@openzeppelin/contracts/token/ERC721/ERC721.sol\":1698:1738  interfaceId == type(IERC721).interfaceId */\n      not(0xffffffffffffffffffffffffffffffffffffffffffffffffffffffff)\n      and\n      eq\n        /* \"node_modules/@openzeppelin/contracts/token/ERC721/ERC721.sol\":1698:1802  interfaceId == type(IERC721).interfaceId ||... */\n      dup1\n      tag_88\n      jumpi\n      pop\n        /* \"node_modules/@openzeppelin/contracts/token/ERC721/ERC721.sol\":1769:1802  type(IERC721Metadata).interfaceId */\n      0x5b5e139f00000000000000000000000000000000000000000000000000000000\n        /* \"node_modules/@openzeppelin/contracts/token/ERC721/ERC721.sol\":1754:1802  interfaceId == type(IERC721Metadata).interfaceId */\n      not(0xffffffffffffffffffffffffffffffffffffffffffffffffffffffff)\n      and\n        /* \"node_modules/@openzeppelin/contracts/token/ERC721/ERC721.sol\":1754:1765  interfaceId */\n      dup3\n        /* \"node_modules/@openzeppelin/contracts/token/ERC721/ERC721.sol\":1754:1802  interfaceId == type(IERC721Metadata).interfaceId */\n      not(0xffffffffffffffffffffffffffffffffffffffffffffffffffffffff)\n      and\n      eq\n        /* \"node_modules/@openzeppelin/contracts/token/ERC721/ERC721.sol\":1698:1802  interfaceId == type(IERC721).interfaceId ||... */\n    tag_88:\n        /* \"node_modules/@openzeppelin/contracts/token/ERC721/ERC721.sol\":1698:1854  interfaceId == type(IERC721).interfaceId ||... */\n      dup1\n      tag_89\n      jumpi\n      pop\n        /* \"node_modules/@openzeppelin/contracts/token/ERC721/ERC721.sol\":1818:1854  super.supportsInterface(interfaceId) */\n      tag_90\n        /* \"node_modules/@openzeppelin/contracts/token/ERC721/ERC721.sol\":1842:1853  interfaceId */\n      dup3\n        /* \"node_modules/@openzeppelin/contracts/token/ERC721/ERC721.sol\":1818:1841  super.supportsInterface */\n      tag_91\n        /* \"node_modules/@openzeppelin/contracts/token/ERC721/ERC721.sol\":1818:1854  super.supportsInterface(interfaceId) */\n      jump\t// in\n    tag_90:\n        /* \"node_modules/@openzeppelin/contracts/token/ERC721/ERC721.sol\":1698:1854  interfaceId == type(IERC721).interfaceId ||... */\n    tag_89:\n        /* \"node_modules/@openzeppelin/contracts/token/ERC721/ERC721.sol\":1679:1854  return... */\n      swap1\n      pop\n        /* \"node_modules/@openzeppelin/contracts/token/ERC721/ERC721.sol\":1561:1861  function supportsInterface(bytes4 interfaceId) public view virtual override(ERC165, IERC165) returns (bool) {... */\n      swap2\n      swap1\n      pop\n      jump\t// out\n        /* \"node_modules/@openzeppelin/contracts/token/ERC721/ERC721.sol\":2365:2454  function name() public view virtual returns (string memory) {... */\n    tag_28:\n        /* \"node_modules/@openzeppelin/contracts/token/ERC721/ERC721.sol\":2410:2423  string memory */\n      0x60\n        /* \"node_modules/@openzeppelin/contracts/token/ERC721/ERC721.sol\":2442:2447  _name */\n      0x00\n        /* \"node_modules/@openzeppelin/contracts/token/ERC721/ERC721.sol\":2435:2447  return _name */\n      dup1\n      sload\n      tag_93\n      swap1\n      tag_94\n      jump\t// in\n    tag_93:\n      dup1\n      0x1f\n      add\n      0x20\n      dup1\n      swap2\n      div\n      mul\n      0x20\n      add\n      mload(0x40)\n      swap1\n      dup2\n      add\n      0x40\n      mstore\n      dup1\n      swap3\n      swap2\n      swap1\n      dup2\n      dup2\n      mstore\n      0x20\n      add\n      dup3\n      dup1\n      sload\n      tag_95\n      swap1\n      tag_94\n      jump\t// in\n    tag_95:\n      dup1\n      iszero\n      tag_96\n      jumpi\n      dup1\n      0x1f\n      lt\n      tag_97\n      jumpi\n      0x0100\n      dup1\n      dup4\n      sload\n      div\n      mul\n      dup4\n      mstore\n      swap2\n      0x20\n      add\n      swap2\n      jump(tag_96)\n    tag_97:\n      dup3\n      add\n      swap2\n      swap1\n      0x00\n      mstore\n      keccak256(0x00, 0x20)\n      swap1\n    tag_98:\n      dup2\n      sload\n      dup2\n      mstore\n      swap1\n      0x01\n      add\n      swap1\n      0x20\n      add\n      dup1\n      dup4\n      gt\n      tag_98\n      jumpi\n      dup3\n      swap1\n      sub\n      0x1f\n      and\n      dup3\n      add\n      swap2\n    tag_96:\n      pop\n      pop\n      pop\n      pop\n      pop\n      swap1\n      pop\n        /* \"node_modules/@openzeppelin/contracts/token/ERC721/ERC721.sol\":2365:2454  function name() public view virtual returns (string memory) {... */\n      swap1\n      jump\t// out\n        /* \"node_modules/@openzeppelin/contracts/token/ERC721/ERC721.sol\":3497:3651  function getApproved(uint256 tokenId) public view virtual returns (address) {... */\n    tag_34:\n        /* \"node_modules/@openzeppelin/contracts/token/ERC721/ERC721.sol\":3564:3571  address */\n      0x00\n        /* \"node_modules/@openzeppelin/contracts/token/ERC721/ERC721.sol\":3583:3605  _requireOwned(tokenId) */\n      tag_100\n        /* \"node_modules/@openzeppelin/contracts/token/ERC721/ERC721.sol\":3597:3604  tokenId */\n      dup3\n        /* \"node_modules/@openzeppelin/contracts/token/ERC721/ERC721.sol\":3583:3596  _requireOwned */\n      tag_101\n        /* \"node_modules/@openzeppelin/contracts/token/ERC721/ERC721.sol\":3583:3605  _requireOwned(tokenId) */\n      jump\t// in\n    tag_100:\n      pop\n        /* \"node_modules/@openzeppelin/contracts/token/ERC721/ERC721.sol\":3623:3644  _getApproved(tokenId) */\n      tag_102\n        /* \"node_modules/@openzeppelin/contracts/token/ERC721/ERC721.sol\":3636:3643  tokenId */\n      dup3\n        /* \"node_modules/@openzeppelin/contracts/token/ERC721/ERC721.sol\":3623:3635  _getApproved */\n      tag_103\n        /* \"node_modules/@openzeppelin/contracts/token/ERC721/ERC721.sol\":3623:3644  _getApproved(tokenId) */\n      jump\t// in\n    tag_102:\n        /* \"node_modules/@openzeppelin/contracts/token/ERC721/ERC721.sol\":3616:3644  return _getApproved(tokenId) */\n      swap1\n      pop\n        /* \"node_modules/@openzeppelin/contracts/token/ERC721/ERC721.sol\":3497:3651  function getApproved(uint256 tokenId) public view virtual returns (address) {... */\n      swap2\n      swap1\n      pop\n      jump\t// out\n        /* \"node_modules/@openzeppelin/contracts/token/ERC721/ERC721.sol\":3323:3436  function approve(address to, uint256 tokenId) public virtual {... */\n    tag_40:\n        /* \"node_modules/@openzeppelin/contracts/token/ERC721/ERC721.sol\":3394:3429  _approve(to, tokenId, _msgSender()) */\n      tag_105\n        /* \"node_modules/@openzeppelin/contracts/token/ERC721/ERC721.sol\":3403:3405  to */\n      dup3\n        /* \"node_modules/@openzeppelin/contracts/token/ERC721/ERC721.sol\":3407:3414  tokenId */\n      dup3\n        /* \"node_modules/@openzeppelin/contracts/token/ERC721/ERC721.sol\":3416:3428  _msgSender() */\n      tag_106\n        /* \"node_modules/@openzeppelin/contracts/token/ERC721/ERC721.sol\":3416:3426  _msgSender */\n      tag_107\n        /* \"node_modules/@openzeppelin/contracts/token/ERC721/ERC721.sol\":3416:3428  _msgSender() */\n      jump\t// in\n    tag_106:\n        /* \"node_modules/@openzeppelin/contracts/token/ERC721/ERC721.sol\":3394:3402  _approve */\n      tag_108\n        /* \"node_modules/@openzeppelin/contracts/token/ERC721/ERC721.sol\":3394:3429  _approve(to, tokenId, _msgSender()) */\n      jump\t// in\n    tag_105:\n        /* \"node_modules/@openzeppelin/contracts/token/ERC721/ERC721.sol\":3323:3436  function approve(address to, uint256 tokenId) public virtual {... */\n      pop\n      pop\n      jump\t// out\n        /* \"node_modules/@openzeppelin/contracts/token/ERC721/ERC721.sol\":4143:4721  function transferFrom(address from, address to, uint256 tokenId) public virtual {... */\n    tag_44:\n        /* \"node_modules/@openzeppelin/contracts/token/ERC721/ERC721.sol\":4251:4252  0 */\n      0x00\n        /* \"node_modules/@openzeppelin/contracts/token/ERC721/ERC721.sol\":4237:4253  to == address(0) */\n      0xffffffffffffffffffffffffffffffffffffffff\n      and\n        /* \"node_modules/@openzeppelin/contracts/token/ERC721/ERC721.sol\":4237:4239  to */\n      dup3\n        /* \"node_modules/@openzeppelin/contracts/token/ERC721/ERC721.sol\":4237:4253  to == address(0) */\n      0xffffffffffffffffffffffffffffffffffffffff\n      and\n      sub\n        /* \"node_modules/@openzeppelin/contracts/token/ERC721/ERC721.sol\":4233:4320  if (to == address(0)) {... */\n      tag_110\n      jumpi\n        /* \"node_modules/@openzeppelin/contracts/token/ERC721/ERC721.sol\":4306:4307  0 */\n      0x00\n        /* \"node_modules/@openzeppelin/contracts/token/ERC721/ERC721.sol\":4276:4309  ERC721InvalidReceiver(address(0)) */\n      mload(0x40)\n      0x64a0ae9200000000000000000000000000000000000000000000000000000000\n      dup2\n      mstore\n      0x04\n      add\n      tag_111\n      swap2\n      swap1\n      tag_36\n      jump\t// in\n    tag_111:\n      mload(0x40)\n      dup1\n      swap2\n      sub\n      swap1\n      revert\n        /* \"node_modules/@openzeppelin/contracts/token/ERC721/ERC721.sol\":4233:4320  if (to == address(0)) {... */\n    tag_110:\n        /* \"node_modules/@openzeppelin/contracts/token/ERC721/ERC721.sol\":4538:4559  address previousOwner */\n      0x00\n        /* \"node_modules/@openzeppelin/contracts/token/ERC721/ERC721.sol\":4562:4596  _update(to, tokenId, _msgSender()) */\n      tag_112\n        /* \"node_modules/@openzeppelin/contracts/token/ERC721/ERC721.sol\":4570:4572  to */\n      dup4\n        /* \"node_modules/@openzeppelin/contracts/token/ERC721/ERC721.sol\":4574:4581  tokenId */\n      dup4\n        /* \"node_modules/@openzeppelin/contracts/token/ERC721/ERC721.sol\":4583:4595  _msgSender() */\n      tag_113\n        /* \"node_modules/@openzeppelin/contracts/token/ERC721/ERC721.sol\":4583:4593  _msgSender */\n      tag_107\n        /* \"node_modules/@openzeppelin/contracts/token/ERC721/ERC721.sol\":4583:4595  _msgSender() */\n      jump\t// in\n    tag_113:\n        /* \"node_modules/@openzeppelin/contracts/token/ERC721/ERC721.sol\":4562:4569  _update */\n      tag_114\n        /* \"node_modules/@openzeppelin/contracts/token/ERC721/ERC721.sol\":4562:4596  _update(to, tokenId, _msgSender()) */\n      jump\t// in\n    tag_112:\n        /* \"node_modules/@openzeppelin/contracts/token/ERC721/ERC721.sol\":4538:4596  address previousOwner = _update(to, tokenId, _msgSender()) */\n      swap1\n      pop\n        /* \"node_modules/@openzeppelin/contracts/token/ERC721/ERC721.sol\":4627:4631  from */\n      dup4\n        /* \"node_modules/@openzeppelin/contracts/token/ERC721/ERC721.sol\":4610:4631  previousOwner != from */\n      0xffffffffffffffffffffffffffffffffffffffff\n      and\n        /* \"node_modules/@openzeppelin/contracts/token/ERC721/ERC721.sol\":4610:4623  previousOwner */\n      dup2\n        /* \"node_modules/@openzeppelin/contracts/token/ERC721/ERC721.sol\":4610:4631  previousOwner != from */\n      0xffffffffffffffffffffffffffffffffffffffff\n      and\n      eq\n        /* \"node_modules/@openzeppelin/contracts/token/ERC721/ERC721.sol\":4606:4715  if (previousOwner != from) {... */\n      tag_115\n      jumpi\n        /* \"node_modules/@openzeppelin/contracts/token/ERC721/ERC721.sol\":4675:4679  from */\n      dup4\n        /* \"node_modules/@openzeppelin/contracts/token/ERC721/ERC721.sol\":4681:4688  tokenId */\n      dup3\n        /* \"node_modules/@openzeppelin/contracts/token/ERC721/ERC721.sol\":4690:4703  previousOwner */\n      dup3\n        /* \"node_modules/@openzeppelin/contracts/token/ERC721/ERC721.sol\":4654:4704  ERC721IncorrectOwner(from, tokenId, previousOwner) */\n      mload(0x40)\n      0x64283d7b00000000000000000000000000000000000000000000000000000000\n      dup2\n      mstore\n      0x04\n      add\n      tag_116\n      swap4\n      swap3\n      swap2\n      swap1\n      tag_117\n      jump\t// in\n    tag_116:\n      mload(0x40)\n      dup1\n      swap2\n      sub\n      swap1\n      revert\n        /* \"node_modules/@openzeppelin/contracts/token/ERC721/ERC721.sol\":4606:4715  if (previousOwner != from) {... */\n    tag_115:\n        /* \"node_modules/@openzeppelin/contracts/token/ERC721/ERC721.sol\":4223:4721  {... */\n      pop\n        /* \"node_modules/@openzeppelin/contracts/token/ERC721/ERC721.sol\":4143:4721  function transferFrom(address from, address to, uint256 tokenId) public virtual {... */\n      pop\n      pop\n      pop\n      jump\t// out\n        /* \"myNFT.sol\":1207:1345  function setAppAll(address owner, address operator, bool approved) public {... */\n    tag_48:\n        /* \"myNFT.sol\":1292:1337  _setApprovalForAll(owner, operator, approved) */\n      tag_119\n        /* \"myNFT.sol\":1311:1316  owner */\n      dup4\n        /* \"myNFT.sol\":1318:1326  operator */\n      dup4\n        /* \"myNFT.sol\":1328:1336  approved */\n      dup4\n        /* \"myNFT.sol\":1292:1310  _setApprovalForAll */\n      tag_120\n        /* \"myNFT.sol\":1292:1337  _setApprovalForAll(owner, operator, approved) */\n      jump\t// in\n    tag_119:\n        /* \"myNFT.sol\":1207:1345  function setAppAll(address owner, address operator, bool approved) public {... */\n      pop\n      pop\n      pop\n      jump\t// out\n        /* \"node_modules/@openzeppelin/contracts/token/ERC721/ERC721.sol\":4787:4919  function safeTransferFrom(address from, address to, uint256 tokenId) public {... */\n    tag_51:\n        /* \"node_modules/@openzeppelin/contracts/token/ERC721/ERC721.sol\":4873:4912  safeTransferFrom(from, to, tokenId, \"\") */\n      tag_122\n        /* \"node_modules/@openzeppelin/contracts/token/ERC721/ERC721.sol\":4890:4894  from */\n      dup4\n        /* \"node_modules/@openzeppelin/contracts/token/ERC721/ERC721.sol\":4896:4898  to */\n      dup4\n        /* \"node_modules/@openzeppelin/contracts/token/ERC721/ERC721.sol\":4900:4907  tokenId */\n      dup4\n        /* \"node_modules/@openzeppelin/contracts/token/ERC721/ERC721.sol\":4873:4912  safeTransferFrom(from, to, tokenId, \"\") */\n      mload(0x40)\n      dup1\n      0x20\n      add\n      0x40\n      mstore\n      dup1\n      0x00\n      dup2\n      mstore\n      pop\n        /* \"node_modules/@openzeppelin/contracts/token/ERC721/ERC721.sol\":4873:4889  safeTransferFrom */\n      tag_77\n        /* \"node_modules/@openzeppelin/contracts/token/ERC721/ERC721.sol\":4873:4912  safeTransferFrom(from, to, tokenId, \"\") */\n      jump\t// in\n    tag_122:\n        /* \"node_modules/@openzeppelin/contracts/token/ERC721/ERC721.sol\":4787:4919  function safeTransferFrom(address from, address to, uint256 tokenId) public {... */\n      pop\n      pop\n      pop\n      jump\t// out\n        /* \"node_modules/@openzeppelin/contracts/token/ERC721/ERC721.sol\":2185:2303  function ownerOf(uint256 tokenId) public view virtual returns (address) {... */\n    tag_54:\n        /* \"node_modules/@openzeppelin/contracts/token/ERC721/ERC721.sol\":2248:2255  address */\n      0x00\n        /* \"node_modules/@openzeppelin/contracts/token/ERC721/ERC721.sol\":2274:2296  _requireOwned(tokenId) */\n      tag_124\n        /* \"node_modules/@openzeppelin/contracts/token/ERC721/ERC721.sol\":2288:2295  tokenId */\n      dup3\n        /* \"node_modules/@openzeppelin/contracts/token/ERC721/ERC721.sol\":2274:2287  _requireOwned */\n      tag_101\n        /* \"node_modules/@openzeppelin/contracts/token/ERC721/ERC721.sol\":2274:2296  _requireOwned(tokenId) */\n      jump\t// in\n    tag_124:\n        /* \"node_modules/@openzeppelin/contracts/token/ERC721/ERC721.sol\":2267:2296  return _requireOwned(tokenId) */\n      swap1\n      pop\n        /* \"node_modules/@openzeppelin/contracts/token/ERC721/ERC721.sol\":2185:2303  function ownerOf(uint256 tokenId) public view virtual returns (address) {... */\n      swap2\n      swap1\n      pop\n      jump\t// out\n        /* \"node_modules/@openzeppelin/contracts/token/ERC721/ERC721.sol\":1920:2128  function balanceOf(address owner) public view virtual returns (uint256) {... */\n    tag_59:\n        /* \"node_modules/@openzeppelin/contracts/token/ERC721/ERC721.sol\":1983:1990  uint256 */\n      0x00\n        /* \"node_modules/@openzeppelin/contracts/token/ERC721/ERC721.sol\":2023:2024  0 */\n      dup1\n        /* \"node_modules/@openzeppelin/contracts/token/ERC721/ERC721.sol\":2006:2025  owner == address(0) */\n      0xffffffffffffffffffffffffffffffffffffffff\n      and\n        /* \"node_modules/@openzeppelin/contracts/token/ERC721/ERC721.sol\":2006:2011  owner */\n      dup3\n        /* \"node_modules/@openzeppelin/contracts/token/ERC721/ERC721.sol\":2006:2025  owner == address(0) */\n      0xffffffffffffffffffffffffffffffffffffffff\n      and\n      sub\n        /* \"node_modules/@openzeppelin/contracts/token/ERC721/ERC721.sol\":2002:2089  if (owner == address(0)) {... */\n      tag_126\n      jumpi\n        /* \"node_modules/@openzeppelin/contracts/token/ERC721/ERC721.sol\":2075:2076  0 */\n      0x00\n        /* \"node_modules/@openzeppelin/contracts/token/ERC721/ERC721.sol\":2048:2078  ERC721InvalidOwner(address(0)) */\n      mload(0x40)\n      0x89c62b6400000000000000000000000000000000000000000000000000000000\n      dup2\n      mstore\n      0x04\n      add\n      tag_127\n      swap2\n      swap1\n      tag_36\n      jump\t// in\n    tag_127:\n      mload(0x40)\n      dup1\n      swap2\n      sub\n      swap1\n      revert\n        /* \"node_modules/@openzeppelin/contracts/token/ERC721/ERC721.sol\":2002:2089  if (owner == address(0)) {... */\n    tag_126:\n        /* \"node_modules/@openzeppelin/contracts/token/ERC721/ERC721.sol\":2105:2114  _balances */\n      0x03\n        /* \"node_modules/@openzeppelin/contracts/token/ERC721/ERC721.sol\":2105:2121  _balances[owner] */\n      0x00\n        /* \"node_modules/@openzeppelin/contracts/token/ERC721/ERC721.sol\":2115:2120  owner */\n      dup4\n        /* \"node_modules/@openzeppelin/contracts/token/ERC721/ERC721.sol\":2105:2121  _balances[owner] */\n      0xffffffffffffffffffffffffffffffffffffffff\n      and\n      0xffffffffffffffffffffffffffffffffffffffff\n      and\n      dup2\n      mstore\n      0x20\n      add\n      swap1\n      dup2\n      mstore\n      0x20\n      add\n      0x00\n      keccak256\n      sload\n        /* \"node_modules/@openzeppelin/contracts/token/ERC721/ERC721.sol\":2098:2121  return _balances[owner] */\n      swap1\n      pop\n        /* \"node_modules/@openzeppelin/contracts/token/ERC721/ERC721.sol\":1920:2128  function balanceOf(address owner) public view virtual returns (uint256) {... */\n      swap2\n      swap1\n      pop\n      jump\t// out\n        /* \"node_modules/@openzeppelin/contracts/token/ERC721/ERC721.sol\":2518:2611  function symbol() public view virtual returns (string memory) {... */\n    tag_63:\n        /* \"node_modules/@openzeppelin/contracts/token/ERC721/ERC721.sol\":2565:2578  string memory */\n      0x60\n        /* \"node_modules/@openzeppelin/contracts/token/ERC721/ERC721.sol\":2597:2604  _symbol */\n      0x01\n        /* \"node_modules/@openzeppelin/contracts/token/ERC721/ERC721.sol\":2590:2604  return _symbol */\n      dup1\n      sload\n      tag_129\n      swap1\n      tag_94\n      jump\t// in\n    tag_129:\n      dup1\n      0x1f\n      add\n      0x20\n      dup1\n      swap2\n      div\n      mul\n      0x20\n      add\n      mload(0x40)\n      swap1\n      dup2\n      add\n      0x40\n      mstore\n      dup1\n      swap3\n      swap2\n      swap1\n      dup2\n      dup2\n      mstore\n      0x20\n      add\n      dup3\n      dup1\n      sload\n      tag_130\n      swap1\n      tag_94\n      jump\t// in\n    tag_130:\n      dup1\n      iszero\n      tag_131\n      jumpi\n      dup1\n      0x1f\n      lt\n      tag_132\n      jumpi\n      0x0100\n      dup1\n      dup4\n      sload\n      div\n      mul\n      dup4\n      mstore\n      swap2\n      0x20\n      add\n      swap2\n      jump(tag_131)\n    tag_132:\n      dup3\n      add\n      swap2\n      swap1\n      0x00\n      mstore\n      keccak256(0x00, 0x20)\n      swap1\n    tag_133:\n      dup2\n      sload\n      dup2\n      mstore\n      swap1\n      0x01\n      add\n      swap1\n      0x20\n      add\n      dup1\n      dup4\n      gt\n      tag_133\n      jumpi\n      dup3\n      swap1\n      sub\n      0x1f\n      and\n      dup3\n      add\n      swap2\n    tag_131:\n      pop\n      pop\n      pop\n      pop\n      pop\n      swap1\n      pop\n        /* \"node_modules/@openzeppelin/contracts/token/ERC721/ERC721.sol\":2518:2611  function symbol() public view virtual returns (string memory) {... */\n      swap1\n      jump\t// out\n        /* \"node_modules/@openzeppelin/contracts/token/ERC721/ERC721.sol\":3718:3862  function setApprovalForAll(address operator, bool approved) public virtual {... */\n    tag_68:\n        /* \"node_modules/@openzeppelin/contracts/token/ERC721/ERC721.sol\":3803:3855  _setApprovalForAll(_msgSender(), operator, approved) */\n      tag_135\n        /* \"node_modules/@openzeppelin/contracts/token/ERC721/ERC721.sol\":3822:3834  _msgSender() */\n      tag_136\n        /* \"node_modules/@openzeppelin/contracts/token/ERC721/ERC721.sol\":3822:3832  _msgSender */\n      tag_107\n        /* \"node_modules/@openzeppelin/contracts/token/ERC721/ERC721.sol\":3822:3834  _msgSender() */\n      jump\t// in\n    tag_136:\n        /* \"node_modules/@openzeppelin/contracts/token/ERC721/ERC721.sol\":3836:3844  operator */\n      dup4\n        /* \"node_modules/@openzeppelin/contracts/token/ERC721/ERC721.sol\":3846:3854  approved */\n      dup4\n        /* \"node_modules/@openzeppelin/contracts/token/ERC721/ERC721.sol\":3803:3821  _setApprovalForAll */\n      tag_120\n        /* \"node_modules/@openzeppelin/contracts/token/ERC721/ERC721.sol\":3803:3855  _setApprovalForAll(_msgSender(), operator, approved) */\n      jump\t// in\n    tag_135:\n        /* \"node_modules/@openzeppelin/contracts/token/ERC721/ERC721.sol\":3718:3862  function setApprovalForAll(address operator, bool approved) public virtual {... */\n      pop\n      pop\n      jump\t// out\n        /* \"myNFT.sol\":424:787  function minting(string memory jsonHash, address sender) public returns (uint256) {... */\n    tag_72:\n        /* \"myNFT.sol\":497:504  uint256 */\n      0x00\n        /* \"myNFT.sol\":535:543  jsonHash */\n      dup3\n        /* \"myNFT.sol\":517:523  tokens */\n      0x07\n        /* \"myNFT.sol\":517:532  tokens[tokenId] */\n      0x00\n        /* \"myNFT.sol\":524:531  tokenId */\n      sload(0x06)\n        /* \"myNFT.sol\":517:532  tokens[tokenId] */\n      dup2\n      mstore\n      0x20\n      add\n      swap1\n      dup2\n      mstore\n      0x20\n      add\n      0x00\n      keccak256\n        /* \"myNFT.sol\":517:543  tokens[tokenId] = jsonHash */\n      swap1\n      dup2\n      tag_138\n      swap2\n      swap1\n      tag_139\n      jump\t// in\n    tag_138:\n      pop\n        /* \"myNFT.sol\":705:727  _mint(sender, tokenId) */\n      tag_140\n        /* \"myNFT.sol\":711:717  sender */\n      dup3\n        /* \"myNFT.sol\":719:726  tokenId */\n      sload(0x06)\n        /* \"myNFT.sol\":705:710  _mint */\n      tag_141\n        /* \"myNFT.sol\":705:727  _mint(sender, tokenId) */\n      jump\t// in\n    tag_140:\n        /* \"myNFT.sol\":749:750  1 */\n      0x01\n        /* \"myNFT.sol\":738:745  tokenId */\n      0x06\n      0x00\n        /* \"myNFT.sol\":738:750  tokenId += 1 */\n      dup3\n      dup3\n      sload\n      tag_142\n      swap2\n      swap1\n      tag_143\n      jump\t// in\n    tag_142:\n      swap3\n      pop\n      pop\n      dup2\n      swap1\n      sstore\n      pop\n        /* \"myNFT.sol\":778:779  1 */\n      0x01\n        /* \"myNFT.sol\":768:775  tokenId */\n      sload(0x06)\n        /* \"myNFT.sol\":768:779  tokenId - 1 */\n      tag_144\n      swap2\n      swap1\n      tag_145\n      jump\t// in\n    tag_144:\n        /* \"myNFT.sol\":761:779  return tokenId - 1 */\n      swap1\n      pop\n        /* \"myNFT.sol\":424:787  function minting(string memory jsonHash, address sender) public returns (uint256) {... */\n      swap3\n      swap2\n      pop\n      pop\n      jump\t// out\n        /* \"node_modules/@openzeppelin/contracts/token/ERC721/ERC721.sol\":4985:5193  function safeTransferFrom(address from, address to, uint256 tokenId, bytes memory data) public virtual {... */\n    tag_77:\n        /* \"node_modules/@openzeppelin/contracts/token/ERC721/ERC721.sol\":5098:5129  transferFrom(from, to, tokenId) */\n      tag_147\n        /* \"node_modules/@openzeppelin/contracts/token/ERC721/ERC721.sol\":5111:5115  from */\n      dup5\n        /* \"node_modules/@openzeppelin/contracts/token/ERC721/ERC721.sol\":5117:5119  to */\n      dup5\n        /* \"node_modules/@openzeppelin/contracts/token/ERC721/ERC721.sol\":5121:5128  tokenId */\n      dup5\n        /* \"node_modules/@openzeppelin/contracts/token/ERC721/ERC721.sol\":5098:5110  transferFrom */\n      tag_44\n        /* \"node_modules/@openzeppelin/contracts/token/ERC721/ERC721.sol\":5098:5129  transferFrom(from, to, tokenId) */\n      jump\t// in\n    tag_147:\n        /* \"node_modules/@openzeppelin/contracts/token/ERC721/ERC721.sol\":5139:5186  _checkOnERC721Received(from, to, tokenId, data) */\n      tag_148\n        /* \"node_modules/@openzeppelin/contracts/token/ERC721/ERC721.sol\":5162:5166  from */\n      dup5\n        /* \"node_modules/@openzeppelin/contracts/token/ERC721/ERC721.sol\":5168:5170  to */\n      dup5\n        /* \"node_modules/@openzeppelin/contracts/token/ERC721/ERC721.sol\":5172:5179  tokenId */\n      dup5\n        /* \"node_modules/@openzeppelin/contracts/token/ERC721/ERC721.sol\":5181:5185  data */\n      dup5\n        /* \"node_modules/@openzeppelin/contracts/token/ERC721/ERC721.sol\":5139:5161  _checkOnERC721Received */\n      tag_149\n        /* \"node_modules/@openzeppelin/contracts/token/ERC721/ERC721.sol\":5139:5186  _checkOnERC721Received(from, to, tokenId, data) */\n      jump\t// in\n    tag_148:\n        /* \"node_modules/@openzeppelin/contracts/token/ERC721/ERC721.sol\":4985:5193  function safeTransferFrom(address from, address to, uint256 tokenId, bytes memory data) public virtual {... */\n      pop\n      pop\n      pop\n      pop\n      jump\t// out\n        /* \"myNFT.sol\":795:998  function tokenURI(... */\n    tag_80:\n        /* \"myNFT.sol\":877:890  string memory */\n      0x60\n        /* \"myNFT.sol\":924:934  _baseURI() */\n      tag_151\n        /* \"myNFT.sol\":924:932  _baseURI */\n      tag_152\n        /* \"myNFT.sol\":924:934  _baseURI() */\n      jump\t// in\n    tag_151:\n        /* \"myNFT.sol\":936:942  tokens */\n      0x07\n        /* \"myNFT.sol\":936:952  tokens[_tokenId] */\n      0x00\n        /* \"myNFT.sol\":943:951  _tokenId */\n      dup5\n        /* \"myNFT.sol\":936:952  tokens[_tokenId] */\n      dup2\n      mstore\n      0x20\n      add\n      swap1\n      dup2\n      mstore\n      0x20\n      add\n      0x00\n      keccak256\n        /* \"myNFT.sol\":910:953  string.concat(_baseURI(), tokens[_tokenId]) */\n      add(0x20, mload(0x40))\n      tag_153\n      swap3\n      swap2\n      swap1\n      tag_154\n      jump\t// in\n    tag_153:\n      mload(0x40)\n      0x20\n      dup2\n      dup4\n      sub\n      sub\n      dup2\n      mstore\n      swap1\n      0x40\n      mstore\n        /* \"myNFT.sol\":903:953  return string.concat(_baseURI(), tokens[_tokenId]) */\n      swap1\n      pop\n        /* \"myNFT.sol\":795:998  function tokenURI(... */\n      swap2\n      swap1\n      pop\n      jump\t// out\n        /* \"node_modules/@openzeppelin/contracts/token/ERC721/ERC721.sol\":3928:4081  function isApprovedForAll(address owner, address operator) public view virtual returns (bool) {... */\n    tag_85:\n        /* \"node_modules/@openzeppelin/contracts/token/ERC721/ERC721.sol\":4016:4020  bool */\n      0x00\n        /* \"node_modules/@openzeppelin/contracts/token/ERC721/ERC721.sol\":4039:4057  _operatorApprovals */\n      0x05\n        /* \"node_modules/@openzeppelin/contracts/token/ERC721/ERC721.sol\":4039:4064  _operatorApprovals[owner] */\n      0x00\n        /* \"node_modules/@openzeppelin/contracts/token/ERC721/ERC721.sol\":4058:4063  owner */\n      dup5\n        /* \"node_modules/@openzeppelin/contracts/token/ERC721/ERC721.sol\":4039:4064  _operatorApprovals[owner] */\n      0xffffffffffffffffffffffffffffffffffffffff\n      and\n      0xffffffffffffffffffffffffffffffffffffffff\n      and\n      dup2\n      mstore\n      0x20\n      add\n      swap1\n      dup2\n      mstore\n      0x20\n      add\n      0x00\n      keccak256\n        /* \"node_modules/@openzeppelin/contracts/token/ERC721/ERC721.sol\":4039:4074  _operatorApprovals[owner][operator] */\n      0x00\n        /* \"node_modules/@openzeppelin/contracts/token/ERC721/ERC721.sol\":4065:4073  operator */\n      dup4\n        /* \"node_modules/@openzeppelin/contracts/token/ERC721/ERC721.sol\":4039:4074  _operatorApprovals[owner][operator] */\n      0xffffffffffffffffffffffffffffffffffffffff\n      and\n      0xffffffffffffffffffffffffffffffffffffffff\n      and\n      dup2\n      mstore\n      0x20\n      add\n      swap1\n      dup2\n      mstore\n      0x20\n      add\n      0x00\n      keccak256\n      0x00\n      swap1\n      sload\n      swap1\n      0x0100\n      exp\n      swap1\n      div\n      0xff\n      and\n        /* \"node_modules/@openzeppelin/contracts/token/ERC721/ERC721.sol\":4032:4074  return _operatorApprovals[owner][operator] */\n      swap1\n      pop\n        /* \"node_modules/@openzeppelin/contracts/token/ERC721/ERC721.sol\":3928:4081  function isApprovedForAll(address owner, address operator) public view virtual returns (bool) {... */\n      swap3\n      swap2\n      pop\n      pop\n      jump\t// out\n        /* \"node_modules/@openzeppelin/contracts/utils/introspection/ERC165.sol\":762:908  function supportsInterface(bytes4 interfaceId) public view virtual returns (bool) {... */\n    tag_91:\n        /* \"node_modules/@openzeppelin/contracts/utils/introspection/ERC165.sol\":838:842  bool */\n      0x00\n        /* \"node_modules/@openzeppelin/contracts/utils/introspection/ERC165.sol\":876:901  type(IERC165).interfaceId */\n      0x01ffc9a700000000000000000000000000000000000000000000000000000000\n        /* \"node_modules/@openzeppelin/contracts/utils/introspection/ERC165.sol\":861:901  interfaceId == type(IERC165).interfaceId */\n      not(0xffffffffffffffffffffffffffffffffffffffffffffffffffffffff)\n      and\n        /* \"node_modules/@openzeppelin/contracts/utils/introspection/ERC165.sol\":861:872  interfaceId */\n      dup3\n        /* \"node_modules/@openzeppelin/contracts/utils/introspection/ERC165.sol\":861:901  interfaceId == type(IERC165).interfaceId */\n      not(0xffffffffffffffffffffffffffffffffffffffffffffffffffffffff)\n      and\n      eq\n        /* \"node_modules/@openzeppelin/contracts/utils/introspection/ERC165.sol\":854:901  return interfaceId == type(IERC165).interfaceId */\n      swap1\n      pop\n        /* \"node_modules/@openzeppelin/contracts/utils/introspection/ERC165.sol\":762:908  function supportsInterface(bytes4 interfaceId) public view virtual returns (bool) {... */\n      swap2\n      swap1\n      pop\n      jump\t// out\n        /* \"node_modules/@openzeppelin/contracts/token/ERC721/ERC721.sol\":16138:16379  function _requireOwned(uint256 tokenId) internal view returns (address) {... */\n    tag_101:\n        /* \"node_modules/@openzeppelin/contracts/token/ERC721/ERC721.sol\":16201:16208  address */\n      0x00\n        /* \"node_modules/@openzeppelin/contracts/token/ERC721/ERC721.sol\":16220:16233  address owner */\n      dup1\n        /* \"node_modules/@openzeppelin/contracts/token/ERC721/ERC721.sol\":16236:16253  _ownerOf(tokenId) */\n      tag_158\n        /* \"node_modules/@openzeppelin/contracts/token/ERC721/ERC721.sol\":16245:16252  tokenId */\n      dup4\n        /* \"node_modules/@openzeppelin/contracts/token/ERC721/ERC721.sol\":16236:16244  _ownerOf */\n      tag_159\n        /* \"node_modules/@openzeppelin/contracts/token/ERC721/ERC721.sol\":16236:16253  _ownerOf(tokenId) */\n      jump\t// in\n    tag_158:\n        /* \"node_modules/@openzeppelin/contracts/token/ERC721/ERC721.sol\":16220:16253  address owner = _ownerOf(tokenId) */\n      swap1\n      pop\n        /* \"node_modules/@openzeppelin/contracts/token/ERC721/ERC721.sol\":16284:16285  0 */\n      0x00\n        /* \"node_modules/@openzeppelin/contracts/token/ERC721/ERC721.sol\":16267:16286  owner == address(0) */\n      0xffffffffffffffffffffffffffffffffffffffff\n      and\n        /* \"node_modules/@openzeppelin/contracts/token/ERC721/ERC721.sol\":16267:16272  owner */\n      dup2\n        /* \"node_modules/@openzeppelin/contracts/token/ERC721/ERC721.sol\":16267:16286  owner == address(0) */\n      0xffffffffffffffffffffffffffffffffffffffff\n      and\n      sub\n        /* \"node_modules/@openzeppelin/contracts/token/ERC721/ERC721.sol\":16263:16351  if (owner == address(0)) {... */\n      tag_160\n      jumpi\n        /* \"node_modules/@openzeppelin/contracts/token/ERC721/ERC721.sol\":16332:16339  tokenId */\n      dup3\n        /* \"node_modules/@openzeppelin/contracts/token/ERC721/ERC721.sol\":16309:16340  ERC721NonexistentToken(tokenId) */\n      mload(0x40)\n      0x7e27328900000000000000000000000000000000000000000000000000000000\n      dup2\n      mstore\n      0x04\n      add\n      tag_161\n      swap2\n      swap1\n      tag_61\n      jump\t// in\n    tag_161:\n      mload(0x40)\n      dup1\n      swap2\n      sub\n      swap1\n      revert\n        /* \"node_modules/@openzeppelin/contracts/token/ERC721/ERC721.sol\":16263:16351  if (owner == address(0)) {... */\n    tag_160:\n        /* \"node_modules/@openzeppelin/contracts/token/ERC721/ERC721.sol\":16367:16372  owner */\n      dup1\n        /* \"node_modules/@openzeppelin/contracts/token/ERC721/ERC721.sol\":16360:16372  return owner */\n      swap2\n      pop\n      pop\n        /* \"node_modules/@openzeppelin/contracts/token/ERC721/ERC721.sol\":16138:16379  function _requireOwned(uint256 tokenId) internal view returns (address) {... */\n      swap2\n      swap1\n      pop\n      jump\t// out\n        /* \"node_modules/@openzeppelin/contracts/token/ERC721/ERC721.sol\":5938:6065  function _getApproved(uint256 tokenId) internal view virtual returns (address) {... */\n    tag_103:\n        /* \"node_modules/@openzeppelin/contracts/token/ERC721/ERC721.sol\":6008:6015  address */\n      0x00\n        /* \"node_modules/@openzeppelin/contracts/token/ERC721/ERC721.sol\":6034:6049  _tokenApprovals */\n      0x04\n        /* \"node_modules/@openzeppelin/contracts/token/ERC721/ERC721.sol\":6034:6058  _tokenApprovals[tokenId] */\n      0x00\n        /* \"node_modules/@openzeppelin/contracts/token/ERC721/ERC721.sol\":6050:6057  tokenId */\n      dup4\n        /* \"node_modules/@openzeppelin/contracts/token/ERC721/ERC721.sol\":6034:6058  _tokenApprovals[tokenId] */\n      dup2\n      mstore\n      0x20\n      add\n      swap1\n      dup2\n      mstore\n      0x20\n      add\n      0x00\n      keccak256\n      0x00\n      swap1\n      sload\n      swap1\n      0x0100\n      exp\n      swap1\n      div\n      0xffffffffffffffffffffffffffffffffffffffff\n      and\n        /* \"node_modules/@openzeppelin/contracts/token/ERC721/ERC721.sol\":6027:6058  return _tokenApprovals[tokenId] */\n      swap1\n      pop\n        /* \"node_modules/@openzeppelin/contracts/token/ERC721/ERC721.sol\":5938:6065  function _getApproved(uint256 tokenId) internal view virtual returns (address) {... */\n      swap2\n      swap1\n      pop\n      jump\t// out\n        /* \"node_modules/@openzeppelin/contracts/utils/Context.sol\":656:752  function _msgSender() internal view virtual returns (address) {... */\n    tag_107:\n        /* \"node_modules/@openzeppelin/contracts/utils/Context.sol\":709:716  address */\n      0x00\n        /* \"node_modules/@openzeppelin/contracts/utils/Context.sol\":735:745  msg.sender */\n      caller\n        /* \"node_modules/@openzeppelin/contracts/utils/Context.sol\":728:745  return msg.sender */\n      swap1\n      pop\n        /* \"node_modules/@openzeppelin/contracts/utils/Context.sol\":656:752  function _msgSender() internal view virtual returns (address) {... */\n      swap1\n      jump\t// out\n        /* \"node_modules/@openzeppelin/contracts/token/ERC721/ERC721.sol\":14418:14538  function _approve(address to, uint256 tokenId, address auth) internal {... */\n    tag_108:\n        /* \"node_modules/@openzeppelin/contracts/token/ERC721/ERC721.sol\":14498:14531  _approve(to, tokenId, auth, true) */\n      tag_165\n        /* \"node_modules/@openzeppelin/contracts/token/ERC721/ERC721.sol\":14507:14509  to */\n      dup4\n        /* \"node_modules/@openzeppelin/contracts/token/ERC721/ERC721.sol\":14511:14518  tokenId */\n      dup4\n        /* \"node_modules/@openzeppelin/contracts/token/ERC721/ERC721.sol\":14520:14524  auth */\n      dup4\n        /* \"node_modules/@openzeppelin/contracts/token/ERC721/ERC721.sol\":14526:14530  true */\n      0x01\n        /* \"node_modules/@openzeppelin/contracts/token/ERC721/ERC721.sol\":14498:14506  _approve */\n      tag_166\n        /* \"node_modules/@openzeppelin/contracts/token/ERC721/ERC721.sol\":14498:14531  _approve(to, tokenId, auth, true) */\n      jump\t// in\n    tag_165:\n        /* \"node_modules/@openzeppelin/contracts/token/ERC721/ERC721.sol\":14418:14538  function _approve(address to, uint256 tokenId, address auth) internal {... */\n      pop\n      pop\n      pop\n      jump\t// out\n        /* \"node_modules/@openzeppelin/contracts/token/ERC721/ERC721.sol\":8838:9633  function _update(address to, uint256 tokenId, address auth) internal virtual returns (address) {... */\n    tag_114:\n        /* \"node_modules/@openzeppelin/contracts/token/ERC721/ERC721.sol\":8924:8931  address */\n      0x00\n        /* \"node_modules/@openzeppelin/contracts/token/ERC721/ERC721.sol\":8943:8955  address from */\n      dup1\n        /* \"node_modules/@openzeppelin/contracts/token/ERC721/ERC721.sol\":8958:8975  _ownerOf(tokenId) */\n      tag_168\n        /* \"node_modules/@openzeppelin/contracts/token/ERC721/ERC721.sol\":8967:8974  tokenId */\n      dup5\n        /* \"node_modules/@openzeppelin/contracts/token/ERC721/ERC721.sol\":8958:8966  _ownerOf */\n      tag_159\n        /* \"node_modules/@openzeppelin/contracts/token/ERC721/ERC721.sol\":8958:8975  _ownerOf(tokenId) */\n      jump\t// in\n    tag_168:\n        /* \"node_modules/@openzeppelin/contracts/token/ERC721/ERC721.sol\":8943:8975  address from = _ownerOf(tokenId) */\n      swap1\n      pop\n        /* \"node_modules/@openzeppelin/contracts/token/ERC721/ERC721.sol\":9051:9052  0 */\n      0x00\n        /* \"node_modules/@openzeppelin/contracts/token/ERC721/ERC721.sol\":9035:9053  auth != address(0) */\n      0xffffffffffffffffffffffffffffffffffffffff\n      and\n        /* \"node_modules/@openzeppelin/contracts/token/ERC721/ERC721.sol\":9035:9039  auth */\n      dup4\n        /* \"node_modules/@openzeppelin/contracts/token/ERC721/ERC721.sol\":9035:9053  auth != address(0) */\n      0xffffffffffffffffffffffffffffffffffffffff\n      and\n      eq\n        /* \"node_modules/@openzeppelin/contracts/token/ERC721/ERC721.sol\":9031:9117  if (auth != address(0)) {... */\n      tag_169\n      jumpi\n        /* \"node_modules/@openzeppelin/contracts/token/ERC721/ERC721.sol\":9069:9106  _checkAuthorized(from, auth, tokenId) */\n      tag_170\n        /* \"node_modules/@openzeppelin/contracts/token/ERC721/ERC721.sol\":9086:9090  from */\n      dup2\n        /* \"node_modules/@openzeppelin/contracts/token/ERC721/ERC721.sol\":9092:9096  auth */\n      dup5\n        /* \"node_modules/@openzeppelin/contracts/token/ERC721/ERC721.sol\":9098:9105  tokenId */\n      dup7\n        /* \"node_modules/@openzeppelin/contracts/token/ERC721/ERC721.sol\":9069:9085  _checkAuthorized */\n      tag_171\n        /* \"node_modules/@openzeppelin/contracts/token/ERC721/ERC721.sol\":9069:9106  _checkAuthorized(from, auth, tokenId) */\n      jump\t// in\n    tag_170:\n        /* \"node_modules/@openzeppelin/contracts/token/ERC721/ERC721.sol\":9031:9117  if (auth != address(0)) {... */\n    tag_169:\n        /* \"node_modules/@openzeppelin/contracts/token/ERC721/ERC721.sol\":9177:9178  0 */\n      0x00\n        /* \"node_modules/@openzeppelin/contracts/token/ERC721/ERC721.sol\":9161:9179  from != address(0) */\n      0xffffffffffffffffffffffffffffffffffffffff\n      and\n        /* \"node_modules/@openzeppelin/contracts/token/ERC721/ERC721.sol\":9161:9165  from */\n      dup2\n        /* \"node_modules/@openzeppelin/contracts/token/ERC721/ERC721.sol\":9161:9179  from != address(0) */\n      0xffffffffffffffffffffffffffffffffffffffff\n      and\n      eq\n        /* \"node_modules/@openzeppelin/contracts/token/ERC721/ERC721.sol\":9157:9413  if (from != address(0)) {... */\n      tag_172\n      jumpi\n        /* \"node_modules/@openzeppelin/contracts/token/ERC721/ERC721.sol\":9277:9325  _approve(address(0), tokenId, address(0), false) */\n      tag_173\n        /* \"node_modules/@openzeppelin/contracts/token/ERC721/ERC721.sol\":9294:9295  0 */\n      0x00\n        /* \"node_modules/@openzeppelin/contracts/token/ERC721/ERC721.sol\":9298:9305  tokenId */\n      dup6\n        /* \"node_modules/@openzeppelin/contracts/token/ERC721/ERC721.sol\":9315:9316  0 */\n      0x00\n        /* \"node_modules/@openzeppelin/contracts/token/ERC721/ERC721.sol\":9319:9324  false */\n      dup1\n        /* \"node_modules/@openzeppelin/contracts/token/ERC721/ERC721.sol\":9277:9285  _approve */\n      tag_166\n        /* \"node_modules/@openzeppelin/contracts/token/ERC721/ERC721.sol\":9277:9325  _approve(address(0), tokenId, address(0), false) */\n      jump\t// in\n    tag_173:\n        /* \"node_modules/@openzeppelin/contracts/token/ERC721/ERC721.sol\":9387:9388  1 */\n      0x01\n        /* \"node_modules/@openzeppelin/contracts/token/ERC721/ERC721.sol\":9368:9377  _balances */\n      0x03\n        /* \"node_modules/@openzeppelin/contracts/token/ERC721/ERC721.sol\":9368:9383  _balances[from] */\n      0x00\n        /* \"node_modules/@openzeppelin/contracts/token/ERC721/ERC721.sol\":9378:9382  from */\n      dup4\n        /* \"node_modules/@openzeppelin/contracts/token/ERC721/ERC721.sol\":9368:9383  _balances[from] */\n      0xffffffffffffffffffffffffffffffffffffffff\n      and\n      0xffffffffffffffffffffffffffffffffffffffff\n      and\n      dup2\n      mstore\n      0x20\n      add\n      swap1\n      dup2\n      mstore\n      0x20\n      add\n      0x00\n      keccak256\n      0x00\n        /* \"node_modules/@openzeppelin/contracts/token/ERC721/ERC721.sol\":9368:9388  _balances[from] -= 1 */\n      dup3\n      dup3\n      sload\n      sub\n      swap3\n      pop\n      pop\n      dup2\n      swap1\n      sstore\n      pop\n        /* \"node_modules/@openzeppelin/contracts/token/ERC721/ERC721.sol\":9157:9413  if (from != address(0)) {... */\n    tag_172:\n        /* \"node_modules/@openzeppelin/contracts/token/ERC721/ERC721.sol\":9441:9442  0 */\n      0x00\n        /* \"node_modules/@openzeppelin/contracts/token/ERC721/ERC721.sol\":9427:9443  to != address(0) */\n      0xffffffffffffffffffffffffffffffffffffffff\n      and\n        /* \"node_modules/@openzeppelin/contracts/token/ERC721/ERC721.sol\":9427:9429  to */\n      dup6\n        /* \"node_modules/@openzeppelin/contracts/token/ERC721/ERC721.sol\":9427:9443  to != address(0) */\n      0xffffffffffffffffffffffffffffffffffffffff\n      and\n      eq\n        /* \"node_modules/@openzeppelin/contracts/token/ERC721/ERC721.sol\":9423:9530  if (to != address(0)) {... */\n      tag_174\n      jumpi\n        /* \"node_modules/@openzeppelin/contracts/token/ERC721/ERC721.sol\":9504:9505  1 */\n      0x01\n        /* \"node_modules/@openzeppelin/contracts/token/ERC721/ERC721.sol\":9487:9496  _balances */\n      0x03\n        /* \"node_modules/@openzeppelin/contracts/token/ERC721/ERC721.sol\":9487:9500  _balances[to] */\n      0x00\n        /* \"node_modules/@openzeppelin/contracts/token/ERC721/ERC721.sol\":9497:9499  to */\n      dup8\n        /* \"node_modules/@openzeppelin/contracts/token/ERC721/ERC721.sol\":9487:9500  _balances[to] */\n      0xffffffffffffffffffffffffffffffffffffffff\n      and\n      0xffffffffffffffffffffffffffffffffffffffff\n      and\n      dup2\n      mstore\n      0x20\n      add\n      swap1\n      dup2\n      mstore\n      0x20\n      add\n      0x00\n      keccak256\n      0x00\n        /* \"node_modules/@openzeppelin/contracts/token/ERC721/ERC721.sol\":9487:9505  _balances[to] += 1 */\n      dup3\n      dup3\n      sload\n      add\n      swap3\n      pop\n      pop\n      dup2\n      swap1\n      sstore\n      pop\n        /* \"node_modules/@openzeppelin/contracts/token/ERC721/ERC721.sol\":9423:9530  if (to != address(0)) {... */\n    tag_174:\n        /* \"node_modules/@openzeppelin/contracts/token/ERC721/ERC721.sol\":9559:9561  to */\n      dup5\n        /* \"node_modules/@openzeppelin/contracts/token/ERC721/ERC721.sol\":9540:9547  _owners */\n      0x02\n        /* \"node_modules/@openzeppelin/contracts/token/ERC721/ERC721.sol\":9540:9556  _owners[tokenId] */\n      0x00\n        /* \"node_modules/@openzeppelin/contracts/token/ERC721/ERC721.sol\":9548:9555  tokenId */\n      dup7\n        /* \"node_modules/@openzeppelin/contracts/token/ERC721/ERC721.sol\":9540:9556  _owners[tokenId] */\n      dup2\n      mstore\n      0x20\n      add\n      swap1\n      dup2\n      mstore\n      0x20\n      add\n      0x00\n      keccak256\n      0x00\n        /* \"node_modules/@openzeppelin/contracts/token/ERC721/ERC721.sol\":9540:9561  _owners[tokenId] = to */\n      0x0100\n      exp\n      dup2\n      sload\n      dup2\n      0xffffffffffffffffffffffffffffffffffffffff\n      mul\n      not\n      and\n      swap1\n      dup4\n      0xffffffffffffffffffffffffffffffffffffffff\n      and\n      mul\n      or\n      swap1\n      sstore\n      pop\n        /* \"node_modules/@openzeppelin/contracts/token/ERC721/ERC721.sol\":9596:9603  tokenId */\n      dup4\n        /* \"node_modules/@openzeppelin/contracts/token/ERC721/ERC721.sol\":9592:9594  to */\n      dup6\n        /* \"node_modules/@openzeppelin/contracts/token/ERC721/ERC721.sol\":9577:9604  Transfer(from, to, tokenId) */\n      0xffffffffffffffffffffffffffffffffffffffff\n      and\n        /* \"node_modules/@openzeppelin/contracts/token/ERC721/ERC721.sol\":9586:9590  from */\n      dup3\n        /* \"node_modules/@openzeppelin/contracts/token/ERC721/ERC721.sol\":9577:9604  Transfer(from, to, tokenId) */\n      0xffffffffffffffffffffffffffffffffffffffff\n      and\n      0xddf252ad1be2c89b69c2b068fc378daa952ba7f163c4a11628f55a4df523b3ef\n      mload(0x40)\n      mload(0x40)\n      dup1\n      swap2\n      sub\n      swap1\n      log4\n        /* \"node_modules/@openzeppelin/contracts/token/ERC721/ERC721.sol\":9622:9626  from */\n      dup1\n        /* \"node_modules/@openzeppelin/contracts/token/ERC721/ERC721.sol\":9615:9626  return from */\n      swap2\n      pop\n      pop\n        /* \"node_modules/@openzeppelin/contracts/token/ERC721/ERC721.sol\":8838:9633  function _update(address to, uint256 tokenId, address auth) internal virtual returns (address) {... */\n      swap4\n      swap3\n      pop\n      pop\n      pop\n      jump\t// out\n        /* \"node_modules/@openzeppelin/contracts/token/ERC721/ERC721.sol\":15591:15903  function _setApprovalForAll(address owner, address operator, bool approved) internal virtual {... */\n    tag_120:\n        /* \"node_modules/@openzeppelin/contracts/token/ERC721/ERC721.sol\":15718:15719  0 */\n      0x00\n        /* \"node_modules/@openzeppelin/contracts/token/ERC721/ERC721.sol\":15698:15720  operator == address(0) */\n      0xffffffffffffffffffffffffffffffffffffffff\n      and\n        /* \"node_modules/@openzeppelin/contracts/token/ERC721/ERC721.sol\":15698:15706  operator */\n      dup3\n        /* \"node_modules/@openzeppelin/contracts/token/ERC721/ERC721.sol\":15698:15720  operator == address(0) */\n      0xffffffffffffffffffffffffffffffffffffffff\n      and\n      sub\n        /* \"node_modules/@openzeppelin/contracts/token/ERC721/ERC721.sol\":15694:15785  if (operator == address(0)) {... */\n      tag_176\n      jumpi\n        /* \"node_modules/@openzeppelin/contracts/token/ERC721/ERC721.sol\":15765:15773  operator */\n      dup2\n        /* \"node_modules/@openzeppelin/contracts/token/ERC721/ERC721.sol\":15743:15774  ERC721InvalidOperator(operator) */\n      mload(0x40)\n      0x5b08ba1800000000000000000000000000000000000000000000000000000000\n      dup2\n      mstore\n      0x04\n      add\n      tag_177\n      swap2\n      swap1\n      tag_36\n      jump\t// in\n    tag_177:\n      mload(0x40)\n      dup1\n      swap2\n      sub\n      swap1\n      revert\n        /* \"node_modules/@openzeppelin/contracts/token/ERC721/ERC721.sol\":15694:15785  if (operator == address(0)) {... */\n    tag_176:\n        /* \"node_modules/@openzeppelin/contracts/token/ERC721/ERC721.sol\":15832:15840  approved */\n      dup1\n        /* \"node_modules/@openzeppelin/contracts/token/ERC721/ERC721.sol\":15794:15812  _operatorApprovals */\n      0x05\n        /* \"node_modules/@openzeppelin/contracts/token/ERC721/ERC721.sol\":15794:15819  _operatorApprovals[owner] */\n      0x00\n        /* \"node_modules/@openzeppelin/contracts/token/ERC721/ERC721.sol\":15813:15818  owner */\n      dup6\n        /* \"node_modules/@openzeppelin/contracts/token/ERC721/ERC721.sol\":15794:15819  _operatorApprovals[owner] */\n      0xffffffffffffffffffffffffffffffffffffffff\n      and\n      0xffffffffffffffffffffffffffffffffffffffff\n      and\n      dup2\n      mstore\n      0x20\n      add\n      swap1\n      dup2\n      mstore\n      0x20\n      add\n      0x00\n      keccak256\n        /* \"node_modules/@openzeppelin/contracts/token/ERC721/ERC721.sol\":15794:15829  _operatorApprovals[owner][operator] */\n      0x00\n        /* \"node_modules/@openzeppelin/contracts/token/ERC721/ERC721.sol\":15820:15828  operator */\n      dup5\n        /* \"node_modules/@openzeppelin/contracts/token/ERC721/ERC721.sol\":15794:15829  _operatorApprovals[owner][operator] */\n      0xffffffffffffffffffffffffffffffffffffffff\n      and\n      0xffffffffffffffffffffffffffffffffffffffff\n      and\n      dup2\n      mstore\n      0x20\n      add\n      swap1\n      dup2\n      mstore\n      0x20\n      add\n      0x00\n      keccak256\n      0x00\n        /* \"node_modules/@openzeppelin/contracts/token/ERC721/ERC721.sol\":15794:15840  _operatorApprovals[owner][operator] = approved */\n      0x0100\n      exp\n      dup2\n      sload\n      dup2\n      0xff\n      mul\n      not\n      and\n      swap1\n      dup4\n      iszero\n      iszero\n      mul\n      or\n      swap1\n      sstore\n      pop\n        /* \"node_modules/@openzeppelin/contracts/token/ERC721/ERC721.sol\":15877:15885  operator */\n      dup2\n        /* \"node_modules/@openzeppelin/contracts/token/ERC721/ERC721.sol\":15855:15896  ApprovalForAll(owner, operator, approved) */\n      0xffffffffffffffffffffffffffffffffffffffff\n      and\n        /* \"node_modules/@openzeppelin/contracts/token/ERC721/ERC721.sol\":15870:15875  owner */\n      dup4\n        /* \"node_modules/@openzeppelin/contracts/token/ERC721/ERC721.sol\":15855:15896  ApprovalForAll(owner, operator, approved) */\n      0xffffffffffffffffffffffffffffffffffffffff\n      and\n      0x17307eab39ab6107e8899845ad3d59bd9653f200f220920489ca2b5937696c31\n        /* \"node_modules/@openzeppelin/contracts/token/ERC721/ERC721.sol\":15887:15895  approved */\n      dup4\n        /* \"node_modules/@openzeppelin/contracts/token/ERC721/ERC721.sol\":15855:15896  ApprovalForAll(owner, operator, approved) */\n      mload(0x40)\n      tag_178\n      swap2\n      swap1\n      tag_26\n      jump\t// in\n    tag_178:\n      mload(0x40)\n      dup1\n      swap2\n      sub\n      swap1\n      log3\n        /* \"node_modules/@openzeppelin/contracts/token/ERC721/ERC721.sol\":15591:15903  function _setApprovalForAll(address owner, address operator, bool approved) internal virtual {... */\n      pop\n      pop\n      pop\n      jump\t// out\n        /* \"node_modules/@openzeppelin/contracts/token/ERC721/ERC721.sol\":9955:10282  function _mint(address to, uint256 tokenId) internal {... */\n    tag_141:\n        /* \"node_modules/@openzeppelin/contracts/token/ERC721/ERC721.sol\":10036:10037  0 */\n      0x00\n        /* \"node_modules/@openzeppelin/contracts/token/ERC721/ERC721.sol\":10022:10038  to == address(0) */\n      0xffffffffffffffffffffffffffffffffffffffff\n      and\n        /* \"node_modules/@openzeppelin/contracts/token/ERC721/ERC721.sol\":10022:10024  to */\n      dup3\n        /* \"node_modules/@openzeppelin/contracts/token/ERC721/ERC721.sol\":10022:10038  to == address(0) */\n      0xffffffffffffffffffffffffffffffffffffffff\n      and\n      sub\n        /* \"node_modules/@openzeppelin/contracts/token/ERC721/ERC721.sol\":10018:10105  if (to == address(0)) {... */\n      tag_180\n      jumpi\n        /* \"node_modules/@openzeppelin/contracts/token/ERC721/ERC721.sol\":10091:10092  0 */\n      0x00\n        /* \"node_modules/@openzeppelin/contracts/token/ERC721/ERC721.sol\":10061:10094  ERC721InvalidReceiver(address(0)) */\n      mload(0x40)\n      0x64a0ae9200000000000000000000000000000000000000000000000000000000\n      dup2\n      mstore\n      0x04\n      add\n      tag_181\n      swap2\n      swap1\n      tag_36\n      jump\t// in\n    tag_181:\n      mload(0x40)\n      dup1\n      swap2\n      sub\n      swap1\n      revert\n        /* \"node_modules/@openzeppelin/contracts/token/ERC721/ERC721.sol\":10018:10105  if (to == address(0)) {... */\n    tag_180:\n        /* \"node_modules/@openzeppelin/contracts/token/ERC721/ERC721.sol\":10114:10135  address previousOwner */\n      0x00\n        /* \"node_modules/@openzeppelin/contracts/token/ERC721/ERC721.sol\":10138:10170  _update(to, tokenId, address(0)) */\n      tag_182\n        /* \"node_modules/@openzeppelin/contracts/token/ERC721/ERC721.sol\":10146:10148  to */\n      dup4\n        /* \"node_modules/@openzeppelin/contracts/token/ERC721/ERC721.sol\":10150:10157  tokenId */\n      dup4\n        /* \"node_modules/@openzeppelin/contracts/token/ERC721/ERC721.sol\":10167:10168  0 */\n      0x00\n        /* \"node_modules/@openzeppelin/contracts/token/ERC721/ERC721.sol\":10138:10145  _update */\n      tag_114\n        /* \"node_modules/@openzeppelin/contracts/token/ERC721/ERC721.sol\":10138:10170  _update(to, tokenId, address(0)) */\n      jump\t// in\n    tag_182:\n        /* \"node_modules/@openzeppelin/contracts/token/ERC721/ERC721.sol\":10114:10170  address previousOwner = _update(to, tokenId, address(0)) */\n      swap1\n      pop\n        /* \"node_modules/@openzeppelin/contracts/token/ERC721/ERC721.sol\":10209:10210  0 */\n      0x00\n        /* \"node_modules/@openzeppelin/contracts/token/ERC721/ERC721.sol\":10184:10211  previousOwner != address(0) */\n      0xffffffffffffffffffffffffffffffffffffffff\n      and\n        /* \"node_modules/@openzeppelin/contracts/token/ERC721/ERC721.sol\":10184:10197  previousOwner */\n      dup2\n        /* \"node_modules/@openzeppelin/contracts/token/ERC721/ERC721.sol\":10184:10211  previousOwner != address(0) */\n      0xffffffffffffffffffffffffffffffffffffffff\n      and\n      eq\n        /* \"node_modules/@openzeppelin/contracts/token/ERC721/ERC721.sol\":10180:10276  if (previousOwner != address(0)) {... */\n      tag_183\n      jumpi\n        /* \"node_modules/@openzeppelin/contracts/token/ERC721/ERC721.sol\":10262:10263  0 */\n      0x00\n        /* \"node_modules/@openzeppelin/contracts/token/ERC721/ERC721.sol\":10234:10265  ERC721InvalidSender(address(0)) */\n      mload(0x40)\n      0x73c6ac6e00000000000000000000000000000000000000000000000000000000\n      dup2\n      mstore\n      0x04\n      add\n      tag_184\n      swap2\n      swap1\n      tag_36\n      jump\t// in\n    tag_184:\n      mload(0x40)\n      dup1\n      swap2\n      sub\n      swap1\n      revert\n        /* \"node_modules/@openzeppelin/contracts/token/ERC721/ERC721.sol\":10180:10276  if (previousOwner != address(0)) {... */\n    tag_183:\n        /* \"node_modules/@openzeppelin/contracts/token/ERC721/ERC721.sol\":10008:10282  {... */\n      pop\n        /* \"node_modules/@openzeppelin/contracts/token/ERC721/ERC721.sol\":9955:10282  function _mint(address to, uint256 tokenId) internal {... */\n      pop\n      pop\n      jump\t// out\n        /* \"node_modules/@openzeppelin/contracts/token/ERC721/ERC721.sol\":16918:17700  function _checkOnERC721Received(address from, address to, uint256 tokenId, bytes memory data) private {... */\n    tag_149:\n        /* \"node_modules/@openzeppelin/contracts/token/ERC721/ERC721.sol\":17051:17052  0 */\n      0x00\n        /* \"node_modules/@openzeppelin/contracts/token/ERC721/ERC721.sol\":17034:17036  to */\n      dup4\n        /* \"node_modules/@openzeppelin/contracts/token/ERC721/ERC721.sol\":17034:17048  to.code.length */\n      0xffffffffffffffffffffffffffffffffffffffff\n      and\n      extcodesize\n        /* \"node_modules/@openzeppelin/contracts/token/ERC721/ERC721.sol\":17034:17052  to.code.length > 0 */\n      gt\n        /* \"node_modules/@openzeppelin/contracts/token/ERC721/ERC721.sol\":17030:17694  if (to.code.length > 0) {... */\n      iszero\n      tag_186\n      jumpi\n        /* \"node_modules/@openzeppelin/contracts/token/ERC721/ERC721.sol\":17088:17090  to */\n      dup3\n        /* \"node_modules/@openzeppelin/contracts/token/ERC721/ERC721.sol\":17072:17108  IERC721Receiver(to).onERC721Received */\n      0xffffffffffffffffffffffffffffffffffffffff\n      and\n      0x150b7a02\n        /* \"node_modules/@openzeppelin/contracts/token/ERC721/ERC721.sol\":17109:17121  _msgSender() */\n      tag_187\n        /* \"node_modules/@openzeppelin/contracts/token/ERC721/ERC721.sol\":17109:17119  _msgSender */\n      tag_107\n        /* \"node_modules/@openzeppelin/contracts/token/ERC721/ERC721.sol\":17109:17121  _msgSender() */\n      jump\t// in\n    tag_187:\n        /* \"node_modules/@openzeppelin/contracts/token/ERC721/ERC721.sol\":17123:17127  from */\n      dup7\n        /* \"node_modules/@openzeppelin/contracts/token/ERC721/ERC721.sol\":17129:17136  tokenId */\n      dup6\n        /* \"node_modules/@openzeppelin/contracts/token/ERC721/ERC721.sol\":17138:17142  data */\n      dup6\n        /* \"node_modules/@openzeppelin/contracts/token/ERC721/ERC721.sol\":17072:17143  IERC721Receiver(to).onERC721Received(_msgSender(), from, tokenId, data) */\n      mload(0x40)\n      dup6\n      0xffffffff\n      and\n      0xe0\n      shl\n      dup2\n      mstore\n      0x04\n      add\n      tag_188\n      swap5\n      swap4\n      swap3\n      swap2\n      swap1\n      tag_189\n      jump\t// in\n    tag_188:\n      0x20\n      mload(0x40)\n      dup1\n      dup4\n      sub\n      dup2\n      0x00\n      dup8\n      gas\n      call\n      swap3\n      pop\n      pop\n      pop\n      dup1\n      iszero\n      tag_190\n      jumpi\n      pop\n      mload(0x40)\n      returndatasize\n      not(0x1f)\n      0x1f\n      dup3\n      add\n      and\n      dup3\n      add\n      dup1\n      0x40\n      mstore\n      pop\n      dup2\n      add\n      swap1\n      tag_191\n      swap2\n      swap1\n      tag_192\n      jump\t// in\n    tag_191:\n      0x01\n    tag_190:\n        /* \"node_modules/@openzeppelin/contracts/token/ERC721/ERC721.sol\":17068:17684  try IERC721Receiver(to).onERC721Received(_msgSender(), from, tokenId, data) returns (bytes4 retval) {... */\n      tag_193\n      jumpi\n      returndatasize\n      dup1\n      0x00\n      dup2\n      eq\n      tag_198\n      jumpi\n      mload(0x40)\n      swap2\n      pop\n      and(add(returndatasize, 0x3f), not(0x1f))\n      dup3\n      add\n      0x40\n      mstore\n      returndatasize\n      dup3\n      mstore\n      returndatasize\n      0x00\n      0x20\n      dup5\n      add\n      returndatacopy\n      jump(tag_197)\n    tag_198:\n      0x60\n      swap2\n      pop\n    tag_197:\n      pop\n        /* \"node_modules/@openzeppelin/contracts/token/ERC721/ERC721.sol\":17398:17399  0 */\n      0x00\n        /* \"node_modules/@openzeppelin/contracts/token/ERC721/ERC721.sol\":17381:17387  reason */\n      dup2\n        /* \"node_modules/@openzeppelin/contracts/token/ERC721/ERC721.sol\":17381:17394  reason.length */\n      mload\n        /* \"node_modules/@openzeppelin/contracts/token/ERC721/ERC721.sol\":17381:17399  reason.length == 0 */\n      sub\n        /* \"node_modules/@openzeppelin/contracts/token/ERC721/ERC721.sol\":17377:17670  if (reason.length == 0) {... */\n      tag_199\n      jumpi\n        /* \"node_modules/@openzeppelin/contracts/token/ERC721/ERC721.sol\":17452:17454  to */\n      dup4\n        /* \"node_modules/@openzeppelin/contracts/token/ERC721/ERC721.sol\":17430:17455  ERC721InvalidReceiver(to) */\n      mload(0x40)\n      0x64a0ae9200000000000000000000000000000000000000000000000000000000\n      dup2\n      mstore\n      0x04\n      add\n      tag_200\n      swap2\n      swap1\n      tag_36\n      jump\t// in\n    tag_200:\n      mload(0x40)\n      dup1\n      swap2\n      sub\n      swap1\n      revert\n        /* \"node_modules/@openzeppelin/contracts/token/ERC721/ERC721.sol\":17377:17670  if (reason.length == 0) {... */\n    tag_199:\n        /* \"node_modules/@openzeppelin/contracts/token/ERC721/ERC721.sol\":17622:17628  reason */\n      dup1\n        /* \"node_modules/@openzeppelin/contracts/token/ERC721/ERC721.sol\":17616:17629  mload(reason) */\n      mload\n        /* \"node_modules/@openzeppelin/contracts/token/ERC721/ERC721.sol\":17607:17613  reason */\n      dup2\n        /* \"node_modules/@openzeppelin/contracts/token/ERC721/ERC721.sol\":17603:17605  32 */\n      0x20\n        /* \"node_modules/@openzeppelin/contracts/token/ERC721/ERC721.sol\":17599:17614  add(32, reason) */\n      add\n        /* \"node_modules/@openzeppelin/contracts/token/ERC721/ERC721.sol\":17592:17630  revert(add(32, reason), mload(reason)) */\n      revert\n        /* \"node_modules/@openzeppelin/contracts/token/ERC721/ERC721.sol\":17068:17684  try IERC721Receiver(to).onERC721Received(_msgSender(), from, tokenId, data) returns (bytes4 retval) {... */\n    tag_193:\n        /* \"node_modules/@openzeppelin/contracts/token/ERC721/ERC721.sol\":17200:17241  IERC721Receiver.onERC721Received.selector */\n      shl(0xe0, 0x150b7a02)\n        /* \"node_modules/@openzeppelin/contracts/token/ERC721/ERC721.sol\":17190:17241  retval != IERC721Receiver.onERC721Received.selector */\n      not(0xffffffffffffffffffffffffffffffffffffffffffffffffffffffff)\n      and\n        /* \"node_modules/@openzeppelin/contracts/token/ERC721/ERC721.sol\":17190:17196  retval */\n      dup2\n        /* \"node_modules/@openzeppelin/contracts/token/ERC721/ERC721.sol\":17190:17241  retval != IERC721Receiver.onERC721Received.selector */\n      not(0xffffffffffffffffffffffffffffffffffffffffffffffffffffffff)\n      and\n      eq\n        /* \"node_modules/@openzeppelin/contracts/token/ERC721/ERC721.sol\":17186:17316  if (retval != IERC721Receiver.onERC721Received.selector) {... */\n      tag_203\n      jumpi\n        /* \"node_modules/@openzeppelin/contracts/token/ERC721/ERC721.sol\":17294:17296  to */\n      dup4\n        /* \"node_modules/@openzeppelin/contracts/token/ERC721/ERC721.sol\":17272:17297  ERC721InvalidReceiver(to) */\n      mload(0x40)\n      0x64a0ae9200000000000000000000000000000000000000000000000000000000\n      dup2\n      mstore\n      0x04\n      add\n      tag_204\n      swap2\n      swap1\n      tag_36\n      jump\t// in\n    tag_204:\n      mload(0x40)\n      dup1\n      swap2\n      sub\n      swap1\n      revert\n        /* \"node_modules/@openzeppelin/contracts/token/ERC721/ERC721.sol\":17186:17316  if (retval != IERC721Receiver.onERC721Received.selector) {... */\n    tag_203:\n        /* \"node_modules/@openzeppelin/contracts/token/ERC721/ERC721.sol\":17144:17330  returns (bytes4 retval) {... */\n      pop\n        /* \"node_modules/@openzeppelin/contracts/token/ERC721/ERC721.sol\":17030:17694  if (to.code.length > 0) {... */\n    tag_186:\n        /* \"node_modules/@openzeppelin/contracts/token/ERC721/ERC721.sol\":16918:17700  function _checkOnERC721Received(address from, address to, uint256 tokenId, bytes memory data) private {... */\n      pop\n      pop\n      pop\n      pop\n      jump\t// out\n        /* \"myNFT.sol\":1006:1156  function _baseURI() internal view override returns (string memory) {... */\n    tag_152:\n        /* \"myNFT.sol\":1058:1071  string memory */\n      0x60\n        /* \"myNFT.sol\":1084:1148  return \"https://apricot-wrong-platypus-336.mypinata.cloud/ipfs/\" */\n      mload(0x40)\n      dup1\n      0x60\n      add\n      0x40\n      mstore\n      dup1\n      0x37\n      dup2\n      mstore\n      0x20\n      add\n      data_094ead967d3e05150396c22a9d9c43e0dca9917954019f87a54e2ae6bcc8432a\n      0x37\n      swap2\n      codecopy\n      swap1\n      pop\n        /* \"myNFT.sol\":1006:1156  function _baseURI() internal view override returns (string memory) {... */\n      swap1\n      jump\t// out\n        /* \"node_modules/@openzeppelin/contracts/token/ERC721/ERC721.sol\":5707:5822  function _ownerOf(uint256 tokenId) internal view virtual returns (address) {... */\n    tag_159:\n        /* \"node_modules/@openzeppelin/contracts/token/ERC721/ERC721.sol\":5773:5780  address */\n      0x00\n        /* \"node_modules/@openzeppelin/contracts/token/ERC721/ERC721.sol\":5799:5806  _owners */\n      0x02\n        /* \"node_modules/@openzeppelin/contracts/token/ERC721/ERC721.sol\":5799:5815  _owners[tokenId] */\n      0x00\n        /* \"node_modules/@openzeppelin/contracts/token/ERC721/ERC721.sol\":5807:5814  tokenId */\n      dup4\n        /* \"node_modules/@openzeppelin/contracts/token/ERC721/ERC721.sol\":5799:5815  _owners[tokenId] */\n      dup2\n      mstore\n      0x20\n      add\n      swap1\n      dup2\n      mstore\n      0x20\n      add\n      0x00\n      keccak256\n      0x00\n      swap1\n      sload\n      swap1\n      0x0100\n      exp\n      swap1\n      div\n      0xffffffffffffffffffffffffffffffffffffffff\n      and\n        /* \"node_modules/@openzeppelin/contracts/token/ERC721/ERC721.sol\":5792:5815  return _owners[tokenId] */\n      swap1\n      pop\n        /* \"node_modules/@openzeppelin/contracts/token/ERC721/ERC721.sol\":5707:5822  function _ownerOf(uint256 tokenId) internal view virtual returns (address) {... */\n      swap2\n      swap1\n      pop\n      jump\t// out\n        /* \"node_modules/@openzeppelin/contracts/token/ERC721/ERC721.sol\":14720:15382  function _approve(address to, uint256 tokenId, address auth, bool emitEvent) internal virtual {... */\n    tag_166:\n        /* \"node_modules/@openzeppelin/contracts/token/ERC721/ERC721.sol\":14880:14889  emitEvent */\n      dup1\n        /* \"node_modules/@openzeppelin/contracts/token/ERC721/ERC721.sol\":14880:14911  emitEvent || auth != address(0) */\n      dup1\n      tag_208\n      jumpi\n      pop\n        /* \"node_modules/@openzeppelin/contracts/token/ERC721/ERC721.sol\":14909:14910  0 */\n      0x00\n        /* \"node_modules/@openzeppelin/contracts/token/ERC721/ERC721.sol\":14893:14911  auth != address(0) */\n      0xffffffffffffffffffffffffffffffffffffffff\n      and\n        /* \"node_modules/@openzeppelin/contracts/token/ERC721/ERC721.sol\":14893:14897  auth */\n      dup3\n        /* \"node_modules/@openzeppelin/contracts/token/ERC721/ERC721.sol\":14893:14911  auth != address(0) */\n      0xffffffffffffffffffffffffffffffffffffffff\n      and\n      eq\n      iszero\n        /* \"node_modules/@openzeppelin/contracts/token/ERC721/ERC721.sol\":14880:14911  emitEvent || auth != address(0) */\n    tag_208:\n        /* \"node_modules/@openzeppelin/contracts/token/ERC721/ERC721.sol\":14876:15336  if (emitEvent || auth != address(0)) {... */\n      iszero\n      tag_209\n      jumpi\n        /* \"node_modules/@openzeppelin/contracts/token/ERC721/ERC721.sol\":14927:14940  address owner */\n      0x00\n        /* \"node_modules/@openzeppelin/contracts/token/ERC721/ERC721.sol\":14943:14965  _requireOwned(tokenId) */\n      tag_210\n        /* \"node_modules/@openzeppelin/contracts/token/ERC721/ERC721.sol\":14957:14964  tokenId */\n      dup5\n        /* \"node_modules/@openzeppelin/contracts/token/ERC721/ERC721.sol\":14943:14956  _requireOwned */\n      tag_101\n        /* \"node_modules/@openzeppelin/contracts/token/ERC721/ERC721.sol\":14943:14965  _requireOwned(tokenId) */\n      jump\t// in\n    tag_210:\n        /* \"node_modules/@openzeppelin/contracts/token/ERC721/ERC721.sol\":14927:14965  address owner = _requireOwned(tokenId) */\n      swap1\n      pop\n        /* \"node_modules/@openzeppelin/contracts/token/ERC721/ERC721.sol\":15109:15110  0 */\n      0x00\n        /* \"node_modules/@openzeppelin/contracts/token/ERC721/ERC721.sol\":15093:15111  auth != address(0) */\n      0xffffffffffffffffffffffffffffffffffffffff\n      and\n        /* \"node_modules/@openzeppelin/contracts/token/ERC721/ERC721.sol\":15093:15097  auth */\n      dup4\n        /* \"node_modules/@openzeppelin/contracts/token/ERC721/ERC721.sol\":15093:15111  auth != address(0) */\n      0xffffffffffffffffffffffffffffffffffffffff\n      and\n      eq\n      iszero\n        /* \"node_modules/@openzeppelin/contracts/token/ERC721/ERC721.sol\":15093:15128  auth != address(0) && owner != auth */\n      dup1\n      iszero\n      tag_211\n      jumpi\n      pop\n        /* \"node_modules/@openzeppelin/contracts/token/ERC721/ERC721.sol\":15124:15128  auth */\n      dup3\n        /* \"node_modules/@openzeppelin/contracts/token/ERC721/ERC721.sol\":15115:15128  owner != auth */\n      0xffffffffffffffffffffffffffffffffffffffff\n      and\n        /* \"node_modules/@openzeppelin/contracts/token/ERC721/ERC721.sol\":15115:15120  owner */\n      dup2\n        /* \"node_modules/@openzeppelin/contracts/token/ERC721/ERC721.sol\":15115:15128  owner != auth */\n      0xffffffffffffffffffffffffffffffffffffffff\n      and\n      eq\n      iszero\n        /* \"node_modules/@openzeppelin/contracts/token/ERC721/ERC721.sol\":15093:15128  auth != address(0) && owner != auth */\n    tag_211:\n        /* \"node_modules/@openzeppelin/contracts/token/ERC721/ERC721.sol\":15093:15162  auth != address(0) && owner != auth && !isApprovedForAll(owner, auth) */\n      dup1\n      iszero\n      tag_212\n      jumpi\n      pop\n        /* \"node_modules/@openzeppelin/contracts/token/ERC721/ERC721.sol\":15133:15162  isApprovedForAll(owner, auth) */\n      tag_213\n        /* \"node_modules/@openzeppelin/contracts/token/ERC721/ERC721.sol\":15150:15155  owner */\n      dup2\n        /* \"node_modules/@openzeppelin/contracts/token/ERC721/ERC721.sol\":15157:15161  auth */\n      dup5\n        /* \"node_modules/@openzeppelin/contracts/token/ERC721/ERC721.sol\":15133:15149  isApprovedForAll */\n      tag_85\n        /* \"node_modules/@openzeppelin/contracts/token/ERC721/ERC721.sol\":15133:15162  isApprovedForAll(owner, auth) */\n      jump\t// in\n    tag_213:\n        /* \"node_modules/@openzeppelin/contracts/token/ERC721/ERC721.sol\":15132:15162  !isApprovedForAll(owner, auth) */\n      iszero\n        /* \"node_modules/@openzeppelin/contracts/token/ERC721/ERC721.sol\":15093:15162  auth != address(0) && owner != auth && !isApprovedForAll(owner, auth) */\n    tag_212:\n        /* \"node_modules/@openzeppelin/contracts/token/ERC721/ERC721.sol\":15089:15231  if (auth != address(0) && owner != auth && !isApprovedForAll(owner, auth)) {... */\n      iszero\n      tag_214\n      jumpi\n        /* \"node_modules/@openzeppelin/contracts/token/ERC721/ERC721.sol\":15211:15215  auth */\n      dup3\n        /* \"node_modules/@openzeppelin/contracts/token/ERC721/ERC721.sol\":15189:15216  ERC721InvalidApprover(auth) */\n      mload(0x40)\n      0xa9fbf51f00000000000000000000000000000000000000000000000000000000\n      dup2\n      mstore\n      0x04\n      add\n      tag_215\n      swap2\n      swap1\n      tag_36\n      jump\t// in\n    tag_215:\n      mload(0x40)\n      dup1\n      swap2\n      sub\n      swap1\n      revert\n        /* \"node_modules/@openzeppelin/contracts/token/ERC721/ERC721.sol\":15089:15231  if (auth != address(0) && owner != auth && !isApprovedForAll(owner, auth)) {... */\n    tag_214:\n        /* \"node_modules/@openzeppelin/contracts/token/ERC721/ERC721.sol\":15249:15258  emitEvent */\n      dup2\n        /* \"node_modules/@openzeppelin/contracts/token/ERC721/ERC721.sol\":15245:15326  if (emitEvent) {... */\n      iszero\n      tag_216\n      jumpi\n        /* \"node_modules/@openzeppelin/contracts/token/ERC721/ERC721.sol\":15303:15310  tokenId */\n      dup4\n        /* \"node_modules/@openzeppelin/contracts/token/ERC721/ERC721.sol\":15299:15301  to */\n      dup6\n        /* \"node_modules/@openzeppelin/contracts/token/ERC721/ERC721.sol\":15283:15311  Approval(owner, to, tokenId) */\n      0xffffffffffffffffffffffffffffffffffffffff\n      and\n        /* \"node_modules/@openzeppelin/contracts/token/ERC721/ERC721.sol\":15292:15297  owner */\n      dup3\n        /* \"node_modules/@openzeppelin/contracts/token/ERC721/ERC721.sol\":15283:15311  Approval(owner, to, tokenId) */\n      0xffffffffffffffffffffffffffffffffffffffff\n      and\n      0x8c5be1e5ebec7d5bd14f71427d1e84f3dd0314c0f7b2291e5b200ac8c7c3b925\n      mload(0x40)\n      mload(0x40)\n      dup1\n      swap2\n      sub\n      swap1\n      log4\n        /* \"node_modules/@openzeppelin/contracts/token/ERC721/ERC721.sol\":15245:15326  if (emitEvent) {... */\n    tag_216:\n        /* \"node_modules/@openzeppelin/contracts/token/ERC721/ERC721.sol\":14913:15336  {... */\n      pop\n        /* \"node_modules/@openzeppelin/contracts/token/ERC721/ERC721.sol\":14876:15336  if (emitEvent || auth != address(0)) {... */\n    tag_209:\n        /* \"node_modules/@openzeppelin/contracts/token/ERC721/ERC721.sol\":15373:15375  to */\n      dup4\n        /* \"node_modules/@openzeppelin/contracts/token/ERC721/ERC721.sol\":15346:15361  _tokenApprovals */\n      0x04\n        /* \"node_modules/@openzeppelin/contracts/token/ERC721/ERC721.sol\":15346:15370  _tokenApprovals[tokenId] */\n      0x00\n        /* \"node_modules/@openzeppelin/contracts/token/ERC721/ERC721.sol\":15362:15369  tokenId */\n      dup6\n        /* \"node_modules/@openzeppelin/contracts/token/ERC721/ERC721.sol\":15346:15370  _tokenApprovals[tokenId] */\n      dup2\n      mstore\n      0x20\n      add\n      swap1\n      dup2\n      mstore\n      0x20\n      add\n      0x00\n      keccak256\n      0x00\n        /* \"node_modules/@openzeppelin/contracts/token/ERC721/ERC721.sol\":15346:15375  _tokenApprovals[tokenId] = to */\n      0x0100\n      exp\n      dup2\n      sload\n      dup2\n      0xffffffffffffffffffffffffffffffffffffffff\n      mul\n      not\n      and\n      swap1\n      dup4\n      0xffffffffffffffffffffffffffffffffffffffff\n      and\n      mul\n      or\n      swap1\n      sstore\n      pop\n        /* \"node_modules/@openzeppelin/contracts/token/ERC721/ERC721.sol\":14720:15382  function _approve(address to, uint256 tokenId, address auth, bool emitEvent) internal virtual {... */\n      pop\n      pop\n      pop\n      pop\n      jump\t// out\n        /* \"node_modules/@openzeppelin/contracts/token/ERC721/ERC721.sol\":7082:7450  function _checkAuthorized(address owner, address spender, uint256 tokenId) internal view virtual {... */\n    tag_171:\n        /* \"node_modules/@openzeppelin/contracts/token/ERC721/ERC721.sol\":7194:7232  _isAuthorized(owner, spender, tokenId) */\n      tag_218\n        /* \"node_modules/@openzeppelin/contracts/token/ERC721/ERC721.sol\":7208:7213  owner */\n      dup4\n        /* \"node_modules/@openzeppelin/contracts/token/ERC721/ERC721.sol\":7215:7222  spender */\n      dup4\n        /* \"node_modules/@openzeppelin/contracts/token/ERC721/ERC721.sol\":7224:7231  tokenId */\n      dup4\n        /* \"node_modules/@openzeppelin/contracts/token/ERC721/ERC721.sol\":7194:7207  _isAuthorized */\n      tag_219\n        /* \"node_modules/@openzeppelin/contracts/token/ERC721/ERC721.sol\":7194:7232  _isAuthorized(owner, spender, tokenId) */\n      jump\t// in\n    tag_218:\n        /* \"node_modules/@openzeppelin/contracts/token/ERC721/ERC721.sol\":7189:7444  if (!_isAuthorized(owner, spender, tokenId)) {... */\n      tag_220\n      jumpi\n        /* \"node_modules/@openzeppelin/contracts/token/ERC721/ERC721.sol\":7269:7270  0 */\n      0x00\n        /* \"node_modules/@openzeppelin/contracts/token/ERC721/ERC721.sol\":7252:7271  owner == address(0) */\n      0xffffffffffffffffffffffffffffffffffffffff\n      and\n        /* \"node_modules/@openzeppelin/contracts/token/ERC721/ERC721.sol\":7252:7257  owner */\n      dup4\n        /* \"node_modules/@openzeppelin/contracts/token/ERC721/ERC721.sol\":7252:7271  owner == address(0) */\n      0xffffffffffffffffffffffffffffffffffffffff\n      and\n      sub\n        /* \"node_modules/@openzeppelin/contracts/token/ERC721/ERC721.sol\":7248:7434  if (owner == address(0)) {... */\n      tag_221\n      jumpi\n        /* \"node_modules/@openzeppelin/contracts/token/ERC721/ERC721.sol\":7321:7328  tokenId */\n      dup1\n        /* \"node_modules/@openzeppelin/contracts/token/ERC721/ERC721.sol\":7298:7329  ERC721NonexistentToken(tokenId) */\n      mload(0x40)\n      0x7e27328900000000000000000000000000000000000000000000000000000000\n      dup2\n      mstore\n      0x04\n      add\n      tag_222\n      swap2\n      swap1\n      tag_61\n      jump\t// in\n    tag_222:\n      mload(0x40)\n      dup1\n      swap2\n      sub\n      swap1\n      revert\n        /* \"node_modules/@openzeppelin/contracts/token/ERC721/ERC721.sol\":7248:7434  if (owner == address(0)) {... */\n    tag_221:\n        /* \"node_modules/@openzeppelin/contracts/token/ERC721/ERC721.sol\":7402:7409  spender */\n      dup2\n        /* \"node_modules/@openzeppelin/contracts/token/ERC721/ERC721.sol\":7411:7418  tokenId */\n      dup2\n        /* \"node_modules/@openzeppelin/contracts/token/ERC721/ERC721.sol\":7375:7419  ERC721InsufficientApproval(spender, tokenId) */\n      mload(0x40)\n      0x177e802f00000000000000000000000000000000000000000000000000000000\n      dup2\n      mstore\n      0x04\n      add\n      tag_224\n      swap3\n      swap2\n      swap1\n      tag_225\n      jump\t// in\n    tag_224:\n      mload(0x40)\n      dup1\n      swap2\n      sub\n      swap1\n      revert\n        /* \"node_modules/@openzeppelin/contracts/token/ERC721/ERC721.sol\":7189:7444  if (!_isAuthorized(owner, spender, tokenId)) {... */\n    tag_220:\n        /* \"node_modules/@openzeppelin/contracts/token/ERC721/ERC721.sol\":7082:7450  function _checkAuthorized(address owner, address spender, uint256 tokenId) internal view virtual {... */\n      pop\n      pop\n      pop\n      jump\t// out\n        /* \"node_modules/@openzeppelin/contracts/token/ERC721/ERC721.sol\":6376:6648  function _isAuthorized(address owner, address spender, uint256 tokenId) internal view virtual returns (bool) {... */\n    tag_219:\n        /* \"node_modules/@openzeppelin/contracts/token/ERC721/ERC721.sol\":6479:6483  bool */\n      0x00\n        /* \"node_modules/@openzeppelin/contracts/token/ERC721/ERC721.sol\":6533:6534  0 */\n      dup1\n        /* \"node_modules/@openzeppelin/contracts/token/ERC721/ERC721.sol\":6514:6535  spender != address(0) */\n      0xffffffffffffffffffffffffffffffffffffffff\n      and\n        /* \"node_modules/@openzeppelin/contracts/token/ERC721/ERC721.sol\":6514:6521  spender */\n      dup4\n        /* \"node_modules/@openzeppelin/contracts/token/ERC721/ERC721.sol\":6514:6535  spender != address(0) */\n      0xffffffffffffffffffffffffffffffffffffffff\n      and\n      eq\n      iszero\n        /* \"node_modules/@openzeppelin/contracts/token/ERC721/ERC721.sol\":6514:6641  spender != address(0) &&... */\n      dup1\n      iszero\n      tag_227\n      jumpi\n      pop\n        /* \"node_modules/@openzeppelin/contracts/token/ERC721/ERC721.sol\":6561:6568  spender */\n      dup3\n        /* \"node_modules/@openzeppelin/contracts/token/ERC721/ERC721.sol\":6552:6568  owner == spender */\n      0xffffffffffffffffffffffffffffffffffffffff\n      and\n        /* \"node_modules/@openzeppelin/contracts/token/ERC721/ERC721.sol\":6552:6557  owner */\n      dup5\n        /* \"node_modules/@openzeppelin/contracts/token/ERC721/ERC721.sol\":6552:6568  owner == spender */\n      0xffffffffffffffffffffffffffffffffffffffff\n      and\n      eq\n        /* \"node_modules/@openzeppelin/contracts/token/ERC721/ERC721.sol\":6552:6604  owner == spender || isApprovedForAll(owner, spender) */\n      dup1\n      tag_228\n      jumpi\n      pop\n        /* \"node_modules/@openzeppelin/contracts/token/ERC721/ERC721.sol\":6572:6604  isApprovedForAll(owner, spender) */\n      tag_229\n        /* \"node_modules/@openzeppelin/contracts/token/ERC721/ERC721.sol\":6589:6594  owner */\n      dup5\n        /* \"node_modules/@openzeppelin/contracts/token/ERC721/ERC721.sol\":6596:6603  spender */\n      dup5\n        /* \"node_modules/@openzeppelin/contracts/token/ERC721/ERC721.sol\":6572:6588  isApprovedForAll */\n      tag_85\n        /* \"node_modules/@openzeppelin/contracts/token/ERC721/ERC721.sol\":6572:6604  isApprovedForAll(owner, spender) */\n      jump\t// in\n    tag_229:\n        /* \"node_modules/@openzeppelin/contracts/token/ERC721/ERC721.sol\":6552:6604  owner == spender || isApprovedForAll(owner, spender) */\n    tag_228:\n        /* \"node_modules/@openzeppelin/contracts/token/ERC721/ERC721.sol\":6552:6640  owner == spender || isApprovedForAll(owner, spender) || _getApproved(tokenId) == spender */\n      dup1\n      tag_230\n      jumpi\n      pop\n        /* \"node_modules/@openzeppelin/contracts/token/ERC721/ERC721.sol\":6633:6640  spender */\n      dup3\n        /* \"node_modules/@openzeppelin/contracts/token/ERC721/ERC721.sol\":6608:6640  _getApproved(tokenId) == spender */\n      0xffffffffffffffffffffffffffffffffffffffff\n      and\n        /* \"node_modules/@openzeppelin/contracts/token/ERC721/ERC721.sol\":6608:6629  _getApproved(tokenId) */\n      tag_231\n        /* \"node_modules/@openzeppelin/contracts/token/ERC721/ERC721.sol\":6621:6628  tokenId */\n      dup4\n        /* \"node_modules/@openzeppelin/contracts/token/ERC721/ERC721.sol\":6608:6620  _getApproved */\n      tag_103\n        /* \"node_modules/@openzeppelin/contracts/token/ERC721/ERC721.sol\":6608:6629  _getApproved(tokenId) */\n      jump\t// in\n    tag_231:\n        /* \"node_modules/@openzeppelin/contracts/token/ERC721/ERC721.sol\":6608:6640  _getApproved(tokenId) == spender */\n      0xffffffffffffffffffffffffffffffffffffffff\n      and\n      eq\n        /* \"node_modules/@openzeppelin/contracts/token/ERC721/ERC721.sol\":6552:6640  owner == spender || isApprovedForAll(owner, spender) || _getApproved(tokenId) == spender */\n    tag_230:\n        /* \"node_modules/@openzeppelin/contracts/token/ERC721/ERC721.sol\":6514:6641  spender != address(0) &&... */\n    tag_227:\n        /* \"node_modules/@openzeppelin/contracts/token/ERC721/ERC721.sol\":6495:6641  return... */\n      swap1\n      pop\n        /* \"node_modules/@openzeppelin/contracts/token/ERC721/ERC721.sol\":6376:6648  function _isAuthorized(address owner, address spender, uint256 tokenId) internal view virtual returns (bool) {... */\n      swap4\n      swap3\n      pop\n      pop\n      pop\n      jump\t// out\n        /* \"#utility.yul\":7:82   */\n    tag_232:\n        /* \"#utility.yul\":40:46   */\n      0x00\n        /* \"#utility.yul\":73:75   */\n      0x40\n        /* \"#utility.yul\":67:76   */\n      mload\n        /* \"#utility.yul\":57:76   */\n      swap1\n      pop\n        /* \"#utility.yul\":7:82   */\n      swap1\n      jump\t// out\n        /* \"#utility.yul\":88:205   */\n    tag_233:\n        /* \"#utility.yul\":197:198   */\n      0x00\n        /* \"#utility.yul\":194:195   */\n      dup1\n        /* \"#utility.yul\":187:199   */\n      revert\n        /* \"#utility.yul\":211:328   */\n    tag_234:\n        /* \"#utility.yul\":320:321   */\n      0x00\n        /* \"#utility.yul\":317:318   */\n      dup1\n        /* \"#utility.yul\":310:322   */\n      revert\n        /* \"#utility.yul\":334:483   */\n    tag_235:\n        /* \"#utility.yul\":370:377   */\n      0x00\n        /* \"#utility.yul\":410:476   */\n      0xffffffff00000000000000000000000000000000000000000000000000000000\n        /* \"#utility.yul\":403:408   */\n      dup3\n        /* \"#utility.yul\":399:477   */\n      and\n        /* \"#utility.yul\":388:477   */\n      swap1\n      pop\n        /* \"#utility.yul\":334:483   */\n      swap2\n      swap1\n      pop\n      jump\t// out\n        /* \"#utility.yul\":489:609   */\n    tag_236:\n        /* \"#utility.yul\":561:584   */\n      tag_298\n        /* \"#utility.yul\":578:583   */\n      dup2\n        /* \"#utility.yul\":561:584   */\n      tag_235\n      jump\t// in\n    tag_298:\n        /* \"#utility.yul\":554:559   */\n      dup2\n        /* \"#utility.yul\":551:585   */\n      eq\n        /* \"#utility.yul\":541:603   */\n      tag_299\n      jumpi\n        /* \"#utility.yul\":599:600   */\n      0x00\n        /* \"#utility.yul\":596:597   */\n      dup1\n        /* \"#utility.yul\":589:601   */\n      revert\n        /* \"#utility.yul\":541:603   */\n    tag_299:\n        /* \"#utility.yul\":489:609   */\n      pop\n      jump\t// out\n        /* \"#utility.yul\":615:752   */\n    tag_237:\n        /* \"#utility.yul\":660:665   */\n      0x00\n        /* \"#utility.yul\":698:704   */\n      dup2\n        /* \"#utility.yul\":685:705   */\n      calldataload\n        /* \"#utility.yul\":676:705   */\n      swap1\n      pop\n        /* \"#utility.yul\":714:746   */\n      tag_301\n        /* \"#utility.yul\":740:745   */\n      dup2\n        /* \"#utility.yul\":714:746   */\n      tag_236\n      jump\t// in\n    tag_301:\n        /* \"#utility.yul\":615:752   */\n      swap3\n      swap2\n      pop\n      pop\n      jump\t// out\n        /* \"#utility.yul\":758:1085   */\n    tag_23:\n        /* \"#utility.yul\":816:822   */\n      0x00\n        /* \"#utility.yul\":865:867   */\n      0x20\n        /* \"#utility.yul\":853:862   */\n      dup3\n        /* \"#utility.yul\":844:851   */\n      dup5\n        /* \"#utility.yul\":840:863   */\n      sub\n        /* \"#utility.yul\":836:868   */\n      slt\n        /* \"#utility.yul\":833:952   */\n      iszero\n      tag_303\n      jumpi\n        /* \"#utility.yul\":871:950   */\n      tag_304\n      tag_233\n      jump\t// in\n    tag_304:\n        /* \"#utility.yul\":833:952   */\n    tag_303:\n        /* \"#utility.yul\":991:992   */\n      0x00\n        /* \"#utility.yul\":1016:1068   */\n      tag_305\n        /* \"#utility.yul\":1060:1067   */\n      dup5\n        /* \"#utility.yul\":1051:1057   */\n      dup3\n        /* \"#utility.yul\":1040:1049   */\n      dup6\n        /* \"#utility.yul\":1036:1058   */\n      add\n        /* \"#utility.yul\":1016:1068   */\n      tag_237\n      jump\t// in\n    tag_305:\n        /* \"#utility.yul\":1006:1068   */\n      swap2\n      pop\n        /* \"#utility.yul\":962:1078   */\n      pop\n        /* \"#utility.yul\":758:1085   */\n      swap3\n      swap2\n      pop\n      pop\n      jump\t// out\n        /* \"#utility.yul\":1091:1181   */\n    tag_238:\n        /* \"#utility.yul\":1125:1132   */\n      0x00\n        /* \"#utility.yul\":1168:1173   */\n      dup2\n        /* \"#utility.yul\":1161:1174   */\n      iszero\n        /* \"#utility.yul\":1154:1175   */\n      iszero\n        /* \"#utility.yul\":1143:1175   */\n      swap1\n      pop\n        /* \"#utility.yul\":1091:1181   */\n      swap2\n      swap1\n      pop\n      jump\t// out\n        /* \"#utility.yul\":1187:1296   */\n    tag_239:\n        /* \"#utility.yul\":1268:1289   */\n      tag_308\n        /* \"#utility.yul\":1283:1288   */\n      dup2\n        /* \"#utility.yul\":1268:1289   */\n      tag_238\n      jump\t// in\n    tag_308:\n        /* \"#utility.yul\":1263:1266   */\n      dup3\n        /* \"#utility.yul\":1256:1290   */\n      mstore\n        /* \"#utility.yul\":1187:1296   */\n      pop\n      pop\n      jump\t// out\n        /* \"#utility.yul\":1302:1512   */\n    tag_26:\n        /* \"#utility.yul\":1389:1393   */\n      0x00\n        /* \"#utility.yul\":1427:1429   */\n      0x20\n        /* \"#utility.yul\":1416:1425   */\n      dup3\n        /* \"#utility.yul\":1412:1430   */\n      add\n        /* \"#utility.yul\":1404:1430   */\n      swap1\n      pop\n        /* \"#utility.yul\":1440:1505   */\n      tag_310\n        /* \"#utility.yul\":1502:1503   */\n      0x00\n        /* \"#utility.yul\":1491:1500   */\n      dup4\n        /* \"#utility.yul\":1487:1504   */\n      add\n        /* \"#utility.yul\":1478:1484   */\n      dup5\n        /* \"#utility.yul\":1440:1505   */\n      tag_239\n      jump\t// in\n    tag_310:\n        /* \"#utility.yul\":1302:1512   */\n      swap3\n      swap2\n      pop\n      pop\n      jump\t// out\n        /* \"#utility.yul\":1518:1617   */\n    tag_240:\n        /* \"#utility.yul\":1570:1576   */\n      0x00\n        /* \"#utility.yul\":1604:1609   */\n      dup2\n        /* \"#utility.yul\":1598:1610   */\n      mload\n        /* \"#utility.yul\":1588:1610   */\n      swap1\n      pop\n        /* \"#utility.yul\":1518:1617   */\n      swap2\n      swap1\n      pop\n      jump\t// out\n        /* \"#utility.yul\":1623:1792   */\n    tag_241:\n        /* \"#utility.yul\":1707:1718   */\n      0x00\n        /* \"#utility.yul\":1741:1747   */\n      dup3\n        /* \"#utility.yul\":1736:1739   */\n      dup3\n        /* \"#utility.yul\":1729:1748   */\n      mstore\n        /* \"#utility.yul\":1781:1785   */\n      0x20\n        /* \"#utility.yul\":1776:1779   */\n      dup3\n        /* \"#utility.yul\":1772:1786   */\n      add\n        /* \"#utility.yul\":1757:1786   */\n      swap1\n      pop\n        /* \"#utility.yul\":1623:1792   */\n      swap3\n      swap2\n      pop\n      pop\n      jump\t// out\n        /* \"#utility.yul\":1798:2044   */\n    tag_242:\n        /* \"#utility.yul\":1879:1880   */\n      0x00\n        /* \"#utility.yul\":1889:2002   */\n    tag_314:\n        /* \"#utility.yul\":1903:1909   */\n      dup4\n        /* \"#utility.yul\":1900:1901   */\n      dup2\n        /* \"#utility.yul\":1897:1910   */\n      lt\n        /* \"#utility.yul\":1889:2002   */\n      iszero\n      tag_316\n      jumpi\n        /* \"#utility.yul\":1988:1989   */\n      dup1\n        /* \"#utility.yul\":1983:1986   */\n      dup3\n        /* \"#utility.yul\":1979:1990   */\n      add\n        /* \"#utility.yul\":1973:1991   */\n      mload\n        /* \"#utility.yul\":1969:1970   */\n      dup2\n        /* \"#utility.yul\":1964:1967   */\n      dup5\n        /* \"#utility.yul\":1960:1971   */\n      add\n        /* \"#utility.yul\":1953:1992   */\n      mstore\n        /* \"#utility.yul\":1925:1927   */\n      0x20\n        /* \"#utility.yul\":1922:1923   */\n      dup2\n        /* \"#utility.yul\":1918:1928   */\n      add\n        /* \"#utility.yul\":1913:1928   */\n      swap1\n      pop\n        /* \"#utility.yul\":1889:2002   */\n      jump(tag_314)\n    tag_316:\n        /* \"#utility.yul\":2036:2037   */\n      0x00\n        /* \"#utility.yul\":2027:2033   */\n      dup5\n        /* \"#utility.yul\":2022:2025   */\n      dup5\n        /* \"#utility.yul\":2018:2034   */\n      add\n        /* \"#utility.yul\":2011:2038   */\n      mstore\n        /* \"#utility.yul\":1860:2044   */\n      pop\n        /* \"#utility.yul\":1798:2044   */\n      pop\n      pop\n      pop\n      jump\t// out\n        /* \"#utility.yul\":2050:2152   */\n    tag_243:\n        /* \"#utility.yul\":2091:2097   */\n      0x00\n        /* \"#utility.yul\":2142:2144   */\n      0x1f\n        /* \"#utility.yul\":2138:2145   */\n      not\n        /* \"#utility.yul\":2133:2135   */\n      0x1f\n        /* \"#utility.yul\":2126:2131   */\n      dup4\n        /* \"#utility.yul\":2122:2136   */\n      add\n        /* \"#utility.yul\":2118:2146   */\n      and\n        /* \"#utility.yul\":2108:2146   */\n      swap1\n      pop\n        /* \"#utility.yul\":2050:2152   */\n      swap2\n      swap1\n      pop\n      jump\t// out\n        /* \"#utility.yul\":2158:2535   */\n    tag_244:\n        /* \"#utility.yul\":2246:2249   */\n      0x00\n        /* \"#utility.yul\":2274:2313   */\n      tag_319\n        /* \"#utility.yul\":2307:2312   */\n      dup3\n        /* \"#utility.yul\":2274:2313   */\n      tag_240\n      jump\t// in\n    tag_319:\n        /* \"#utility.yul\":2329:2400   */\n      tag_320\n        /* \"#utility.yul\":2393:2399   */\n      dup2\n        /* \"#utility.yul\":2388:2391   */\n      dup6\n        /* \"#utility.yul\":2329:2400   */\n      tag_241\n      jump\t// in\n    tag_320:\n        /* \"#utility.yul\":2322:2400   */\n      swap4\n      pop\n        /* \"#utility.yul\":2409:2474   */\n      tag_321\n        /* \"#utility.yul\":2467:2473   */\n      dup2\n        /* \"#utility.yul\":2462:2465   */\n      dup6\n        /* \"#utility.yul\":2455:2459   */\n      0x20\n        /* \"#utility.yul\":2448:2453   */\n      dup7\n        /* \"#utility.yul\":2444:2460   */\n      add\n        /* \"#utility.yul\":2409:2474   */\n      tag_242\n      jump\t// in\n    tag_321:\n        /* \"#utility.yul\":2499:2528   */\n      tag_322\n        /* \"#utility.yul\":2521:2527   */\n      dup2\n        /* \"#utility.yul\":2499:2528   */\n      tag_243\n      jump\t// in\n    tag_322:\n        /* \"#utility.yul\":2494:2497   */\n      dup5\n        /* \"#utility.yul\":2490:2529   */\n      add\n        /* \"#utility.yul\":2483:2529   */\n      swap2\n      pop\n        /* \"#utility.yul\":2250:2535   */\n      pop\n        /* \"#utility.yul\":2158:2535   */\n      swap3\n      swap2\n      pop\n      pop\n      jump\t// out\n        /* \"#utility.yul\":2541:2854   */\n    tag_30:\n        /* \"#utility.yul\":2654:2658   */\n      0x00\n        /* \"#utility.yul\":2692:2694   */\n      0x20\n        /* \"#utility.yul\":2681:2690   */\n      dup3\n        /* \"#utility.yul\":2677:2695   */\n      add\n        /* \"#utility.yul\":2669:2695   */\n      swap1\n      pop\n        /* \"#utility.yul\":2741:2750   */\n      dup2\n        /* \"#utility.yul\":2735:2739   */\n      dup2\n        /* \"#utility.yul\":2731:2751   */\n      sub\n        /* \"#utility.yul\":2727:2728   */\n      0x00\n        /* \"#utility.yul\":2716:2725   */\n      dup4\n        /* \"#utility.yul\":2712:2729   */\n      add\n        /* \"#utility.yul\":2705:2752   */\n      mstore\n        /* \"#utility.yul\":2769:2847   */\n      tag_324\n        /* \"#utility.yul\":2842:2846   */\n      dup2\n        /* \"#utility.yul\":2833:2839   */\n      dup5\n        /* \"#utility.yul\":2769:2847   */\n      tag_244\n      jump\t// in\n    tag_324:\n        /* \"#utility.yul\":2761:2847   */\n      swap1\n      pop\n        /* \"#utility.yul\":2541:2854   */\n      swap3\n      swap2\n      pop\n      pop\n      jump\t// out\n        /* \"#utility.yul\":2860:2937   */\n    tag_245:\n        /* \"#utility.yul\":2897:2904   */\n      0x00\n        /* \"#utility.yul\":2926:2931   */\n      dup2\n        /* \"#utility.yul\":2915:2931   */\n      swap1\n      pop\n        /* \"#utility.yul\":2860:2937   */\n      swap2\n      swap1\n      pop\n      jump\t// out\n        /* \"#utility.yul\":2943:3065   */\n    tag_246:\n        /* \"#utility.yul\":3016:3040   */\n      tag_327\n        /* \"#utility.yul\":3034:3039   */\n      dup2\n        /* \"#utility.yul\":3016:3040   */\n      tag_245\n      jump\t// in\n    tag_327:\n        /* \"#utility.yul\":3009:3014   */\n      dup2\n        /* \"#utility.yul\":3006:3041   */\n      eq\n        /* \"#utility.yul\":2996:3059   */\n      tag_328\n      jumpi\n        /* \"#utility.yul\":3055:3056   */\n      0x00\n        /* \"#utility.yul\":3052:3053   */\n      dup1\n        /* \"#utility.yul\":3045:3057   */\n      revert\n        /* \"#utility.yul\":2996:3059   */\n    tag_328:\n        /* \"#utility.yul\":2943:3065   */\n      pop\n      jump\t// out\n        /* \"#utility.yul\":3071:3210   */\n    tag_247:\n        /* \"#utility.yul\":3117:3122   */\n      0x00\n        /* \"#utility.yul\":3155:3161   */\n      dup2\n        /* \"#utility.yul\":3142:3162   */\n      calldataload\n        /* \"#utility.yul\":3133:3162   */\n      swap1\n      pop\n        /* \"#utility.yul\":3171:3204   */\n      tag_330\n        /* \"#utility.yul\":3198:3203   */\n      dup2\n        /* \"#utility.yul\":3171:3204   */\n      tag_246\n      jump\t// in\n    tag_330:\n        /* \"#utility.yul\":3071:3210   */\n      swap3\n      swap2\n      pop\n      pop\n      jump\t// out\n        /* \"#utility.yul\":3216:3545   */\n    tag_33:\n        /* \"#utility.yul\":3275:3281   */\n      0x00\n        /* \"#utility.yul\":3324:3326   */\n      0x20\n        /* \"#utility.yul\":3312:3321   */\n      dup3\n        /* \"#utility.yul\":3303:3310   */\n      dup5\n        /* \"#utility.yul\":3299:3322   */\n      sub\n        /* \"#utility.yul\":3295:3327   */\n      slt\n        /* \"#utility.yul\":3292:3411   */\n      iszero\n      tag_332\n      jumpi\n        /* \"#utility.yul\":3330:3409   */\n      tag_333\n      tag_233\n      jump\t// in\n    tag_333:\n        /* \"#utility.yul\":3292:3411   */\n    tag_332:\n        /* \"#utility.yul\":3450:3451   */\n      0x00\n        /* \"#utility.yul\":3475:3528   */\n      tag_334\n        /* \"#utility.yul\":3520:3527   */\n      dup5\n        /* \"#utility.yul\":3511:3517   */\n      dup3\n        /* \"#utility.yul\":3500:3509   */\n      dup6\n        /* \"#utility.yul\":3496:3518   */\n      add\n        /* \"#utility.yul\":3475:3528   */\n      tag_247\n      jump\t// in\n    tag_334:\n        /* \"#utility.yul\":3465:3528   */\n      swap2\n      pop\n        /* \"#utility.yul\":3421:3538   */\n      pop\n        /* \"#utility.yul\":3216:3545   */\n      swap3\n      swap2\n      pop\n      pop\n      jump\t// out\n        /* \"#utility.yul\":3551:3677   */\n    tag_248:\n        /* \"#utility.yul\":3588:3595   */\n      0x00\n        /* \"#utility.yul\":3628:3670   */\n      0xffffffffffffffffffffffffffffffffffffffff\n        /* \"#utility.yul\":3621:3626   */\n      dup3\n        /* \"#utility.yul\":3617:3671   */\n      and\n        /* \"#utility.yul\":3606:3671   */\n      swap1\n      pop\n        /* \"#utility.yul\":3551:3677   */\n      swap2\n      swap1\n      pop\n      jump\t// out\n        /* \"#utility.yul\":3683:3779   */\n    tag_249:\n        /* \"#utility.yul\":3720:3727   */\n      0x00\n        /* \"#utility.yul\":3749:3773   */\n      tag_337\n        /* \"#utility.yul\":3767:3772   */\n      dup3\n        /* \"#utility.yul\":3749:3773   */\n      tag_248\n      jump\t// in\n    tag_337:\n        /* \"#utility.yul\":3738:3773   */\n      swap1\n      pop\n        /* \"#utility.yul\":3683:3779   */\n      swap2\n      swap1\n      pop\n      jump\t// out\n        /* \"#utility.yul\":3785:3903   */\n    tag_250:\n        /* \"#utility.yul\":3872:3896   */\n      tag_339\n        /* \"#utility.yul\":3890:3895   */\n      dup2\n        /* \"#utility.yul\":3872:3896   */\n      tag_249\n      jump\t// in\n    tag_339:\n        /* \"#utility.yul\":3867:3870   */\n      dup3\n        /* \"#utility.yul\":3860:3897   */\n      mstore\n        /* \"#utility.yul\":3785:3903   */\n      pop\n      pop\n      jump\t// out\n        /* \"#utility.yul\":3909:4131   */\n    tag_36:\n        /* \"#utility.yul\":4002:4006   */\n      0x00\n        /* \"#utility.yul\":4040:4042   */\n      0x20\n        /* \"#utility.yul\":4029:4038   */\n      dup3\n        /* \"#utility.yul\":4025:4043   */\n      add\n        /* \"#utility.yul\":4017:4043   */\n      swap1\n      pop\n        /* \"#utility.yul\":4053:4124   */\n      tag_341\n        /* \"#utility.yul\":4121:4122   */\n      0x00\n        /* \"#utility.yul\":4110:4119   */\n      dup4\n        /* \"#utility.yul\":4106:4123   */\n      add\n        /* \"#utility.yul\":4097:4103   */\n      dup5\n        /* \"#utility.yul\":4053:4124   */\n      tag_250\n      jump\t// in\n    tag_341:\n        /* \"#utility.yul\":3909:4131   */\n      swap3\n      swap2\n      pop\n      pop\n      jump\t// out\n        /* \"#utility.yul\":4137:4259   */\n    tag_251:\n        /* \"#utility.yul\":4210:4234   */\n      tag_343\n        /* \"#utility.yul\":4228:4233   */\n      dup2\n        /* \"#utility.yul\":4210:4234   */\n      tag_249\n      jump\t// in\n    tag_343:\n        /* \"#utility.yul\":4203:4208   */\n      dup2\n        /* \"#utility.yul\":4200:4235   */\n      eq\n        /* \"#utility.yul\":4190:4253   */\n      tag_344\n      jumpi\n        /* \"#utility.yul\":4249:4250   */\n      0x00\n        /* \"#utility.yul\":4246:4247   */\n      dup1\n        /* \"#utility.yul\":4239:4251   */\n      revert\n        /* \"#utility.yul\":4190:4253   */\n    tag_344:\n        /* \"#utility.yul\":4137:4259   */\n      pop\n      jump\t// out\n        /* \"#utility.yul\":4265:4404   */\n    tag_252:\n        /* \"#utility.yul\":4311:4316   */\n      0x00\n        /* \"#utility.yul\":4349:4355   */\n      dup2\n        /* \"#utility.yul\":4336:4356   */\n      calldataload\n        /* \"#utility.yul\":4327:4356   */\n      swap1\n      pop\n        /* \"#utility.yul\":4365:4398   */\n      tag_346\n        /* \"#utility.yul\":4392:4397   */\n      dup2\n        /* \"#utility.yul\":4365:4398   */\n      tag_251\n      jump\t// in\n    tag_346:\n        /* \"#utility.yul\":4265:4404   */\n      swap3\n      swap2\n      pop\n      pop\n      jump\t// out\n        /* \"#utility.yul\":4410:4884   */\n    tag_39:\n        /* \"#utility.yul\":4478:4484   */\n      0x00\n        /* \"#utility.yul\":4486:4492   */\n      dup1\n        /* \"#utility.yul\":4535:4537   */\n      0x40\n        /* \"#utility.yul\":4523:4532   */\n      dup4\n        /* \"#utility.yul\":4514:4521   */\n      dup6\n        /* \"#utility.yul\":4510:4533   */\n      sub\n        /* \"#utility.yul\":4506:4538   */\n      slt\n        /* \"#utility.yul\":4503:4622   */\n      iszero\n      tag_348\n      jumpi\n        /* \"#utility.yul\":4541:4620   */\n      tag_349\n      tag_233\n      jump\t// in\n    tag_349:\n        /* \"#utility.yul\":4503:4622   */\n    tag_348:\n        /* \"#utility.yul\":4661:4662   */\n      0x00\n        /* \"#utility.yul\":4686:4739   */\n      tag_350\n        /* \"#utility.yul\":4731:4738   */\n      dup6\n        /* \"#utility.yul\":4722:4728   */\n      dup3\n        /* \"#utility.yul\":4711:4720   */\n      dup7\n        /* \"#utility.yul\":4707:4729   */\n      add\n        /* \"#utility.yul\":4686:4739   */\n      tag_252\n      jump\t// in\n    tag_350:\n        /* \"#utility.yul\":4676:4739   */\n      swap3\n      pop\n        /* \"#utility.yul\":4632:4749   */\n      pop\n        /* \"#utility.yul\":4788:4790   */\n      0x20\n        /* \"#utility.yul\":4814:4867   */\n      tag_351\n        /* \"#utility.yul\":4859:4866   */\n      dup6\n        /* \"#utility.yul\":4850:4856   */\n      dup3\n        /* \"#utility.yul\":4839:4848   */\n      dup7\n        /* \"#utility.yul\":4835:4857   */\n      add\n        /* \"#utility.yul\":4814:4867   */\n      tag_247\n      jump\t// in\n    tag_351:\n        /* \"#utility.yul\":4804:4867   */\n      swap2\n      pop\n        /* \"#utility.yul\":4759:4877   */\n      pop\n        /* \"#utility.yul\":4410:4884   */\n      swap3\n      pop\n      swap3\n      swap1\n      pop\n      jump\t// out\n        /* \"#utility.yul\":4890:5509   */\n    tag_43:\n        /* \"#utility.yul\":4967:4973   */\n      0x00\n        /* \"#utility.yul\":4975:4981   */\n      dup1\n        /* \"#utility.yul\":4983:4989   */\n      0x00\n        /* \"#utility.yul\":5032:5034   */\n      0x60\n        /* \"#utility.yul\":5020:5029   */\n      dup5\n        /* \"#utility.yul\":5011:5018   */\n      dup7\n        /* \"#utility.yul\":5007:5030   */\n      sub\n        /* \"#utility.yul\":5003:5035   */\n      slt\n        /* \"#utility.yul\":5000:5119   */\n      iszero\n      tag_353\n      jumpi\n        /* \"#utility.yul\":5038:5117   */\n      tag_354\n      tag_233\n      jump\t// in\n    tag_354:\n        /* \"#utility.yul\":5000:5119   */\n    tag_353:\n        /* \"#utility.yul\":5158:5159   */\n      0x00\n        /* \"#utility.yul\":5183:5236   */\n      tag_355\n        /* \"#utility.yul\":5228:5235   */\n      dup7\n        /* \"#utility.yul\":5219:5225   */\n      dup3\n        /* \"#utility.yul\":5208:5217   */\n      dup8\n        /* \"#utility.yul\":5204:5226   */\n      add\n        /* \"#utility.yul\":5183:5236   */\n      tag_252\n      jump\t// in\n    tag_355:\n        /* \"#utility.yul\":5173:5236   */\n      swap4\n      pop\n        /* \"#utility.yul\":5129:5246   */\n      pop\n        /* \"#utility.yul\":5285:5287   */\n      0x20\n        /* \"#utility.yul\":5311:5364   */\n      tag_356\n        /* \"#utility.yul\":5356:5363   */\n      dup7\n        /* \"#utility.yul\":5347:5353   */\n      dup3\n        /* \"#utility.yul\":5336:5345   */\n      dup8\n        /* \"#utility.yul\":5332:5354   */\n      add\n        /* \"#utility.yul\":5311:5364   */\n      tag_252\n      jump\t// in\n    tag_356:\n        /* \"#utility.yul\":5301:5364   */\n      swap3\n      pop\n        /* \"#utility.yul\":5256:5374   */\n      pop\n        /* \"#utility.yul\":5413:5415   */\n      0x40\n        /* \"#utility.yul\":5439:5492   */\n      tag_357\n        /* \"#utility.yul\":5484:5491   */\n      dup7\n        /* \"#utility.yul\":5475:5481   */\n      dup3\n        /* \"#utility.yul\":5464:5473   */\n      dup8\n        /* \"#utility.yul\":5460:5482   */\n      add\n        /* \"#utility.yul\":5439:5492   */\n      tag_247\n      jump\t// in\n    tag_357:\n        /* \"#utility.yul\":5429:5492   */\n      swap2\n      pop\n        /* \"#utility.yul\":5384:5502   */\n      pop\n        /* \"#utility.yul\":4890:5509   */\n      swap3\n      pop\n      swap3\n      pop\n      swap3\n      jump\t// out\n        /* \"#utility.yul\":5515:5631   */\n    tag_253:\n        /* \"#utility.yul\":5585:5606   */\n      tag_359\n        /* \"#utility.yul\":5600:5605   */\n      dup2\n        /* \"#utility.yul\":5585:5606   */\n      tag_238\n      jump\t// in\n    tag_359:\n        /* \"#utility.yul\":5578:5583   */\n      dup2\n        /* \"#utility.yul\":5575:5607   */\n      eq\n        /* \"#utility.yul\":5565:5625   */\n      tag_360\n      jumpi\n        /* \"#utility.yul\":5621:5622   */\n      0x00\n        /* \"#utility.yul\":5618:5619   */\n      dup1\n        /* \"#utility.yul\":5611:5623   */\n      revert\n        /* \"#utility.yul\":5565:5625   */\n    tag_360:\n        /* \"#utility.yul\":5515:5631   */\n      pop\n      jump\t// out\n        /* \"#utility.yul\":5637:5770   */\n    tag_254:\n        /* \"#utility.yul\":5680:5685   */\n      0x00\n        /* \"#utility.yul\":5718:5724   */\n      dup2\n        /* \"#utility.yul\":5705:5725   */\n      calldataload\n        /* \"#utility.yul\":5696:5725   */\n      swap1\n      pop\n        /* \"#utility.yul\":5734:5764   */\n      tag_362\n        /* \"#utility.yul\":5758:5763   */\n      dup2\n        /* \"#utility.yul\":5734:5764   */\n      tag_253\n      jump\t// in\n    tag_362:\n        /* \"#utility.yul\":5637:5770   */\n      swap3\n      swap2\n      pop\n      pop\n      jump\t// out\n        /* \"#utility.yul\":5776:6389   */\n    tag_47:\n        /* \"#utility.yul\":5850:5856   */\n      0x00\n        /* \"#utility.yul\":5858:5864   */\n      dup1\n        /* \"#utility.yul\":5866:5872   */\n      0x00\n        /* \"#utility.yul\":5915:5917   */\n      0x60\n        /* \"#utility.yul\":5903:5912   */\n      dup5\n        /* \"#utility.yul\":5894:5901   */\n      dup7\n        /* \"#utility.yul\":5890:5913   */\n      sub\n        /* \"#utility.yul\":5886:5918   */\n      slt\n        /* \"#utility.yul\":5883:6002   */\n      iszero\n      tag_364\n      jumpi\n        /* \"#utility.yul\":5921:6000   */\n      tag_365\n      tag_233\n      jump\t// in\n    tag_365:\n        /* \"#utility.yul\":5883:6002   */\n    tag_364:\n        /* \"#utility.yul\":6041:6042   */\n      0x00\n        /* \"#utility.yul\":6066:6119   */\n      tag_366\n        /* \"#utility.yul\":6111:6118   */\n      dup7\n        /* \"#utility.yul\":6102:6108   */\n      dup3\n        /* \"#utility.yul\":6091:6100   */\n      dup8\n        /* \"#utility.yul\":6087:6109   */\n      add\n        /* \"#utility.yul\":6066:6119   */\n      tag_252\n      jump\t// in\n    tag_366:\n        /* \"#utility.yul\":6056:6119   */\n      swap4\n      pop\n        /* \"#utility.yul\":6012:6129   */\n      pop\n        /* \"#utility.yul\":6168:6170   */\n      0x20\n        /* \"#utility.yul\":6194:6247   */\n      tag_367\n        /* \"#utility.yul\":6239:6246   */\n      dup7\n        /* \"#utility.yul\":6230:6236   */\n      dup3\n        /* \"#utility.yul\":6219:6228   */\n      dup8\n        /* \"#utility.yul\":6215:6237   */\n      add\n        /* \"#utility.yul\":6194:6247   */\n      tag_252\n      jump\t// in\n    tag_367:\n        /* \"#utility.yul\":6184:6247   */\n      swap3\n      pop\n        /* \"#utility.yul\":6139:6257   */\n      pop\n        /* \"#utility.yul\":6296:6298   */\n      0x40\n        /* \"#utility.yul\":6322:6372   */\n      tag_368\n        /* \"#utility.yul\":6364:6371   */\n      dup7\n        /* \"#utility.yul\":6355:6361   */\n      dup3\n        /* \"#utility.yul\":6344:6353   */\n      dup8\n        /* \"#utility.yul\":6340:6362   */\n      add\n        /* \"#utility.yul\":6322:6372   */\n      tag_254\n      jump\t// in\n    tag_368:\n        /* \"#utility.yul\":6312:6372   */\n      swap2\n      pop\n        /* \"#utility.yul\":6267:6382   */\n      pop\n        /* \"#utility.yul\":5776:6389   */\n      swap3\n      pop\n      swap3\n      pop\n      swap3\n      jump\t// out\n        /* \"#utility.yul\":6395:6724   */\n    tag_58:\n        /* \"#utility.yul\":6454:6460   */\n      0x00\n        /* \"#utility.yul\":6503:6505   */\n      0x20\n        /* \"#utility.yul\":6491:6500   */\n      dup3\n        /* \"#utility.yul\":6482:6489   */\n      dup5\n        /* \"#utility.yul\":6478:6501   */\n      sub\n        /* \"#utility.yul\":6474:6506   */\n      slt\n        /* \"#utility.yul\":6471:6590   */\n      iszero\n      tag_370\n      jumpi\n        /* \"#utility.yul\":6509:6588   */\n      tag_371\n      tag_233\n      jump\t// in\n    tag_371:\n        /* \"#utility.yul\":6471:6590   */\n    tag_370:\n        /* \"#utility.yul\":6629:6630   */\n      0x00\n        /* \"#utility.yul\":6654:6707   */\n      tag_372\n        /* \"#utility.yul\":6699:6706   */\n      dup5\n        /* \"#utility.yul\":6690:6696   */\n      dup3\n        /* \"#utility.yul\":6679:6688   */\n      dup6\n        /* \"#utility.yul\":6675:6697   */\n      add\n        /* \"#utility.yul\":6654:6707   */\n      tag_252\n      jump\t// in\n    tag_372:\n        /* \"#utility.yul\":6644:6707   */\n      swap2\n      pop\n        /* \"#utility.yul\":6600:6717   */\n      pop\n        /* \"#utility.yul\":6395:6724   */\n      swap3\n      swap2\n      pop\n      pop\n      jump\t// out\n        /* \"#utility.yul\":6730:6848   */\n    tag_255:\n        /* \"#utility.yul\":6817:6841   */\n      tag_374\n        /* \"#utility.yul\":6835:6840   */\n      dup2\n        /* \"#utility.yul\":6817:6841   */\n      tag_245\n      jump\t// in\n    tag_374:\n        /* \"#utility.yul\":6812:6815   */\n      dup3\n        /* \"#utility.yul\":6805:6842   */\n      mstore\n        /* \"#utility.yul\":6730:6848   */\n      pop\n      pop\n      jump\t// out\n        /* \"#utility.yul\":6854:7076   */\n    tag_61:\n        /* \"#utility.yul\":6947:6951   */\n      0x00\n        /* \"#utility.yul\":6985:6987   */\n      0x20\n        /* \"#utility.yul\":6974:6983   */\n      dup3\n        /* \"#utility.yul\":6970:6988   */\n      add\n        /* \"#utility.yul\":6962:6988   */\n      swap1\n      pop\n        /* \"#utility.yul\":6998:7069   */\n      tag_376\n        /* \"#utility.yul\":7066:7067   */\n      0x00\n        /* \"#utility.yul\":7055:7064   */\n      dup4\n        /* \"#utility.yul\":7051:7068   */\n      add\n        /* \"#utility.yul\":7042:7048   */\n      dup5\n        /* \"#utility.yul\":6998:7069   */\n      tag_255\n      jump\t// in\n    tag_376:\n        /* \"#utility.yul\":6854:7076   */\n      swap3\n      swap2\n      pop\n      pop\n      jump\t// out\n        /* \"#utility.yul\":7082:7550   */\n    tag_67:\n        /* \"#utility.yul\":7147:7153   */\n      0x00\n        /* \"#utility.yul\":7155:7161   */\n      dup1\n        /* \"#utility.yul\":7204:7206   */\n      0x40\n        /* \"#utility.yul\":7192:7201   */\n      dup4\n        /* \"#utility.yul\":7183:7190   */\n      dup6\n        /* \"#utility.yul\":7179:7202   */\n      sub\n        /* \"#utility.yul\":7175:7207   */\n      slt\n        /* \"#utility.yul\":7172:7291   */\n      iszero\n      tag_378\n      jumpi\n        /* \"#utility.yul\":7210:7289   */\n      tag_379\n      tag_233\n      jump\t// in\n    tag_379:\n        /* \"#utility.yul\":7172:7291   */\n    tag_378:\n        /* \"#utility.yul\":7330:7331   */\n      0x00\n        /* \"#utility.yul\":7355:7408   */\n      tag_380\n        /* \"#utility.yul\":7400:7407   */\n      dup6\n        /* \"#utility.yul\":7391:7397   */\n      dup3\n        /* \"#utility.yul\":7380:7389   */\n      dup7\n        /* \"#utility.yul\":7376:7398   */\n      add\n        /* \"#utility.yul\":7355:7408   */\n      tag_252\n      jump\t// in\n    tag_380:\n        /* \"#utility.yul\":7345:7408   */\n      swap3\n      pop\n        /* \"#utility.yul\":7301:7418   */\n      pop\n        /* \"#utility.yul\":7457:7459   */\n      0x20\n        /* \"#utility.yul\":7483:7533   */\n      tag_381\n        /* \"#utility.yul\":7525:7532   */\n      dup6\n        /* \"#utility.yul\":7516:7522   */\n      dup3\n        /* \"#utility.yul\":7505:7514   */\n      dup7\n        /* \"#utility.yul\":7501:7523   */\n      add\n        /* \"#utility.yul\":7483:7533   */\n      tag_254\n      jump\t// in\n    tag_381:\n        /* \"#utility.yul\":7473:7533   */\n      swap2\n      pop\n        /* \"#utility.yul\":7428:7543   */\n      pop\n        /* \"#utility.yul\":7082:7550   */\n      swap3\n      pop\n      swap3\n      swap1\n      pop\n      jump\t// out\n        /* \"#utility.yul\":7556:7673   */\n    tag_256:\n        /* \"#utility.yul\":7665:7666   */\n      0x00\n        /* \"#utility.yul\":7662:7663   */\n      dup1\n        /* \"#utility.yul\":7655:7667   */\n      revert\n        /* \"#utility.yul\":7679:7796   */\n    tag_257:\n        /* \"#utility.yul\":7788:7789   */\n      0x00\n        /* \"#utility.yul\":7785:7786   */\n      dup1\n        /* \"#utility.yul\":7778:7790   */\n      revert\n        /* \"#utility.yul\":7802:7982   */\n    tag_258:\n        /* \"#utility.yul\":7850:7927   */\n      0x4e487b7100000000000000000000000000000000000000000000000000000000\n        /* \"#utility.yul\":7847:7848   */\n      0x00\n        /* \"#utility.yul\":7840:7928   */\n      mstore\n        /* \"#utility.yul\":7947:7951   */\n      0x41\n        /* \"#utility.yul\":7944:7945   */\n      0x04\n        /* \"#utility.yul\":7937:7952   */\n      mstore\n        /* \"#utility.yul\":7971:7975   */\n      0x24\n        /* \"#utility.yul\":7968:7969   */\n      0x00\n        /* \"#utility.yul\":7961:7976   */\n      revert\n        /* \"#utility.yul\":7988:8269   */\n    tag_259:\n        /* \"#utility.yul\":8071:8098   */\n      tag_386\n        /* \"#utility.yul\":8093:8097   */\n      dup3\n        /* \"#utility.yul\":8071:8098   */\n      tag_243\n      jump\t// in\n    tag_386:\n        /* \"#utility.yul\":8063:8069   */\n      dup2\n        /* \"#utility.yul\":8059:8099   */\n      add\n        /* \"#utility.yul\":8201:8207   */\n      dup2\n        /* \"#utility.yul\":8189:8199   */\n      dup2\n        /* \"#utility.yul\":8186:8208   */\n      lt\n        /* \"#utility.yul\":8165:8183   */\n      0xffffffffffffffff\n        /* \"#utility.yul\":8153:8163   */\n      dup3\n        /* \"#utility.yul\":8150:8184   */\n      gt\n        /* \"#utility.yul\":8147:8209   */\n      or\n        /* \"#utility.yul\":8144:8232   */\n      iszero\n      tag_387\n      jumpi\n        /* \"#utility.yul\":8212:8230   */\n      tag_388\n      tag_258\n      jump\t// in\n    tag_388:\n        /* \"#utility.yul\":8144:8232   */\n    tag_387:\n        /* \"#utility.yul\":8252:8262   */\n      dup1\n        /* \"#utility.yul\":8248:8250   */\n      0x40\n        /* \"#utility.yul\":8241:8263   */\n      mstore\n        /* \"#utility.yul\":8031:8269   */\n      pop\n        /* \"#utility.yul\":7988:8269   */\n      pop\n      pop\n      jump\t// out\n        /* \"#utility.yul\":8275:8404   */\n    tag_260:\n        /* \"#utility.yul\":8309:8315   */\n      0x00\n        /* \"#utility.yul\":8336:8356   */\n      tag_390\n      tag_232\n      jump\t// in\n    tag_390:\n        /* \"#utility.yul\":8326:8356   */\n      swap1\n      pop\n        /* \"#utility.yul\":8365:8398   */\n      tag_391\n        /* \"#utility.yul\":8393:8397   */\n      dup3\n        /* \"#utility.yul\":8385:8391   */\n      dup3\n        /* \"#utility.yul\":8365:8398   */\n      tag_259\n      jump\t// in\n    tag_391:\n        /* \"#utility.yul\":8275:8404   */\n      swap2\n      swap1\n      pop\n      jump\t// out\n        /* \"#utility.yul\":8410:8718   */\n    tag_261:\n        /* \"#utility.yul\":8472:8476   */\n      0x00\n        /* \"#utility.yul\":8562:8580   */\n      0xffffffffffffffff\n        /* \"#utility.yul\":8554:8560   */\n      dup3\n        /* \"#utility.yul\":8551:8581   */\n      gt\n        /* \"#utility.yul\":8548:8604   */\n      iszero\n      tag_393\n      jumpi\n        /* \"#utility.yul\":8584:8602   */\n      tag_394\n      tag_258\n      jump\t// in\n    tag_394:\n        /* \"#utility.yul\":8548:8604   */\n    tag_393:\n        /* \"#utility.yul\":8622:8651   */\n      tag_395\n        /* \"#utility.yul\":8644:8650   */\n      dup3\n        /* \"#utility.yul\":8622:8651   */\n      tag_243\n      jump\t// in\n    tag_395:\n        /* \"#utility.yul\":8614:8651   */\n      swap1\n      pop\n        /* \"#utility.yul\":8706:8710   */\n      0x20\n        /* \"#utility.yul\":8700:8704   */\n      dup2\n        /* \"#utility.yul\":8696:8711   */\n      add\n        /* \"#utility.yul\":8688:8711   */\n      swap1\n      pop\n        /* \"#utility.yul\":8410:8718   */\n      swap2\n      swap1\n      pop\n      jump\t// out\n        /* \"#utility.yul\":8724:8870   */\n    tag_262:\n        /* \"#utility.yul\":8821:8827   */\n      dup3\n        /* \"#utility.yul\":8816:8819   */\n      dup2\n        /* \"#utility.yul\":8811:8814   */\n      dup4\n        /* \"#utility.yul\":8798:8828   */\n      calldatacopy\n        /* \"#utility.yul\":8862:8863   */\n      0x00\n        /* \"#utility.yul\":8853:8859   */\n      dup4\n        /* \"#utility.yul\":8848:8851   */\n      dup4\n        /* \"#utility.yul\":8844:8860   */\n      add\n        /* \"#utility.yul\":8837:8864   */\n      mstore\n        /* \"#utility.yul\":8724:8870   */\n      pop\n      pop\n      pop\n      jump\t// out\n        /* \"#utility.yul\":8876:9301   */\n    tag_263:\n        /* \"#utility.yul\":8954:8959   */\n      0x00\n        /* \"#utility.yul\":8979:9045   */\n      tag_398\n        /* \"#utility.yul\":8995:9044   */\n      tag_399\n        /* \"#utility.yul\":9037:9043   */\n      dup5\n        /* \"#utility.yul\":8995:9044   */\n      tag_261\n      jump\t// in\n    tag_399:\n        /* \"#utility.yul\":8979:9045   */\n      tag_260\n      jump\t// in\n    tag_398:\n        /* \"#utility.yul\":8970:9045   */\n      swap1\n      pop\n        /* \"#utility.yul\":9068:9074   */\n      dup3\n        /* \"#utility.yul\":9061:9066   */\n      dup2\n        /* \"#utility.yul\":9054:9075   */\n      mstore\n        /* \"#utility.yul\":9106:9110   */\n      0x20\n        /* \"#utility.yul\":9099:9104   */\n      dup2\n        /* \"#utility.yul\":9095:9111   */\n      add\n        /* \"#utility.yul\":9144:9147   */\n      dup5\n        /* \"#utility.yul\":9135:9141   */\n      dup5\n        /* \"#utility.yul\":9130:9133   */\n      dup5\n        /* \"#utility.yul\":9126:9142   */\n      add\n        /* \"#utility.yul\":9123:9148   */\n      gt\n        /* \"#utility.yul\":9120:9232   */\n      iszero\n      tag_400\n      jumpi\n        /* \"#utility.yul\":9151:9230   */\n      tag_401\n      tag_257\n      jump\t// in\n    tag_401:\n        /* \"#utility.yul\":9120:9232   */\n    tag_400:\n        /* \"#utility.yul\":9241:9295   */\n      tag_402\n        /* \"#utility.yul\":9288:9294   */\n      dup5\n        /* \"#utility.yul\":9283:9286   */\n      dup3\n        /* \"#utility.yul\":9278:9281   */\n      dup6\n        /* \"#utility.yul\":9241:9295   */\n      tag_262\n      jump\t// in\n    tag_402:\n        /* \"#utility.yul\":8960:9301   */\n      pop\n        /* \"#utility.yul\":8876:9301   */\n      swap4\n      swap3\n      pop\n      pop\n      pop\n      jump\t// out\n        /* \"#utility.yul\":9321:9661   */\n    tag_264:\n        /* \"#utility.yul\":9377:9382   */\n      0x00\n        /* \"#utility.yul\":9426:9429   */\n      dup3\n        /* \"#utility.yul\":9419:9423   */\n      0x1f\n        /* \"#utility.yul\":9411:9417   */\n      dup4\n        /* \"#utility.yul\":9407:9424   */\n      add\n        /* \"#utility.yul\":9403:9430   */\n      slt\n        /* \"#utility.yul\":9393:9515   */\n      tag_404\n      jumpi\n        /* \"#utility.yul\":9434:9513   */\n      tag_405\n      tag_256\n      jump\t// in\n    tag_405:\n        /* \"#utility.yul\":9393:9515   */\n    tag_404:\n        /* \"#utility.yul\":9551:9557   */\n      dup2\n        /* \"#utility.yul\":9538:9558   */\n      calldataload\n        /* \"#utility.yul\":9576:9655   */\n      tag_406\n        /* \"#utility.yul\":9651:9654   */\n      dup5\n        /* \"#utility.yul\":9643:9649   */\n      dup3\n        /* \"#utility.yul\":9636:9640   */\n      0x20\n        /* \"#utility.yul\":9628:9634   */\n      dup7\n        /* \"#utility.yul\":9624:9641   */\n      add\n        /* \"#utility.yul\":9576:9655   */\n      tag_263\n      jump\t// in\n    tag_406:\n        /* \"#utility.yul\":9567:9655   */\n      swap2\n      pop\n        /* \"#utility.yul\":9383:9661   */\n      pop\n        /* \"#utility.yul\":9321:9661   */\n      swap3\n      swap2\n      pop\n      pop\n      jump\t// out\n        /* \"#utility.yul\":9667:10321   */\n    tag_71:\n        /* \"#utility.yul\":9745:9751   */\n      0x00\n        /* \"#utility.yul\":9753:9759   */\n      dup1\n        /* \"#utility.yul\":9802:9804   */\n      0x40\n        /* \"#utility.yul\":9790:9799   */\n      dup4\n        /* \"#utility.yul\":9781:9788   */\n      dup6\n        /* \"#utility.yul\":9777:9800   */\n      sub\n        /* \"#utility.yul\":9773:9805   */\n      slt\n        /* \"#utility.yul\":9770:9889   */\n      iszero\n      tag_408\n      jumpi\n        /* \"#utility.yul\":9808:9887   */\n      tag_409\n      tag_233\n      jump\t// in\n    tag_409:\n        /* \"#utility.yul\":9770:9889   */\n    tag_408:\n        /* \"#utility.yul\":9956:9957   */\n      0x00\n        /* \"#utility.yul\":9945:9954   */\n      dup4\n        /* \"#utility.yul\":9941:9958   */\n      add\n        /* \"#utility.yul\":9928:9959   */\n      calldataload\n        /* \"#utility.yul\":9986:10004   */\n      0xffffffffffffffff\n        /* \"#utility.yul\":9978:9984   */\n      dup2\n        /* \"#utility.yul\":9975:10005   */\n      gt\n        /* \"#utility.yul\":9972:10089   */\n      iszero\n      tag_410\n      jumpi\n        /* \"#utility.yul\":10008:10087   */\n      tag_411\n      tag_234\n      jump\t// in\n    tag_411:\n        /* \"#utility.yul\":9972:10089   */\n    tag_410:\n        /* \"#utility.yul\":10113:10176   */\n      tag_412\n        /* \"#utility.yul\":10168:10175   */\n      dup6\n        /* \"#utility.yul\":10159:10165   */\n      dup3\n        /* \"#utility.yul\":10148:10157   */\n      dup7\n        /* \"#utility.yul\":10144:10166   */\n      add\n        /* \"#utility.yul\":10113:10176   */\n      tag_264\n      jump\t// in\n    tag_412:\n        /* \"#utility.yul\":10103:10176   */\n      swap3\n      pop\n        /* \"#utility.yul\":9899:10186   */\n      pop\n        /* \"#utility.yul\":10225:10227   */\n      0x20\n        /* \"#utility.yul\":10251:10304   */\n      tag_413\n        /* \"#utility.yul\":10296:10303   */\n      dup6\n        /* \"#utility.yul\":10287:10293   */\n      dup3\n        /* \"#utility.yul\":10276:10285   */\n      dup7\n        /* \"#utility.yul\":10272:10294   */\n      add\n        /* \"#utility.yul\":10251:10304   */\n      tag_252\n      jump\t// in\n    tag_413:\n        /* \"#utility.yul\":10241:10304   */\n      swap2\n      pop\n        /* \"#utility.yul\":10196:10314   */\n      pop\n        /* \"#utility.yul\":9667:10321   */\n      swap3\n      pop\n      swap3\n      swap1\n      pop\n      jump\t// out\n        /* \"#utility.yul\":10327:10634   */\n    tag_265:\n        /* \"#utility.yul\":10388:10392   */\n      0x00\n        /* \"#utility.yul\":10478:10496   */\n      0xffffffffffffffff\n        /* \"#utility.yul\":10470:10476   */\n      dup3\n        /* \"#utility.yul\":10467:10497   */\n      gt\n        /* \"#utility.yul\":10464:10520   */\n      iszero\n      tag_415\n      jumpi\n        /* \"#utility.yul\":10500:10518   */\n      tag_416\n      tag_258\n      jump\t// in\n    tag_416:\n        /* \"#utility.yul\":10464:10520   */\n    tag_415:\n        /* \"#utility.yul\":10538:10567   */\n      tag_417\n        /* \"#utility.yul\":10560:10566   */\n      dup3\n        /* \"#utility.yul\":10538:10567   */\n      tag_243\n      jump\t// in\n    tag_417:\n        /* \"#utility.yul\":10530:10567   */\n      swap1\n      pop\n        /* \"#utility.yul\":10622:10626   */\n      0x20\n        /* \"#utility.yul\":10616:10620   */\n      dup2\n        /* \"#utility.yul\":10612:10627   */\n      add\n        /* \"#utility.yul\":10604:10627   */\n      swap1\n      pop\n        /* \"#utility.yul\":10327:10634   */\n      swap2\n      swap1\n      pop\n      jump\t// out\n        /* \"#utility.yul\":10640:11063   */\n    tag_266:\n        /* \"#utility.yul\":10717:10722   */\n      0x00\n        /* \"#utility.yul\":10742:10807   */\n      tag_419\n        /* \"#utility.yul\":10758:10806   */\n      tag_420\n        /* \"#utility.yul\":10799:10805   */\n      dup5\n        /* \"#utility.yul\":10758:10806   */\n      tag_265\n      jump\t// in\n    tag_420:\n        /* \"#utility.yul\":10742:10807   */\n      tag_260\n      jump\t// in\n    tag_419:\n        /* \"#utility.yul\":10733:10807   */\n      swap1\n      pop\n        /* \"#utility.yul\":10830:10836   */\n      dup3\n        /* \"#utility.yul\":10823:10828   */\n      dup2\n        /* \"#utility.yul\":10816:10837   */\n      mstore\n        /* \"#utility.yul\":10868:10872   */\n      0x20\n        /* \"#utility.yul\":10861:10866   */\n      dup2\n        /* \"#utility.yul\":10857:10873   */\n      add\n        /* \"#utility.yul\":10906:10909   */\n      dup5\n        /* \"#utility.yul\":10897:10903   */\n      dup5\n        /* \"#utility.yul\":10892:10895   */\n      dup5\n        /* \"#utility.yul\":10888:10904   */\n      add\n        /* \"#utility.yul\":10885:10910   */\n      gt\n        /* \"#utility.yul\":10882:10994   */\n      iszero\n      tag_421\n      jumpi\n        /* \"#utility.yul\":10913:10992   */\n      tag_422\n      tag_257\n      jump\t// in\n    tag_422:\n        /* \"#utility.yul\":10882:10994   */\n    tag_421:\n        /* \"#utility.yul\":11003:11057   */\n      tag_423\n        /* \"#utility.yul\":11050:11056   */\n      dup5\n        /* \"#utility.yul\":11045:11048   */\n      dup3\n        /* \"#utility.yul\":11040:11043   */\n      dup6\n        /* \"#utility.yul\":11003:11057   */\n      tag_262\n      jump\t// in\n    tag_423:\n        /* \"#utility.yul\":10723:11063   */\n      pop\n        /* \"#utility.yul\":10640:11063   */\n      swap4\n      swap3\n      pop\n      pop\n      pop\n      jump\t// out\n        /* \"#utility.yul\":11082:11420   */\n    tag_267:\n        /* \"#utility.yul\":11137:11142   */\n      0x00\n        /* \"#utility.yul\":11186:11189   */\n      dup3\n        /* \"#utility.yul\":11179:11183   */\n      0x1f\n        /* \"#utility.yul\":11171:11177   */\n      dup4\n        /* \"#utility.yul\":11167:11184   */\n      add\n        /* \"#utility.yul\":11163:11190   */\n      slt\n        /* \"#utility.yul\":11153:11275   */\n      tag_425\n      jumpi\n        /* \"#utility.yul\":11194:11273   */\n      tag_426\n      tag_256\n      jump\t// in\n    tag_426:\n        /* \"#utility.yul\":11153:11275   */\n    tag_425:\n        /* \"#utility.yul\":11311:11317   */\n      dup2\n        /* \"#utility.yul\":11298:11318   */\n      calldataload\n        /* \"#utility.yul\":11336:11414   */\n      tag_427\n        /* \"#utility.yul\":11410:11413   */\n      dup5\n        /* \"#utility.yul\":11402:11408   */\n      dup3\n        /* \"#utility.yul\":11395:11399   */\n      0x20\n        /* \"#utility.yul\":11387:11393   */\n      dup7\n        /* \"#utility.yul\":11383:11400   */\n      add\n        /* \"#utility.yul\":11336:11414   */\n      tag_266\n      jump\t// in\n    tag_427:\n        /* \"#utility.yul\":11327:11414   */\n      swap2\n      pop\n        /* \"#utility.yul\":11143:11420   */\n      pop\n        /* \"#utility.yul\":11082:11420   */\n      swap3\n      swap2\n      pop\n      pop\n      jump\t// out\n        /* \"#utility.yul\":11426:12369   */\n    tag_76:\n        /* \"#utility.yul\":11521:11527   */\n      0x00\n        /* \"#utility.yul\":11529:11535   */\n      dup1\n        /* \"#utility.yul\":11537:11543   */\n      0x00\n        /* \"#utility.yul\":11545:11551   */\n      dup1\n        /* \"#utility.yul\":11594:11597   */\n      0x80\n        /* \"#utility.yul\":11582:11591   */\n      dup6\n        /* \"#utility.yul\":11573:11580   */\n      dup8\n        /* \"#utility.yul\":11569:11592   */\n      sub\n        /* \"#utility.yul\":11565:11598   */\n      slt\n        /* \"#utility.yul\":11562:11682   */\n      iszero\n      tag_429\n      jumpi\n        /* \"#utility.yul\":11601:11680   */\n      tag_430\n      tag_233\n      jump\t// in\n    tag_430:\n        /* \"#utility.yul\":11562:11682   */\n    tag_429:\n        /* \"#utility.yul\":11721:11722   */\n      0x00\n        /* \"#utility.yul\":11746:11799   */\n      tag_431\n        /* \"#utility.yul\":11791:11798   */\n      dup8\n        /* \"#utility.yul\":11782:11788   */\n      dup3\n        /* \"#utility.yul\":11771:11780   */\n      dup9\n        /* \"#utility.yul\":11767:11789   */\n      add\n        /* \"#utility.yul\":11746:11799   */\n      tag_252\n      jump\t// in\n    tag_431:\n        /* \"#utility.yul\":11736:11799   */\n      swap5\n      pop\n        /* \"#utility.yul\":11692:11809   */\n      pop\n        /* \"#utility.yul\":11848:11850   */\n      0x20\n        /* \"#utility.yul\":11874:11927   */\n      tag_432\n        /* \"#utility.yul\":11919:11926   */\n      dup8\n        /* \"#utility.yul\":11910:11916   */\n      dup3\n        /* \"#utility.yul\":11899:11908   */\n      dup9\n        /* \"#utility.yul\":11895:11917   */\n      add\n        /* \"#utility.yul\":11874:11927   */\n      tag_252\n      jump\t// in\n    tag_432:\n        /* \"#utility.yul\":11864:11927   */\n      swap4\n      pop\n        /* \"#utility.yul\":11819:11937   */\n      pop\n        /* \"#utility.yul\":11976:11978   */\n      0x40\n        /* \"#utility.yul\":12002:12055   */\n      tag_433\n        /* \"#utility.yul\":12047:12054   */\n      dup8\n        /* \"#utility.yul\":12038:12044   */\n      dup3\n        /* \"#utility.yul\":12027:12036   */\n      dup9\n        /* \"#utility.yul\":12023:12045   */\n      add\n        /* \"#utility.yul\":12002:12055   */\n      tag_247\n      jump\t// in\n    tag_433:\n        /* \"#utility.yul\":11992:12055   */\n      swap3\n      pop\n        /* \"#utility.yul\":11947:12065   */\n      pop\n        /* \"#utility.yul\":12132:12134   */\n      0x60\n        /* \"#utility.yul\":12121:12130   */\n      dup6\n        /* \"#utility.yul\":12117:12135   */\n      add\n        /* \"#utility.yul\":12104:12136   */\n      calldataload\n        /* \"#utility.yul\":12163:12181   */\n      0xffffffffffffffff\n        /* \"#utility.yul\":12155:12161   */\n      dup2\n        /* \"#utility.yul\":12152:12182   */\n      gt\n        /* \"#utility.yul\":12149:12266   */\n      iszero\n      tag_434\n      jumpi\n        /* \"#utility.yul\":12185:12264   */\n      tag_435\n      tag_234\n      jump\t// in\n    tag_435:\n        /* \"#utility.yul\":12149:12266   */\n    tag_434:\n        /* \"#utility.yul\":12290:12352   */\n      tag_436\n        /* \"#utility.yul\":12344:12351   */\n      dup8\n        /* \"#utility.yul\":12335:12341   */\n      dup3\n        /* \"#utility.yul\":12324:12333   */\n      dup9\n        /* \"#utility.yul\":12320:12342   */\n      add\n        /* \"#utility.yul\":12290:12352   */\n      tag_267\n      jump\t// in\n    tag_436:\n        /* \"#utility.yul\":12280:12352   */\n      swap2\n      pop\n        /* \"#utility.yul\":12075:12362   */\n      pop\n        /* \"#utility.yul\":11426:12369   */\n      swap3\n      swap6\n      swap2\n      swap5\n      pop\n      swap3\n      pop\n      jump\t// out\n        /* \"#utility.yul\":12375:12849   */\n    tag_84:\n        /* \"#utility.yul\":12443:12449   */\n      0x00\n        /* \"#utility.yul\":12451:12457   */\n      dup1\n        /* \"#utility.yul\":12500:12502   */\n      0x40\n        /* \"#utility.yul\":12488:12497   */\n      dup4\n        /* \"#utility.yul\":12479:12486   */\n      dup6\n        /* \"#utility.yul\":12475:12498   */\n      sub\n        /* \"#utility.yul\":12471:12503   */\n      slt\n        /* \"#utility.yul\":12468:12587   */\n      iszero\n      tag_438\n      jumpi\n        /* \"#utility.yul\":12506:12585   */\n      tag_439\n      tag_233\n      jump\t// in\n    tag_439:\n        /* \"#utility.yul\":12468:12587   */\n    tag_438:\n        /* \"#utility.yul\":12626:12627   */\n      0x00\n        /* \"#utility.yul\":12651:12704   */\n      tag_440\n        /* \"#utility.yul\":12696:12703   */\n      dup6\n        /* \"#utility.yul\":12687:12693   */\n      dup3\n        /* \"#utility.yul\":12676:12685   */\n      dup7\n        /* \"#utility.yul\":12672:12694   */\n      add\n        /* \"#utility.yul\":12651:12704   */\n      tag_252\n      jump\t// in\n    tag_440:\n        /* \"#utility.yul\":12641:12704   */\n      swap3\n      pop\n        /* \"#utility.yul\":12597:12714   */\n      pop\n        /* \"#utility.yul\":12753:12755   */\n      0x20\n        /* \"#utility.yul\":12779:12832   */\n      tag_441\n        /* \"#utility.yul\":12824:12831   */\n      dup6\n        /* \"#utility.yul\":12815:12821   */\n      dup3\n        /* \"#utility.yul\":12804:12813   */\n      dup7\n        /* \"#utility.yul\":12800:12822   */\n      add\n        /* \"#utility.yul\":12779:12832   */\n      tag_252\n      jump\t// in\n    tag_441:\n        /* \"#utility.yul\":12769:12832   */\n      swap2\n      pop\n        /* \"#utility.yul\":12724:12842   */\n      pop\n        /* \"#utility.yul\":12375:12849   */\n      swap3\n      pop\n      swap3\n      swap1\n      pop\n      jump\t// out\n        /* \"#utility.yul\":12855:13035   */\n    tag_268:\n        /* \"#utility.yul\":12903:12980   */\n      0x4e487b7100000000000000000000000000000000000000000000000000000000\n        /* \"#utility.yul\":12900:12901   */\n      0x00\n        /* \"#utility.yul\":12893:12981   */\n      mstore\n        /* \"#utility.yul\":13000:13004   */\n      0x22\n        /* \"#utility.yul\":12997:12998   */\n      0x04\n        /* \"#utility.yul\":12990:13005   */\n      mstore\n        /* \"#utility.yul\":13024:13028   */\n      0x24\n        /* \"#utility.yul\":13021:13022   */\n      0x00\n        /* \"#utility.yul\":13014:13029   */\n      revert\n        /* \"#utility.yul\":13041:13361   */\n    tag_94:\n        /* \"#utility.yul\":13085:13091   */\n      0x00\n        /* \"#utility.yul\":13122:13123   */\n      0x02\n        /* \"#utility.yul\":13116:13120   */\n      dup3\n        /* \"#utility.yul\":13112:13124   */\n      div\n        /* \"#utility.yul\":13102:13124   */\n      swap1\n      pop\n        /* \"#utility.yul\":13169:13170   */\n      0x01\n        /* \"#utility.yul\":13163:13167   */\n      dup3\n        /* \"#utility.yul\":13159:13171   */\n      and\n        /* \"#utility.yul\":13190:13208   */\n      dup1\n        /* \"#utility.yul\":13180:13261   */\n      tag_444\n      jumpi\n        /* \"#utility.yul\":13246:13250   */\n      0x7f\n        /* \"#utility.yul\":13238:13244   */\n      dup3\n        /* \"#utility.yul\":13234:13251   */\n      and\n        /* \"#utility.yul\":13224:13251   */\n      swap2\n      pop\n        /* \"#utility.yul\":13180:13261   */\n    tag_444:\n        /* \"#utility.yul\":13308:13310   */\n      0x20\n        /* \"#utility.yul\":13300:13306   */\n      dup3\n        /* \"#utility.yul\":13297:13311   */\n      lt\n        /* \"#utility.yul\":13277:13295   */\n      dup2\n        /* \"#utility.yul\":13274:13312   */\n      sub\n        /* \"#utility.yul\":13271:13355   */\n      tag_445\n      jumpi\n        /* \"#utility.yul\":13327:13345   */\n      tag_446\n      tag_268\n      jump\t// in\n    tag_446:\n        /* \"#utility.yul\":13271:13355   */\n    tag_445:\n        /* \"#utility.yul\":13092:13361   */\n      pop\n        /* \"#utility.yul\":13041:13361   */\n      swap2\n      swap1\n      pop\n      jump\t// out\n        /* \"#utility.yul\":13367:13809   */\n    tag_117:\n        /* \"#utility.yul\":13516:13520   */\n      0x00\n        /* \"#utility.yul\":13554:13556   */\n      0x60\n        /* \"#utility.yul\":13543:13552   */\n      dup3\n        /* \"#utility.yul\":13539:13557   */\n      add\n        /* \"#utility.yul\":13531:13557   */\n      swap1\n      pop\n        /* \"#utility.yul\":13567:13638   */\n      tag_448\n        /* \"#utility.yul\":13635:13636   */\n      0x00\n        /* \"#utility.yul\":13624:13633   */\n      dup4\n        /* \"#utility.yul\":13620:13637   */\n      add\n        /* \"#utility.yul\":13611:13617   */\n      dup7\n        /* \"#utility.yul\":13567:13638   */\n      tag_250\n      jump\t// in\n    tag_448:\n        /* \"#utility.yul\":13648:13720   */\n      tag_449\n        /* \"#utility.yul\":13716:13718   */\n      0x20\n        /* \"#utility.yul\":13705:13714   */\n      dup4\n        /* \"#utility.yul\":13701:13719   */\n      add\n        /* \"#utility.yul\":13692:13698   */\n      dup6\n        /* \"#utility.yul\":13648:13720   */\n      tag_255\n      jump\t// in\n    tag_449:\n        /* \"#utility.yul\":13730:13802   */\n      tag_450\n        /* \"#utility.yul\":13798:13800   */\n      0x40\n        /* \"#utility.yul\":13787:13796   */\n      dup4\n        /* \"#utility.yul\":13783:13801   */\n      add\n        /* \"#utility.yul\":13774:13780   */\n      dup5\n        /* \"#utility.yul\":13730:13802   */\n      tag_250\n      jump\t// in\n    tag_450:\n        /* \"#utility.yul\":13367:13809   */\n      swap5\n      swap4\n      pop\n      pop\n      pop\n      pop\n      jump\t// out\n        /* \"#utility.yul\":13815:13956   */\n    tag_269:\n        /* \"#utility.yul\":13864:13868   */\n      0x00\n        /* \"#utility.yul\":13887:13890   */\n      dup2\n        /* \"#utility.yul\":13879:13890   */\n      swap1\n      pop\n        /* \"#utility.yul\":13910:13913   */\n      dup2\n        /* \"#utility.yul\":13907:13908   */\n      0x00\n        /* \"#utility.yul\":13900:13914   */\n      mstore\n        /* \"#utility.yul\":13944:13948   */\n      0x20\n        /* \"#utility.yul\":13941:13942   */\n      0x00\n        /* \"#utility.yul\":13931:13949   */\n      keccak256\n        /* \"#utility.yul\":13923:13949   */\n      swap1\n      pop\n        /* \"#utility.yul\":13815:13956   */\n      swap2\n      swap1\n      pop\n      jump\t// out\n        /* \"#utility.yul\":13962:14055   */\n    tag_270:\n        /* \"#utility.yul\":13999:14005   */\n      0x00\n        /* \"#utility.yul\":14046:14048   */\n      0x20\n        /* \"#utility.yul\":14041:14043   */\n      0x1f\n        /* \"#utility.yul\":14034:14039   */\n      dup4\n        /* \"#utility.yul\":14030:14044   */\n      add\n        /* \"#utility.yul\":14026:14049   */\n      div\n        /* \"#utility.yul\":14016:14049   */\n      swap1\n      pop\n        /* \"#utility.yul\":13962:14055   */\n      swap2\n      swap1\n      pop\n      jump\t// out\n        /* \"#utility.yul\":14061:14168   */\n    tag_271:\n        /* \"#utility.yul\":14105:14113   */\n      0x00\n        /* \"#utility.yul\":14155:14160   */\n      dup3\n        /* \"#utility.yul\":14149:14153   */\n      dup3\n        /* \"#utility.yul\":14145:14161   */\n      shl\n        /* \"#utility.yul\":14124:14161   */\n      swap1\n      pop\n        /* \"#utility.yul\":14061:14168   */\n      swap3\n      swap2\n      pop\n      pop\n      jump\t// out\n        /* \"#utility.yul\":14174:14567   */\n    tag_272:\n        /* \"#utility.yul\":14243:14249   */\n      0x00\n        /* \"#utility.yul\":14293:14294   */\n      0x08\n        /* \"#utility.yul\":14281:14291   */\n      dup4\n        /* \"#utility.yul\":14277:14295   */\n      mul\n        /* \"#utility.yul\":14316:14413   */\n      tag_455\n        /* \"#utility.yul\":14346:14412   */\n      0xffffffffffffffffffffffffffffffffffffffffffffffffffffffffffffffff\n        /* \"#utility.yul\":14335:14344   */\n      dup3\n        /* \"#utility.yul\":14316:14413   */\n      tag_271\n      jump\t// in\n    tag_455:\n        /* \"#utility.yul\":14434:14473   */\n      tag_456\n        /* \"#utility.yul\":14464:14472   */\n      dup7\n        /* \"#utility.yul\":14453:14462   */\n      dup4\n        /* \"#utility.yul\":14434:14473   */\n      tag_271\n      jump\t// in\n    tag_456:\n        /* \"#utility.yul\":14422:14473   */\n      swap6\n      pop\n        /* \"#utility.yul\":14506:14510   */\n      dup1\n        /* \"#utility.yul\":14502:14511   */\n      not\n        /* \"#utility.yul\":14495:14500   */\n      dup5\n        /* \"#utility.yul\":14491:14512   */\n      and\n        /* \"#utility.yul\":14482:14512   */\n      swap4\n      pop\n        /* \"#utility.yul\":14555:14559   */\n      dup1\n        /* \"#utility.yul\":14545:14553   */\n      dup7\n        /* \"#utility.yul\":14541:14560   */\n      and\n        /* \"#utility.yul\":14534:14539   */\n      dup5\n        /* \"#utility.yul\":14531:14561   */\n      or\n        /* \"#utility.yul\":14521:14561   */\n      swap3\n      pop\n        /* \"#utility.yul\":14250:14567   */\n      pop\n      pop\n        /* \"#utility.yul\":14174:14567   */\n      swap4\n      swap3\n      pop\n      pop\n      pop\n      jump\t// out\n        /* \"#utility.yul\":14573:14633   */\n    tag_273:\n        /* \"#utility.yul\":14601:14604   */\n      0x00\n        /* \"#utility.yul\":14622:14627   */\n      dup2\n        /* \"#utility.yul\":14615:14627   */\n      swap1\n      pop\n        /* \"#utility.yul\":14573:14633   */\n      swap2\n      swap1\n      pop\n      jump\t// out\n        /* \"#utility.yul\":14639:14781   */\n    tag_274:\n        /* \"#utility.yul\":14689:14698   */\n      0x00\n        /* \"#utility.yul\":14722:14775   */\n      tag_459\n        /* \"#utility.yul\":14740:14774   */\n      tag_460\n        /* \"#utility.yul\":14749:14773   */\n      tag_461\n        /* \"#utility.yul\":14767:14772   */\n      dup5\n        /* \"#utility.yul\":14749:14773   */\n      tag_245\n      jump\t// in\n    tag_461:\n        /* \"#utility.yul\":14740:14774   */\n      tag_273\n      jump\t// in\n    tag_460:\n        /* \"#utility.yul\":14722:14775   */\n      tag_245\n      jump\t// in\n    tag_459:\n        /* \"#utility.yul\":14709:14775   */\n      swap1\n      pop\n        /* \"#utility.yul\":14639:14781   */\n      swap2\n      swap1\n      pop\n      jump\t// out\n        /* \"#utility.yul\":14787:14862   */\n    tag_275:\n        /* \"#utility.yul\":14830:14833   */\n      0x00\n        /* \"#utility.yul\":14851:14856   */\n      dup2\n        /* \"#utility.yul\":14844:14856   */\n      swap1\n      pop\n        /* \"#utility.yul\":14787:14862   */\n      swap2\n      swap1\n      pop\n      jump\t// out\n        /* \"#utility.yul\":14868:15137   */\n    tag_276:\n        /* \"#utility.yul\":14978:15017   */\n      tag_464\n        /* \"#utility.yul\":15009:15016   */\n      dup4\n        /* \"#utility.yul\":14978:15017   */\n      tag_274\n      jump\t// in\n    tag_464:\n        /* \"#utility.yul\":15039:15130   */\n      tag_465\n        /* \"#utility.yul\":15088:15129   */\n      tag_466\n        /* \"#utility.yul\":15112:15128   */\n      dup3\n        /* \"#utility.yul\":15088:15129   */\n      tag_275\n      jump\t// in\n    tag_466:\n        /* \"#utility.yul\":15080:15086   */\n      dup5\n        /* \"#utility.yul\":15073:15077   */\n      dup5\n        /* \"#utility.yul\":15067:15078   */\n      sload\n        /* \"#utility.yul\":15039:15130   */\n      tag_272\n      jump\t// in\n    tag_465:\n        /* \"#utility.yul\":15033:15037   */\n      dup3\n        /* \"#utility.yul\":15026:15131   */\n      sstore\n        /* \"#utility.yul\":14944:15137   */\n      pop\n        /* \"#utility.yul\":14868:15137   */\n      pop\n      pop\n      pop\n      jump\t// out\n        /* \"#utility.yul\":15143:15216   */\n    tag_277:\n        /* \"#utility.yul\":15188:15191   */\n      0x00\n        /* \"#utility.yul\":15143:15216   */\n      swap1\n      jump\t// out\n        /* \"#utility.yul\":15222:15411   */\n    tag_278:\n        /* \"#utility.yul\":15299:15331   */\n      tag_469\n      tag_277\n      jump\t// in\n    tag_469:\n        /* \"#utility.yul\":15340:15405   */\n      tag_470\n        /* \"#utility.yul\":15398:15404   */\n      dup2\n        /* \"#utility.yul\":15390:15396   */\n      dup5\n        /* \"#utility.yul\":15384:15388   */\n      dup5\n        /* \"#utility.yul\":15340:15405   */\n      tag_276\n      jump\t// in\n    tag_470:\n        /* \"#utility.yul\":15275:15411   */\n      pop\n        /* \"#utility.yul\":15222:15411   */\n      pop\n      pop\n      jump\t// out\n        /* \"#utility.yul\":15417:15603   */\n    tag_279:\n        /* \"#utility.yul\":15477:15597   */\n    tag_472:\n        /* \"#utility.yul\":15494:15497   */\n      dup2\n        /* \"#utility.yul\":15487:15492   */\n      dup2\n        /* \"#utility.yul\":15484:15498   */\n      lt\n        /* \"#utility.yul\":15477:15597   */\n      iszero\n      tag_474\n      jumpi\n        /* \"#utility.yul\":15548:15587   */\n      tag_475\n        /* \"#utility.yul\":15585:15586   */\n      0x00\n        /* \"#utility.yul\":15578:15583   */\n      dup3\n        /* \"#utility.yul\":15548:15587   */\n      tag_278\n      jump\t// in\n    tag_475:\n        /* \"#utility.yul\":15521:15522   */\n      0x01\n        /* \"#utility.yul\":15514:15519   */\n      dup2\n        /* \"#utility.yul\":15510:15523   */\n      add\n        /* \"#utility.yul\":15501:15523   */\n      swap1\n      pop\n        /* \"#utility.yul\":15477:15597   */\n      jump(tag_472)\n    tag_474:\n        /* \"#utility.yul\":15417:15603   */\n      pop\n      pop\n      jump\t// out\n        /* \"#utility.yul\":15609:16152   */\n    tag_280:\n        /* \"#utility.yul\":15710:15712   */\n      0x1f\n        /* \"#utility.yul\":15705:15708   */\n      dup3\n        /* \"#utility.yul\":15702:15713   */\n      gt\n        /* \"#utility.yul\":15699:16145   */\n      iszero\n      tag_477\n      jumpi\n        /* \"#utility.yul\":15744:15782   */\n      tag_478\n        /* \"#utility.yul\":15776:15781   */\n      dup2\n        /* \"#utility.yul\":15744:15782   */\n      tag_269\n      jump\t// in\n    tag_478:\n        /* \"#utility.yul\":15828:15857   */\n      tag_479\n        /* \"#utility.yul\":15846:15856   */\n      dup5\n        /* \"#utility.yul\":15828:15857   */\n      tag_270\n      jump\t// in\n    tag_479:\n        /* \"#utility.yul\":15818:15826   */\n      dup2\n        /* \"#utility.yul\":15814:15858   */\n      add\n        /* \"#utility.yul\":16011:16013   */\n      0x20\n        /* \"#utility.yul\":15999:16009   */\n      dup6\n        /* \"#utility.yul\":15996:16014   */\n      lt\n        /* \"#utility.yul\":15993:16042   */\n      iszero\n      tag_480\n      jumpi\n        /* \"#utility.yul\":16032:16040   */\n      dup2\n        /* \"#utility.yul\":16017:16040   */\n      swap1\n      pop\n        /* \"#utility.yul\":15993:16042   */\n    tag_480:\n        /* \"#utility.yul\":16055:16135   */\n      tag_481\n        /* \"#utility.yul\":16111:16133   */\n      tag_482\n        /* \"#utility.yul\":16129:16132   */\n      dup6\n        /* \"#utility.yul\":16111:16133   */\n      tag_270\n      jump\t// in\n    tag_482:\n        /* \"#utility.yul\":16101:16109   */\n      dup4\n        /* \"#utility.yul\":16097:16134   */\n      add\n        /* \"#utility.yul\":16084:16095   */\n      dup3\n        /* \"#utility.yul\":16055:16135   */\n      tag_279\n      jump\t// in\n    tag_481:\n        /* \"#utility.yul\":15714:16145   */\n      pop\n      pop\n        /* \"#utility.yul\":15699:16145   */\n    tag_477:\n        /* \"#utility.yul\":15609:16152   */\n      pop\n      pop\n      pop\n      jump\t// out\n        /* \"#utility.yul\":16158:16275   */\n    tag_281:\n        /* \"#utility.yul\":16212:16220   */\n      0x00\n        /* \"#utility.yul\":16262:16267   */\n      dup3\n        /* \"#utility.yul\":16256:16260   */\n      dup3\n        /* \"#utility.yul\":16252:16268   */\n      shr\n        /* \"#utility.yul\":16231:16268   */\n      swap1\n      pop\n        /* \"#utility.yul\":16158:16275   */\n      swap3\n      swap2\n      pop\n      pop\n      jump\t// out\n        /* \"#utility.yul\":16281:16450   */\n    tag_282:\n        /* \"#utility.yul\":16325:16331   */\n      0x00\n        /* \"#utility.yul\":16358:16409   */\n      tag_485\n        /* \"#utility.yul\":16406:16407   */\n      0x00\n        /* \"#utility.yul\":16402:16408   */\n      not\n        /* \"#utility.yul\":16394:16399   */\n      dup5\n        /* \"#utility.yul\":16391:16392   */\n      0x08\n        /* \"#utility.yul\":16387:16400   */\n      mul\n        /* \"#utility.yul\":16358:16409   */\n      tag_281\n      jump\t// in\n    tag_485:\n        /* \"#utility.yul\":16354:16410   */\n      not\n        /* \"#utility.yul\":16439:16443   */\n      dup1\n        /* \"#utility.yul\":16433:16437   */\n      dup4\n        /* \"#utility.yul\":16429:16444   */\n      and\n        /* \"#utility.yul\":16419:16444   */\n      swap2\n      pop\n        /* \"#utility.yul\":16332:16450   */\n      pop\n        /* \"#utility.yul\":16281:16450   */\n      swap3\n      swap2\n      pop\n      pop\n      jump\t// out\n        /* \"#utility.yul\":16455:16750   */\n    tag_283:\n        /* \"#utility.yul\":16531:16535   */\n      0x00\n        /* \"#utility.yul\":16677:16706   */\n      tag_487\n        /* \"#utility.yul\":16702:16705   */\n      dup4\n        /* \"#utility.yul\":16696:16700   */\n      dup4\n        /* \"#utility.yul\":16677:16706   */\n      tag_282\n      jump\t// in\n    tag_487:\n        /* \"#utility.yul\":16669:16706   */\n      swap2\n      pop\n        /* \"#utility.yul\":16739:16742   */\n      dup3\n        /* \"#utility.yul\":16736:16737   */\n      0x02\n        /* \"#utility.yul\":16732:16743   */\n      mul\n        /* \"#utility.yul\":16726:16730   */\n      dup3\n        /* \"#utility.yul\":16723:16744   */\n      or\n        /* \"#utility.yul\":16715:16744   */\n      swap1\n      pop\n        /* \"#utility.yul\":16455:16750   */\n      swap3\n      swap2\n      pop\n      pop\n      jump\t// out\n        /* \"#utility.yul\":16755:18150   */\n    tag_139:\n        /* \"#utility.yul\":16872:16909   */\n      tag_489\n        /* \"#utility.yul\":16905:16908   */\n      dup3\n        /* \"#utility.yul\":16872:16909   */\n      tag_240\n      jump\t// in\n    tag_489:\n        /* \"#utility.yul\":16974:16992   */\n      0xffffffffffffffff\n        /* \"#utility.yul\":16966:16972   */\n      dup2\n        /* \"#utility.yul\":16963:16993   */\n      gt\n        /* \"#utility.yul\":16960:17016   */\n      iszero\n      tag_490\n      jumpi\n        /* \"#utility.yul\":16996:17014   */\n      tag_491\n      tag_258\n      jump\t// in\n    tag_491:\n        /* \"#utility.yul\":16960:17016   */\n    tag_490:\n        /* \"#utility.yul\":17040:17078   */\n      tag_492\n        /* \"#utility.yul\":17072:17076   */\n      dup3\n        /* \"#utility.yul\":17066:17077   */\n      sload\n        /* \"#utility.yul\":17040:17078   */\n      tag_94\n      jump\t// in\n    tag_492:\n        /* \"#utility.yul\":17125:17192   */\n      tag_493\n        /* \"#utility.yul\":17185:17191   */\n      dup3\n        /* \"#utility.yul\":17177:17183   */\n      dup3\n        /* \"#utility.yul\":17171:17175   */\n      dup6\n        /* \"#utility.yul\":17125:17192   */\n      tag_280\n      jump\t// in\n    tag_493:\n        /* \"#utility.yul\":17219:17220   */\n      0x00\n        /* \"#utility.yul\":17243:17247   */\n      0x20\n        /* \"#utility.yul\":17230:17247   */\n      swap1\n      pop\n        /* \"#utility.yul\":17275:17277   */\n      0x1f\n        /* \"#utility.yul\":17267:17273   */\n      dup4\n        /* \"#utility.yul\":17264:17278   */\n      gt\n        /* \"#utility.yul\":17292:17293   */\n      0x01\n        /* \"#utility.yul\":17287:17905   */\n      dup2\n      eq\n      tag_495\n      jumpi\n        /* \"#utility.yul\":17949:17950   */\n      0x00\n        /* \"#utility.yul\":17966:17972   */\n      dup5\n        /* \"#utility.yul\":17963:18040   */\n      iszero\n      tag_496\n      jumpi\n        /* \"#utility.yul\":18015:18024   */\n      dup3\n        /* \"#utility.yul\":18010:18013   */\n      dup8\n        /* \"#utility.yul\":18006:18025   */\n      add\n        /* \"#utility.yul\":18000:18026   */\n      mload\n        /* \"#utility.yul\":17991:18026   */\n      swap1\n      pop\n        /* \"#utility.yul\":17963:18040   */\n    tag_496:\n        /* \"#utility.yul\":18066:18133   */\n      tag_497\n        /* \"#utility.yul\":18126:18132   */\n      dup6\n        /* \"#utility.yul\":18119:18124   */\n      dup3\n        /* \"#utility.yul\":18066:18133   */\n      tag_283\n      jump\t// in\n    tag_497:\n        /* \"#utility.yul\":18060:18064   */\n      dup7\n        /* \"#utility.yul\":18053:18134   */\n      sstore\n        /* \"#utility.yul\":17922:18144   */\n      pop\n        /* \"#utility.yul\":17257:18144   */\n      jump(tag_494)\n        /* \"#utility.yul\":17287:17905   */\n    tag_495:\n        /* \"#utility.yul\":17339:17343   */\n      0x1f\n        /* \"#utility.yul\":17335:17344   */\n      not\n        /* \"#utility.yul\":17327:17333   */\n      dup5\n        /* \"#utility.yul\":17323:17345   */\n      and\n        /* \"#utility.yul\":17373:17410   */\n      tag_498\n        /* \"#utility.yul\":17405:17409   */\n      dup7\n        /* \"#utility.yul\":17373:17410   */\n      tag_269\n      jump\t// in\n    tag_498:\n        /* \"#utility.yul\":17432:17433   */\n      0x00\n        /* \"#utility.yul\":17446:17654   */\n    tag_499:\n        /* \"#utility.yul\":17460:17467   */\n      dup3\n        /* \"#utility.yul\":17457:17458   */\n      dup2\n        /* \"#utility.yul\":17454:17468   */\n      lt\n        /* \"#utility.yul\":17446:17654   */\n      iszero\n      tag_501\n      jumpi\n        /* \"#utility.yul\":17539:17548   */\n      dup5\n        /* \"#utility.yul\":17534:17537   */\n      dup10\n        /* \"#utility.yul\":17530:17549   */\n      add\n        /* \"#utility.yul\":17524:17550   */\n      mload\n        /* \"#utility.yul\":17516:17522   */\n      dup3\n        /* \"#utility.yul\":17509:17551   */\n      sstore\n        /* \"#utility.yul\":17590:17591   */\n      0x01\n        /* \"#utility.yul\":17582:17588   */\n      dup3\n        /* \"#utility.yul\":17578:17592   */\n      add\n        /* \"#utility.yul\":17568:17592   */\n      swap2\n      pop\n        /* \"#utility.yul\":17637:17639   */\n      0x20\n        /* \"#utility.yul\":17626:17635   */\n      dup6\n        /* \"#utility.yul\":17622:17640   */\n      add\n        /* \"#utility.yul\":17609:17640   */\n      swap5\n      pop\n        /* \"#utility.yul\":17483:17487   */\n      0x20\n        /* \"#utility.yul\":17480:17481   */\n      dup2\n        /* \"#utility.yul\":17476:17488   */\n      add\n        /* \"#utility.yul\":17471:17488   */\n      swap1\n      pop\n        /* \"#utility.yul\":17446:17654   */\n      jump(tag_499)\n    tag_501:\n        /* \"#utility.yul\":17682:17688   */\n      dup7\n        /* \"#utility.yul\":17673:17680   */\n      dup4\n        /* \"#utility.yul\":17670:17689   */\n      lt\n        /* \"#utility.yul\":17667:17846   */\n      iszero\n      tag_502\n      jumpi\n        /* \"#utility.yul\":17740:17749   */\n      dup5\n        /* \"#utility.yul\":17735:17738   */\n      dup10\n        /* \"#utility.yul\":17731:17750   */\n      add\n        /* \"#utility.yul\":17725:17751   */\n      mload\n        /* \"#utility.yul\":17783:17831   */\n      tag_503\n        /* \"#utility.yul\":17825:17829   */\n      0x1f\n        /* \"#utility.yul\":17817:17823   */\n      dup10\n        /* \"#utility.yul\":17813:17830   */\n      and\n        /* \"#utility.yul\":17802:17811   */\n      dup3\n        /* \"#utility.yul\":17783:17831   */\n      tag_282\n      jump\t// in\n    tag_503:\n        /* \"#utility.yul\":17775:17781   */\n      dup4\n        /* \"#utility.yul\":17768:17832   */\n      sstore\n        /* \"#utility.yul\":17690:17846   */\n      pop\n        /* \"#utility.yul\":17667:17846   */\n    tag_502:\n        /* \"#utility.yul\":17892:17893   */\n      0x01\n        /* \"#utility.yul\":17888:17889   */\n      0x02\n        /* \"#utility.yul\":17880:17886   */\n      dup9\n        /* \"#utility.yul\":17876:17890   */\n      mul\n        /* \"#utility.yul\":17872:17894   */\n      add\n        /* \"#utility.yul\":17866:17870   */\n      dup9\n        /* \"#utility.yul\":17859:17895   */\n      sstore\n        /* \"#utility.yul\":17294:17905   */\n      pop\n      pop\n      pop\n        /* \"#utility.yul\":17257:18144   */\n    tag_494:\n      pop\n        /* \"#utility.yul\":16847:18150   */\n      pop\n      pop\n      pop\n        /* \"#utility.yul\":16755:18150   */\n      pop\n      pop\n      jump\t// out\n        /* \"#utility.yul\":18156:18336   */\n    tag_284:\n        /* \"#utility.yul\":18204:18281   */\n      0x4e487b7100000000000000000000000000000000000000000000000000000000\n        /* \"#utility.yul\":18201:18202   */\n      0x00\n        /* \"#utility.yul\":18194:18282   */\n      mstore\n        /* \"#utility.yul\":18301:18305   */\n      0x11\n        /* \"#utility.yul\":18298:18299   */\n      0x04\n        /* \"#utility.yul\":18291:18306   */\n      mstore\n        /* \"#utility.yul\":18325:18329   */\n      0x24\n        /* \"#utility.yul\":18322:18323   */\n      0x00\n        /* \"#utility.yul\":18315:18330   */\n      revert\n        /* \"#utility.yul\":18342:18533   */\n    tag_143:\n        /* \"#utility.yul\":18382:18385   */\n      0x00\n        /* \"#utility.yul\":18401:18421   */\n      tag_506\n        /* \"#utility.yul\":18419:18420   */\n      dup3\n        /* \"#utility.yul\":18401:18421   */\n      tag_245\n      jump\t// in\n    tag_506:\n        /* \"#utility.yul\":18396:18421   */\n      swap2\n      pop\n        /* \"#utility.yul\":18435:18455   */\n      tag_507\n        /* \"#utility.yul\":18453:18454   */\n      dup4\n        /* \"#utility.yul\":18435:18455   */\n      tag_245\n      jump\t// in\n    tag_507:\n        /* \"#utility.yul\":18430:18455   */\n      swap3\n      pop\n        /* \"#utility.yul\":18478:18479   */\n      dup3\n        /* \"#utility.yul\":18475:18476   */\n      dup3\n        /* \"#utility.yul\":18471:18480   */\n      add\n        /* \"#utility.yul\":18464:18480   */\n      swap1\n      pop\n        /* \"#utility.yul\":18499:18502   */\n      dup1\n        /* \"#utility.yul\":18496:18497   */\n      dup3\n        /* \"#utility.yul\":18493:18503   */\n      gt\n        /* \"#utility.yul\":18490:18526   */\n      iszero\n      tag_508\n      jumpi\n        /* \"#utility.yul\":18506:18524   */\n      tag_509\n      tag_284\n      jump\t// in\n    tag_509:\n        /* \"#utility.yul\":18490:18526   */\n    tag_508:\n        /* \"#utility.yul\":18342:18533   */\n      swap3\n      swap2\n      pop\n      pop\n      jump\t// out\n        /* \"#utility.yul\":18539:18733   */\n    tag_145:\n        /* \"#utility.yul\":18579:18583   */\n      0x00\n        /* \"#utility.yul\":18599:18619   */\n      tag_511\n        /* \"#utility.yul\":18617:18618   */\n      dup3\n        /* \"#utility.yul\":18599:18619   */\n      tag_245\n      jump\t// in\n    tag_511:\n        /* \"#utility.yul\":18594:18619   */\n      swap2\n      pop\n        /* \"#utility.yul\":18633:18653   */\n      tag_512\n        /* \"#utility.yul\":18651:18652   */\n      dup4\n        /* \"#utility.yul\":18633:18653   */\n      tag_245\n      jump\t// in\n    tag_512:\n        /* \"#utility.yul\":18628:18653   */\n      swap3\n      pop\n        /* \"#utility.yul\":18677:18678   */\n      dup3\n        /* \"#utility.yul\":18674:18675   */\n      dup3\n        /* \"#utility.yul\":18670:18679   */\n      sub\n        /* \"#utility.yul\":18662:18679   */\n      swap1\n      pop\n        /* \"#utility.yul\":18701:18702   */\n      dup2\n        /* \"#utility.yul\":18695:18699   */\n      dup2\n        /* \"#utility.yul\":18692:18703   */\n      gt\n        /* \"#utility.yul\":18689:18726   */\n      iszero\n      tag_513\n      jumpi\n        /* \"#utility.yul\":18706:18724   */\n      tag_514\n      tag_284\n      jump\t// in\n    tag_514:\n        /* \"#utility.yul\":18689:18726   */\n    tag_513:\n        /* \"#utility.yul\":18539:18733   */\n      swap3\n      swap2\n      pop\n      pop\n      jump\t// out\n        /* \"#utility.yul\":18739:18887   */\n    tag_285:\n        /* \"#utility.yul\":18841:18852   */\n      0x00\n        /* \"#utility.yul\":18878:18881   */\n      dup2\n        /* \"#utility.yul\":18863:18881   */\n      swap1\n      pop\n        /* \"#utility.yul\":18739:18887   */\n      swap3\n      swap2\n      pop\n      pop\n      jump\t// out\n        /* \"#utility.yul\":18893:19283   */\n    tag_286:\n        /* \"#utility.yul\":18999:19002   */\n      0x00\n        /* \"#utility.yul\":19027:19066   */\n      tag_517\n        /* \"#utility.yul\":19060:19065   */\n      dup3\n        /* \"#utility.yul\":19027:19066   */\n      tag_240\n      jump\t// in\n    tag_517:\n        /* \"#utility.yul\":19082:19171   */\n      tag_518\n        /* \"#utility.yul\":19164:19170   */\n      dup2\n        /* \"#utility.yul\":19159:19162   */\n      dup6\n        /* \"#utility.yul\":19082:19171   */\n      tag_285\n      jump\t// in\n    tag_518:\n        /* \"#utility.yul\":19075:19171   */\n      swap4\n      pop\n        /* \"#utility.yul\":19180:19245   */\n      tag_519\n        /* \"#utility.yul\":19238:19244   */\n      dup2\n        /* \"#utility.yul\":19233:19236   */\n      dup6\n        /* \"#utility.yul\":19226:19230   */\n      0x20\n        /* \"#utility.yul\":19219:19224   */\n      dup7\n        /* \"#utility.yul\":19215:19231   */\n      add\n        /* \"#utility.yul\":19180:19245   */\n      tag_242\n      jump\t// in\n    tag_519:\n        /* \"#utility.yul\":19270:19276   */\n      dup1\n        /* \"#utility.yul\":19265:19268   */\n      dup5\n        /* \"#utility.yul\":19261:19277   */\n      add\n        /* \"#utility.yul\":19254:19277   */\n      swap2\n      pop\n        /* \"#utility.yul\":19003:19283   */\n      pop\n        /* \"#utility.yul\":18893:19283   */\n      swap3\n      swap2\n      pop\n      pop\n      jump\t// out\n        /* \"#utility.yul\":19313:20187   */\n    tag_287:\n        /* \"#utility.yul\":19416:19419   */\n      0x00\n        /* \"#utility.yul\":19453:19458   */\n      dup2\n        /* \"#utility.yul\":19447:19459   */\n      sload\n        /* \"#utility.yul\":19482:19518   */\n      tag_521\n        /* \"#utility.yul\":19508:19517   */\n      dup2\n        /* \"#utility.yul\":19482:19518   */\n      tag_94\n      jump\t// in\n    tag_521:\n        /* \"#utility.yul\":19534:19623   */\n      tag_522\n        /* \"#utility.yul\":19616:19622   */\n      dup2\n        /* \"#utility.yul\":19611:19614   */\n      dup7\n        /* \"#utility.yul\":19534:19623   */\n      tag_285\n      jump\t// in\n    tag_522:\n        /* \"#utility.yul\":19527:19623   */\n      swap5\n      pop\n        /* \"#utility.yul\":19654:19655   */\n      0x01\n        /* \"#utility.yul\":19643:19652   */\n      dup3\n        /* \"#utility.yul\":19639:19656   */\n      and\n        /* \"#utility.yul\":19670:19671   */\n      0x00\n        /* \"#utility.yul\":19665:19831   */\n      dup2\n      eq\n      tag_524\n      jumpi\n        /* \"#utility.yul\":19845:19846   */\n      0x01\n        /* \"#utility.yul\":19840:20181   */\n      dup2\n      eq\n      tag_525\n      jumpi\n        /* \"#utility.yul\":19632:20181   */\n      jump(tag_523)\n        /* \"#utility.yul\":19665:19831   */\n    tag_524:\n        /* \"#utility.yul\":19749:19753   */\n      0xff\n        /* \"#utility.yul\":19745:19754   */\n      not\n        /* \"#utility.yul\":19734:19743   */\n      dup4\n        /* \"#utility.yul\":19730:19755   */\n      and\n        /* \"#utility.yul\":19725:19728   */\n      dup7\n        /* \"#utility.yul\":19718:19756   */\n      mstore\n        /* \"#utility.yul\":19811:19817   */\n      dup2\n        /* \"#utility.yul\":19804:19818   */\n      iszero\n        /* \"#utility.yul\":19797:19819   */\n      iszero\n        /* \"#utility.yul\":19789:19795   */\n      dup3\n        /* \"#utility.yul\":19785:19820   */\n      mul\n        /* \"#utility.yul\":19780:19783   */\n      dup7\n        /* \"#utility.yul\":19776:19821   */\n      add\n        /* \"#utility.yul\":19769:19821   */\n      swap4\n      pop\n        /* \"#utility.yul\":19665:19831   */\n      jump(tag_523)\n        /* \"#utility.yul\":19840:20181   */\n    tag_525:\n        /* \"#utility.yul\":19907:19945   */\n      tag_526\n        /* \"#utility.yul\":19939:19944   */\n      dup6\n        /* \"#utility.yul\":19907:19945   */\n      tag_269\n      jump\t// in\n    tag_526:\n        /* \"#utility.yul\":19967:19968   */\n      0x00\n        /* \"#utility.yul\":19981:20135   */\n    tag_527:\n        /* \"#utility.yul\":19995:20001   */\n      dup4\n        /* \"#utility.yul\":19992:19993   */\n      dup2\n        /* \"#utility.yul\":19989:20002   */\n      lt\n        /* \"#utility.yul\":19981:20135   */\n      iszero\n      tag_529\n      jumpi\n        /* \"#utility.yul\":20069:20076   */\n      dup2\n        /* \"#utility.yul\":20063:20077   */\n      sload\n        /* \"#utility.yul\":20059:20060   */\n      dup2\n        /* \"#utility.yul\":20054:20057   */\n      dup10\n        /* \"#utility.yul\":20050:20061   */\n      add\n        /* \"#utility.yul\":20043:20078   */\n      mstore\n        /* \"#utility.yul\":20119:20120   */\n      0x01\n        /* \"#utility.yul\":20110:20117   */\n      dup3\n        /* \"#utility.yul\":20106:20121   */\n      add\n        /* \"#utility.yul\":20095:20121   */\n      swap2\n      pop\n        /* \"#utility.yul\":20017:20021   */\n      0x20\n        /* \"#utility.yul\":20014:20015   */\n      dup2\n        /* \"#utility.yul\":20010:20022   */\n      add\n        /* \"#utility.yul\":20005:20022   */\n      swap1\n      pop\n        /* \"#utility.yul\":19981:20135   */\n      jump(tag_527)\n    tag_529:\n        /* \"#utility.yul\":20164:20170   */\n      dup4\n        /* \"#utility.yul\":20159:20162   */\n      dup9\n        /* \"#utility.yul\":20155:20171   */\n      add\n        /* \"#utility.yul\":20148:20171   */\n      swap6\n      pop\n        /* \"#utility.yul\":19847:20181   */\n      pop\n      pop\n        /* \"#utility.yul\":19632:20181   */\n    tag_523:\n      pop\n        /* \"#utility.yul\":19420:20187   */\n      pop\n      pop\n        /* \"#utility.yul\":19313:20187   */\n      swap3\n      swap2\n      pop\n      pop\n      jump\t// out\n        /* \"#utility.yul\":20193:20622   */\n    tag_154:\n        /* \"#utility.yul\":20370:20373   */\n      0x00\n        /* \"#utility.yul\":20392:20487   */\n      tag_531\n        /* \"#utility.yul\":20483:20486   */\n      dup3\n        /* \"#utility.yul\":20474:20480   */\n      dup6\n        /* \"#utility.yul\":20392:20487   */\n      tag_286\n      jump\t// in\n    tag_531:\n        /* \"#utility.yul\":20385:20487   */\n      swap2\n      pop\n        /* \"#utility.yul\":20504:20596   */\n      tag_532\n        /* \"#utility.yul\":20592:20595   */\n      dup3\n        /* \"#utility.yul\":20583:20589   */\n      dup5\n        /* \"#utility.yul\":20504:20596   */\n      tag_287\n      jump\t// in\n    tag_532:\n        /* \"#utility.yul\":20497:20596   */\n      swap2\n      pop\n        /* \"#utility.yul\":20613:20616   */\n      dup2\n        /* \"#utility.yul\":20606:20616   */\n      swap1\n      pop\n        /* \"#utility.yul\":20193:20622   */\n      swap4\n      swap3\n      pop\n      pop\n      pop\n      jump\t// out\n        /* \"#utility.yul\":20628:20726   */\n    tag_288:\n        /* \"#utility.yul\":20679:20685   */\n      0x00\n        /* \"#utility.yul\":20713:20718   */\n      dup2\n        /* \"#utility.yul\":20707:20719   */\n      mload\n        /* \"#utility.yul\":20697:20719   */\n      swap1\n      pop\n        /* \"#utility.yul\":20628:20726   */\n      swap2\n      swap1\n      pop\n      jump\t// out\n        /* \"#utility.yul\":20732:20900   */\n    tag_289:\n        /* \"#utility.yul\":20815:20826   */\n      0x00\n        /* \"#utility.yul\":20849:20855   */\n      dup3\n        /* \"#utility.yul\":20844:20847   */\n      dup3\n        /* \"#utility.yul\":20837:20856   */\n      mstore\n        /* \"#utility.yul\":20889:20893   */\n      0x20\n        /* \"#utility.yul\":20884:20887   */\n      dup3\n        /* \"#utility.yul\":20880:20894   */\n      add\n        /* \"#utility.yul\":20865:20894   */\n      swap1\n      pop\n        /* \"#utility.yul\":20732:20900   */\n      swap3\n      swap2\n      pop\n      pop\n      jump\t// out\n        /* \"#utility.yul\":20906:21279   */\n    tag_290:\n        /* \"#utility.yul\":20992:20995   */\n      0x00\n        /* \"#utility.yul\":21020:21058   */\n      tag_536\n        /* \"#utility.yul\":21052:21057   */\n      dup3\n        /* \"#utility.yul\":21020:21058   */\n      tag_288\n      jump\t// in\n    tag_536:\n        /* \"#utility.yul\":21074:21144   */\n      tag_537\n        /* \"#utility.yul\":21137:21143   */\n      dup2\n        /* \"#utility.yul\":21132:21135   */\n      dup6\n        /* \"#utility.yul\":21074:21144   */\n      tag_289\n      jump\t// in\n    tag_537:\n        /* \"#utility.yul\":21067:21144   */\n      swap4\n      pop\n        /* \"#utility.yul\":21153:21218   */\n      tag_538\n        /* \"#utility.yul\":21211:21217   */\n      dup2\n        /* \"#utility.yul\":21206:21209   */\n      dup6\n        /* \"#utility.yul\":21199:21203   */\n      0x20\n        /* \"#utility.yul\":21192:21197   */\n      dup7\n        /* \"#utility.yul\":21188:21204   */\n      add\n        /* \"#utility.yul\":21153:21218   */\n      tag_242\n      jump\t// in\n    tag_538:\n        /* \"#utility.yul\":21243:21272   */\n      tag_539\n        /* \"#utility.yul\":21265:21271   */\n      dup2\n        /* \"#utility.yul\":21243:21272   */\n      tag_243\n      jump\t// in\n    tag_539:\n        /* \"#utility.yul\":21238:21241   */\n      dup5\n        /* \"#utility.yul\":21234:21273   */\n      add\n        /* \"#utility.yul\":21227:21273   */\n      swap2\n      pop\n        /* \"#utility.yul\":20996:21279   */\n      pop\n        /* \"#utility.yul\":20906:21279   */\n      swap3\n      swap2\n      pop\n      pop\n      jump\t// out\n        /* \"#utility.yul\":21285:21925   */\n    tag_189:\n        /* \"#utility.yul\":21480:21484   */\n      0x00\n        /* \"#utility.yul\":21518:21521   */\n      0x80\n        /* \"#utility.yul\":21507:21516   */\n      dup3\n        /* \"#utility.yul\":21503:21522   */\n      add\n        /* \"#utility.yul\":21495:21522   */\n      swap1\n      pop\n        /* \"#utility.yul\":21532:21603   */\n      tag_541\n        /* \"#utility.yul\":21600:21601   */\n      0x00\n        /* \"#utility.yul\":21589:21598   */\n      dup4\n        /* \"#utility.yul\":21585:21602   */\n      add\n        /* \"#utility.yul\":21576:21582   */\n      dup8\n        /* \"#utility.yul\":21532:21603   */\n      tag_250\n      jump\t// in\n    tag_541:\n        /* \"#utility.yul\":21613:21685   */\n      tag_542\n        /* \"#utility.yul\":21681:21683   */\n      0x20\n        /* \"#utility.yul\":21670:21679   */\n      dup4\n        /* \"#utility.yul\":21666:21684   */\n      add\n        /* \"#utility.yul\":21657:21663   */\n      dup7\n        /* \"#utility.yul\":21613:21685   */\n      tag_250\n      jump\t// in\n    tag_542:\n        /* \"#utility.yul\":21695:21767   */\n      tag_543\n        /* \"#utility.yul\":21763:21765   */\n      0x40\n        /* \"#utility.yul\":21752:21761   */\n      dup4\n        /* \"#utility.yul\":21748:21766   */\n      add\n        /* \"#utility.yul\":21739:21745   */\n      dup6\n        /* \"#utility.yul\":21695:21767   */\n      tag_255\n      jump\t// in\n    tag_543:\n        /* \"#utility.yul\":21814:21823   */\n      dup2\n        /* \"#utility.yul\":21808:21812   */\n      dup2\n        /* \"#utility.yul\":21804:21824   */\n      sub\n        /* \"#utility.yul\":21799:21801   */\n      0x60\n        /* \"#utility.yul\":21788:21797   */\n      dup4\n        /* \"#utility.yul\":21784:21802   */\n      add\n        /* \"#utility.yul\":21777:21825   */\n      mstore\n        /* \"#utility.yul\":21842:21918   */\n      tag_544\n        /* \"#utility.yul\":21913:21917   */\n      dup2\n        /* \"#utility.yul\":21904:21910   */\n      dup5\n        /* \"#utility.yul\":21842:21918   */\n      tag_290\n      jump\t// in\n    tag_544:\n        /* \"#utility.yul\":21834:21918   */\n      swap1\n      pop\n        /* \"#utility.yul\":21285:21925   */\n      swap6\n      swap5\n      pop\n      pop\n      pop\n      pop\n      pop\n      jump\t// out\n        /* \"#utility.yul\":21931:22072   */\n    tag_291:\n        /* \"#utility.yul\":21987:21992   */\n      0x00\n        /* \"#utility.yul\":22018:22024   */\n      dup2\n        /* \"#utility.yul\":22012:22025   */\n      mload\n        /* \"#utility.yul\":22003:22025   */\n      swap1\n      pop\n        /* \"#utility.yul\":22034:22066   */\n      tag_546\n        /* \"#utility.yul\":22060:22065   */\n      dup2\n        /* \"#utility.yul\":22034:22066   */\n      tag_236\n      jump\t// in\n    tag_546:\n        /* \"#utility.yul\":21931:22072   */\n      swap3\n      swap2\n      pop\n      pop\n      jump\t// out\n        /* \"#utility.yul\":22078:22427   */\n    tag_192:\n        /* \"#utility.yul\":22147:22153   */\n      0x00\n        /* \"#utility.yul\":22196:22198   */\n      0x20\n        /* \"#utility.yul\":22184:22193   */\n      dup3\n        /* \"#utility.yul\":22175:22182   */\n      dup5\n        /* \"#utility.yul\":22171:22194   */\n      sub\n        /* \"#utility.yul\":22167:22199   */\n      slt\n        /* \"#utility.yul\":22164:22283   */\n      iszero\n      tag_548\n      jumpi\n        /* \"#utility.yul\":22202:22281   */\n      tag_549\n      tag_233\n      jump\t// in\n    tag_549:\n        /* \"#utility.yul\":22164:22283   */\n    tag_548:\n        /* \"#utility.yul\":22322:22323   */\n      0x00\n        /* \"#utility.yul\":22347:22410   */\n      tag_550\n        /* \"#utility.yul\":22402:22409   */\n      dup5\n        /* \"#utility.yul\":22393:22399   */\n      dup3\n        /* \"#utility.yul\":22382:22391   */\n      dup6\n        /* \"#utility.yul\":22378:22400   */\n      add\n        /* \"#utility.yul\":22347:22410   */\n      tag_291\n      jump\t// in\n    tag_550:\n        /* \"#utility.yul\":22337:22410   */\n      swap2\n      pop\n        /* \"#utility.yul\":22293:22420   */\n      pop\n        /* \"#utility.yul\":22078:22427   */\n      swap3\n      swap2\n      pop\n      pop\n      jump\t// out\n        /* \"#utility.yul\":22433:22765   */\n    tag_225:\n        /* \"#utility.yul\":22554:22558   */\n      0x00\n        /* \"#utility.yul\":22592:22594   */\n      0x40\n        /* \"#utility.yul\":22581:22590   */\n      dup3\n        /* \"#utility.yul\":22577:22595   */\n      add\n        /* \"#utility.yul\":22569:22595   */\n      swap1\n      pop\n        /* \"#utility.yul\":22605:22676   */\n      tag_552\n        /* \"#utility.yul\":22673:22674   */\n      0x00\n        /* \"#utility.yul\":22662:22671   */\n      dup4\n        /* \"#utility.yul\":22658:22675   */\n      add\n        /* \"#utility.yul\":22649:22655   */\n      dup6\n        /* \"#utility.yul\":22605:22676   */\n      tag_250\n      jump\t// in\n    tag_552:\n        /* \"#utility.yul\":22686:22758   */\n      tag_553\n        /* \"#utility.yul\":22754:22756   */\n      0x20\n        /* \"#utility.yul\":22743:22752   */\n      dup4\n        /* \"#utility.yul\":22739:22757   */\n      add\n        /* \"#utility.yul\":22730:22736   */\n      dup5\n        /* \"#utility.yul\":22686:22758   */\n      tag_255\n      jump\t// in\n    tag_553:\n        /* \"#utility.yul\":22433:22765   */\n      swap4\n      swap3\n      pop\n      pop\n      pop\n      jump\t// out\n    stop\n    data_094ead967d3e05150396c22a9d9c43e0dca9917954019f87a54e2ae6bcc8432a 68747470733a2f2f61707269636f742d77726f6e672d706c6174797075732d3333362e6d7970696e6174612e636c6f75642f697066732f\n\n    auxdata: 0xa264697066735822122019cb1e6d529bf8a4b107520ccb901703979c184ad4bdc593b9e2417e2c1bfe0464736f6c63430008140033\n}\n",
				"bytecode": {
					"linkReferences": {},
					"object": "60806040525f60065534801562000014575f80fd5b50604051620025e7380380620025e783398181016040528101906200003a9190620001ee565b8181815f90816200004c9190620004a8565b5080600190816200005e9190620004a8565b50505050506200058c565b5f604051905090565b5f80fd5b5f80fd5b5f80fd5b5f80fd5b5f601f19601f8301169050919050565b7f4e487b71000000000000000000000000000000000000000000000000000000005f52604160045260245ffd5b620000ca8262000082565b810181811067ffffffffffffffff82111715620000ec57620000eb62000092565b5b80604052505050565b5f6200010062000069565b90506200010e8282620000bf565b919050565b5f67ffffffffffffffff82111562000130576200012f62000092565b5b6200013b8262000082565b9050602081019050919050565b5f5b83811015620001675780820151818401526020810190506200014a565b5f8484015250505050565b5f62000188620001828462000113565b620000f5565b905082815260208101848484011115620001a757620001a66200007e565b5b620001b484828562000148565b509392505050565b5f82601f830112620001d357620001d26200007a565b5b8151620001e584826020860162000172565b91505092915050565b5f806040838503121562000207576200020662000072565b5b5f83015167ffffffffffffffff81111562000227576200022662000076565b5b6200023585828601620001bc565b925050602083015167ffffffffffffffff81111562000259576200025862000076565b5b6200026785828601620001bc565b9150509250929050565b5f81519050919050565b7f4e487b71000000000000000000000000000000000000000000000000000000005f52602260045260245ffd5b5f6002820490506001821680620002c057607f821691505b602082108103620002d657620002d56200027b565b5b50919050565b5f819050815f5260205f209050919050565b5f6020601f8301049050919050565b5f82821b905092915050565b5f600883026200033a7fffffffffffffffffffffffffffffffffffffffffffffffffffffffffffffffff82620002fd565b620003468683620002fd565b95508019841693508086168417925050509392505050565b5f819050919050565b5f819050919050565b5f620003906200038a62000384846200035e565b62000367565b6200035e565b9050919050565b5f819050919050565b620003ab8362000370565b620003c3620003ba8262000397565b84845462000309565b825550505050565b5f90565b620003d9620003cb565b620003e6818484620003a0565b505050565b5b818110156200040d57620004015f82620003cf565b600181019050620003ec565b5050565b601f8211156200045c576200042681620002dc565b6200043184620002ee565b8101602085101562000441578190505b620004596200045085620002ee565b830182620003eb565b50505b505050565b5f82821c905092915050565b5f6200047e5f198460080262000461565b1980831691505092915050565b5f6200049883836200046d565b9150826002028217905092915050565b620004b38262000271565b67ffffffffffffffff811115620004cf57620004ce62000092565b5b620004db8254620002a8565b620004e882828562000411565b5f60209050601f8311600181146200051e575f841562000509578287015190505b6200051585826200048b565b86555062000584565b601f1984166200052e86620002dc565b5f5b82811015620005575784890151825560018201915060208501945060208101905062000530565b8683101562000577578489015162000573601f8916826200046d565b8355505b6001600288020188555050505b505050505050565b61204d806200059a5f395ff3fe608060405234801561000f575f80fd5b50600436106100f3575f3560e01c80636352211e11610095578063b458438f11610064578063b458438f1461027f578063b88d4fde146102af578063c87b56dd146102cb578063e985e9c5146102fb576100f3565b80636352211e146101e557806370a082311461021557806395d89b4114610245578063a22cb46514610263576100f3565b8063095ea7b3116100d1578063095ea7b31461017557806323b872dd1461019157806329d6724e146101ad57806342842e0e146101c9576100f3565b806301ffc9a7146100f757806306fdde0314610127578063081812fc14610145575b5f80fd5b610111600480360381019061010c919061140d565b61032b565b60405161011e9190611452565b60405180910390f35b61012f61040c565b60405161013c91906114f5565b60405180910390f35b61015f600480360381019061015a9190611548565b61049b565b60405161016c91906115b2565b60405180910390f35b61018f600480360381019061018a91906115f5565b6104b6565b005b6101ab60048036038101906101a69190611633565b6104cc565b005b6101c760048036038101906101c291906116ad565b6105cb565b005b6101e360048036038101906101de9190611633565b6105db565b005b6101ff60048036038101906101fa9190611548565b6105fa565b60405161020c91906115b2565b60405180910390f35b61022f600480360381019061022a91906116fd565b61060b565b60405161023c9190611737565b60405180910390f35b61024d6106c1565b60405161025a91906114f5565b60405180910390f35b61027d60048036038101906102789190611750565b610751565b005b610299600480360381019061029491906118ba565b610767565b6040516102a69190611737565b60405180910390f35b6102c960048036038101906102c491906119b2565b6107c5565b005b6102e560048036038101906102e09190611548565b6107e2565b6040516102f291906114f5565b60405180910390f35b61031560048036038101906103109190611a32565b610824565b6040516103229190611452565b60405180910390f35b5f7f80ac58cd000000000000000000000000000000000000000000000000000000007bffffffffffffffffffffffffffffffffffffffffffffffffffffffff1916827bffffffffffffffffffffffffffffffffffffffffffffffffffffffff191614806103f557507f5b5e139f000000000000000000000000000000000000000000000000000000007bffffffffffffffffffffffffffffffffffffffffffffffffffffffff1916827bffffffffffffffffffffffffffffffffffffffffffffffffffffffff1916145b806104055750610404826108b2565b5b9050919050565b60605f805461041a90611a9d565b80601f016020809104026020016040519081016040528092919081815260200182805461044690611a9d565b80156104915780601f1061046857610100808354040283529160200191610491565b820191905f5260205f20905b81548152906001019060200180831161047457829003601f168201915b5050505050905090565b5f6104a58261091b565b506104af826109a1565b9050919050565b6104c882826104c36109da565b6109e1565b5050565b5f73ffffffffffffffffffffffffffffffffffffffff168273ffffffffffffffffffffffffffffffffffffffff160361053c575f6040517f64a0ae9200000000000000000000000000000000000000000000000000000000815260040161053391906115b2565b60405180910390fd5b5f61054f838361054a6109da565b6109f3565b90508373ffffffffffffffffffffffffffffffffffffffff168173ffffffffffffffffffffffffffffffffffffffff16146105c5578382826040517f64283d7b0000000000000000000000000000000000000000000000000000000081526004016105bc93929190611acd565b60405180910390fd5b50505050565b6105d6838383610bfe565b505050565b6105f583838360405180602001604052805f8152506107c5565b505050565b5f6106048261091b565b9050919050565b5f8073ffffffffffffffffffffffffffffffffffffffff168273ffffffffffffffffffffffffffffffffffffffff160361067c575f6040517f89c62b6400000000000000000000000000000000000000000000000000000000815260040161067391906115b2565b60405180910390fd5b60035f8373ffffffffffffffffffffffffffffffffffffffff1673ffffffffffffffffffffffffffffffffffffffff1681526020019081526020015f20549050919050565b6060600180546106d090611a9d565b80601f01602080910402602001604051908101604052809291908181526020018280546106fc90611a9d565b80156107475780601f1061071e57610100808354040283529160200191610747565b820191905f5260205f20905b81548152906001019060200180831161072a57829003601f168201915b5050505050905090565b61076361075c6109da565b8383610bfe565b5050565b5f8260075f60065481526020019081526020015f2090816107889190611c9f565b5061079582600654610d67565b600160065f8282546107a79190611d9b565b9250508190555060016006546107bd9190611dce565b905092915050565b6107d08484846104cc565b6107dc84848484610e5a565b50505050565b60606107ec61100c565b60075f8481526020019081526020015f2060405160200161080e929190611ebb565b6040516020818303038152906040529050919050565b5f60055f8473ffffffffffffffffffffffffffffffffffffffff1673ffffffffffffffffffffffffffffffffffffffff1681526020019081526020015f205f8373ffffffffffffffffffffffffffffffffffffffff1673ffffffffffffffffffffffffffffffffffffffff1681526020019081526020015f205f9054906101000a900460ff16905092915050565b5f7f01ffc9a7000000000000000000000000000000000000000000000000000000007bffffffffffffffffffffffffffffffffffffffffffffffffffffffff1916827bffffffffffffffffffffffffffffffffffffffffffffffffffffffff1916149050919050565b5f806109268361102c565b90505f73ffffffffffffffffffffffffffffffffffffffff168173ffffffffffffffffffffffffffffffffffffffff160361099857826040517f7e27328900000000000000000000000000000000000000000000000000000000815260040161098f9190611737565b60405180910390fd5b80915050919050565b5f60045f8381526020019081526020015f205f9054906101000a900473ffffffffffffffffffffffffffffffffffffffff169050919050565b5f33905090565b6109ee8383836001611065565b505050565b5f806109fe8461102c565b90505f73ffffffffffffffffffffffffffffffffffffffff168373ffffffffffffffffffffffffffffffffffffffff1614610a3f57610a3e818486611224565b5b5f73ffffffffffffffffffffffffffffffffffffffff168173ffffffffffffffffffffffffffffffffffffffff1614610aca57610a7e5f855f80611065565b600160035f8373ffffffffffffffffffffffffffffffffffffffff1673ffffffffffffffffffffffffffffffffffffffff1681526020019081526020015f205f82825403925050819055505b5f73ffffffffffffffffffffffffffffffffffffffff168573ffffffffffffffffffffffffffffffffffffffff1614610b4957600160035f8773ffffffffffffffffffffffffffffffffffffffff1673ffffffffffffffffffffffffffffffffffffffff1681526020019081526020015f205f82825401925050819055505b8460025f8681526020019081526020015f205f6101000a81548173ffffffffffffffffffffffffffffffffffffffff021916908373ffffffffffffffffffffffffffffffffffffffff160217905550838573ffffffffffffffffffffffffffffffffffffffff168273ffffffffffffffffffffffffffffffffffffffff167fddf252ad1be2c89b69c2b068fc378daa952ba7f163c4a11628f55a4df523b3ef60405160405180910390a4809150509392505050565b5f73ffffffffffffffffffffffffffffffffffffffff168273ffffffffffffffffffffffffffffffffffffffff1603610c6e57816040517f5b08ba18000000000000000000000000000000000000000000000000000000008152600401610c6591906115b2565b60405180910390fd5b8060055f8573ffffffffffffffffffffffffffffffffffffffff1673ffffffffffffffffffffffffffffffffffffffff1681526020019081526020015f205f8473ffffffffffffffffffffffffffffffffffffffff1673ffffffffffffffffffffffffffffffffffffffff1681526020019081526020015f205f6101000a81548160ff0219169083151502179055508173ffffffffffffffffffffffffffffffffffffffff168373ffffffffffffffffffffffffffffffffffffffff167f17307eab39ab6107e8899845ad3d59bd9653f200f220920489ca2b5937696c3183604051610d5a9190611452565b60405180910390a3505050565b5f73ffffffffffffffffffffffffffffffffffffffff168273ffffffffffffffffffffffffffffffffffffffff1603610dd7575f6040517f64a0ae92000000000000000000000000000000000000000000000000000000008152600401610dce91906115b2565b60405180910390fd5b5f610de383835f6109f3565b90505f73ffffffffffffffffffffffffffffffffffffffff168173ffffffffffffffffffffffffffffffffffffffff1614610e55575f6040517f73c6ac6e000000000000000000000000000000000000000000000000000000008152600401610e4c91906115b2565b60405180910390fd5b505050565b5f8373ffffffffffffffffffffffffffffffffffffffff163b1115611006578273ffffffffffffffffffffffffffffffffffffffff1663150b7a02610e9d6109da565b8685856040518563ffffffff1660e01b8152600401610ebf9493929190611f30565b6020604051808303815f875af1925050508015610efa57506040513d601f19601f82011682018060405250810190610ef79190611f8e565b60015b610f7b573d805f8114610f28576040519150601f19603f3d011682016040523d82523d5f602084013e610f2d565b606091505b505f815103610f7357836040517f64a0ae92000000000000000000000000000000000000000000000000000000008152600401610f6a91906115b2565b60405180910390fd5b805181602001fd5b63150b7a0260e01b7bffffffffffffffffffffffffffffffffffffffffffffffffffffffff1916817bffffffffffffffffffffffffffffffffffffffffffffffffffffffff19161461100457836040517f64a0ae92000000000000000000000000000000000000000000000000000000008152600401610ffb91906115b2565b60405180910390fd5b505b50505050565b6060604051806060016040528060378152602001611fe160379139905090565b5f60025f8381526020019081526020015f205f9054906101000a900473ffffffffffffffffffffffffffffffffffffffff169050919050565b808061109d57505f73ffffffffffffffffffffffffffffffffffffffff168273ffffffffffffffffffffffffffffffffffffffff1614155b156111cf575f6110ac8461091b565b90505f73ffffffffffffffffffffffffffffffffffffffff168373ffffffffffffffffffffffffffffffffffffffff161415801561111657508273ffffffffffffffffffffffffffffffffffffffff168173ffffffffffffffffffffffffffffffffffffffff1614155b801561112957506111278184610824565b155b1561116b57826040517fa9fbf51f00000000000000000000000000000000000000000000000000000000815260040161116291906115b2565b60405180910390fd5b81156111cd57838573ffffffffffffffffffffffffffffffffffffffff168273ffffffffffffffffffffffffffffffffffffffff167f8c5be1e5ebec7d5bd14f71427d1e84f3dd0314c0f7b2291e5b200ac8c7c3b92560405160405180910390a45b505b8360045f8581526020019081526020015f205f6101000a81548173ffffffffffffffffffffffffffffffffffffffff021916908373ffffffffffffffffffffffffffffffffffffffff16021790555050505050565b61122f8383836112e7565b6112e2575f73ffffffffffffffffffffffffffffffffffffffff168373ffffffffffffffffffffffffffffffffffffffff16036112a357806040517f7e27328900000000000000000000000000000000000000000000000000000000815260040161129a9190611737565b60405180910390fd5b81816040517f177e802f0000000000000000000000000000000000000000000000000000000081526004016112d9929190611fb9565b60405180910390fd5b505050565b5f8073ffffffffffffffffffffffffffffffffffffffff168373ffffffffffffffffffffffffffffffffffffffff161415801561139e57508273ffffffffffffffffffffffffffffffffffffffff168473ffffffffffffffffffffffffffffffffffffffff16148061135f575061135e8484610824565b5b8061139d57508273ffffffffffffffffffffffffffffffffffffffff16611385836109a1565b73ffffffffffffffffffffffffffffffffffffffff16145b5b90509392505050565b5f604051905090565b5f80fd5b5f80fd5b5f7fffffffff0000000000000000000000000000000000000000000000000000000082169050919050565b6113ec816113b8565b81146113f6575f80fd5b50565b5f81359050611407816113e3565b92915050565b5f60208284031215611422576114216113b0565b5b5f61142f848285016113f9565b91505092915050565b5f8115159050919050565b61144c81611438565b82525050565b5f6020820190506114655f830184611443565b92915050565b5f81519050919050565b5f82825260208201905092915050565b5f5b838110156114a2578082015181840152602081019050611487565b5f8484015250505050565b5f601f19601f8301169050919050565b5f6114c78261146b565b6114d18185611475565b93506114e1818560208601611485565b6114ea816114ad565b840191505092915050565b5f6020820190508181035f83015261150d81846114bd565b905092915050565b5f819050919050565b61152781611515565b8114611531575f80fd5b50565b5f813590506115428161151e565b92915050565b5f6020828403121561155d5761155c6113b0565b5b5f61156a84828501611534565b91505092915050565b5f73ffffffffffffffffffffffffffffffffffffffff82169050919050565b5f61159c82611573565b9050919050565b6115ac81611592565b82525050565b5f6020820190506115c55f8301846115a3565b92915050565b6115d481611592565b81146115de575f80fd5b50565b5f813590506115ef816115cb565b92915050565b5f806040838503121561160b5761160a6113b0565b5b5f611618858286016115e1565b925050602061162985828601611534565b9150509250929050565b5f805f6060848603121561164a576116496113b0565b5b5f611657868287016115e1565b9350506020611668868287016115e1565b925050604061167986828701611534565b9150509250925092565b61168c81611438565b8114611696575f80fd5b50565b5f813590506116a781611683565b92915050565b5f805f606084860312156116c4576116c36113b0565b5b5f6116d1868287016115e1565b93505060206116e2868287016115e1565b92505060406116f386828701611699565b9150509250925092565b5f60208284031215611712576117116113b0565b5b5f61171f848285016115e1565b91505092915050565b61173181611515565b82525050565b5f60208201905061174a5f830184611728565b92915050565b5f8060408385031215611766576117656113b0565b5b5f611773858286016115e1565b925050602061178485828601611699565b9150509250929050565b5f80fd5b5f80fd5b7f4e487b71000000000000000000000000000000000000000000000000000000005f52604160045260245ffd5b6117cc826114ad565b810181811067ffffffffffffffff821117156117eb576117ea611796565b5b80604052505050565b5f6117fd6113a7565b905061180982826117c3565b919050565b5f67ffffffffffffffff82111561182857611827611796565b5b611831826114ad565b9050602081019050919050565b828183375f83830152505050565b5f61185e6118598461180e565b6117f4565b90508281526020810184848401111561187a57611879611792565b5b61188584828561183e565b509392505050565b5f82601f8301126118a1576118a061178e565b5b81356118b184826020860161184c565b91505092915050565b5f80604083850312156118d0576118cf6113b0565b5b5f83013567ffffffffffffffff8111156118ed576118ec6113b4565b5b6118f98582860161188d565b925050602061190a858286016115e1565b9150509250929050565b5f67ffffffffffffffff82111561192e5761192d611796565b5b611937826114ad565b9050602081019050919050565b5f61195661195184611914565b6117f4565b90508281526020810184848401111561197257611971611792565b5b61197d84828561183e565b509392505050565b5f82601f8301126119995761199861178e565b5b81356119a9848260208601611944565b91505092915050565b5f805f80608085870312156119ca576119c96113b0565b5b5f6119d7878288016115e1565b94505060206119e8878288016115e1565b93505060406119f987828801611534565b925050606085013567ffffffffffffffff811115611a1a57611a196113b4565b5b611a2687828801611985565b91505092959194509250565b5f8060408385031215611a4857611a476113b0565b5b5f611a55858286016115e1565b9250506020611a66858286016115e1565b9150509250929050565b7f4e487b71000000000000000000000000000000000000000000000000000000005f52602260045260245ffd5b5f6002820490506001821680611ab457607f821691505b602082108103611ac757611ac6611a70565b5b50919050565b5f606082019050611ae05f8301866115a3565b611aed6020830185611728565b611afa60408301846115a3565b949350505050565b5f819050815f5260205f209050919050565b5f6020601f8301049050919050565b5f82821b905092915050565b5f60088302611b5e7fffffffffffffffffffffffffffffffffffffffffffffffffffffffffffffffff82611b23565b611b688683611b23565b95508019841693508086168417925050509392505050565b5f819050919050565b5f611ba3611b9e611b9984611515565b611b80565b611515565b9050919050565b5f819050919050565b611bbc83611b89565b611bd0611bc882611baa565b848454611b2f565b825550505050565b5f90565b611be4611bd8565b611bef818484611bb3565b505050565b5b81811015611c1257611c075f82611bdc565b600181019050611bf5565b5050565b601f821115611c5757611c2881611b02565b611c3184611b14565b81016020851015611c40578190505b611c54611c4c85611b14565b830182611bf4565b50505b505050565b5f82821c905092915050565b5f611c775f1984600802611c5c565b1980831691505092915050565b5f611c8f8383611c68565b9150826002028217905092915050565b611ca88261146b565b67ffffffffffffffff811115611cc157611cc0611796565b5b611ccb8254611a9d565b611cd6828285611c16565b5f60209050601f831160018114611d07575f8415611cf5578287015190505b611cff8582611c84565b865550611d66565b601f198416611d1586611b02565b5f5b82811015611d3c57848901518255600182019150602085019450602081019050611d17565b86831015611d595784890151611d55601f891682611c68565b8355505b6001600288020188555050505b505050505050565b7f4e487b71000000000000000000000000000000000000000000000000000000005f52601160045260245ffd5b5f611da582611515565b9150611db083611515565b9250828201905080821115611dc857611dc7611d6e565b5b92915050565b5f611dd882611515565b9150611de383611515565b9250828203905081811115611dfb57611dfa611d6e565b5b92915050565b5f81905092915050565b5f611e158261146b565b611e1f8185611e01565b9350611e2f818560208601611485565b80840191505092915050565b5f8154611e4781611a9d565b611e518186611e01565b9450600182165f8114611e6b5760018114611e8057611eb2565b60ff1983168652811515820286019350611eb2565b611e8985611b02565b5f5b83811015611eaa57815481890152600182019150602081019050611e8b565b838801955050505b50505092915050565b5f611ec68285611e0b565b9150611ed28284611e3b565b91508190509392505050565b5f81519050919050565b5f82825260208201905092915050565b5f611f0282611ede565b611f0c8185611ee8565b9350611f1c818560208601611485565b611f25816114ad565b840191505092915050565b5f608082019050611f435f8301876115a3565b611f5060208301866115a3565b611f5d6040830185611728565b8181036060830152611f6f8184611ef8565b905095945050505050565b5f81519050611f88816113e3565b92915050565b5f60208284031215611fa357611fa26113b0565b5b5f611fb084828501611f7a565b91505092915050565b5f604082019050611fcc5f8301856115a3565b611fd96020830184611728565b939250505056fe68747470733a2f2f61707269636f742d77726f6e672d706c6174797075732d3333362e6d7970696e6174612e636c6f75642f697066732fa264697066735822122019cb1e6d529bf8a4b107520ccb901703979c184ad4bdc593b9e2417e2c1bfe0464736f6c63430008140033",
					"opcodes": "PUSH1 0x80 PUSH1 0x40 MSTORE PUSH0 PUSH1 0x6 SSTORE CALLVALUE DUP1 ISZERO PUSH3 0x14 JUMPI PUSH0 DUP1 REVERT JUMPDEST POP PUSH1 0x40 MLOAD PUSH3 0x25E7 CODESIZE SUB DUP1 PUSH3 0x25E7 DUP4 CODECOPY DUP2 DUP2 ADD PUSH1 0x40 MSTORE DUP2 ADD SWAP1 PUSH3 0x3A SWAP2 SWAP1 PUSH3 0x1EE JUMP JUMPDEST DUP2 DUP2 DUP2 PUSH0 SWAP1 DUP2 PUSH3 0x4C SWAP2 SWAP1 PUSH3 0x4A8 JUMP JUMPDEST POP DUP1 PUSH1 0x1 SWAP1 DUP2 PUSH3 0x5E SWAP2 SWAP1 PUSH3 0x4A8 JUMP JUMPDEST POP POP POP POP POP PUSH3 0x58C JUMP JUMPDEST PUSH0 PUSH1 0x40 MLOAD SWAP1 POP SWAP1 JUMP JUMPDEST PUSH0 DUP1 REVERT JUMPDEST PUSH0 DUP1 REVERT JUMPDEST PUSH0 DUP1 REVERT JUMPDEST PUSH0 DUP1 REVERT JUMPDEST PUSH0 PUSH1 0x1F NOT PUSH1 0x1F DUP4 ADD AND SWAP1 POP SWAP2 SWAP1 POP JUMP JUMPDEST PUSH32 0x4E487B7100000000000000000000000000000000000000000000000000000000 PUSH0 MSTORE PUSH1 0x41 PUSH1 0x4 MSTORE PUSH1 0x24 PUSH0 REVERT JUMPDEST PUSH3 0xCA DUP3 PUSH3 0x82 JUMP JUMPDEST DUP2 ADD DUP2 DUP2 LT PUSH8 0xFFFFFFFFFFFFFFFF DUP3 GT OR ISZERO PUSH3 0xEC JUMPI PUSH3 0xEB PUSH3 0x92 JUMP JUMPDEST JUMPDEST DUP1 PUSH1 0x40 MSTORE POP POP POP JUMP JUMPDEST PUSH0 PUSH3 0x100 PUSH3 0x69 JUMP JUMPDEST SWAP1 POP PUSH3 0x10E DUP3 DUP3 PUSH3 0xBF JUMP JUMPDEST SWAP2 SWAP1 POP JUMP JUMPDEST PUSH0 PUSH8 0xFFFFFFFFFFFFFFFF DUP3 GT ISZERO PUSH3 0x130 JUMPI PUSH3 0x12F PUSH3 0x92 JUMP JUMPDEST JUMPDEST PUSH3 0x13B DUP3 PUSH3 0x82 JUMP JUMPDEST SWAP1 POP PUSH1 0x20 DUP2 ADD SWAP1 POP SWAP2 SWAP1 POP JUMP JUMPDEST PUSH0 JUMPDEST DUP4 DUP2 LT ISZERO PUSH3 0x167 JUMPI DUP1 DUP3 ADD MLOAD DUP2 DUP5 ADD MSTORE PUSH1 0x20 DUP2 ADD SWAP1 POP PUSH3 0x14A JUMP JUMPDEST PUSH0 DUP5 DUP5 ADD MSTORE POP POP POP POP JUMP JUMPDEST PUSH0 PUSH3 0x188 PUSH3 0x182 DUP5 PUSH3 0x113 JUMP JUMPDEST PUSH3 0xF5 JUMP JUMPDEST SWAP1 POP DUP3 DUP2 MSTORE PUSH1 0x20 DUP2 ADD DUP5 DUP5 DUP5 ADD GT ISZERO PUSH3 0x1A7 JUMPI PUSH3 0x1A6 PUSH3 0x7E JUMP JUMPDEST JUMPDEST PUSH3 0x1B4 DUP5 DUP3 DUP6 PUSH3 0x148 JUMP JUMPDEST POP SWAP4 SWAP3 POP POP POP JUMP JUMPDEST PUSH0 DUP3 PUSH1 0x1F DUP4 ADD SLT PUSH3 0x1D3 JUMPI PUSH3 0x1D2 PUSH3 0x7A JUMP JUMPDEST JUMPDEST DUP2 MLOAD PUSH3 0x1E5 DUP5 DUP3 PUSH1 0x20 DUP7 ADD PUSH3 0x172 JUMP JUMPDEST SWAP2 POP POP SWAP3 SWAP2 POP POP JUMP JUMPDEST PUSH0 DUP1 PUSH1 0x40 DUP4 DUP6 SUB SLT ISZERO PUSH3 0x207 JUMPI PUSH3 0x206 PUSH3 0x72 JUMP JUMPDEST JUMPDEST PUSH0 DUP4 ADD MLOAD PUSH8 0xFFFFFFFFFFFFFFFF DUP2 GT ISZERO PUSH3 0x227 JUMPI PUSH3 0x226 PUSH3 0x76 JUMP JUMPDEST JUMPDEST PUSH3 0x235 DUP6 DUP3 DUP7 ADD PUSH3 0x1BC JUMP JUMPDEST SWAP3 POP POP PUSH1 0x20 DUP4 ADD MLOAD PUSH8 0xFFFFFFFFFFFFFFFF DUP2 GT ISZERO PUSH3 0x259 JUMPI PUSH3 0x258 PUSH3 0x76 JUMP JUMPDEST JUMPDEST PUSH3 0x267 DUP6 DUP3 DUP7 ADD PUSH3 0x1BC JUMP JUMPDEST SWAP2 POP POP SWAP3 POP SWAP3 SWAP1 POP JUMP JUMPDEST PUSH0 DUP2 MLOAD SWAP1 POP SWAP2 SWAP1 POP JUMP JUMPDEST PUSH32 0x4E487B7100000000000000000000000000000000000000000000000000000000 PUSH0 MSTORE PUSH1 0x22 PUSH1 0x4 MSTORE PUSH1 0x24 PUSH0 REVERT JUMPDEST PUSH0 PUSH1 0x2 DUP3 DIV SWAP1 POP PUSH1 0x1 DUP3 AND DUP1 PUSH3 0x2C0 JUMPI PUSH1 0x7F DUP3 AND SWAP2 POP JUMPDEST PUSH1 0x20 DUP3 LT DUP2 SUB PUSH3 0x2D6 JUMPI PUSH3 0x2D5 PUSH3 0x27B JUMP JUMPDEST JUMPDEST POP SWAP2 SWAP1 POP JUMP JUMPDEST PUSH0 DUP2 SWAP1 POP DUP2 PUSH0 MSTORE PUSH1 0x20 PUSH0 KECCAK256 SWAP1 POP SWAP2 SWAP1 POP JUMP JUMPDEST PUSH0 PUSH1 0x20 PUSH1 0x1F DUP4 ADD DIV SWAP1 POP SWAP2 SWAP1 POP JUMP JUMPDEST PUSH0 DUP3 DUP3 SHL SWAP1 POP SWAP3 SWAP2 POP POP JUMP JUMPDEST PUSH0 PUSH1 0x8 DUP4 MUL PUSH3 0x33A PUSH32 0xFFFFFFFFFFFFFFFFFFFFFFFFFFFFFFFFFFFFFFFFFFFFFFFFFFFFFFFFFFFFFFFF DUP3 PUSH3 0x2FD JUMP JUMPDEST PUSH3 0x346 DUP7 DUP4 PUSH3 0x2FD JUMP JUMPDEST SWAP6 POP DUP1 NOT DUP5 AND SWAP4 POP DUP1 DUP7 AND DUP5 OR SWAP3 POP POP POP SWAP4 SWAP3 POP POP POP JUMP JUMPDEST PUSH0 DUP2 SWAP1 POP SWAP2 SWAP1 POP JUMP JUMPDEST PUSH0 DUP2 SWAP1 POP SWAP2 SWAP1 POP JUMP JUMPDEST PUSH0 PUSH3 0x390 PUSH3 0x38A PUSH3 0x384 DUP5 PUSH3 0x35E JUMP JUMPDEST PUSH3 0x367 JUMP JUMPDEST PUSH3 0x35E JUMP JUMPDEST SWAP1 POP SWAP2 SWAP1 POP JUMP JUMPDEST PUSH0 DUP2 SWAP1 POP SWAP2 SWAP1 POP JUMP JUMPDEST PUSH3 0x3AB DUP4 PUSH3 0x370 JUMP JUMPDEST PUSH3 0x3C3 PUSH3 0x3BA DUP3 PUSH3 0x397 JUMP JUMPDEST DUP5 DUP5 SLOAD PUSH3 0x309 JUMP JUMPDEST DUP3 SSTORE POP POP POP POP JUMP JUMPDEST PUSH0 SWAP1 JUMP JUMPDEST PUSH3 0x3D9 PUSH3 0x3CB JUMP JUMPDEST PUSH3 0x3E6 DUP2 DUP5 DUP5 PUSH3 0x3A0 JUMP JUMPDEST POP POP POP JUMP JUMPDEST JUMPDEST DUP2 DUP2 LT ISZERO PUSH3 0x40D JUMPI PUSH3 0x401 PUSH0 DUP3 PUSH3 0x3CF JUMP JUMPDEST PUSH1 0x1 DUP2 ADD SWAP1 POP PUSH3 0x3EC JUMP JUMPDEST POP POP JUMP JUMPDEST PUSH1 0x1F DUP3 GT ISZERO PUSH3 0x45C JUMPI PUSH3 0x426 DUP2 PUSH3 0x2DC JUMP JUMPDEST PUSH3 0x431 DUP5 PUSH3 0x2EE JUMP JUMPDEST DUP2 ADD PUSH1 0x20 DUP6 LT ISZERO PUSH3 0x441 JUMPI DUP2 SWAP1 POP JUMPDEST PUSH3 0x459 PUSH3 0x450 DUP6 PUSH3 0x2EE JUMP JUMPDEST DUP4 ADD DUP3 PUSH3 0x3EB JUMP JUMPDEST POP POP JUMPDEST POP POP POP JUMP JUMPDEST PUSH0 DUP3 DUP3 SHR SWAP1 POP SWAP3 SWAP2 POP POP JUMP JUMPDEST PUSH0 PUSH3 0x47E PUSH0 NOT DUP5 PUSH1 0x8 MUL PUSH3 0x461 JUMP JUMPDEST NOT DUP1 DUP4 AND SWAP2 POP POP SWAP3 SWAP2 POP POP JUMP JUMPDEST PUSH0 PUSH3 0x498 DUP4 DUP4 PUSH3 0x46D JUMP JUMPDEST SWAP2 POP DUP3 PUSH1 0x2 MUL DUP3 OR SWAP1 POP SWAP3 SWAP2 POP POP JUMP JUMPDEST PUSH3 0x4B3 DUP3 PUSH3 0x271 JUMP JUMPDEST PUSH8 0xFFFFFFFFFFFFFFFF DUP2 GT ISZERO PUSH3 0x4CF JUMPI PUSH3 0x4CE PUSH3 0x92 JUMP JUMPDEST JUMPDEST PUSH3 0x4DB DUP3 SLOAD PUSH3 0x2A8 JUMP JUMPDEST PUSH3 0x4E8 DUP3 DUP3 DUP6 PUSH3 0x411 JUMP JUMPDEST PUSH0 PUSH1 0x20 SWAP1 POP PUSH1 0x1F DUP4 GT PUSH1 0x1 DUP2 EQ PUSH3 0x51E JUMPI PUSH0 DUP5 ISZERO PUSH3 0x509 JUMPI DUP3 DUP8 ADD MLOAD SWAP1 POP JUMPDEST PUSH3 0x515 DUP6 DUP3 PUSH3 0x48B JUMP JUMPDEST DUP7 SSTORE POP PUSH3 0x584 JUMP JUMPDEST PUSH1 0x1F NOT DUP5 AND PUSH3 0x52E DUP7 PUSH3 0x2DC JUMP JUMPDEST PUSH0 JUMPDEST DUP3 DUP2 LT ISZERO PUSH3 0x557 JUMPI DUP5 DUP10 ADD MLOAD DUP3 SSTORE PUSH1 0x1 DUP3 ADD SWAP2 POP PUSH1 0x20 DUP6 ADD SWAP5 POP PUSH1 0x20 DUP2 ADD SWAP1 POP PUSH3 0x530 JUMP JUMPDEST DUP7 DUP4 LT ISZERO PUSH3 0x577 JUMPI DUP5 DUP10 ADD MLOAD PUSH3 0x573 PUSH1 0x1F DUP10 AND DUP3 PUSH3 0x46D JUMP JUMPDEST DUP4 SSTORE POP JUMPDEST PUSH1 0x1 PUSH1 0x2 DUP9 MUL ADD DUP9 SSTORE POP POP POP JUMPDEST POP POP POP POP POP POP JUMP JUMPDEST PUSH2 0x204D DUP1 PUSH3 0x59A PUSH0 CODECOPY PUSH0 RETURN INVALID PUSH1 0x80 PUSH1 0x40 MSTORE CALLVALUE DUP1 ISZERO PUSH2 0xF JUMPI PUSH0 DUP1 REVERT JUMPDEST POP PUSH1 0x4 CALLDATASIZE LT PUSH2 0xF3 JUMPI PUSH0 CALLDATALOAD PUSH1 0xE0 SHR DUP1 PUSH4 0x6352211E GT PUSH2 0x95 JUMPI DUP1 PUSH4 0xB458438F GT PUSH2 0x64 JUMPI DUP1 PUSH4 0xB458438F EQ PUSH2 0x27F JUMPI DUP1 PUSH4 0xB88D4FDE EQ PUSH2 0x2AF JUMPI DUP1 PUSH4 0xC87B56DD EQ PUSH2 0x2CB JUMPI DUP1 PUSH4 0xE985E9C5 EQ PUSH2 0x2FB JUMPI PUSH2 0xF3 JUMP JUMPDEST DUP1 PUSH4 0x6352211E EQ PUSH2 0x1E5 JUMPI DUP1 PUSH4 0x70A08231 EQ PUSH2 0x215 JUMPI DUP1 PUSH4 0x95D89B41 EQ PUSH2 0x245 JUMPI DUP1 PUSH4 0xA22CB465 EQ PUSH2 0x263 JUMPI PUSH2 0xF3 JUMP JUMPDEST DUP1 PUSH4 0x95EA7B3 GT PUSH2 0xD1 JUMPI DUP1 PUSH4 0x95EA7B3 EQ PUSH2 0x175 JUMPI DUP1 PUSH4 0x23B872DD EQ PUSH2 0x191 JUMPI DUP1 PUSH4 0x29D6724E EQ PUSH2 0x1AD JUMPI DUP1 PUSH4 0x42842E0E EQ PUSH2 0x1C9 JUMPI PUSH2 0xF3 JUMP JUMPDEST DUP1 PUSH4 0x1FFC9A7 EQ PUSH2 0xF7 JUMPI DUP1 PUSH4 0x6FDDE03 EQ PUSH2 0x127 JUMPI DUP1 PUSH4 0x81812FC EQ PUSH2 0x145 JUMPI JUMPDEST PUSH0 DUP1 REVERT JUMPDEST PUSH2 0x111 PUSH1 0x4 DUP1 CALLDATASIZE SUB DUP2 ADD SWAP1 PUSH2 0x10C SWAP2 SWAP1 PUSH2 0x140D JUMP JUMPDEST PUSH2 0x32B JUMP JUMPDEST PUSH1 0x40 MLOAD PUSH2 0x11E SWAP2 SWAP1 PUSH2 0x1452 JUMP JUMPDEST PUSH1 0x40 MLOAD DUP1 SWAP2 SUB SWAP1 RETURN JUMPDEST PUSH2 0x12F PUSH2 0x40C JUMP JUMPDEST PUSH1 0x40 MLOAD PUSH2 0x13C SWAP2 SWAP1 PUSH2 0x14F5 JUMP JUMPDEST PUSH1 0x40 MLOAD DUP1 SWAP2 SUB SWAP1 RETURN JUMPDEST PUSH2 0x15F PUSH1 0x4 DUP1 CALLDATASIZE SUB DUP2 ADD SWAP1 PUSH2 0x15A SWAP2 SWAP1 PUSH2 0x1548 JUMP JUMPDEST PUSH2 0x49B JUMP JUMPDEST PUSH1 0x40 MLOAD PUSH2 0x16C SWAP2 SWAP1 PUSH2 0x15B2 JUMP JUMPDEST PUSH1 0x40 MLOAD DUP1 SWAP2 SUB SWAP1 RETURN JUMPDEST PUSH2 0x18F PUSH1 0x4 DUP1 CALLDATASIZE SUB DUP2 ADD SWAP1 PUSH2 0x18A SWAP2 SWAP1 PUSH2 0x15F5 JUMP JUMPDEST PUSH2 0x4B6 JUMP JUMPDEST STOP JUMPDEST PUSH2 0x1AB PUSH1 0x4 DUP1 CALLDATASIZE SUB DUP2 ADD SWAP1 PUSH2 0x1A6 SWAP2 SWAP1 PUSH2 0x1633 JUMP JUMPDEST PUSH2 0x4CC JUMP JUMPDEST STOP JUMPDEST PUSH2 0x1C7 PUSH1 0x4 DUP1 CALLDATASIZE SUB DUP2 ADD SWAP1 PUSH2 0x1C2 SWAP2 SWAP1 PUSH2 0x16AD JUMP JUMPDEST PUSH2 0x5CB JUMP JUMPDEST STOP JUMPDEST PUSH2 0x1E3 PUSH1 0x4 DUP1 CALLDATASIZE SUB DUP2 ADD SWAP1 PUSH2 0x1DE SWAP2 SWAP1 PUSH2 0x1633 JUMP JUMPDEST PUSH2 0x5DB JUMP JUMPDEST STOP JUMPDEST PUSH2 0x1FF PUSH1 0x4 DUP1 CALLDATASIZE SUB DUP2 ADD SWAP1 PUSH2 0x1FA SWAP2 SWAP1 PUSH2 0x1548 JUMP JUMPDEST PUSH2 0x5FA JUMP JUMPDEST PUSH1 0x40 MLOAD PUSH2 0x20C SWAP2 SWAP1 PUSH2 0x15B2 JUMP JUMPDEST PUSH1 0x40 MLOAD DUP1 SWAP2 SUB SWAP1 RETURN JUMPDEST PUSH2 0x22F PUSH1 0x4 DUP1 CALLDATASIZE SUB DUP2 ADD SWAP1 PUSH2 0x22A SWAP2 SWAP1 PUSH2 0x16FD JUMP JUMPDEST PUSH2 0x60B JUMP JUMPDEST PUSH1 0x40 MLOAD PUSH2 0x23C SWAP2 SWAP1 PUSH2 0x1737 JUMP JUMPDEST PUSH1 0x40 MLOAD DUP1 SWAP2 SUB SWAP1 RETURN JUMPDEST PUSH2 0x24D PUSH2 0x6C1 JUMP JUMPDEST PUSH1 0x40 MLOAD PUSH2 0x25A SWAP2 SWAP1 PUSH2 0x14F5 JUMP JUMPDEST PUSH1 0x40 MLOAD DUP1 SWAP2 SUB SWAP1 RETURN JUMPDEST PUSH2 0x27D PUSH1 0x4 DUP1 CALLDATASIZE SUB DUP2 ADD SWAP1 PUSH2 0x278 SWAP2 SWAP1 PUSH2 0x1750 JUMP JUMPDEST PUSH2 0x751 JUMP JUMPDEST STOP JUMPDEST PUSH2 0x299 PUSH1 0x4 DUP1 CALLDATASIZE SUB DUP2 ADD SWAP1 PUSH2 0x294 SWAP2 SWAP1 PUSH2 0x18BA JUMP JUMPDEST PUSH2 0x767 JUMP JUMPDEST PUSH1 0x40 MLOAD PUSH2 0x2A6 SWAP2 SWAP1 PUSH2 0x1737 JUMP JUMPDEST PUSH1 0x40 MLOAD DUP1 SWAP2 SUB SWAP1 RETURN JUMPDEST PUSH2 0x2C9 PUSH1 0x4 DUP1 CALLDATASIZE SUB DUP2 ADD SWAP1 PUSH2 0x2C4 SWAP2 SWAP1 PUSH2 0x19B2 JUMP JUMPDEST PUSH2 0x7C5 JUMP JUMPDEST STOP JUMPDEST PUSH2 0x2E5 PUSH1 0x4 DUP1 CALLDATASIZE SUB DUP2 ADD SWAP1 PUSH2 0x2E0 SWAP2 SWAP1 PUSH2 0x1548 JUMP JUMPDEST PUSH2 0x7E2 JUMP JUMPDEST PUSH1 0x40 MLOAD PUSH2 0x2F2 SWAP2 SWAP1 PUSH2 0x14F5 JUMP JUMPDEST PUSH1 0x40 MLOAD DUP1 SWAP2 SUB SWAP1 RETURN JUMPDEST PUSH2 0x315 PUSH1 0x4 DUP1 CALLDATASIZE SUB DUP2 ADD SWAP1 PUSH2 0x310 SWAP2 SWAP1 PUSH2 0x1A32 JUMP JUMPDEST PUSH2 0x824 JUMP JUMPDEST PUSH1 0x40 MLOAD PUSH2 0x322 SWAP2 SWAP1 PUSH2 0x1452 JUMP JUMPDEST PUSH1 0x40 MLOAD DUP1 SWAP2 SUB SWAP1 RETURN JUMPDEST PUSH0 PUSH32 0x80AC58CD00000000000000000000000000000000000000000000000000000000 PUSH28 0xFFFFFFFFFFFFFFFFFFFFFFFFFFFFFFFFFFFFFFFFFFFFFFFFFFFFFFFF NOT AND DUP3 PUSH28 0xFFFFFFFFFFFFFFFFFFFFFFFFFFFFFFFFFFFFFFFFFFFFFFFFFFFFFFFF NOT AND EQ DUP1 PUSH2 0x3F5 JUMPI POP PUSH32 0x5B5E139F00000000000000000000000000000000000000000000000000000000 PUSH28 0xFFFFFFFFFFFFFFFFFFFFFFFFFFFFFFFFFFFFFFFFFFFFFFFFFFFFFFFF NOT AND DUP3 PUSH28 0xFFFFFFFFFFFFFFFFFFFFFFFFFFFFFFFFFFFFFFFFFFFFFFFFFFFFFFFF NOT AND EQ JUMPDEST DUP1 PUSH2 0x405 JUMPI POP PUSH2 0x404 DUP3 PUSH2 0x8B2 JUMP JUMPDEST JUMPDEST SWAP1 POP SWAP2 SWAP1 POP JUMP JUMPDEST PUSH1 0x60 PUSH0 DUP1 SLOAD PUSH2 0x41A SWAP1 PUSH2 0x1A9D JUMP JUMPDEST DUP1 PUSH1 0x1F ADD PUSH1 0x20 DUP1 SWAP2 DIV MUL PUSH1 0x20 ADD PUSH1 0x40 MLOAD SWAP1 DUP2 ADD PUSH1 0x40 MSTORE DUP1 SWAP3 SWAP2 SWAP1 DUP2 DUP2 MSTORE PUSH1 0x20 ADD DUP3 DUP1 SLOAD PUSH2 0x446 SWAP1 PUSH2 0x1A9D JUMP JUMPDEST DUP1 ISZERO PUSH2 0x491 JUMPI DUP1 PUSH1 0x1F LT PUSH2 0x468 JUMPI PUSH2 0x100 DUP1 DUP4 SLOAD DIV MUL DUP4 MSTORE SWAP2 PUSH1 0x20 ADD SWAP2 PUSH2 0x491 JUMP JUMPDEST DUP3 ADD SWAP2 SWAP1 PUSH0 MSTORE PUSH1 0x20 PUSH0 KECCAK256 SWAP1 JUMPDEST DUP2 SLOAD DUP2 MSTORE SWAP1 PUSH1 0x1 ADD SWAP1 PUSH1 0x20 ADD DUP1 DUP4 GT PUSH2 0x474 JUMPI DUP3 SWAP1 SUB PUSH1 0x1F AND DUP3 ADD SWAP2 JUMPDEST POP POP POP POP POP SWAP1 POP SWAP1 JUMP JUMPDEST PUSH0 PUSH2 0x4A5 DUP3 PUSH2 0x91B JUMP JUMPDEST POP PUSH2 0x4AF DUP3 PUSH2 0x9A1 JUMP JUMPDEST SWAP1 POP SWAP2 SWAP1 POP JUMP JUMPDEST PUSH2 0x4C8 DUP3 DUP3 PUSH2 0x4C3 PUSH2 0x9DA JUMP JUMPDEST PUSH2 0x9E1 JUMP JUMPDEST POP POP JUMP JUMPDEST PUSH0 PUSH20 0xFFFFFFFFFFFFFFFFFFFFFFFFFFFFFFFFFFFFFFFF AND DUP3 PUSH20 0xFFFFFFFFFFFFFFFFFFFFFFFFFFFFFFFFFFFFFFFF AND SUB PUSH2 0x53C JUMPI PUSH0 PUSH1 0x40 MLOAD PUSH32 0x64A0AE9200000000000000000000000000000000000000000000000000000000 DUP2 MSTORE PUSH1 0x4 ADD PUSH2 0x533 SWAP2 SWAP1 PUSH2 0x15B2 JUMP JUMPDEST PUSH1 0x40 MLOAD DUP1 SWAP2 SUB SWAP1 REVERT JUMPDEST PUSH0 PUSH2 0x54F DUP4 DUP4 PUSH2 0x54A PUSH2 0x9DA JUMP JUMPDEST PUSH2 0x9F3 JUMP JUMPDEST SWAP1 POP DUP4 PUSH20 0xFFFFFFFFFFFFFFFFFFFFFFFFFFFFFFFFFFFFFFFF AND DUP2 PUSH20 0xFFFFFFFFFFFFFFFFFFFFFFFFFFFFFFFFFFFFFFFF AND EQ PUSH2 0x5C5 JUMPI DUP4 DUP3 DUP3 PUSH1 0x40 MLOAD PUSH32 0x64283D7B00000000000000000000000000000000000000000000000000000000 DUP2 MSTORE PUSH1 0x4 ADD PUSH2 0x5BC SWAP4 SWAP3 SWAP2 SWAP1 PUSH2 0x1ACD JUMP JUMPDEST PUSH1 0x40 MLOAD DUP1 SWAP2 SUB SWAP1 REVERT JUMPDEST POP POP POP POP JUMP JUMPDEST PUSH2 0x5D6 DUP4 DUP4 DUP4 PUSH2 0xBFE JUMP JUMPDEST POP POP POP JUMP JUMPDEST PUSH2 0x5F5 DUP4 DUP4 DUP4 PUSH1 0x40 MLOAD DUP1 PUSH1 0x20 ADD PUSH1 0x40 MSTORE DUP1 PUSH0 DUP2 MSTORE POP PUSH2 0x7C5 JUMP JUMPDEST POP POP POP JUMP JUMPDEST PUSH0 PUSH2 0x604 DUP3 PUSH2 0x91B JUMP JUMPDEST SWAP1 POP SWAP2 SWAP1 POP JUMP JUMPDEST PUSH0 DUP1 PUSH20 0xFFFFFFFFFFFFFFFFFFFFFFFFFFFFFFFFFFFFFFFF AND DUP3 PUSH20 0xFFFFFFFFFFFFFFFFFFFFFFFFFFFFFFFFFFFFFFFF AND SUB PUSH2 0x67C JUMPI PUSH0 PUSH1 0x40 MLOAD PUSH32 0x89C62B6400000000000000000000000000000000000000000000000000000000 DUP2 MSTORE PUSH1 0x4 ADD PUSH2 0x673 SWAP2 SWAP1 PUSH2 0x15B2 JUMP JUMPDEST PUSH1 0x40 MLOAD DUP1 SWAP2 SUB SWAP1 REVERT JUMPDEST PUSH1 0x3 PUSH0 DUP4 PUSH20 0xFFFFFFFFFFFFFFFFFFFFFFFFFFFFFFFFFFFFFFFF AND PUSH20 0xFFFFFFFFFFFFFFFFFFFFFFFFFFFFFFFFFFFFFFFF AND DUP2 MSTORE PUSH1 0x20 ADD SWAP1 DUP2 MSTORE PUSH1 0x20 ADD PUSH0 KECCAK256 SLOAD SWAP1 POP SWAP2 SWAP1 POP JUMP JUMPDEST PUSH1 0x60 PUSH1 0x1 DUP1 SLOAD PUSH2 0x6D0 SWAP1 PUSH2 0x1A9D JUMP JUMPDEST DUP1 PUSH1 0x1F ADD PUSH1 0x20 DUP1 SWAP2 DIV MUL PUSH1 0x20 ADD PUSH1 0x40 MLOAD SWAP1 DUP2 ADD PUSH1 0x40 MSTORE DUP1 SWAP3 SWAP2 SWAP1 DUP2 DUP2 MSTORE PUSH1 0x20 ADD DUP3 DUP1 SLOAD PUSH2 0x6FC SWAP1 PUSH2 0x1A9D JUMP JUMPDEST DUP1 ISZERO PUSH2 0x747 JUMPI DUP1 PUSH1 0x1F LT PUSH2 0x71E JUMPI PUSH2 0x100 DUP1 DUP4 SLOAD DIV MUL DUP4 MSTORE SWAP2 PUSH1 0x20 ADD SWAP2 PUSH2 0x747 JUMP JUMPDEST DUP3 ADD SWAP2 SWAP1 PUSH0 MSTORE PUSH1 0x20 PUSH0 KECCAK256 SWAP1 JUMPDEST DUP2 SLOAD DUP2 MSTORE SWAP1 PUSH1 0x1 ADD SWAP1 PUSH1 0x20 ADD DUP1 DUP4 GT PUSH2 0x72A JUMPI DUP3 SWAP1 SUB PUSH1 0x1F AND DUP3 ADD SWAP2 JUMPDEST POP POP POP POP POP SWAP1 POP SWAP1 JUMP JUMPDEST PUSH2 0x763 PUSH2 0x75C PUSH2 0x9DA JUMP JUMPDEST DUP4 DUP4 PUSH2 0xBFE JUMP JUMPDEST POP POP JUMP JUMPDEST PUSH0 DUP3 PUSH1 0x7 PUSH0 PUSH1 0x6 SLOAD DUP2 MSTORE PUSH1 0x20 ADD SWAP1 DUP2 MSTORE PUSH1 0x20 ADD PUSH0 KECCAK256 SWAP1 DUP2 PUSH2 0x788 SWAP2 SWAP1 PUSH2 0x1C9F JUMP JUMPDEST POP PUSH2 0x795 DUP3 PUSH1 0x6 SLOAD PUSH2 0xD67 JUMP JUMPDEST PUSH1 0x1 PUSH1 0x6 PUSH0 DUP3 DUP3 SLOAD PUSH2 0x7A7 SWAP2 SWAP1 PUSH2 0x1D9B JUMP JUMPDEST SWAP3 POP POP DUP2 SWAP1 SSTORE POP PUSH1 0x1 PUSH1 0x6 SLOAD PUSH2 0x7BD SWAP2 SWAP1 PUSH2 0x1DCE JUMP JUMPDEST SWAP1 POP SWAP3 SWAP2 POP POP JUMP JUMPDEST PUSH2 0x7D0 DUP5 DUP5 DUP5 PUSH2 0x4CC JUMP JUMPDEST PUSH2 0x7DC DUP5 DUP5 DUP5 DUP5 PUSH2 0xE5A JUMP JUMPDEST POP POP POP POP JUMP JUMPDEST PUSH1 0x60 PUSH2 0x7EC PUSH2 0x100C JUMP JUMPDEST PUSH1 0x7 PUSH0 DUP5 DUP2 MSTORE PUSH1 0x20 ADD SWAP1 DUP2 MSTORE PUSH1 0x20 ADD PUSH0 KECCAK256 PUSH1 0x40 MLOAD PUSH1 0x20 ADD PUSH2 0x80E SWAP3 SWAP2 SWAP1 PUSH2 0x1EBB JUMP JUMPDEST PUSH1 0x40 MLOAD PUSH1 0x20 DUP2 DUP4 SUB SUB DUP2 MSTORE SWAP1 PUSH1 0x40 MSTORE SWAP1 POP SWAP2 SWAP1 POP JUMP JUMPDEST PUSH0 PUSH1 0x5 PUSH0 DUP5 PUSH20 0xFFFFFFFFFFFFFFFFFFFFFFFFFFFFFFFFFFFFFFFF AND PUSH20 0xFFFFFFFFFFFFFFFFFFFFFFFFFFFFFFFFFFFFFFFF AND DUP2 MSTORE PUSH1 0x20 ADD SWAP1 DUP2 MSTORE PUSH1 0x20 ADD PUSH0 KECCAK256 PUSH0 DUP4 PUSH20 0xFFFFFFFFFFFFFFFFFFFFFFFFFFFFFFFFFFFFFFFF AND PUSH20 0xFFFFFFFFFFFFFFFFFFFFFFFFFFFFFFFFFFFFFFFF AND DUP2 MSTORE PUSH1 0x20 ADD SWAP1 DUP2 MSTORE PUSH1 0x20 ADD PUSH0 KECCAK256 PUSH0 SWAP1 SLOAD SWAP1 PUSH2 0x100 EXP SWAP1 DIV PUSH1 0xFF AND SWAP1 POP SWAP3 SWAP2 POP POP JUMP JUMPDEST PUSH0 PUSH32 0x1FFC9A700000000000000000000000000000000000000000000000000000000 PUSH28 0xFFFFFFFFFFFFFFFFFFFFFFFFFFFFFFFFFFFFFFFFFFFFFFFFFFFFFFFF NOT AND DUP3 PUSH28 0xFFFFFFFFFFFFFFFFFFFFFFFFFFFFFFFFFFFFFFFFFFFFFFFFFFFFFFFF NOT AND EQ SWAP1 POP SWAP2 SWAP1 POP JUMP JUMPDEST PUSH0 DUP1 PUSH2 0x926 DUP4 PUSH2 0x102C JUMP JUMPDEST SWAP1 POP PUSH0 PUSH20 0xFFFFFFFFFFFFFFFFFFFFFFFFFFFFFFFFFFFFFFFF AND DUP2 PUSH20 0xFFFFFFFFFFFFFFFFFFFFFFFFFFFFFFFFFFFFFFFF AND SUB PUSH2 0x998 JUMPI DUP3 PUSH1 0x40 MLOAD PUSH32 0x7E27328900000000000000000000000000000000000000000000000000000000 DUP2 MSTORE PUSH1 0x4 ADD PUSH2 0x98F SWAP2 SWAP1 PUSH2 0x1737 JUMP JUMPDEST PUSH1 0x40 MLOAD DUP1 SWAP2 SUB SWAP1 REVERT JUMPDEST DUP1 SWAP2 POP POP SWAP2 SWAP1 POP JUMP JUMPDEST PUSH0 PUSH1 0x4 PUSH0 DUP4 DUP2 MSTORE PUSH1 0x20 ADD SWAP1 DUP2 MSTORE PUSH1 0x20 ADD PUSH0 KECCAK256 PUSH0 SWAP1 SLOAD SWAP1 PUSH2 0x100 EXP SWAP1 DIV PUSH20 0xFFFFFFFFFFFFFFFFFFFFFFFFFFFFFFFFFFFFFFFF AND SWAP1 POP SWAP2 SWAP1 POP JUMP JUMPDEST PUSH0 CALLER SWAP1 POP SWAP1 JUMP JUMPDEST PUSH2 0x9EE DUP4 DUP4 DUP4 PUSH1 0x1 PUSH2 0x1065 JUMP JUMPDEST POP POP POP JUMP JUMPDEST PUSH0 DUP1 PUSH2 0x9FE DUP5 PUSH2 0x102C JUMP JUMPDEST SWAP1 POP PUSH0 PUSH20 0xFFFFFFFFFFFFFFFFFFFFFFFFFFFFFFFFFFFFFFFF AND DUP4 PUSH20 0xFFFFFFFFFFFFFFFFFFFFFFFFFFFFFFFFFFFFFFFF AND EQ PUSH2 0xA3F JUMPI PUSH2 0xA3E DUP2 DUP5 DUP7 PUSH2 0x1224 JUMP JUMPDEST JUMPDEST PUSH0 PUSH20 0xFFFFFFFFFFFFFFFFFFFFFFFFFFFFFFFFFFFFFFFF AND DUP2 PUSH20 0xFFFFFFFFFFFFFFFFFFFFFFFFFFFFFFFFFFFFFFFF AND EQ PUSH2 0xACA JUMPI PUSH2 0xA7E PUSH0 DUP6 PUSH0 DUP1 PUSH2 0x1065 JUMP JUMPDEST PUSH1 0x1 PUSH1 0x3 PUSH0 DUP4 PUSH20 0xFFFFFFFFFFFFFFFFFFFFFFFFFFFFFFFFFFFFFFFF AND PUSH20 0xFFFFFFFFFFFFFFFFFFFFFFFFFFFFFFFFFFFFFFFF AND DUP2 MSTORE PUSH1 0x20 ADD SWAP1 DUP2 MSTORE PUSH1 0x20 ADD PUSH0 KECCAK256 PUSH0 DUP3 DUP3 SLOAD SUB SWAP3 POP POP DUP2 SWAP1 SSTORE POP JUMPDEST PUSH0 PUSH20 0xFFFFFFFFFFFFFFFFFFFFFFFFFFFFFFFFFFFFFFFF AND DUP6 PUSH20 0xFFFFFFFFFFFFFFFFFFFFFFFFFFFFFFFFFFFFFFFF AND EQ PUSH2 0xB49 JUMPI PUSH1 0x1 PUSH1 0x3 PUSH0 DUP8 PUSH20 0xFFFFFFFFFFFFFFFFFFFFFFFFFFFFFFFFFFFFFFFF AND PUSH20 0xFFFFFFFFFFFFFFFFFFFFFFFFFFFFFFFFFFFFFFFF AND DUP2 MSTORE PUSH1 0x20 ADD SWAP1 DUP2 MSTORE PUSH1 0x20 ADD PUSH0 KECCAK256 PUSH0 DUP3 DUP3 SLOAD ADD SWAP3 POP POP DUP2 SWAP1 SSTORE POP JUMPDEST DUP5 PUSH1 0x2 PUSH0 DUP7 DUP2 MSTORE PUSH1 0x20 ADD SWAP1 DUP2 MSTORE PUSH1 0x20 ADD PUSH0 KECCAK256 PUSH0 PUSH2 0x100 EXP DUP2 SLOAD DUP2 PUSH20 0xFFFFFFFFFFFFFFFFFFFFFFFFFFFFFFFFFFFFFFFF MUL NOT AND SWAP1 DUP4 PUSH20 0xFFFFFFFFFFFFFFFFFFFFFFFFFFFFFFFFFFFFFFFF AND MUL OR SWAP1 SSTORE POP DUP4 DUP6 PUSH20 0xFFFFFFFFFFFFFFFFFFFFFFFFFFFFFFFFFFFFFFFF AND DUP3 PUSH20 0xFFFFFFFFFFFFFFFFFFFFFFFFFFFFFFFFFFFFFFFF AND PUSH32 0xDDF252AD1BE2C89B69C2B068FC378DAA952BA7F163C4A11628F55A4DF523B3EF PUSH1 0x40 MLOAD PUSH1 0x40 MLOAD DUP1 SWAP2 SUB SWAP1 LOG4 DUP1 SWAP2 POP POP SWAP4 SWAP3 POP POP POP JUMP JUMPDEST PUSH0 PUSH20 0xFFFFFFFFFFFFFFFFFFFFFFFFFFFFFFFFFFFFFFFF AND DUP3 PUSH20 0xFFFFFFFFFFFFFFFFFFFFFFFFFFFFFFFFFFFFFFFF AND SUB PUSH2 0xC6E JUMPI DUP2 PUSH1 0x40 MLOAD PUSH32 0x5B08BA1800000000000000000000000000000000000000000000000000000000 DUP2 MSTORE PUSH1 0x4 ADD PUSH2 0xC65 SWAP2 SWAP1 PUSH2 0x15B2 JUMP JUMPDEST PUSH1 0x40 MLOAD DUP1 SWAP2 SUB SWAP1 REVERT JUMPDEST DUP1 PUSH1 0x5 PUSH0 DUP6 PUSH20 0xFFFFFFFFFFFFFFFFFFFFFFFFFFFFFFFFFFFFFFFF AND PUSH20 0xFFFFFFFFFFFFFFFFFFFFFFFFFFFFFFFFFFFFFFFF AND DUP2 MSTORE PUSH1 0x20 ADD SWAP1 DUP2 MSTORE PUSH1 0x20 ADD PUSH0 KECCAK256 PUSH0 DUP5 PUSH20 0xFFFFFFFFFFFFFFFFFFFFFFFFFFFFFFFFFFFFFFFF AND PUSH20 0xFFFFFFFFFFFFFFFFFFFFFFFFFFFFFFFFFFFFFFFF AND DUP2 MSTORE PUSH1 0x20 ADD SWAP1 DUP2 MSTORE PUSH1 0x20 ADD PUSH0 KECCAK256 PUSH0 PUSH2 0x100 EXP DUP2 SLOAD DUP2 PUSH1 0xFF MUL NOT AND SWAP1 DUP4 ISZERO ISZERO MUL OR SWAP1 SSTORE POP DUP2 PUSH20 0xFFFFFFFFFFFFFFFFFFFFFFFFFFFFFFFFFFFFFFFF AND DUP4 PUSH20 0xFFFFFFFFFFFFFFFFFFFFFFFFFFFFFFFFFFFFFFFF AND PUSH32 0x17307EAB39AB6107E8899845AD3D59BD9653F200F220920489CA2B5937696C31 DUP4 PUSH1 0x40 MLOAD PUSH2 0xD5A SWAP2 SWAP1 PUSH2 0x1452 JUMP JUMPDEST PUSH1 0x40 MLOAD DUP1 SWAP2 SUB SWAP1 LOG3 POP POP POP JUMP JUMPDEST PUSH0 PUSH20 0xFFFFFFFFFFFFFFFFFFFFFFFFFFFFFFFFFFFFFFFF AND DUP3 PUSH20 0xFFFFFFFFFFFFFFFFFFFFFFFFFFFFFFFFFFFFFFFF AND SUB PUSH2 0xDD7 JUMPI PUSH0 PUSH1 0x40 MLOAD PUSH32 0x64A0AE9200000000000000000000000000000000000000000000000000000000 DUP2 MSTORE PUSH1 0x4 ADD PUSH2 0xDCE SWAP2 SWAP1 PUSH2 0x15B2 JUMP JUMPDEST PUSH1 0x40 MLOAD DUP1 SWAP2 SUB SWAP1 REVERT JUMPDEST PUSH0 PUSH2 0xDE3 DUP4 DUP4 PUSH0 PUSH2 0x9F3 JUMP JUMPDEST SWAP1 POP PUSH0 PUSH20 0xFFFFFFFFFFFFFFFFFFFFFFFFFFFFFFFFFFFFFFFF AND DUP2 PUSH20 0xFFFFFFFFFFFFFFFFFFFFFFFFFFFFFFFFFFFFFFFF AND EQ PUSH2 0xE55 JUMPI PUSH0 PUSH1 0x40 MLOAD PUSH32 0x73C6AC6E00000000000000000000000000000000000000000000000000000000 DUP2 MSTORE PUSH1 0x4 ADD PUSH2 0xE4C SWAP2 SWAP1 PUSH2 0x15B2 JUMP JUMPDEST PUSH1 0x40 MLOAD DUP1 SWAP2 SUB SWAP1 REVERT JUMPDEST POP POP POP JUMP JUMPDEST PUSH0 DUP4 PUSH20 0xFFFFFFFFFFFFFFFFFFFFFFFFFFFFFFFFFFFFFFFF AND EXTCODESIZE GT ISZERO PUSH2 0x1006 JUMPI DUP3 PUSH20 0xFFFFFFFFFFFFFFFFFFFFFFFFFFFFFFFFFFFFFFFF AND PUSH4 0x150B7A02 PUSH2 0xE9D PUSH2 0x9DA JUMP JUMPDEST DUP7 DUP6 DUP6 PUSH1 0x40 MLOAD DUP6 PUSH4 0xFFFFFFFF AND PUSH1 0xE0 SHL DUP2 MSTORE PUSH1 0x4 ADD PUSH2 0xEBF SWAP5 SWAP4 SWAP3 SWAP2 SWAP1 PUSH2 0x1F30 JUMP JUMPDEST PUSH1 0x20 PUSH1 0x40 MLOAD DUP1 DUP4 SUB DUP2 PUSH0 DUP8 GAS CALL SWAP3 POP POP POP DUP1 ISZERO PUSH2 0xEFA JUMPI POP PUSH1 0x40 MLOAD RETURNDATASIZE PUSH1 0x1F NOT PUSH1 0x1F DUP3 ADD AND DUP3 ADD DUP1 PUSH1 0x40 MSTORE POP DUP2 ADD SWAP1 PUSH2 0xEF7 SWAP2 SWAP1 PUSH2 0x1F8E JUMP JUMPDEST PUSH1 0x1 JUMPDEST PUSH2 0xF7B JUMPI RETURNDATASIZE DUP1 PUSH0 DUP2 EQ PUSH2 0xF28 JUMPI PUSH1 0x40 MLOAD SWAP2 POP PUSH1 0x1F NOT PUSH1 0x3F RETURNDATASIZE ADD AND DUP3 ADD PUSH1 0x40 MSTORE RETURNDATASIZE DUP3 MSTORE RETURNDATASIZE PUSH0 PUSH1 0x20 DUP5 ADD RETURNDATACOPY PUSH2 0xF2D JUMP JUMPDEST PUSH1 0x60 SWAP2 POP JUMPDEST POP PUSH0 DUP2 MLOAD SUB PUSH2 0xF73 JUMPI DUP4 PUSH1 0x40 MLOAD PUSH32 0x64A0AE9200000000000000000000000000000000000000000000000000000000 DUP2 MSTORE PUSH1 0x4 ADD PUSH2 0xF6A SWAP2 SWAP1 PUSH2 0x15B2 JUMP JUMPDEST PUSH1 0x40 MLOAD DUP1 SWAP2 SUB SWAP1 REVERT JUMPDEST DUP1 MLOAD DUP2 PUSH1 0x20 ADD REVERT JUMPDEST PUSH4 0x150B7A02 PUSH1 0xE0 SHL PUSH28 0xFFFFFFFFFFFFFFFFFFFFFFFFFFFFFFFFFFFFFFFFFFFFFFFFFFFFFFFF NOT AND DUP2 PUSH28 0xFFFFFFFFFFFFFFFFFFFFFFFFFFFFFFFFFFFFFFFFFFFFFFFFFFFFFFFF NOT AND EQ PUSH2 0x1004 JUMPI DUP4 PUSH1 0x40 MLOAD PUSH32 0x64A0AE9200000000000000000000000000000000000000000000000000000000 DUP2 MSTORE PUSH1 0x4 ADD PUSH2 0xFFB SWAP2 SWAP1 PUSH2 0x15B2 JUMP JUMPDEST PUSH1 0x40 MLOAD DUP1 SWAP2 SUB SWAP1 REVERT JUMPDEST POP JUMPDEST POP POP POP POP JUMP JUMPDEST PUSH1 0x60 PUSH1 0x40 MLOAD DUP1 PUSH1 0x60 ADD PUSH1 0x40 MSTORE DUP1 PUSH1 0x37 DUP2 MSTORE PUSH1 0x20 ADD PUSH2 0x1FE1 PUSH1 0x37 SWAP2 CODECOPY SWAP1 POP SWAP1 JUMP JUMPDEST PUSH0 PUSH1 0x2 PUSH0 DUP4 DUP2 MSTORE PUSH1 0x20 ADD SWAP1 DUP2 MSTORE PUSH1 0x20 ADD PUSH0 KECCAK256 PUSH0 SWAP1 SLOAD SWAP1 PUSH2 0x100 EXP SWAP1 DIV PUSH20 0xFFFFFFFFFFFFFFFFFFFFFFFFFFFFFFFFFFFFFFFF AND SWAP1 POP SWAP2 SWAP1 POP JUMP JUMPDEST DUP1 DUP1 PUSH2 0x109D JUMPI POP PUSH0 PUSH20 0xFFFFFFFFFFFFFFFFFFFFFFFFFFFFFFFFFFFFFFFF AND DUP3 PUSH20 0xFFFFFFFFFFFFFFFFFFFFFFFFFFFFFFFFFFFFFFFF AND EQ ISZERO JUMPDEST ISZERO PUSH2 0x11CF JUMPI PUSH0 PUSH2 0x10AC DUP5 PUSH2 0x91B JUMP JUMPDEST SWAP1 POP PUSH0 PUSH20 0xFFFFFFFFFFFFFFFFFFFFFFFFFFFFFFFFFFFFFFFF AND DUP4 PUSH20 0xFFFFFFFFFFFFFFFFFFFFFFFFFFFFFFFFFFFFFFFF AND EQ ISZERO DUP1 ISZERO PUSH2 0x1116 JUMPI POP DUP3 PUSH20 0xFFFFFFFFFFFFFFFFFFFFFFFFFFFFFFFFFFFFFFFF AND DUP2 PUSH20 0xFFFFFFFFFFFFFFFFFFFFFFFFFFFFFFFFFFFFFFFF AND EQ ISZERO JUMPDEST DUP1 ISZERO PUSH2 0x1129 JUMPI POP PUSH2 0x1127 DUP2 DUP5 PUSH2 0x824 JUMP JUMPDEST ISZERO JUMPDEST ISZERO PUSH2 0x116B JUMPI DUP3 PUSH1 0x40 MLOAD PUSH32 0xA9FBF51F00000000000000000000000000000000000000000000000000000000 DUP2 MSTORE PUSH1 0x4 ADD PUSH2 0x1162 SWAP2 SWAP1 PUSH2 0x15B2 JUMP JUMPDEST PUSH1 0x40 MLOAD DUP1 SWAP2 SUB SWAP1 REVERT JUMPDEST DUP2 ISZERO PUSH2 0x11CD JUMPI DUP4 DUP6 PUSH20 0xFFFFFFFFFFFFFFFFFFFFFFFFFFFFFFFFFFFFFFFF AND DUP3 PUSH20 0xFFFFFFFFFFFFFFFFFFFFFFFFFFFFFFFFFFFFFFFF AND PUSH32 0x8C5BE1E5EBEC7D5BD14F71427D1E84F3DD0314C0F7B2291E5B200AC8C7C3B925 PUSH1 0x40 MLOAD PUSH1 0x40 MLOAD DUP1 SWAP2 SUB SWAP1 LOG4 JUMPDEST POP JUMPDEST DUP4 PUSH1 0x4 PUSH0 DUP6 DUP2 MSTORE PUSH1 0x20 ADD SWAP1 DUP2 MSTORE PUSH1 0x20 ADD PUSH0 KECCAK256 PUSH0 PUSH2 0x100 EXP DUP2 SLOAD DUP2 PUSH20 0xFFFFFFFFFFFFFFFFFFFFFFFFFFFFFFFFFFFFFFFF MUL NOT AND SWAP1 DUP4 PUSH20 0xFFFFFFFFFFFFFFFFFFFFFFFFFFFFFFFFFFFFFFFF AND MUL OR SWAP1 SSTORE POP POP POP POP POP JUMP JUMPDEST PUSH2 0x122F DUP4 DUP4 DUP4 PUSH2 0x12E7 JUMP JUMPDEST PUSH2 0x12E2 JUMPI PUSH0 PUSH20 0xFFFFFFFFFFFFFFFFFFFFFFFFFFFFFFFFFFFFFFFF AND DUP4 PUSH20 0xFFFFFFFFFFFFFFFFFFFFFFFFFFFFFFFFFFFFFFFF AND SUB PUSH2 0x12A3 JUMPI DUP1 PUSH1 0x40 MLOAD PUSH32 0x7E27328900000000000000000000000000000000000000000000000000000000 DUP2 MSTORE PUSH1 0x4 ADD PUSH2 0x129A SWAP2 SWAP1 PUSH2 0x1737 JUMP JUMPDEST PUSH1 0x40 MLOAD DUP1 SWAP2 SUB SWAP1 REVERT JUMPDEST DUP2 DUP2 PUSH1 0x40 MLOAD PUSH32 0x177E802F00000000000000000000000000000000000000000000000000000000 DUP2 MSTORE PUSH1 0x4 ADD PUSH2 0x12D9 SWAP3 SWAP2 SWAP1 PUSH2 0x1FB9 JUMP JUMPDEST PUSH1 0x40 MLOAD DUP1 SWAP2 SUB SWAP1 REVERT JUMPDEST POP POP POP JUMP JUMPDEST PUSH0 DUP1 PUSH20 0xFFFFFFFFFFFFFFFFFFFFFFFFFFFFFFFFFFFFFFFF AND DUP4 PUSH20 0xFFFFFFFFFFFFFFFFFFFFFFFFFFFFFFFFFFFFFFFF AND EQ ISZERO DUP1 ISZERO PUSH2 0x139E JUMPI POP DUP3 PUSH20 0xFFFFFFFFFFFFFFFFFFFFFFFFFFFFFFFFFFFFFFFF AND DUP5 PUSH20 0xFFFFFFFFFFFFFFFFFFFFFFFFFFFFFFFFFFFFFFFF AND EQ DUP1 PUSH2 0x135F JUMPI POP PUSH2 0x135E DUP5 DUP5 PUSH2 0x824 JUMP JUMPDEST JUMPDEST DUP1 PUSH2 0x139D JUMPI POP DUP3 PUSH20 0xFFFFFFFFFFFFFFFFFFFFFFFFFFFFFFFFFFFFFFFF AND PUSH2 0x1385 DUP4 PUSH2 0x9A1 JUMP JUMPDEST PUSH20 0xFFFFFFFFFFFFFFFFFFFFFFFFFFFFFFFFFFFFFFFF AND EQ JUMPDEST JUMPDEST SWAP1 POP SWAP4 SWAP3 POP POP POP JUMP JUMPDEST PUSH0 PUSH1 0x40 MLOAD SWAP1 POP SWAP1 JUMP JUMPDEST PUSH0 DUP1 REVERT JUMPDEST PUSH0 DUP1 REVERT JUMPDEST PUSH0 PUSH32 0xFFFFFFFF00000000000000000000000000000000000000000000000000000000 DUP3 AND SWAP1 POP SWAP2 SWAP1 POP JUMP JUMPDEST PUSH2 0x13EC DUP2 PUSH2 0x13B8 JUMP JUMPDEST DUP2 EQ PUSH2 0x13F6 JUMPI PUSH0 DUP1 REVERT JUMPDEST POP JUMP JUMPDEST PUSH0 DUP2 CALLDATALOAD SWAP1 POP PUSH2 0x1407 DUP2 PUSH2 0x13E3 JUMP JUMPDEST SWAP3 SWAP2 POP POP JUMP JUMPDEST PUSH0 PUSH1 0x20 DUP3 DUP5 SUB SLT ISZERO PUSH2 0x1422 JUMPI PUSH2 0x1421 PUSH2 0x13B0 JUMP JUMPDEST JUMPDEST PUSH0 PUSH2 0x142F DUP5 DUP3 DUP6 ADD PUSH2 0x13F9 JUMP JUMPDEST SWAP2 POP POP SWAP3 SWAP2 POP POP JUMP JUMPDEST PUSH0 DUP2 ISZERO ISZERO SWAP1 POP SWAP2 SWAP1 POP JUMP JUMPDEST PUSH2 0x144C DUP2 PUSH2 0x1438 JUMP JUMPDEST DUP3 MSTORE POP POP JUMP JUMPDEST PUSH0 PUSH1 0x20 DUP3 ADD SWAP1 POP PUSH2 0x1465 PUSH0 DUP4 ADD DUP5 PUSH2 0x1443 JUMP JUMPDEST SWAP3 SWAP2 POP POP JUMP JUMPDEST PUSH0 DUP2 MLOAD SWAP1 POP SWAP2 SWAP1 POP JUMP JUMPDEST PUSH0 DUP3 DUP3 MSTORE PUSH1 0x20 DUP3 ADD SWAP1 POP SWAP3 SWAP2 POP POP JUMP JUMPDEST PUSH0 JUMPDEST DUP4 DUP2 LT ISZERO PUSH2 0x14A2 JUMPI DUP1 DUP3 ADD MLOAD DUP2 DUP5 ADD MSTORE PUSH1 0x20 DUP2 ADD SWAP1 POP PUSH2 0x1487 JUMP JUMPDEST PUSH0 DUP5 DUP5 ADD MSTORE POP POP POP POP JUMP JUMPDEST PUSH0 PUSH1 0x1F NOT PUSH1 0x1F DUP4 ADD AND SWAP1 POP SWAP2 SWAP1 POP JUMP JUMPDEST PUSH0 PUSH2 0x14C7 DUP3 PUSH2 0x146B JUMP JUMPDEST PUSH2 0x14D1 DUP2 DUP6 PUSH2 0x1475 JUMP JUMPDEST SWAP4 POP PUSH2 0x14E1 DUP2 DUP6 PUSH1 0x20 DUP7 ADD PUSH2 0x1485 JUMP JUMPDEST PUSH2 0x14EA DUP2 PUSH2 0x14AD JUMP JUMPDEST DUP5 ADD SWAP2 POP POP SWAP3 SWAP2 POP POP JUMP JUMPDEST PUSH0 PUSH1 0x20 DUP3 ADD SWAP1 POP DUP2 DUP2 SUB PUSH0 DUP4 ADD MSTORE PUSH2 0x150D DUP2 DUP5 PUSH2 0x14BD JUMP JUMPDEST SWAP1 POP SWAP3 SWAP2 POP POP JUMP JUMPDEST PUSH0 DUP2 SWAP1 POP SWAP2 SWAP1 POP JUMP JUMPDEST PUSH2 0x1527 DUP2 PUSH2 0x1515 JUMP JUMPDEST DUP2 EQ PUSH2 0x1531 JUMPI PUSH0 DUP1 REVERT JUMPDEST POP JUMP JUMPDEST PUSH0 DUP2 CALLDATALOAD SWAP1 POP PUSH2 0x1542 DUP2 PUSH2 0x151E JUMP JUMPDEST SWAP3 SWAP2 POP POP JUMP JUMPDEST PUSH0 PUSH1 0x20 DUP3 DUP5 SUB SLT ISZERO PUSH2 0x155D JUMPI PUSH2 0x155C PUSH2 0x13B0 JUMP JUMPDEST JUMPDEST PUSH0 PUSH2 0x156A DUP5 DUP3 DUP6 ADD PUSH2 0x1534 JUMP JUMPDEST SWAP2 POP POP SWAP3 SWAP2 POP POP JUMP JUMPDEST PUSH0 PUSH20 0xFFFFFFFFFFFFFFFFFFFFFFFFFFFFFFFFFFFFFFFF DUP3 AND SWAP1 POP SWAP2 SWAP1 POP JUMP JUMPDEST PUSH0 PUSH2 0x159C DUP3 PUSH2 0x1573 JUMP JUMPDEST SWAP1 POP SWAP2 SWAP1 POP JUMP JUMPDEST PUSH2 0x15AC DUP2 PUSH2 0x1592 JUMP JUMPDEST DUP3 MSTORE POP POP JUMP JUMPDEST PUSH0 PUSH1 0x20 DUP3 ADD SWAP1 POP PUSH2 0x15C5 PUSH0 DUP4 ADD DUP5 PUSH2 0x15A3 JUMP JUMPDEST SWAP3 SWAP2 POP POP JUMP JUMPDEST PUSH2 0x15D4 DUP2 PUSH2 0x1592 JUMP JUMPDEST DUP2 EQ PUSH2 0x15DE JUMPI PUSH0 DUP1 REVERT JUMPDEST POP JUMP JUMPDEST PUSH0 DUP2 CALLDATALOAD SWAP1 POP PUSH2 0x15EF DUP2 PUSH2 0x15CB JUMP JUMPDEST SWAP3 SWAP2 POP POP JUMP JUMPDEST PUSH0 DUP1 PUSH1 0x40 DUP4 DUP6 SUB SLT ISZERO PUSH2 0x160B JUMPI PUSH2 0x160A PUSH2 0x13B0 JUMP JUMPDEST JUMPDEST PUSH0 PUSH2 0x1618 DUP6 DUP3 DUP7 ADD PUSH2 0x15E1 JUMP JUMPDEST SWAP3 POP POP PUSH1 0x20 PUSH2 0x1629 DUP6 DUP3 DUP7 ADD PUSH2 0x1534 JUMP JUMPDEST SWAP2 POP POP SWAP3 POP SWAP3 SWAP1 POP JUMP JUMPDEST PUSH0 DUP1 PUSH0 PUSH1 0x60 DUP5 DUP7 SUB SLT ISZERO PUSH2 0x164A JUMPI PUSH2 0x1649 PUSH2 0x13B0 JUMP JUMPDEST JUMPDEST PUSH0 PUSH2 0x1657 DUP7 DUP3 DUP8 ADD PUSH2 0x15E1 JUMP JUMPDEST SWAP4 POP POP PUSH1 0x20 PUSH2 0x1668 DUP7 DUP3 DUP8 ADD PUSH2 0x15E1 JUMP JUMPDEST SWAP3 POP POP PUSH1 0x40 PUSH2 0x1679 DUP7 DUP3 DUP8 ADD PUSH2 0x1534 JUMP JUMPDEST SWAP2 POP POP SWAP3 POP SWAP3 POP SWAP3 JUMP JUMPDEST PUSH2 0x168C DUP2 PUSH2 0x1438 JUMP JUMPDEST DUP2 EQ PUSH2 0x1696 JUMPI PUSH0 DUP1 REVERT JUMPDEST POP JUMP JUMPDEST PUSH0 DUP2 CALLDATALOAD SWAP1 POP PUSH2 0x16A7 DUP2 PUSH2 0x1683 JUMP JUMPDEST SWAP3 SWAP2 POP POP JUMP JUMPDEST PUSH0 DUP1 PUSH0 PUSH1 0x60 DUP5 DUP7 SUB SLT ISZERO PUSH2 0x16C4 JUMPI PUSH2 0x16C3 PUSH2 0x13B0 JUMP JUMPDEST JUMPDEST PUSH0 PUSH2 0x16D1 DUP7 DUP3 DUP8 ADD PUSH2 0x15E1 JUMP JUMPDEST SWAP4 POP POP PUSH1 0x20 PUSH2 0x16E2 DUP7 DUP3 DUP8 ADD PUSH2 0x15E1 JUMP JUMPDEST SWAP3 POP POP PUSH1 0x40 PUSH2 0x16F3 DUP7 DUP3 DUP8 ADD PUSH2 0x1699 JUMP JUMPDEST SWAP2 POP POP SWAP3 POP SWAP3 POP SWAP3 JUMP JUMPDEST PUSH0 PUSH1 0x20 DUP3 DUP5 SUB SLT ISZERO PUSH2 0x1712 JUMPI PUSH2 0x1711 PUSH2 0x13B0 JUMP JUMPDEST JUMPDEST PUSH0 PUSH2 0x171F DUP5 DUP3 DUP6 ADD PUSH2 0x15E1 JUMP JUMPDEST SWAP2 POP POP SWAP3 SWAP2 POP POP JUMP JUMPDEST PUSH2 0x1731 DUP2 PUSH2 0x1515 JUMP JUMPDEST DUP3 MSTORE POP POP JUMP JUMPDEST PUSH0 PUSH1 0x20 DUP3 ADD SWAP1 POP PUSH2 0x174A PUSH0 DUP4 ADD DUP5 PUSH2 0x1728 JUMP JUMPDEST SWAP3 SWAP2 POP POP JUMP JUMPDEST PUSH0 DUP1 PUSH1 0x40 DUP4 DUP6 SUB SLT ISZERO PUSH2 0x1766 JUMPI PUSH2 0x1765 PUSH2 0x13B0 JUMP JUMPDEST JUMPDEST PUSH0 PUSH2 0x1773 DUP6 DUP3 DUP7 ADD PUSH2 0x15E1 JUMP JUMPDEST SWAP3 POP POP PUSH1 0x20 PUSH2 0x1784 DUP6 DUP3 DUP7 ADD PUSH2 0x1699 JUMP JUMPDEST SWAP2 POP POP SWAP3 POP SWAP3 SWAP1 POP JUMP JUMPDEST PUSH0 DUP1 REVERT JUMPDEST PUSH0 DUP1 REVERT JUMPDEST PUSH32 0x4E487B7100000000000000000000000000000000000000000000000000000000 PUSH0 MSTORE PUSH1 0x41 PUSH1 0x4 MSTORE PUSH1 0x24 PUSH0 REVERT JUMPDEST PUSH2 0x17CC DUP3 PUSH2 0x14AD JUMP JUMPDEST DUP2 ADD DUP2 DUP2 LT PUSH8 0xFFFFFFFFFFFFFFFF DUP3 GT OR ISZERO PUSH2 0x17EB JUMPI PUSH2 0x17EA PUSH2 0x1796 JUMP JUMPDEST JUMPDEST DUP1 PUSH1 0x40 MSTORE POP POP POP JUMP JUMPDEST PUSH0 PUSH2 0x17FD PUSH2 0x13A7 JUMP JUMPDEST SWAP1 POP PUSH2 0x1809 DUP3 DUP3 PUSH2 0x17C3 JUMP JUMPDEST SWAP2 SWAP1 POP JUMP JUMPDEST PUSH0 PUSH8 0xFFFFFFFFFFFFFFFF DUP3 GT ISZERO PUSH2 0x1828 JUMPI PUSH2 0x1827 PUSH2 0x1796 JUMP JUMPDEST JUMPDEST PUSH2 0x1831 DUP3 PUSH2 0x14AD JUMP JUMPDEST SWAP1 POP PUSH1 0x20 DUP2 ADD SWAP1 POP SWAP2 SWAP1 POP JUMP JUMPDEST DUP3 DUP2 DUP4 CALLDATACOPY PUSH0 DUP4 DUP4 ADD MSTORE POP POP POP JUMP JUMPDEST PUSH0 PUSH2 0x185E PUSH2 0x1859 DUP5 PUSH2 0x180E JUMP JUMPDEST PUSH2 0x17F4 JUMP JUMPDEST SWAP1 POP DUP3 DUP2 MSTORE PUSH1 0x20 DUP2 ADD DUP5 DUP5 DUP5 ADD GT ISZERO PUSH2 0x187A JUMPI PUSH2 0x1879 PUSH2 0x1792 JUMP JUMPDEST JUMPDEST PUSH2 0x1885 DUP5 DUP3 DUP6 PUSH2 0x183E JUMP JUMPDEST POP SWAP4 SWAP3 POP POP POP JUMP JUMPDEST PUSH0 DUP3 PUSH1 0x1F DUP4 ADD SLT PUSH2 0x18A1 JUMPI PUSH2 0x18A0 PUSH2 0x178E JUMP JUMPDEST JUMPDEST DUP2 CALLDATALOAD PUSH2 0x18B1 DUP5 DUP3 PUSH1 0x20 DUP7 ADD PUSH2 0x184C JUMP JUMPDEST SWAP2 POP POP SWAP3 SWAP2 POP POP JUMP JUMPDEST PUSH0 DUP1 PUSH1 0x40 DUP4 DUP6 SUB SLT ISZERO PUSH2 0x18D0 JUMPI PUSH2 0x18CF PUSH2 0x13B0 JUMP JUMPDEST JUMPDEST PUSH0 DUP4 ADD CALLDATALOAD PUSH8 0xFFFFFFFFFFFFFFFF DUP2 GT ISZERO PUSH2 0x18ED JUMPI PUSH2 0x18EC PUSH2 0x13B4 JUMP JUMPDEST JUMPDEST PUSH2 0x18F9 DUP6 DUP3 DUP7 ADD PUSH2 0x188D JUMP JUMPDEST SWAP3 POP POP PUSH1 0x20 PUSH2 0x190A DUP6 DUP3 DUP7 ADD PUSH2 0x15E1 JUMP JUMPDEST SWAP2 POP POP SWAP3 POP SWAP3 SWAP1 POP JUMP JUMPDEST PUSH0 PUSH8 0xFFFFFFFFFFFFFFFF DUP3 GT ISZERO PUSH2 0x192E JUMPI PUSH2 0x192D PUSH2 0x1796 JUMP JUMPDEST JUMPDEST PUSH2 0x1937 DUP3 PUSH2 0x14AD JUMP JUMPDEST SWAP1 POP PUSH1 0x20 DUP2 ADD SWAP1 POP SWAP2 SWAP1 POP JUMP JUMPDEST PUSH0 PUSH2 0x1956 PUSH2 0x1951 DUP5 PUSH2 0x1914 JUMP JUMPDEST PUSH2 0x17F4 JUMP JUMPDEST SWAP1 POP DUP3 DUP2 MSTORE PUSH1 0x20 DUP2 ADD DUP5 DUP5 DUP5 ADD GT ISZERO PUSH2 0x1972 JUMPI PUSH2 0x1971 PUSH2 0x1792 JUMP JUMPDEST JUMPDEST PUSH2 0x197D DUP5 DUP3 DUP6 PUSH2 0x183E JUMP JUMPDEST POP SWAP4 SWAP3 POP POP POP JUMP JUMPDEST PUSH0 DUP3 PUSH1 0x1F DUP4 ADD SLT PUSH2 0x1999 JUMPI PUSH2 0x1998 PUSH2 0x178E JUMP JUMPDEST JUMPDEST DUP2 CALLDATALOAD PUSH2 0x19A9 DUP5 DUP3 PUSH1 0x20 DUP7 ADD PUSH2 0x1944 JUMP JUMPDEST SWAP2 POP POP SWAP3 SWAP2 POP POP JUMP JUMPDEST PUSH0 DUP1 PUSH0 DUP1 PUSH1 0x80 DUP6 DUP8 SUB SLT ISZERO PUSH2 0x19CA JUMPI PUSH2 0x19C9 PUSH2 0x13B0 JUMP JUMPDEST JUMPDEST PUSH0 PUSH2 0x19D7 DUP8 DUP3 DUP9 ADD PUSH2 0x15E1 JUMP JUMPDEST SWAP5 POP POP PUSH1 0x20 PUSH2 0x19E8 DUP8 DUP3 DUP9 ADD PUSH2 0x15E1 JUMP JUMPDEST SWAP4 POP POP PUSH1 0x40 PUSH2 0x19F9 DUP8 DUP3 DUP9 ADD PUSH2 0x1534 JUMP JUMPDEST SWAP3 POP POP PUSH1 0x60 DUP6 ADD CALLDATALOAD PUSH8 0xFFFFFFFFFFFFFFFF DUP2 GT ISZERO PUSH2 0x1A1A JUMPI PUSH2 0x1A19 PUSH2 0x13B4 JUMP JUMPDEST JUMPDEST PUSH2 0x1A26 DUP8 DUP3 DUP9 ADD PUSH2 0x1985 JUMP JUMPDEST SWAP2 POP POP SWAP3 SWAP6 SWAP2 SWAP5 POP SWAP3 POP JUMP JUMPDEST PUSH0 DUP1 PUSH1 0x40 DUP4 DUP6 SUB SLT ISZERO PUSH2 0x1A48 JUMPI PUSH2 0x1A47 PUSH2 0x13B0 JUMP JUMPDEST JUMPDEST PUSH0 PUSH2 0x1A55 DUP6 DUP3 DUP7 ADD PUSH2 0x15E1 JUMP JUMPDEST SWAP3 POP POP PUSH1 0x20 PUSH2 0x1A66 DUP6 DUP3 DUP7 ADD PUSH2 0x15E1 JUMP JUMPDEST SWAP2 POP POP SWAP3 POP SWAP3 SWAP1 POP JUMP JUMPDEST PUSH32 0x4E487B7100000000000000000000000000000000000000000000000000000000 PUSH0 MSTORE PUSH1 0x22 PUSH1 0x4 MSTORE PUSH1 0x24 PUSH0 REVERT JUMPDEST PUSH0 PUSH1 0x2 DUP3 DIV SWAP1 POP PUSH1 0x1 DUP3 AND DUP1 PUSH2 0x1AB4 JUMPI PUSH1 0x7F DUP3 AND SWAP2 POP JUMPDEST PUSH1 0x20 DUP3 LT DUP2 SUB PUSH2 0x1AC7 JUMPI PUSH2 0x1AC6 PUSH2 0x1A70 JUMP JUMPDEST JUMPDEST POP SWAP2 SWAP1 POP JUMP JUMPDEST PUSH0 PUSH1 0x60 DUP3 ADD SWAP1 POP PUSH2 0x1AE0 PUSH0 DUP4 ADD DUP7 PUSH2 0x15A3 JUMP JUMPDEST PUSH2 0x1AED PUSH1 0x20 DUP4 ADD DUP6 PUSH2 0x1728 JUMP JUMPDEST PUSH2 0x1AFA PUSH1 0x40 DUP4 ADD DUP5 PUSH2 0x15A3 JUMP JUMPDEST SWAP5 SWAP4 POP POP POP POP JUMP JUMPDEST PUSH0 DUP2 SWAP1 POP DUP2 PUSH0 MSTORE PUSH1 0x20 PUSH0 KECCAK256 SWAP1 POP SWAP2 SWAP1 POP JUMP JUMPDEST PUSH0 PUSH1 0x20 PUSH1 0x1F DUP4 ADD DIV SWAP1 POP SWAP2 SWAP1 POP JUMP JUMPDEST PUSH0 DUP3 DUP3 SHL SWAP1 POP SWAP3 SWAP2 POP POP JUMP JUMPDEST PUSH0 PUSH1 0x8 DUP4 MUL PUSH2 0x1B5E PUSH32 0xFFFFFFFFFFFFFFFFFFFFFFFFFFFFFFFFFFFFFFFFFFFFFFFFFFFFFFFFFFFFFFFF DUP3 PUSH2 0x1B23 JUMP JUMPDEST PUSH2 0x1B68 DUP7 DUP4 PUSH2 0x1B23 JUMP JUMPDEST SWAP6 POP DUP1 NOT DUP5 AND SWAP4 POP DUP1 DUP7 AND DUP5 OR SWAP3 POP POP POP SWAP4 SWAP3 POP POP POP JUMP JUMPDEST PUSH0 DUP2 SWAP1 POP SWAP2 SWAP1 POP JUMP JUMPDEST PUSH0 PUSH2 0x1BA3 PUSH2 0x1B9E PUSH2 0x1B99 DUP5 PUSH2 0x1515 JUMP JUMPDEST PUSH2 0x1B80 JUMP JUMPDEST PUSH2 0x1515 JUMP JUMPDEST SWAP1 POP SWAP2 SWAP1 POP JUMP JUMPDEST PUSH0 DUP2 SWAP1 POP SWAP2 SWAP1 POP JUMP JUMPDEST PUSH2 0x1BBC DUP4 PUSH2 0x1B89 JUMP JUMPDEST PUSH2 0x1BD0 PUSH2 0x1BC8 DUP3 PUSH2 0x1BAA JUMP JUMPDEST DUP5 DUP5 SLOAD PUSH2 0x1B2F JUMP JUMPDEST DUP3 SSTORE POP POP POP POP JUMP JUMPDEST PUSH0 SWAP1 JUMP JUMPDEST PUSH2 0x1BE4 PUSH2 0x1BD8 JUMP JUMPDEST PUSH2 0x1BEF DUP2 DUP5 DUP5 PUSH2 0x1BB3 JUMP JUMPDEST POP POP POP JUMP JUMPDEST JUMPDEST DUP2 DUP2 LT ISZERO PUSH2 0x1C12 JUMPI PUSH2 0x1C07 PUSH0 DUP3 PUSH2 0x1BDC JUMP JUMPDEST PUSH1 0x1 DUP2 ADD SWAP1 POP PUSH2 0x1BF5 JUMP JUMPDEST POP POP JUMP JUMPDEST PUSH1 0x1F DUP3 GT ISZERO PUSH2 0x1C57 JUMPI PUSH2 0x1C28 DUP2 PUSH2 0x1B02 JUMP JUMPDEST PUSH2 0x1C31 DUP5 PUSH2 0x1B14 JUMP JUMPDEST DUP2 ADD PUSH1 0x20 DUP6 LT ISZERO PUSH2 0x1C40 JUMPI DUP2 SWAP1 POP JUMPDEST PUSH2 0x1C54 PUSH2 0x1C4C DUP6 PUSH2 0x1B14 JUMP JUMPDEST DUP4 ADD DUP3 PUSH2 0x1BF4 JUMP JUMPDEST POP POP JUMPDEST POP POP POP JUMP JUMPDEST PUSH0 DUP3 DUP3 SHR SWAP1 POP SWAP3 SWAP2 POP POP JUMP JUMPDEST PUSH0 PUSH2 0x1C77 PUSH0 NOT DUP5 PUSH1 0x8 MUL PUSH2 0x1C5C JUMP JUMPDEST NOT DUP1 DUP4 AND SWAP2 POP POP SWAP3 SWAP2 POP POP JUMP JUMPDEST PUSH0 PUSH2 0x1C8F DUP4 DUP4 PUSH2 0x1C68 JUMP JUMPDEST SWAP2 POP DUP3 PUSH1 0x2 MUL DUP3 OR SWAP1 POP SWAP3 SWAP2 POP POP JUMP JUMPDEST PUSH2 0x1CA8 DUP3 PUSH2 0x146B JUMP JUMPDEST PUSH8 0xFFFFFFFFFFFFFFFF DUP2 GT ISZERO PUSH2 0x1CC1 JUMPI PUSH2 0x1CC0 PUSH2 0x1796 JUMP JUMPDEST JUMPDEST PUSH2 0x1CCB DUP3 SLOAD PUSH2 0x1A9D JUMP JUMPDEST PUSH2 0x1CD6 DUP3 DUP3 DUP6 PUSH2 0x1C16 JUMP JUMPDEST PUSH0 PUSH1 0x20 SWAP1 POP PUSH1 0x1F DUP4 GT PUSH1 0x1 DUP2 EQ PUSH2 0x1D07 JUMPI PUSH0 DUP5 ISZERO PUSH2 0x1CF5 JUMPI DUP3 DUP8 ADD MLOAD SWAP1 POP JUMPDEST PUSH2 0x1CFF DUP6 DUP3 PUSH2 0x1C84 JUMP JUMPDEST DUP7 SSTORE POP PUSH2 0x1D66 JUMP JUMPDEST PUSH1 0x1F NOT DUP5 AND PUSH2 0x1D15 DUP7 PUSH2 0x1B02 JUMP JUMPDEST PUSH0 JUMPDEST DUP3 DUP2 LT ISZERO PUSH2 0x1D3C JUMPI DUP5 DUP10 ADD MLOAD DUP3 SSTORE PUSH1 0x1 DUP3 ADD SWAP2 POP PUSH1 0x20 DUP6 ADD SWAP5 POP PUSH1 0x20 DUP2 ADD SWAP1 POP PUSH2 0x1D17 JUMP JUMPDEST DUP7 DUP4 LT ISZERO PUSH2 0x1D59 JUMPI DUP5 DUP10 ADD MLOAD PUSH2 0x1D55 PUSH1 0x1F DUP10 AND DUP3 PUSH2 0x1C68 JUMP JUMPDEST DUP4 SSTORE POP JUMPDEST PUSH1 0x1 PUSH1 0x2 DUP9 MUL ADD DUP9 SSTORE POP POP POP JUMPDEST POP POP POP POP POP POP JUMP JUMPDEST PUSH32 0x4E487B7100000000000000000000000000000000000000000000000000000000 PUSH0 MSTORE PUSH1 0x11 PUSH1 0x4 MSTORE PUSH1 0x24 PUSH0 REVERT JUMPDEST PUSH0 PUSH2 0x1DA5 DUP3 PUSH2 0x1515 JUMP JUMPDEST SWAP2 POP PUSH2 0x1DB0 DUP4 PUSH2 0x1515 JUMP JUMPDEST SWAP3 POP DUP3 DUP3 ADD SWAP1 POP DUP1 DUP3 GT ISZERO PUSH2 0x1DC8 JUMPI PUSH2 0x1DC7 PUSH2 0x1D6E JUMP JUMPDEST JUMPDEST SWAP3 SWAP2 POP POP JUMP JUMPDEST PUSH0 PUSH2 0x1DD8 DUP3 PUSH2 0x1515 JUMP JUMPDEST SWAP2 POP PUSH2 0x1DE3 DUP4 PUSH2 0x1515 JUMP JUMPDEST SWAP3 POP DUP3 DUP3 SUB SWAP1 POP DUP2 DUP2 GT ISZERO PUSH2 0x1DFB JUMPI PUSH2 0x1DFA PUSH2 0x1D6E JUMP JUMPDEST JUMPDEST SWAP3 SWAP2 POP POP JUMP JUMPDEST PUSH0 DUP2 SWAP1 POP SWAP3 SWAP2 POP POP JUMP JUMPDEST PUSH0 PUSH2 0x1E15 DUP3 PUSH2 0x146B JUMP JUMPDEST PUSH2 0x1E1F DUP2 DUP6 PUSH2 0x1E01 JUMP JUMPDEST SWAP4 POP PUSH2 0x1E2F DUP2 DUP6 PUSH1 0x20 DUP7 ADD PUSH2 0x1485 JUMP JUMPDEST DUP1 DUP5 ADD SWAP2 POP POP SWAP3 SWAP2 POP POP JUMP JUMPDEST PUSH0 DUP2 SLOAD PUSH2 0x1E47 DUP2 PUSH2 0x1A9D JUMP JUMPDEST PUSH2 0x1E51 DUP2 DUP7 PUSH2 0x1E01 JUMP JUMPDEST SWAP5 POP PUSH1 0x1 DUP3 AND PUSH0 DUP2 EQ PUSH2 0x1E6B JUMPI PUSH1 0x1 DUP2 EQ PUSH2 0x1E80 JUMPI PUSH2 0x1EB2 JUMP JUMPDEST PUSH1 0xFF NOT DUP4 AND DUP7 MSTORE DUP2 ISZERO ISZERO DUP3 MUL DUP7 ADD SWAP4 POP PUSH2 0x1EB2 JUMP JUMPDEST PUSH2 0x1E89 DUP6 PUSH2 0x1B02 JUMP JUMPDEST PUSH0 JUMPDEST DUP4 DUP2 LT ISZERO PUSH2 0x1EAA JUMPI DUP2 SLOAD DUP2 DUP10 ADD MSTORE PUSH1 0x1 DUP3 ADD SWAP2 POP PUSH1 0x20 DUP2 ADD SWAP1 POP PUSH2 0x1E8B JUMP JUMPDEST DUP4 DUP9 ADD SWAP6 POP POP POP JUMPDEST POP POP POP SWAP3 SWAP2 POP POP JUMP JUMPDEST PUSH0 PUSH2 0x1EC6 DUP3 DUP6 PUSH2 0x1E0B JUMP JUMPDEST SWAP2 POP PUSH2 0x1ED2 DUP3 DUP5 PUSH2 0x1E3B JUMP JUMPDEST SWAP2 POP DUP2 SWAP1 POP SWAP4 SWAP3 POP POP POP JUMP JUMPDEST PUSH0 DUP2 MLOAD SWAP1 POP SWAP2 SWAP1 POP JUMP JUMPDEST PUSH0 DUP3 DUP3 MSTORE PUSH1 0x20 DUP3 ADD SWAP1 POP SWAP3 SWAP2 POP POP JUMP JUMPDEST PUSH0 PUSH2 0x1F02 DUP3 PUSH2 0x1EDE JUMP JUMPDEST PUSH2 0x1F0C DUP2 DUP6 PUSH2 0x1EE8 JUMP JUMPDEST SWAP4 POP PUSH2 0x1F1C DUP2 DUP6 PUSH1 0x20 DUP7 ADD PUSH2 0x1485 JUMP JUMPDEST PUSH2 0x1F25 DUP2 PUSH2 0x14AD JUMP JUMPDEST DUP5 ADD SWAP2 POP POP SWAP3 SWAP2 POP POP JUMP JUMPDEST PUSH0 PUSH1 0x80 DUP3 ADD SWAP1 POP PUSH2 0x1F43 PUSH0 DUP4 ADD DUP8 PUSH2 0x15A3 JUMP JUMPDEST PUSH2 0x1F50 PUSH1 0x20 DUP4 ADD DUP7 PUSH2 0x15A3 JUMP JUMPDEST PUSH2 0x1F5D PUSH1 0x40 DUP4 ADD DUP6 PUSH2 0x1728 JUMP JUMPDEST DUP2 DUP2 SUB PUSH1 0x60 DUP4 ADD MSTORE PUSH2 0x1F6F DUP2 DUP5 PUSH2 0x1EF8 JUMP JUMPDEST SWAP1 POP SWAP6 SWAP5 POP POP POP POP POP JUMP JUMPDEST PUSH0 DUP2 MLOAD SWAP1 POP PUSH2 0x1F88 DUP2 PUSH2 0x13E3 JUMP JUMPDEST SWAP3 SWAP2 POP POP JUMP JUMPDEST PUSH0 PUSH1 0x20 DUP3 DUP5 SUB SLT ISZERO PUSH2 0x1FA3 JUMPI PUSH2 0x1FA2 PUSH2 0x13B0 JUMP JUMPDEST JUMPDEST PUSH0 PUSH2 0x1FB0 DUP5 DUP3 DUP6 ADD PUSH2 0x1F7A JUMP JUMPDEST SWAP2 POP POP SWAP3 SWAP2 POP POP JUMP JUMPDEST PUSH0 PUSH1 0x40 DUP3 ADD SWAP1 POP PUSH2 0x1FCC PUSH0 DUP4 ADD DUP6 PUSH2 0x15A3 JUMP JUMPDEST PUSH2 0x1FD9 PUSH1 0x20 DUP4 ADD DUP5 PUSH2 0x1728 JUMP JUMPDEST SWAP4 SWAP3 POP POP POP JUMP INVALID PUSH9 0x747470733A2F2F6170 PUSH19 0x69636F742D77726F6E672D706C617479707573 0x2D CALLER CALLER CALLDATASIZE 0x2E PUSH14 0x7970696E6174612E636C6F75642F PUSH10 0x7066732FA26469706673 PC 0x22 SLT KECCAK256 NOT 0xCB 0x1E PUSH14 0x529BF8A4B107520CCB901703979C XOR 0x4A 0xD4 0xBD 0xC5 SWAP4 0xB9 0xE2 COINBASE PUSH31 0x2C1BFE0464736F6C6343000814003300000000000000000000000000000000 "
				},
				"gasEstimates": {
					"creation": {
						"codeDepositCost": "1653800",
						"executionCost": "infinite",
						"totalCost": "infinite"
					},
					"external": {
						"approve(address,uint256)": "infinite",
						"balanceOf(address)": "infinite",
						"getApproved(uint256)": "infinite",
						"isApprovedForAll(address,address)": "infinite",
						"minting(string,address)": "infinite",
						"name()": "infinite",
						"ownerOf(uint256)": "infinite",
						"safeTransferFrom(address,address,uint256)": "infinite",
						"safeTransferFrom(address,address,uint256,bytes)": "infinite",
						"setAppAll(address,address,bool)": "infinite",
						"setApprovalForAll(address,bool)": "infinite",
						"supportsInterface(bytes4)": "787",
						"symbol()": "infinite",
						"tokenURI(uint256)": "infinite",
						"transferFrom(address,address,uint256)": "infinite"
					},
					"internal": {
						"_baseURI()": "infinite"
					}
				},
				"methodIdentifiers": {
					"approve(address,uint256)": "095ea7b3",
					"balanceOf(address)": "70a08231",
					"getApproved(uint256)": "081812fc",
					"isApprovedForAll(address,address)": "e985e9c5",
					"minting(string,address)": "b458438f",
					"name()": "06fdde03",
					"ownerOf(uint256)": "6352211e",
					"safeTransferFrom(address,address,uint256)": "42842e0e",
					"safeTransferFrom(address,address,uint256,bytes)": "b88d4fde",
					"setAppAll(address,address,bool)": "29d6724e",
					"setApprovalForAll(address,bool)": "a22cb465",
					"supportsInterface(bytes4)": "01ffc9a7",
					"symbol()": "95d89b41",
					"tokenURI(uint256)": "c87b56dd",
					"transferFrom(address,address,uint256)": "23b872dd"
				}
			},
			"storageLayout": {
				"storage": [
					{
						"astId": 267,
						"contract": "myNFT.sol:MyNFT",
						"label": "_name",
						"offset": 0,
						"slot": "0",
						"type": "t_string_storage"
					},
					{
						"astId": 269,
						"contract": "myNFT.sol:MyNFT",
						"label": "_symbol",
						"offset": 0,
						"slot": "1",
						"type": "t_string_storage"
					},
					{
						"astId": 273,
						"contract": "myNFT.sol:MyNFT",
						"label": "_owners",
						"offset": 0,
						"slot": "2",
						"type": "t_mapping(t_uint256,t_address)"
					},
					{
						"astId": 277,
						"contract": "myNFT.sol:MyNFT",
						"label": "_balances",
						"offset": 0,
						"slot": "3",
						"type": "t_mapping(t_address,t_uint256)"
					},
					{
						"astId": 281,
						"contract": "myNFT.sol:MyNFT",
						"label": "_tokenApprovals",
						"offset": 0,
						"slot": "4",
						"type": "t_mapping(t_uint256,t_address)"
					},
					{
						"astId": 287,
						"contract": "myNFT.sol:MyNFT",
						"label": "_operatorApprovals",
						"offset": 0,
						"slot": "5",
						"type": "t_mapping(t_address,t_mapping(t_address,t_bool))"
					},
					{
						"astId": 7,
						"contract": "myNFT.sol:MyNFT",
						"label": "tokenId",
						"offset": 0,
						"slot": "6",
						"type": "t_uint256"
					},
					{
						"astId": 11,
						"contract": "myNFT.sol:MyNFT",
						"label": "tokens",
						"offset": 0,
						"slot": "7",
						"type": "t_mapping(t_uint256,t_string_storage)"
					}
				],
				"types": {
					"t_address": {
						"encoding": "inplace",
						"label": "address",
						"numberOfBytes": "20"
					},
					"t_bool": {
						"encoding": "inplace",
						"label": "bool",
						"numberOfBytes": "1"
					},
					"t_mapping(t_address,t_bool)": {
						"encoding": "mapping",
						"key": "t_address",
						"label": "mapping(address => bool)",
						"numberOfBytes": "32",
						"value": "t_bool"
					},
					"t_mapping(t_address,t_mapping(t_address,t_bool))": {
						"encoding": "mapping",
						"key": "t_address",
						"label": "mapping(address => mapping(address => bool))",
						"numberOfBytes": "32",
						"value": "t_mapping(t_address,t_bool)"
					},
					"t_mapping(t_address,t_uint256)": {
						"encoding": "mapping",
						"key": "t_address",
						"label": "mapping(address => uint256)",
						"numberOfBytes": "32",
						"value": "t_uint256"
					},
					"t_mapping(t_uint256,t_address)": {
						"encoding": "mapping",
						"key": "t_uint256",
						"label": "mapping(uint256 => address)",
						"numberOfBytes": "32",
						"value": "t_address"
					},
					"t_mapping(t_uint256,t_string_storage)": {
						"encoding": "mapping",
						"key": "t_uint256",
						"label": "mapping(uint256 => string)",
						"numberOfBytes": "32",
						"value": "t_string_storage"
					},
					"t_string_storage": {
						"encoding": "bytes",
						"label": "string",
						"numberOfBytes": "32"
					},
					"t_uint256": {
						"encoding": "inplace",
						"label": "uint256",
						"numberOfBytes": "32"
					}
				}
			},
			"userdoc": {
				"kind": "user",
				"methods": {},
				"version": 1
			}
		}
	}
}