{
	"data": {
		"bytecode": {
			"linkReferences": {},
			"object": "608060405234801562000010575f80fd5b50604051620029fa380380620029fa8339818101604052810190620000369190620000e1565b805f806101000a81548173ffffffffffffffffffffffffffffffffffffffff021916908373ffffffffffffffffffffffffffffffffffffffff1602179055505062000111565b5f80fd5b5f73ffffffffffffffffffffffffffffffffffffffff82169050919050565b5f620000ab8262000080565b9050919050565b620000bd816200009f565b8114620000c8575f80fd5b50565b5f81519050620000db81620000b2565b92915050565b5f60208284031215620000f957620000f86200007c565b5b5f6200010884828501620000cb565b91505092915050565b6128db806200011f5f395ff3fe6080604052600436106100f2575f3560e01c806380c7954f11610089578063cc9562a511610058578063cc9562a514610323578063d58778d614610339578063e50ad45b14610375578063e90ad883146103b3576100f2565b806380c7954f1461025657806398300e18146102805780639f1564da146102aa578063bea2dc14146102e7576100f2565b806351ed8288116100c557806351ed82881461019857806354f6079a146101b457806360d1105f146101f05780636aa5e3761461022c576100f2565b806307305b35146100f657806319b05f491461011e578063330816f2146101465780633fde9f5b14610170575b5f80fd5b348015610101575f80fd5b5061011c60048036038101906101179190611920565b6103dd565b005b348015610129575f80fd5b50610144600480360381019061013f919061197a565b610481565b005b348015610151575f80fd5b5061015a6107a5565b6040516101679190611c21565b60405180910390f35b34801561017b575f80fd5b5061019660048036038101906101919190611920565b6108eb565b005b6101b260048036038101906101ad919061197a565b610d3f565b005b3480156101bf575f80fd5b506101da60048036038101906101d59190611c6b565b610e71565b6040516101e79190611cb8565b60405180910390f35b3480156101fb575f80fd5b506102166004803603810190610211919061197a565b610e9c565b6040516102239190611d57565b60405180910390f35b348015610237575f80fd5b506102406110ab565b60405161024d9190611d91565b60405180910390f35b348015610261575f80fd5b5061026a61114b565b6040516102779190611c21565b60405180910390f35b34801561028b575f80fd5b50610294611290565b6040516102a19190611e05565b60405180910390f35b3480156102b5575f80fd5b506102d060048036038101906102cb9190611c6b565b6112b3565b6040516102de929190611e66565b60405180910390f35b3480156102f2575f80fd5b5061030d6004803603810190610308919061197a565b611373565b60405161031a9190611e94565b60405180910390f35b34801561032e575f80fd5b5061033761143d565b005b348015610344575f80fd5b5061035f600480360381019061035a919061197a565b6114c9565b60405161036c9190611cb8565b60405180910390f35b348015610380575f80fd5b5061039b6004803603810190610396919061197a565b6114e9565b6040516103aa93929190611ed2565b60405180910390f35b3480156103be575f80fd5b506103c761153a565b6040516103d49190611c21565b60405180910390f35b60045f3373ffffffffffffffffffffffffffffffffffffffff1673ffffffffffffffffffffffffffffffffffffffff1681526020019081526020015f20604051806040016040528084815260200183815250908060018154018082558091505060019003905f5260205f2090600202015f909190919091505f820151815f01908161046891906120f8565b5060208201518160010155505061047d61143d565b5050565b6002600381111561049557610494611a96565b5b60025f8381526020019081526020015f205f015f9054906101000a900460ff1660038111156104c7576104c6611a96565b5b14610507576040517f08c379a00000000000000000000000000000000000000000000000000000000081526004016104fe90612211565b60405180910390fd5b60025f8281526020019081526020015f20600101545f8054906101000a900473ffffffffffffffffffffffffffffffffffffffff1673ffffffffffffffffffffffffffffffffffffffff166370a08231306040518263ffffffff1660e01b8152600401610574919061222f565b602060405180830381865afa15801561058f573d5f803e3d5ffd5b505050506040513d601f19601f820116820180604052508101906105b3919061225c565b11156105bd575f80fd5b5f8054906101000a900473ffffffffffffffffffffffffffffffffffffffff1673ffffffffffffffffffffffffffffffffffffffff166323b872dd3060025f8581526020019081526020015f206002015f9054906101000a900473ffffffffffffffffffffffffffffffffffffffff16846040518463ffffffff1660e01b815260040161064c93929190612287565b5f604051808303815f87803b158015610663575f80fd5b505af1158015610675573d5f803e3d5ffd5b50505050600360025f8381526020019081526020015f205f015f6101000a81548160ff021916908360038111156106af576106ae611a96565b5b02179055505f8054906101000a900473ffffffffffffffffffffffffffffffffffffffff1673ffffffffffffffffffffffffffffffffffffffff16636352211e826040518263ffffffff1660e01b815260040161070c9190611cb8565b602060405180830381865afa158015610727573d5f803e3d5ffd5b505050506040513d601f19601f8201168201806040525081019061074b91906122d0565b73ffffffffffffffffffffffffffffffffffffffff166108fc60025f8481526020019081526020015f206001015490811502906040515f60405180830381858888f193505050501580156107a1573d5f803e3d5ffd5b5050565b60605f60018054905090505f8167ffffffffffffffff8111156107cb576107ca6117c9565b5b60405190808252806020026020018201604052801561080457816020015b6107f1611731565b8152602001906001900390816107e95790505b5090505f805b838110156108de576001600381111561082657610825611a96565b5b60025f6001848154811061083d5761083c6122fb565b5b905f5260205f20015481526020019081526020015f205f015f9054906101000a900460ff16600381111561087457610873611a96565b5b036108cb5761089e600182815481106108905761088f6122fb565b5b905f5260205f200154610e9c565b8383815181106108b1576108b06122fb565b5b602002602001018190525081806108c790612355565b9250505b80806108d690612355565b91505061080a565b5080825281935050505090565b5f60045f3373ffffffffffffffffffffffffffffffffffffffff1673ffffffffffffffffffffffffffffffffffffffff1681526020019081526020015f208054905090505f805f90505b82811015610a07578460405160200161094e91906123d6565b6040516020818303038152906040528051906020012060045f3373ffffffffffffffffffffffffffffffffffffffff1673ffffffffffffffffffffffffffffffffffffffff1681526020019081526020015f2082815481106109b3576109b26122fb565b5b905f5260205f2090600202015f016040516020016109d1919061246c565b60405160208183030381529060405280519060200120036109f457809150610a07565b80806109ff90612355565b915050610935565b50600160045f3373ffffffffffffffffffffffffffffffffffffffff1673ffffffffffffffffffffffffffffffffffffffff1681526020019081526020015f208281548110610a5957610a586122fb565b5b905f5260205f209060020201600101541015610aaa576040517f08c379a0000000000000000000000000000000000000000000000000000000008152600401610aa1906124cc565b60405180910390fd5b5f805f9054906101000a900473ffffffffffffffffffffffffffffffffffffffff1673ffffffffffffffffffffffffffffffffffffffff16630bdc9008866040518263ffffffff1660e01b8152600401610b049190611e94565b6020604051808303815f875af1158015610b20573d5f803e3d5ffd5b505050506040513d601f19601f82011682018060405250810190610b44919061225c565b9050600181908060018154018082558091505060019003905f5260205f20015f9091909190915055604051806060016040528060016003811115610b8b57610b8a611a96565b5b81526020016012600a610b9e9190612619565b86610ba99190612663565b81526020015f73ffffffffffffffffffffffffffffffffffffffff1681525060025f8381526020019081526020015f205f820151815f015f6101000a81548160ff02191690836003811115610c0157610c00611a96565b5b0217905550602082015181600101556040820151816002015f6101000a81548173ffffffffffffffffffffffffffffffffffffffff021916908373ffffffffffffffffffffffffffffffffffffffff16021790555090505060035f3373ffffffffffffffffffffffffffffffffffffffff1673ffffffffffffffffffffffffffffffffffffffff1681526020019081526020015f2081908060018154018082558091505060019003905f5260205f20015f9091909190915055610cc26110ab565b50600160045f3373ffffffffffffffffffffffffffffffffffffffff1673ffffffffffffffffffffffffffffffffffffffff1681526020019081526020015f208381548110610d1457610d136122fb565b5b905f5260205f2090600202016001015f828254610d3191906126a4565b925050819055505050505050565b60016003811115610d5357610d52611a96565b5b60025f8381526020019081526020015f205f015f9054906101000a900460ff166003811115610d8557610d84611a96565b5b14610dc5576040517f08c379a0000000000000000000000000000000000000000000000000000000008152600401610dbc90612211565b60405180910390fd5b3460025f8381526020019081526020015f20600101541115610e1c576040517f08c379a0000000000000000000000000000000000000000000000000000000008152600401610e1390612721565b60405180910390fd5b3360025f8381526020019081526020015f206002015f6101000a81548173ffffffffffffffffffffffffffffffffffffffff021916908373ffffffffffffffffffffffffffffffffffffffff16021790555050565b6003602052815f5260405f208181548110610e8a575f80fd5b905f5260205f20015f91509150505481565b610ea4611731565b6040518060c001604052808381526020015f8054906101000a900473ffffffffffffffffffffffffffffffffffffffff1673ffffffffffffffffffffffffffffffffffffffff1663c87b56dd856040518263ffffffff1660e01b8152600401610f0d9190611cb8565b5f60405180830381865afa158015610f27573d5f803e3d5ffd5b505050506040513d5f823e3d601f19601f82011682018060405250810190610f4f91906127ad565b81526020015f8054906101000a900473ffffffffffffffffffffffffffffffffffffffff1673ffffffffffffffffffffffffffffffffffffffff16636352211e856040518263ffffffff1660e01b8152600401610fac9190611cb8565b602060405180830381865afa158015610fc7573d5f803e3d5ffd5b505050506040513d601f19601f82011682018060405250810190610feb91906122d0565b73ffffffffffffffffffffffffffffffffffffffff16815260200160025f8581526020019081526020015f205f015f9054906101000a900460ff16600381111561103857611037611a96565b5b815260200160025f8581526020019081526020015f2060010154815260200160025f8581526020019081526020015f206002015f9054906101000a900473ffffffffffffffffffffffffffffffffffffffff1673ffffffffffffffffffffffffffffffffffffffff168152509050919050565b5f805f9054906101000a900473ffffffffffffffffffffffffffffffffffffffff1673ffffffffffffffffffffffffffffffffffffffff1663e985e9c533306040518363ffffffff1660e01b81526004016111079291906127f4565b602060405180830381865afa158015611122573d5f803e3d5ffd5b505050506040513d601f19601f820116820180604052508101906111469190612845565b905090565b60605f60018054905090505f8167ffffffffffffffff811115611171576111706117c9565b5b6040519080825280602002602001820160405280156111aa57816020015b611197611731565b81526020019060019003908161118f5790505b5090505f805b83811015611283576003808111156111cb576111ca611a96565b5b60025f600184815481106111e2576111e16122fb565b5b905f5260205f20015481526020019081526020015f205f015f9054906101000a900460ff16600381111561121957611218611a96565b5b036112705761124360018281548110611235576112346122fb565b5b905f5260205f200154610e9c565b838381518110611256576112556122fb565b5b6020026020010181905250818061126c90612355565b9250505b808061127b90612355565b9150506111b0565b5080825281935050505090565b5f8054906101000a900473ffffffffffffffffffffffffffffffffffffffff1681565b6004602052815f5260405f2081815481106112cc575f80fd5b905f5260205f2090600202015f9150915050805f0180546112ec90611f34565b80601f016020809104026020016040519081016040528092919081815260200182805461131890611f34565b80156113635780601f1061133a57610100808354040283529160200191611363565b820191905f5260205f20905b81548152906001019060200180831161134657829003601f168201915b5050505050908060010154905082565b6060600a82116113ba576040518060400160405280600881526020017f756e6465722031300000000000000000000000000000000000000000000000008152509050611438565b601482116113ff576040518060400160405280600881526020017f756e6465722032300000000000000000000000000000000000000000000000008152509050611438565b6040518060400160405280600581526020017f757020323000000000000000000000000000000000000000000000000000000081525090505b919050565b5f8054906101000a900473ffffffffffffffffffffffffffffffffffffffff1673ffffffffffffffffffffffffffffffffffffffff166329d6724e333060016040518463ffffffff1660e01b815260040161149a93929190612870565b5f604051808303815f87803b1580156114b1575f80fd5b505af11580156114c3573d5f803e3d5ffd5b50505050565b600181815481106114d8575f80fd5b905f5260205f20015f915090505481565b6002602052805f5260405f205f91509050805f015f9054906101000a900460ff1690806001015490806002015f9054906101000a900473ffffffffffffffffffffffffffffffffffffffff16905083565b60605f60035f3373ffffffffffffffffffffffffffffffffffffffff1673ffffffffffffffffffffffffffffffffffffffff1681526020019081526020015f208054905090505f8167ffffffffffffffff81111561159b5761159a6117c9565b5b6040519080825280602002602001820160405280156115d457816020015b6115c1611731565b8152602001906001900390816115b95790505b5090505f805b8381101561172457600160038111156115f6576115f5611a96565b5b60025f60035f3373ffffffffffffffffffffffffffffffffffffffff1673ffffffffffffffffffffffffffffffffffffffff1681526020019081526020015f208481548110611648576116476122fb565b5b905f5260205f20015481526020019081526020015f205f015f9054906101000a900460ff16600381111561167f5761167e611a96565b5b03611711576116e460035f3373ffffffffffffffffffffffffffffffffffffffff1673ffffffffffffffffffffffffffffffffffffffff1681526020019081526020015f2082815481106116d6576116d56122fb565b5b905f5260205f200154610e9c565b8383815181106116f7576116f66122fb565b5b6020026020010181905250818061170d90612355565b9250505b808061171c90612355565b9150506115da565b5080825281935050505090565b6040518060c001604052805f8152602001606081526020015f73ffffffffffffffffffffffffffffffffffffffff1681526020015f600381111561177857611777611a96565b5b81526020015f81526020015f73ffffffffffffffffffffffffffffffffffffffff1681525090565b5f604051905090565b5f80fd5b5f80fd5b5f80fd5b5f80fd5b5f601f19601f8301169050919050565b7f4e487b71000000000000000000000000000000000000000000000000000000005f52604160045260245ffd5b6117ff826117b9565b810181811067ffffffffffffffff8211171561181e5761181d6117c9565b5b80604052505050565b5f6118306117a0565b905061183c82826117f6565b919050565b5f67ffffffffffffffff82111561185b5761185a6117c9565b5b611864826117b9565b9050602081019050919050565b828183375f83830152505050565b5f61189161188c84611841565b611827565b9050828152602081018484840111156118ad576118ac6117b5565b5b6118b8848285611871565b509392505050565b5f82601f8301126118d4576118d36117b1565b5b81356118e484826020860161187f565b91505092915050565b5f819050919050565b6118ff816118ed565b8114611909575f80fd5b50565b5f8135905061191a816118f6565b92915050565b5f8060408385031215611936576119356117a9565b5b5f83013567ffffffffffffffff811115611953576119526117ad565b5b61195f858286016118c0565b92505060206119708582860161190c565b9150509250929050565b5f6020828403121561198f5761198e6117a9565b5b5f61199c8482850161190c565b91505092915050565b5f81519050919050565b5f82825260208201905092915050565b5f819050602082019050919050565b6119d7816118ed565b82525050565b5f81519050919050565b5f82825260208201905092915050565b5f5b83811015611a145780820151818401526020810190506119f9565b5f8484015250505050565b5f611a29826119dd565b611a3381856119e7565b9350611a438185602086016119f7565b611a4c816117b9565b840191505092915050565b5f73ffffffffffffffffffffffffffffffffffffffff82169050919050565b5f611a8082611a57565b9050919050565b611a9081611a76565b82525050565b7f4e487b71000000000000000000000000000000000000000000000000000000005f52602160045260245ffd5b60048110611ad457611ad3611a96565b5b50565b5f819050611ae482611ac3565b919050565b5f611af382611ad7565b9050919050565b611b0381611ae9565b82525050565b5f60c083015f830151611b1e5f8601826119ce565b5060208301518482036020860152611b368282611a1f565b9150506040830151611b4b6040860182611a87565b506060830151611b5e6060860182611afa565b506080830151611b7160808601826119ce565b5060a0830151611b8460a0860182611a87565b508091505092915050565b5f611b9a8383611b09565b905092915050565b5f602082019050919050565b5f611bb8826119a5565b611bc281856119af565b935083602082028501611bd4856119bf565b805f5b85811015611c0f5784840389528151611bf08582611b8f565b9450611bfb83611ba2565b925060208a01995050600181019050611bd7565b50829750879550505050505092915050565b5f6020820190508181035f830152611c398184611bae565b905092915050565b611c4a81611a76565b8114611c54575f80fd5b50565b5f81359050611c6581611c41565b92915050565b5f8060408385031215611c8157611c806117a9565b5b5f611c8e85828601611c57565b9250506020611c9f8582860161190c565b9150509250929050565b611cb2816118ed565b82525050565b5f602082019050611ccb5f830184611ca9565b92915050565b5f60c083015f830151611ce65f8601826119ce565b5060208301518482036020860152611cfe8282611a1f565b9150506040830151611d136040860182611a87565b506060830151611d266060860182611afa565b506080830151611d3960808601826119ce565b5060a0830151611d4c60a0860182611a87565b508091505092915050565b5f6020820190508181035f830152611d6f8184611cd1565b905092915050565b5f8115159050919050565b611d8b81611d77565b82525050565b5f602082019050611da45f830184611d82565b92915050565b5f819050919050565b5f611dcd611dc8611dc384611a57565b611daa565b611a57565b9050919050565b5f611dde82611db3565b9050919050565b5f611def82611dd4565b9050919050565b611dff81611de5565b82525050565b5f602082019050611e185f830184611df6565b92915050565b5f82825260208201905092915050565b5f611e38826119dd565b611e428185611e1e565b9350611e528185602086016119f7565b611e5b816117b9565b840191505092915050565b5f6040820190508181035f830152611e7e8185611e2e565b9050611e8d6020830184611ca9565b9392505050565b5f6020820190508181035f830152611eac8184611e2e565b905092915050565b611ebd81611ae9565b82525050565b611ecc81611a76565b82525050565b5f606082019050611ee55f830186611eb4565b611ef26020830185611ca9565b611eff6040830184611ec3565b949350505050565b7f4e487b71000000000000000000000000000000000000000000000000000000005f52602260045260245ffd5b5f6002820490506001821680611f4b57607f821691505b602082108103611f5e57611f5d611f07565b5b50919050565b5f819050815f5260205f209050919050565b5f6020601f8301049050919050565b5f82821b905092915050565b5f60088302611fc07fffffffffffffffffffffffffffffffffffffffffffffffffffffffffffffffff82611f85565b611fca8683611f85565b95508019841693508086168417925050509392505050565b5f611ffc611ff7611ff2846118ed565b611daa565b6118ed565b9050919050565b5f819050919050565b61201583611fe2565b61202961202182612003565b848454611f91565b825550505050565b5f90565b61203d612031565b61204881848461200c565b505050565b5b8181101561206b576120605f82612035565b60018101905061204e565b5050565b601f8211156120b05761208181611f64565b61208a84611f76565b81016020851015612099578190505b6120ad6120a585611f76565b83018261204d565b50505b505050565b5f82821c905092915050565b5f6120d05f19846008026120b5565b1980831691505092915050565b5f6120e883836120c1565b9150826002028217905092915050565b612101826119dd565b67ffffffffffffffff81111561211a576121196117c9565b5b6121248254611f34565b61212f82828561206f565b5f60209050601f831160018114612160575f841561214e578287015190505b61215885826120dd565b8655506121bf565b601f19841661216e86611f64565b5f5b8281101561219557848901518255600182019150602085019450602081019050612170565b868310156121b257848901516121ae601f8916826120c1565b8355505b6001600288020188555050505b505050505050565b7f73746174650000000000000000000000000000000000000000000000000000005f82015250565b5f6121fb600583611e1e565b9150612206826121c7565b602082019050919050565b5f6020820190508181035f830152612228816121ef565b9050919050565b5f6020820190506122425f830184611ec3565b92915050565b5f81519050612256816118f6565b92915050565b5f60208284031215612271576122706117a9565b5b5f61227e84828501612248565b91505092915050565b5f60608201905061229a5f830186611ec3565b6122a76020830185611ec3565b6122b46040830184611ca9565b949350505050565b5f815190506122ca81611c41565b92915050565b5f602082840312156122e5576122e46117a9565b5b5f6122f2848285016122bc565b91505092915050565b7f4e487b71000000000000000000000000000000000000000000000000000000005f52603260045260245ffd5b7f4e487b71000000000000000000000000000000000000000000000000000000005f52601160045260245ffd5b5f61235f826118ed565b91507fffffffffffffffffffffffffffffffffffffffffffffffffffffffffffffffff820361239157612390612328565b5b600182019050919050565b5f81905092915050565b5f6123b0826119dd565b6123ba818561239c565b93506123ca8185602086016119f7565b80840191505092915050565b5f6123e182846123a6565b915081905092915050565b5f81546123f881611f34565b612402818661239c565b9450600182165f811461241c576001811461243157612463565b60ff1983168652811515820286019350612463565b61243a85611f64565b5f5b8381101561245b5781548189015260018201915060208101905061243c565b838801955050505b50505092915050565b5f61247782846123ec565b915081905092915050565b7f766f6c756d6500000000000000000000000000000000000000000000000000005f82015250565b5f6124b6600683611e1e565b91506124c182612482565b602082019050919050565b5f6020820190508181035f8301526124e3816124aa565b9050919050565b5f8160011c9050919050565b5f808291508390505b600185111561253f5780860481111561251b5761251a612328565b5b600185161561252a5780820291505b8081029050612538856124ea565b94506124ff565b94509492505050565b5f826125575760019050612612565b81612564575f9050612612565b816001811461257a5760028114612584576125b3565b6001915050612612565b60ff84111561259657612595612328565b5b8360020a9150848211156125ad576125ac612328565b5b50612612565b5060208310610133831016604e8410600b84101617156125e85782820a9050838111156125e3576125e2612328565b5b612612565b6125f584848460016124f6565b9250905081840481111561260c5761260b612328565b5b81810290505b9392505050565b5f612623826118ed565b915061262e836118ed565b925061265b7fffffffffffffffffffffffffffffffffffffffffffffffffffffffffffffffff8484612548565b905092915050565b5f61266d826118ed565b9150612678836118ed565b9250828202612686816118ed565b9150828204841483151761269d5761269c612328565b5b5092915050565b5f6126ae826118ed565b91506126b9836118ed565b92508282039050818111156126d1576126d0612328565b5b92915050565b7f70726963650000000000000000000000000000000000000000000000000000005f82015250565b5f61270b600583611e1e565b9150612716826126d7565b602082019050919050565b5f6020820190508181035f830152612738816126ff565b9050919050565b5f61275161274c84611841565b611827565b90508281526020810184848401111561276d5761276c6117b5565b5b6127788482856119f7565b509392505050565b5f82601f830112612794576127936117b1565b5b81516127a484826020860161273f565b91505092915050565b5f602082840312156127c2576127c16117a9565b5b5f82015167ffffffffffffffff8111156127df576127de6117ad565b5b6127eb84828501612780565b91505092915050565b5f6040820190506128075f830185611ec3565b6128146020830184611ec3565b9392505050565b61282481611d77565b811461282e575f80fd5b50565b5f8151905061283f8161281b565b92915050565b5f6020828403121561285a576128596117a9565b5b5f61286784828501612831565b91505092915050565b5f6060820190506128835f830186611ec3565b6128906020830185611ec3565b61289d6040830184611d82565b94935050505056fea2646970667358221220d46bb264e45ac4eff9b5ce66751b8ddb75e9a4501d4bbaddda77ca1f9e35e39364736f6c63430008140033",
			"opcodes": "PUSH1 0x80 PUSH1 0x40 MSTORE CALLVALUE DUP1 ISZERO PUSH3 0x10 JUMPI PUSH0 DUP1 REVERT JUMPDEST POP PUSH1 0x40 MLOAD PUSH3 0x29FA CODESIZE SUB DUP1 PUSH3 0x29FA DUP4 CODECOPY DUP2 DUP2 ADD PUSH1 0x40 MSTORE DUP2 ADD SWAP1 PUSH3 0x36 SWAP2 SWAP1 PUSH3 0xE1 JUMP JUMPDEST DUP1 PUSH0 DUP1 PUSH2 0x100 EXP DUP2 SLOAD DUP2 PUSH20 0xFFFFFFFFFFFFFFFFFFFFFFFFFFFFFFFFFFFFFFFF MUL NOT AND SWAP1 DUP4 PUSH20 0xFFFFFFFFFFFFFFFFFFFFFFFFFFFFFFFFFFFFFFFF AND MUL OR SWAP1 SSTORE POP POP PUSH3 0x111 JUMP JUMPDEST PUSH0 DUP1 REVERT JUMPDEST PUSH0 PUSH20 0xFFFFFFFFFFFFFFFFFFFFFFFFFFFFFFFFFFFFFFFF DUP3 AND SWAP1 POP SWAP2 SWAP1 POP JUMP JUMPDEST PUSH0 PUSH3 0xAB DUP3 PUSH3 0x80 JUMP JUMPDEST SWAP1 POP SWAP2 SWAP1 POP JUMP JUMPDEST PUSH3 0xBD DUP2 PUSH3 0x9F JUMP JUMPDEST DUP2 EQ PUSH3 0xC8 JUMPI PUSH0 DUP1 REVERT JUMPDEST POP JUMP JUMPDEST PUSH0 DUP2 MLOAD SWAP1 POP PUSH3 0xDB DUP2 PUSH3 0xB2 JUMP JUMPDEST SWAP3 SWAP2 POP POP JUMP JUMPDEST PUSH0 PUSH1 0x20 DUP3 DUP5 SUB SLT ISZERO PUSH3 0xF9 JUMPI PUSH3 0xF8 PUSH3 0x7C JUMP JUMPDEST JUMPDEST PUSH0 PUSH3 0x108 DUP5 DUP3 DUP6 ADD PUSH3 0xCB JUMP JUMPDEST SWAP2 POP POP SWAP3 SWAP2 POP POP JUMP JUMPDEST PUSH2 0x28DB DUP1 PUSH3 0x11F PUSH0 CODECOPY PUSH0 RETURN INVALID PUSH1 0x80 PUSH1 0x40 MSTORE PUSH1 0x4 CALLDATASIZE LT PUSH2 0xF2 JUMPI PUSH0 CALLDATALOAD PUSH1 0xE0 SHR DUP1 PUSH4 0x80C7954F GT PUSH2 0x89 JUMPI DUP1 PUSH4 0xCC9562A5 GT PUSH2 0x58 JUMPI DUP1 PUSH4 0xCC9562A5 EQ PUSH2 0x323 JUMPI DUP1 PUSH4 0xD58778D6 EQ PUSH2 0x339 JUMPI DUP1 PUSH4 0xE50AD45B EQ PUSH2 0x375 JUMPI DUP1 PUSH4 0xE90AD883 EQ PUSH2 0x3B3 JUMPI PUSH2 0xF2 JUMP JUMPDEST DUP1 PUSH4 0x80C7954F EQ PUSH2 0x256 JUMPI DUP1 PUSH4 0x98300E18 EQ PUSH2 0x280 JUMPI DUP1 PUSH4 0x9F1564DA EQ PUSH2 0x2AA JUMPI DUP1 PUSH4 0xBEA2DC14 EQ PUSH2 0x2E7 JUMPI PUSH2 0xF2 JUMP JUMPDEST DUP1 PUSH4 0x51ED8288 GT PUSH2 0xC5 JUMPI DUP1 PUSH4 0x51ED8288 EQ PUSH2 0x198 JUMPI DUP1 PUSH4 0x54F6079A EQ PUSH2 0x1B4 JUMPI DUP1 PUSH4 0x60D1105F EQ PUSH2 0x1F0 JUMPI DUP1 PUSH4 0x6AA5E376 EQ PUSH2 0x22C JUMPI PUSH2 0xF2 JUMP JUMPDEST DUP1 PUSH4 0x7305B35 EQ PUSH2 0xF6 JUMPI DUP1 PUSH4 0x19B05F49 EQ PUSH2 0x11E JUMPI DUP1 PUSH4 0x330816F2 EQ PUSH2 0x146 JUMPI DUP1 PUSH4 0x3FDE9F5B EQ PUSH2 0x170 JUMPI JUMPDEST PUSH0 DUP1 REVERT JUMPDEST CALLVALUE DUP1 ISZERO PUSH2 0x101 JUMPI PUSH0 DUP1 REVERT JUMPDEST POP PUSH2 0x11C PUSH1 0x4 DUP1 CALLDATASIZE SUB DUP2 ADD SWAP1 PUSH2 0x117 SWAP2 SWAP1 PUSH2 0x1920 JUMP JUMPDEST PUSH2 0x3DD JUMP JUMPDEST STOP JUMPDEST CALLVALUE DUP1 ISZERO PUSH2 0x129 JUMPI PUSH0 DUP1 REVERT JUMPDEST POP PUSH2 0x144 PUSH1 0x4 DUP1 CALLDATASIZE SUB DUP2 ADD SWAP1 PUSH2 0x13F SWAP2 SWAP1 PUSH2 0x197A JUMP JUMPDEST PUSH2 0x481 JUMP JUMPDEST STOP JUMPDEST CALLVALUE DUP1 ISZERO PUSH2 0x151 JUMPI PUSH0 DUP1 REVERT JUMPDEST POP PUSH2 0x15A PUSH2 0x7A5 JUMP JUMPDEST PUSH1 0x40 MLOAD PUSH2 0x167 SWAP2 SWAP1 PUSH2 0x1C21 JUMP JUMPDEST PUSH1 0x40 MLOAD DUP1 SWAP2 SUB SWAP1 RETURN JUMPDEST CALLVALUE DUP1 ISZERO PUSH2 0x17B JUMPI PUSH0 DUP1 REVERT JUMPDEST POP PUSH2 0x196 PUSH1 0x4 DUP1 CALLDATASIZE SUB DUP2 ADD SWAP1 PUSH2 0x191 SWAP2 SWAP1 PUSH2 0x1920 JUMP JUMPDEST PUSH2 0x8EB JUMP JUMPDEST STOP JUMPDEST PUSH2 0x1B2 PUSH1 0x4 DUP1 CALLDATASIZE SUB DUP2 ADD SWAP1 PUSH2 0x1AD SWAP2 SWAP1 PUSH2 0x197A JUMP JUMPDEST PUSH2 0xD3F JUMP JUMPDEST STOP JUMPDEST CALLVALUE DUP1 ISZERO PUSH2 0x1BF JUMPI PUSH0 DUP1 REVERT JUMPDEST POP PUSH2 0x1DA PUSH1 0x4 DUP1 CALLDATASIZE SUB DUP2 ADD SWAP1 PUSH2 0x1D5 SWAP2 SWAP1 PUSH2 0x1C6B JUMP JUMPDEST PUSH2 0xE71 JUMP JUMPDEST PUSH1 0x40 MLOAD PUSH2 0x1E7 SWAP2 SWAP1 PUSH2 0x1CB8 JUMP JUMPDEST PUSH1 0x40 MLOAD DUP1 SWAP2 SUB SWAP1 RETURN JUMPDEST CALLVALUE DUP1 ISZERO PUSH2 0x1FB JUMPI PUSH0 DUP1 REVERT JUMPDEST POP PUSH2 0x216 PUSH1 0x4 DUP1 CALLDATASIZE SUB DUP2 ADD SWAP1 PUSH2 0x211 SWAP2 SWAP1 PUSH2 0x197A JUMP JUMPDEST PUSH2 0xE9C JUMP JUMPDEST PUSH1 0x40 MLOAD PUSH2 0x223 SWAP2 SWAP1 PUSH2 0x1D57 JUMP JUMPDEST PUSH1 0x40 MLOAD DUP1 SWAP2 SUB SWAP1 RETURN JUMPDEST CALLVALUE DUP1 ISZERO PUSH2 0x237 JUMPI PUSH0 DUP1 REVERT JUMPDEST POP PUSH2 0x240 PUSH2 0x10AB JUMP JUMPDEST PUSH1 0x40 MLOAD PUSH2 0x24D SWAP2 SWAP1 PUSH2 0x1D91 JUMP JUMPDEST PUSH1 0x40 MLOAD DUP1 SWAP2 SUB SWAP1 RETURN JUMPDEST CALLVALUE DUP1 ISZERO PUSH2 0x261 JUMPI PUSH0 DUP1 REVERT JUMPDEST POP PUSH2 0x26A PUSH2 0x114B JUMP JUMPDEST PUSH1 0x40 MLOAD PUSH2 0x277 SWAP2 SWAP1 PUSH2 0x1C21 JUMP JUMPDEST PUSH1 0x40 MLOAD DUP1 SWAP2 SUB SWAP1 RETURN JUMPDEST CALLVALUE DUP1 ISZERO PUSH2 0x28B JUMPI PUSH0 DUP1 REVERT JUMPDEST POP PUSH2 0x294 PUSH2 0x1290 JUMP JUMPDEST PUSH1 0x40 MLOAD PUSH2 0x2A1 SWAP2 SWAP1 PUSH2 0x1E05 JUMP JUMPDEST PUSH1 0x40 MLOAD DUP1 SWAP2 SUB SWAP1 RETURN JUMPDEST CALLVALUE DUP1 ISZERO PUSH2 0x2B5 JUMPI PUSH0 DUP1 REVERT JUMPDEST POP PUSH2 0x2D0 PUSH1 0x4 DUP1 CALLDATASIZE SUB DUP2 ADD SWAP1 PUSH2 0x2CB SWAP2 SWAP1 PUSH2 0x1C6B JUMP JUMPDEST PUSH2 0x12B3 JUMP JUMPDEST PUSH1 0x40 MLOAD PUSH2 0x2DE SWAP3 SWAP2 SWAP1 PUSH2 0x1E66 JUMP JUMPDEST PUSH1 0x40 MLOAD DUP1 SWAP2 SUB SWAP1 RETURN JUMPDEST CALLVALUE DUP1 ISZERO PUSH2 0x2F2 JUMPI PUSH0 DUP1 REVERT JUMPDEST POP PUSH2 0x30D PUSH1 0x4 DUP1 CALLDATASIZE SUB DUP2 ADD SWAP1 PUSH2 0x308 SWAP2 SWAP1 PUSH2 0x197A JUMP JUMPDEST PUSH2 0x1373 JUMP JUMPDEST PUSH1 0x40 MLOAD PUSH2 0x31A SWAP2 SWAP1 PUSH2 0x1E94 JUMP JUMPDEST PUSH1 0x40 MLOAD DUP1 SWAP2 SUB SWAP1 RETURN JUMPDEST CALLVALUE DUP1 ISZERO PUSH2 0x32E JUMPI PUSH0 DUP1 REVERT JUMPDEST POP PUSH2 0x337 PUSH2 0x143D JUMP JUMPDEST STOP JUMPDEST CALLVALUE DUP1 ISZERO PUSH2 0x344 JUMPI PUSH0 DUP1 REVERT JUMPDEST POP PUSH2 0x35F PUSH1 0x4 DUP1 CALLDATASIZE SUB DUP2 ADD SWAP1 PUSH2 0x35A SWAP2 SWAP1 PUSH2 0x197A JUMP JUMPDEST PUSH2 0x14C9 JUMP JUMPDEST PUSH1 0x40 MLOAD PUSH2 0x36C SWAP2 SWAP1 PUSH2 0x1CB8 JUMP JUMPDEST PUSH1 0x40 MLOAD DUP1 SWAP2 SUB SWAP1 RETURN JUMPDEST CALLVALUE DUP1 ISZERO PUSH2 0x380 JUMPI PUSH0 DUP1 REVERT JUMPDEST POP PUSH2 0x39B PUSH1 0x4 DUP1 CALLDATASIZE SUB DUP2 ADD SWAP1 PUSH2 0x396 SWAP2 SWAP1 PUSH2 0x197A JUMP JUMPDEST PUSH2 0x14E9 JUMP JUMPDEST PUSH1 0x40 MLOAD PUSH2 0x3AA SWAP4 SWAP3 SWAP2 SWAP1 PUSH2 0x1ED2 JUMP JUMPDEST PUSH1 0x40 MLOAD DUP1 SWAP2 SUB SWAP1 RETURN JUMPDEST CALLVALUE DUP1 ISZERO PUSH2 0x3BE JUMPI PUSH0 DUP1 REVERT JUMPDEST POP PUSH2 0x3C7 PUSH2 0x153A JUMP JUMPDEST PUSH1 0x40 MLOAD PUSH2 0x3D4 SWAP2 SWAP1 PUSH2 0x1C21 JUMP JUMPDEST PUSH1 0x40 MLOAD DUP1 SWAP2 SUB SWAP1 RETURN JUMPDEST PUSH1 0x4 PUSH0 CALLER PUSH20 0xFFFFFFFFFFFFFFFFFFFFFFFFFFFFFFFFFFFFFFFF AND PUSH20 0xFFFFFFFFFFFFFFFFFFFFFFFFFFFFFFFFFFFFFFFF AND DUP2 MSTORE PUSH1 0x20 ADD SWAP1 DUP2 MSTORE PUSH1 0x20 ADD PUSH0 KECCAK256 PUSH1 0x40 MLOAD DUP1 PUSH1 0x40 ADD PUSH1 0x40 MSTORE DUP1 DUP5 DUP2 MSTORE PUSH1 0x20 ADD DUP4 DUP2 MSTORE POP SWAP1 DUP1 PUSH1 0x1 DUP2 SLOAD ADD DUP1 DUP3 SSTORE DUP1 SWAP2 POP POP PUSH1 0x1 SWAP1 SUB SWAP1 PUSH0 MSTORE PUSH1 0x20 PUSH0 KECCAK256 SWAP1 PUSH1 0x2 MUL ADD PUSH0 SWAP1 SWAP2 SWAP1 SWAP2 SWAP1 SWAP2 POP PUSH0 DUP3 ADD MLOAD DUP2 PUSH0 ADD SWAP1 DUP2 PUSH2 0x468 SWAP2 SWAP1 PUSH2 0x20F8 JUMP JUMPDEST POP PUSH1 0x20 DUP3 ADD MLOAD DUP2 PUSH1 0x1 ADD SSTORE POP POP PUSH2 0x47D PUSH2 0x143D JUMP JUMPDEST POP POP JUMP JUMPDEST PUSH1 0x2 PUSH1 0x3 DUP2 GT ISZERO PUSH2 0x495 JUMPI PUSH2 0x494 PUSH2 0x1A96 JUMP JUMPDEST JUMPDEST PUSH1 0x2 PUSH0 DUP4 DUP2 MSTORE PUSH1 0x20 ADD SWAP1 DUP2 MSTORE PUSH1 0x20 ADD PUSH0 KECCAK256 PUSH0 ADD PUSH0 SWAP1 SLOAD SWAP1 PUSH2 0x100 EXP SWAP1 DIV PUSH1 0xFF AND PUSH1 0x3 DUP2 GT ISZERO PUSH2 0x4C7 JUMPI PUSH2 0x4C6 PUSH2 0x1A96 JUMP JUMPDEST JUMPDEST EQ PUSH2 0x507 JUMPI PUSH1 0x40 MLOAD PUSH32 0x8C379A000000000000000000000000000000000000000000000000000000000 DUP2 MSTORE PUSH1 0x4 ADD PUSH2 0x4FE SWAP1 PUSH2 0x2211 JUMP JUMPDEST PUSH1 0x40 MLOAD DUP1 SWAP2 SUB SWAP1 REVERT JUMPDEST PUSH1 0x2 PUSH0 DUP3 DUP2 MSTORE PUSH1 0x20 ADD SWAP1 DUP2 MSTORE PUSH1 0x20 ADD PUSH0 KECCAK256 PUSH1 0x1 ADD SLOAD PUSH0 DUP1 SLOAD SWAP1 PUSH2 0x100 EXP SWAP1 DIV PUSH20 0xFFFFFFFFFFFFFFFFFFFFFFFFFFFFFFFFFFFFFFFF AND PUSH20 0xFFFFFFFFFFFFFFFFFFFFFFFFFFFFFFFFFFFFFFFF AND PUSH4 0x70A08231 ADDRESS PUSH1 0x40 MLOAD DUP3 PUSH4 0xFFFFFFFF AND PUSH1 0xE0 SHL DUP2 MSTORE PUSH1 0x4 ADD PUSH2 0x574 SWAP2 SWAP1 PUSH2 0x222F JUMP JUMPDEST PUSH1 0x20 PUSH1 0x40 MLOAD DUP1 DUP4 SUB DUP2 DUP7 GAS STATICCALL ISZERO DUP1 ISZERO PUSH2 0x58F JUMPI RETURNDATASIZE PUSH0 DUP1 RETURNDATACOPY RETURNDATASIZE PUSH0 REVERT JUMPDEST POP POP POP POP PUSH1 0x40 MLOAD RETURNDATASIZE PUSH1 0x1F NOT PUSH1 0x1F DUP3 ADD AND DUP3 ADD DUP1 PUSH1 0x40 MSTORE POP DUP2 ADD SWAP1 PUSH2 0x5B3 SWAP2 SWAP1 PUSH2 0x225C JUMP JUMPDEST GT ISZERO PUSH2 0x5BD JUMPI PUSH0 DUP1 REVERT JUMPDEST PUSH0 DUP1 SLOAD SWAP1 PUSH2 0x100 EXP SWAP1 DIV PUSH20 0xFFFFFFFFFFFFFFFFFFFFFFFFFFFFFFFFFFFFFFFF AND PUSH20 0xFFFFFFFFFFFFFFFFFFFFFFFFFFFFFFFFFFFFFFFF AND PUSH4 0x23B872DD ADDRESS PUSH1 0x2 PUSH0 DUP6 DUP2 MSTORE PUSH1 0x20 ADD SWAP1 DUP2 MSTORE PUSH1 0x20 ADD PUSH0 KECCAK256 PUSH1 0x2 ADD PUSH0 SWAP1 SLOAD SWAP1 PUSH2 0x100 EXP SWAP1 DIV PUSH20 0xFFFFFFFFFFFFFFFFFFFFFFFFFFFFFFFFFFFFFFFF AND DUP5 PUSH1 0x40 MLOAD DUP5 PUSH4 0xFFFFFFFF AND PUSH1 0xE0 SHL DUP2 MSTORE PUSH1 0x4 ADD PUSH2 0x64C SWAP4 SWAP3 SWAP2 SWAP1 PUSH2 0x2287 JUMP JUMPDEST PUSH0 PUSH1 0x40 MLOAD DUP1 DUP4 SUB DUP2 PUSH0 DUP8 DUP1 EXTCODESIZE ISZERO DUP1 ISZERO PUSH2 0x663 JUMPI PUSH0 DUP1 REVERT JUMPDEST POP GAS CALL ISZERO DUP1 ISZERO PUSH2 0x675 JUMPI RETURNDATASIZE PUSH0 DUP1 RETURNDATACOPY RETURNDATASIZE PUSH0 REVERT JUMPDEST POP POP POP POP PUSH1 0x3 PUSH1 0x2 PUSH0 DUP4 DUP2 MSTORE PUSH1 0x20 ADD SWAP1 DUP2 MSTORE PUSH1 0x20 ADD PUSH0 KECCAK256 PUSH0 ADD PUSH0 PUSH2 0x100 EXP DUP2 SLOAD DUP2 PUSH1 0xFF MUL NOT AND SWAP1 DUP4 PUSH1 0x3 DUP2 GT ISZERO PUSH2 0x6AF JUMPI PUSH2 0x6AE PUSH2 0x1A96 JUMP JUMPDEST JUMPDEST MUL OR SWAP1 SSTORE POP PUSH0 DUP1 SLOAD SWAP1 PUSH2 0x100 EXP SWAP1 DIV PUSH20 0xFFFFFFFFFFFFFFFFFFFFFFFFFFFFFFFFFFFFFFFF AND PUSH20 0xFFFFFFFFFFFFFFFFFFFFFFFFFFFFFFFFFFFFFFFF AND PUSH4 0x6352211E DUP3 PUSH1 0x40 MLOAD DUP3 PUSH4 0xFFFFFFFF AND PUSH1 0xE0 SHL DUP2 MSTORE PUSH1 0x4 ADD PUSH2 0x70C SWAP2 SWAP1 PUSH2 0x1CB8 JUMP JUMPDEST PUSH1 0x20 PUSH1 0x40 MLOAD DUP1 DUP4 SUB DUP2 DUP7 GAS STATICCALL ISZERO DUP1 ISZERO PUSH2 0x727 JUMPI RETURNDATASIZE PUSH0 DUP1 RETURNDATACOPY RETURNDATASIZE PUSH0 REVERT JUMPDEST POP POP POP POP PUSH1 0x40 MLOAD RETURNDATASIZE PUSH1 0x1F NOT PUSH1 0x1F DUP3 ADD AND DUP3 ADD DUP1 PUSH1 0x40 MSTORE POP DUP2 ADD SWAP1 PUSH2 0x74B SWAP2 SWAP1 PUSH2 0x22D0 JUMP JUMPDEST PUSH20 0xFFFFFFFFFFFFFFFFFFFFFFFFFFFFFFFFFFFFFFFF AND PUSH2 0x8FC PUSH1 0x2 PUSH0 DUP5 DUP2 MSTORE PUSH1 0x20 ADD SWAP1 DUP2 MSTORE PUSH1 0x20 ADD PUSH0 KECCAK256 PUSH1 0x1 ADD SLOAD SWAP1 DUP2 ISZERO MUL SWAP1 PUSH1 0x40 MLOAD PUSH0 PUSH1 0x40 MLOAD DUP1 DUP4 SUB DUP2 DUP6 DUP9 DUP9 CALL SWAP4 POP POP POP POP ISZERO DUP1 ISZERO PUSH2 0x7A1 JUMPI RETURNDATASIZE PUSH0 DUP1 RETURNDATACOPY RETURNDATASIZE PUSH0 REVERT JUMPDEST POP POP JUMP JUMPDEST PUSH1 0x60 PUSH0 PUSH1 0x1 DUP1 SLOAD SWAP1 POP SWAP1 POP PUSH0 DUP2 PUSH8 0xFFFFFFFFFFFFFFFF DUP2 GT ISZERO PUSH2 0x7CB JUMPI PUSH2 0x7CA PUSH2 0x17C9 JUMP JUMPDEST JUMPDEST PUSH1 0x40 MLOAD SWAP1 DUP1 DUP3 MSTORE DUP1 PUSH1 0x20 MUL PUSH1 0x20 ADD DUP3 ADD PUSH1 0x40 MSTORE DUP1 ISZERO PUSH2 0x804 JUMPI DUP2 PUSH1 0x20 ADD JUMPDEST PUSH2 0x7F1 PUSH2 0x1731 JUMP JUMPDEST DUP2 MSTORE PUSH1 0x20 ADD SWAP1 PUSH1 0x1 SWAP1 SUB SWAP1 DUP2 PUSH2 0x7E9 JUMPI SWAP1 POP JUMPDEST POP SWAP1 POP PUSH0 DUP1 JUMPDEST DUP4 DUP2 LT ISZERO PUSH2 0x8DE JUMPI PUSH1 0x1 PUSH1 0x3 DUP2 GT ISZERO PUSH2 0x826 JUMPI PUSH2 0x825 PUSH2 0x1A96 JUMP JUMPDEST JUMPDEST PUSH1 0x2 PUSH0 PUSH1 0x1 DUP5 DUP2 SLOAD DUP2 LT PUSH2 0x83D JUMPI PUSH2 0x83C PUSH2 0x22FB JUMP JUMPDEST JUMPDEST SWAP1 PUSH0 MSTORE PUSH1 0x20 PUSH0 KECCAK256 ADD SLOAD DUP2 MSTORE PUSH1 0x20 ADD SWAP1 DUP2 MSTORE PUSH1 0x20 ADD PUSH0 KECCAK256 PUSH0 ADD PUSH0 SWAP1 SLOAD SWAP1 PUSH2 0x100 EXP SWAP1 DIV PUSH1 0xFF AND PUSH1 0x3 DUP2 GT ISZERO PUSH2 0x874 JUMPI PUSH2 0x873 PUSH2 0x1A96 JUMP JUMPDEST JUMPDEST SUB PUSH2 0x8CB JUMPI PUSH2 0x89E PUSH1 0x1 DUP3 DUP2 SLOAD DUP2 LT PUSH2 0x890 JUMPI PUSH2 0x88F PUSH2 0x22FB JUMP JUMPDEST JUMPDEST SWAP1 PUSH0 MSTORE PUSH1 0x20 PUSH0 KECCAK256 ADD SLOAD PUSH2 0xE9C JUMP JUMPDEST DUP4 DUP4 DUP2 MLOAD DUP2 LT PUSH2 0x8B1 JUMPI PUSH2 0x8B0 PUSH2 0x22FB JUMP JUMPDEST JUMPDEST PUSH1 0x20 MUL PUSH1 0x20 ADD ADD DUP2 SWAP1 MSTORE POP DUP2 DUP1 PUSH2 0x8C7 SWAP1 PUSH2 0x2355 JUMP JUMPDEST SWAP3 POP POP JUMPDEST DUP1 DUP1 PUSH2 0x8D6 SWAP1 PUSH2 0x2355 JUMP JUMPDEST SWAP2 POP POP PUSH2 0x80A JUMP JUMPDEST POP DUP1 DUP3 MSTORE DUP2 SWAP4 POP POP POP POP SWAP1 JUMP JUMPDEST PUSH0 PUSH1 0x4 PUSH0 CALLER PUSH20 0xFFFFFFFFFFFFFFFFFFFFFFFFFFFFFFFFFFFFFFFF AND PUSH20 0xFFFFFFFFFFFFFFFFFFFFFFFFFFFFFFFFFFFFFFFF AND DUP2 MSTORE PUSH1 0x20 ADD SWAP1 DUP2 MSTORE PUSH1 0x20 ADD PUSH0 KECCAK256 DUP1 SLOAD SWAP1 POP SWAP1 POP PUSH0 DUP1 PUSH0 SWAP1 POP JUMPDEST DUP3 DUP2 LT ISZERO PUSH2 0xA07 JUMPI DUP5 PUSH1 0x40 MLOAD PUSH1 0x20 ADD PUSH2 0x94E SWAP2 SWAP1 PUSH2 0x23D6 JUMP JUMPDEST PUSH1 0x40 MLOAD PUSH1 0x20 DUP2 DUP4 SUB SUB DUP2 MSTORE SWAP1 PUSH1 0x40 MSTORE DUP1 MLOAD SWAP1 PUSH1 0x20 ADD KECCAK256 PUSH1 0x4 PUSH0 CALLER PUSH20 0xFFFFFFFFFFFFFFFFFFFFFFFFFFFFFFFFFFFFFFFF AND PUSH20 0xFFFFFFFFFFFFFFFFFFFFFFFFFFFFFFFFFFFFFFFF AND DUP2 MSTORE PUSH1 0x20 ADD SWAP1 DUP2 MSTORE PUSH1 0x20 ADD PUSH0 KECCAK256 DUP3 DUP2 SLOAD DUP2 LT PUSH2 0x9B3 JUMPI PUSH2 0x9B2 PUSH2 0x22FB JUMP JUMPDEST JUMPDEST SWAP1 PUSH0 MSTORE PUSH1 0x20 PUSH0 KECCAK256 SWAP1 PUSH1 0x2 MUL ADD PUSH0 ADD PUSH1 0x40 MLOAD PUSH1 0x20 ADD PUSH2 0x9D1 SWAP2 SWAP1 PUSH2 0x246C JUMP JUMPDEST PUSH1 0x40 MLOAD PUSH1 0x20 DUP2 DUP4 SUB SUB DUP2 MSTORE SWAP1 PUSH1 0x40 MSTORE DUP1 MLOAD SWAP1 PUSH1 0x20 ADD KECCAK256 SUB PUSH2 0x9F4 JUMPI DUP1 SWAP2 POP PUSH2 0xA07 JUMP JUMPDEST DUP1 DUP1 PUSH2 0x9FF SWAP1 PUSH2 0x2355 JUMP JUMPDEST SWAP2 POP POP PUSH2 0x935 JUMP JUMPDEST POP PUSH1 0x1 PUSH1 0x4 PUSH0 CALLER PUSH20 0xFFFFFFFFFFFFFFFFFFFFFFFFFFFFFFFFFFFFFFFF AND PUSH20 0xFFFFFFFFFFFFFFFFFFFFFFFFFFFFFFFFFFFFFFFF AND DUP2 MSTORE PUSH1 0x20 ADD SWAP1 DUP2 MSTORE PUSH1 0x20 ADD PUSH0 KECCAK256 DUP3 DUP2 SLOAD DUP2 LT PUSH2 0xA59 JUMPI PUSH2 0xA58 PUSH2 0x22FB JUMP JUMPDEST JUMPDEST SWAP1 PUSH0 MSTORE PUSH1 0x20 PUSH0 KECCAK256 SWAP1 PUSH1 0x2 MUL ADD PUSH1 0x1 ADD SLOAD LT ISZERO PUSH2 0xAAA JUMPI PUSH1 0x40 MLOAD PUSH32 0x8C379A000000000000000000000000000000000000000000000000000000000 DUP2 MSTORE PUSH1 0x4 ADD PUSH2 0xAA1 SWAP1 PUSH2 0x24CC JUMP JUMPDEST PUSH1 0x40 MLOAD DUP1 SWAP2 SUB SWAP1 REVERT JUMPDEST PUSH0 DUP1 PUSH0 SWAP1 SLOAD SWAP1 PUSH2 0x100 EXP SWAP1 DIV PUSH20 0xFFFFFFFFFFFFFFFFFFFFFFFFFFFFFFFFFFFFFFFF AND PUSH20 0xFFFFFFFFFFFFFFFFFFFFFFFFFFFFFFFFFFFFFFFF AND PUSH4 0xBDC9008 DUP7 PUSH1 0x40 MLOAD DUP3 PUSH4 0xFFFFFFFF AND PUSH1 0xE0 SHL DUP2 MSTORE PUSH1 0x4 ADD PUSH2 0xB04 SWAP2 SWAP1 PUSH2 0x1E94 JUMP JUMPDEST PUSH1 0x20 PUSH1 0x40 MLOAD DUP1 DUP4 SUB DUP2 PUSH0 DUP8 GAS CALL ISZERO DUP1 ISZERO PUSH2 0xB20 JUMPI RETURNDATASIZE PUSH0 DUP1 RETURNDATACOPY RETURNDATASIZE PUSH0 REVERT JUMPDEST POP POP POP POP PUSH1 0x40 MLOAD RETURNDATASIZE PUSH1 0x1F NOT PUSH1 0x1F DUP3 ADD AND DUP3 ADD DUP1 PUSH1 0x40 MSTORE POP DUP2 ADD SWAP1 PUSH2 0xB44 SWAP2 SWAP1 PUSH2 0x225C JUMP JUMPDEST SWAP1 POP PUSH1 0x1 DUP2 SWAP1 DUP1 PUSH1 0x1 DUP2 SLOAD ADD DUP1 DUP3 SSTORE DUP1 SWAP2 POP POP PUSH1 0x1 SWAP1 SUB SWAP1 PUSH0 MSTORE PUSH1 0x20 PUSH0 KECCAK256 ADD PUSH0 SWAP1 SWAP2 SWAP1 SWAP2 SWAP1 SWAP2 POP SSTORE PUSH1 0x40 MLOAD DUP1 PUSH1 0x60 ADD PUSH1 0x40 MSTORE DUP1 PUSH1 0x1 PUSH1 0x3 DUP2 GT ISZERO PUSH2 0xB8B JUMPI PUSH2 0xB8A PUSH2 0x1A96 JUMP JUMPDEST JUMPDEST DUP2 MSTORE PUSH1 0x20 ADD PUSH1 0x12 PUSH1 0xA PUSH2 0xB9E SWAP2 SWAP1 PUSH2 0x2619 JUMP JUMPDEST DUP7 PUSH2 0xBA9 SWAP2 SWAP1 PUSH2 0x2663 JUMP JUMPDEST DUP2 MSTORE PUSH1 0x20 ADD PUSH0 PUSH20 0xFFFFFFFFFFFFFFFFFFFFFFFFFFFFFFFFFFFFFFFF AND DUP2 MSTORE POP PUSH1 0x2 PUSH0 DUP4 DUP2 MSTORE PUSH1 0x20 ADD SWAP1 DUP2 MSTORE PUSH1 0x20 ADD PUSH0 KECCAK256 PUSH0 DUP3 ADD MLOAD DUP2 PUSH0 ADD PUSH0 PUSH2 0x100 EXP DUP2 SLOAD DUP2 PUSH1 0xFF MUL NOT AND SWAP1 DUP4 PUSH1 0x3 DUP2 GT ISZERO PUSH2 0xC01 JUMPI PUSH2 0xC00 PUSH2 0x1A96 JUMP JUMPDEST JUMPDEST MUL OR SWAP1 SSTORE POP PUSH1 0x20 DUP3 ADD MLOAD DUP2 PUSH1 0x1 ADD SSTORE PUSH1 0x40 DUP3 ADD MLOAD DUP2 PUSH1 0x2 ADD PUSH0 PUSH2 0x100 EXP DUP2 SLOAD DUP2 PUSH20 0xFFFFFFFFFFFFFFFFFFFFFFFFFFFFFFFFFFFFFFFF MUL NOT AND SWAP1 DUP4 PUSH20 0xFFFFFFFFFFFFFFFFFFFFFFFFFFFFFFFFFFFFFFFF AND MUL OR SWAP1 SSTORE POP SWAP1 POP POP PUSH1 0x3 PUSH0 CALLER PUSH20 0xFFFFFFFFFFFFFFFFFFFFFFFFFFFFFFFFFFFFFFFF AND PUSH20 0xFFFFFFFFFFFFFFFFFFFFFFFFFFFFFFFFFFFFFFFF AND DUP2 MSTORE PUSH1 0x20 ADD SWAP1 DUP2 MSTORE PUSH1 0x20 ADD PUSH0 KECCAK256 DUP2 SWAP1 DUP1 PUSH1 0x1 DUP2 SLOAD ADD DUP1 DUP3 SSTORE DUP1 SWAP2 POP POP PUSH1 0x1 SWAP1 SUB SWAP1 PUSH0 MSTORE PUSH1 0x20 PUSH0 KECCAK256 ADD PUSH0 SWAP1 SWAP2 SWAP1 SWAP2 SWAP1 SWAP2 POP SSTORE PUSH2 0xCC2 PUSH2 0x10AB JUMP JUMPDEST POP PUSH1 0x1 PUSH1 0x4 PUSH0 CALLER PUSH20 0xFFFFFFFFFFFFFFFFFFFFFFFFFFFFFFFFFFFFFFFF AND PUSH20 0xFFFFFFFFFFFFFFFFFFFFFFFFFFFFFFFFFFFFFFFF AND DUP2 MSTORE PUSH1 0x20 ADD SWAP1 DUP2 MSTORE PUSH1 0x20 ADD PUSH0 KECCAK256 DUP4 DUP2 SLOAD DUP2 LT PUSH2 0xD14 JUMPI PUSH2 0xD13 PUSH2 0x22FB JUMP JUMPDEST JUMPDEST SWAP1 PUSH0 MSTORE PUSH1 0x20 PUSH0 KECCAK256 SWAP1 PUSH1 0x2 MUL ADD PUSH1 0x1 ADD PUSH0 DUP3 DUP3 SLOAD PUSH2 0xD31 SWAP2 SWAP1 PUSH2 0x26A4 JUMP JUMPDEST SWAP3 POP POP DUP2 SWAP1 SSTORE POP POP POP POP POP POP JUMP JUMPDEST PUSH1 0x1 PUSH1 0x3 DUP2 GT ISZERO PUSH2 0xD53 JUMPI PUSH2 0xD52 PUSH2 0x1A96 JUMP JUMPDEST JUMPDEST PUSH1 0x2 PUSH0 DUP4 DUP2 MSTORE PUSH1 0x20 ADD SWAP1 DUP2 MSTORE PUSH1 0x20 ADD PUSH0 KECCAK256 PUSH0 ADD PUSH0 SWAP1 SLOAD SWAP1 PUSH2 0x100 EXP SWAP1 DIV PUSH1 0xFF AND PUSH1 0x3 DUP2 GT ISZERO PUSH2 0xD85 JUMPI PUSH2 0xD84 PUSH2 0x1A96 JUMP JUMPDEST JUMPDEST EQ PUSH2 0xDC5 JUMPI PUSH1 0x40 MLOAD PUSH32 0x8C379A000000000000000000000000000000000000000000000000000000000 DUP2 MSTORE PUSH1 0x4 ADD PUSH2 0xDBC SWAP1 PUSH2 0x2211 JUMP JUMPDEST PUSH1 0x40 MLOAD DUP1 SWAP2 SUB SWAP1 REVERT JUMPDEST CALLVALUE PUSH1 0x2 PUSH0 DUP4 DUP2 MSTORE PUSH1 0x20 ADD SWAP1 DUP2 MSTORE PUSH1 0x20 ADD PUSH0 KECCAK256 PUSH1 0x1 ADD SLOAD GT ISZERO PUSH2 0xE1C JUMPI PUSH1 0x40 MLOAD PUSH32 0x8C379A000000000000000000000000000000000000000000000000000000000 DUP2 MSTORE PUSH1 0x4 ADD PUSH2 0xE13 SWAP1 PUSH2 0x2721 JUMP JUMPDEST PUSH1 0x40 MLOAD DUP1 SWAP2 SUB SWAP1 REVERT JUMPDEST CALLER PUSH1 0x2 PUSH0 DUP4 DUP2 MSTORE PUSH1 0x20 ADD SWAP1 DUP2 MSTORE PUSH1 0x20 ADD PUSH0 KECCAK256 PUSH1 0x2 ADD PUSH0 PUSH2 0x100 EXP DUP2 SLOAD DUP2 PUSH20 0xFFFFFFFFFFFFFFFFFFFFFFFFFFFFFFFFFFFFFFFF MUL NOT AND SWAP1 DUP4 PUSH20 0xFFFFFFFFFFFFFFFFFFFFFFFFFFFFFFFFFFFFFFFF AND MUL OR SWAP1 SSTORE POP POP JUMP JUMPDEST PUSH1 0x3 PUSH1 0x20 MSTORE DUP2 PUSH0 MSTORE PUSH1 0x40 PUSH0 KECCAK256 DUP2 DUP2 SLOAD DUP2 LT PUSH2 0xE8A JUMPI PUSH0 DUP1 REVERT JUMPDEST SWAP1 PUSH0 MSTORE PUSH1 0x20 PUSH0 KECCAK256 ADD PUSH0 SWAP2 POP SWAP2 POP POP SLOAD DUP2 JUMP JUMPDEST PUSH2 0xEA4 PUSH2 0x1731 JUMP JUMPDEST PUSH1 0x40 MLOAD DUP1 PUSH1 0xC0 ADD PUSH1 0x40 MSTORE DUP1 DUP4 DUP2 MSTORE PUSH1 0x20 ADD PUSH0 DUP1 SLOAD SWAP1 PUSH2 0x100 EXP SWAP1 DIV PUSH20 0xFFFFFFFFFFFFFFFFFFFFFFFFFFFFFFFFFFFFFFFF AND PUSH20 0xFFFFFFFFFFFFFFFFFFFFFFFFFFFFFFFFFFFFFFFF AND PUSH4 0xC87B56DD DUP6 PUSH1 0x40 MLOAD DUP3 PUSH4 0xFFFFFFFF AND PUSH1 0xE0 SHL DUP2 MSTORE PUSH1 0x4 ADD PUSH2 0xF0D SWAP2 SWAP1 PUSH2 0x1CB8 JUMP JUMPDEST PUSH0 PUSH1 0x40 MLOAD DUP1 DUP4 SUB DUP2 DUP7 GAS STATICCALL ISZERO DUP1 ISZERO PUSH2 0xF27 JUMPI RETURNDATASIZE PUSH0 DUP1 RETURNDATACOPY RETURNDATASIZE PUSH0 REVERT JUMPDEST POP POP POP POP PUSH1 0x40 MLOAD RETURNDATASIZE PUSH0 DUP3 RETURNDATACOPY RETURNDATASIZE PUSH1 0x1F NOT PUSH1 0x1F DUP3 ADD AND DUP3 ADD DUP1 PUSH1 0x40 MSTORE POP DUP2 ADD SWAP1 PUSH2 0xF4F SWAP2 SWAP1 PUSH2 0x27AD JUMP JUMPDEST DUP2 MSTORE PUSH1 0x20 ADD PUSH0 DUP1 SLOAD SWAP1 PUSH2 0x100 EXP SWAP1 DIV PUSH20 0xFFFFFFFFFFFFFFFFFFFFFFFFFFFFFFFFFFFFFFFF AND PUSH20 0xFFFFFFFFFFFFFFFFFFFFFFFFFFFFFFFFFFFFFFFF AND PUSH4 0x6352211E DUP6 PUSH1 0x40 MLOAD DUP3 PUSH4 0xFFFFFFFF AND PUSH1 0xE0 SHL DUP2 MSTORE PUSH1 0x4 ADD PUSH2 0xFAC SWAP2 SWAP1 PUSH2 0x1CB8 JUMP JUMPDEST PUSH1 0x20 PUSH1 0x40 MLOAD DUP1 DUP4 SUB DUP2 DUP7 GAS STATICCALL ISZERO DUP1 ISZERO PUSH2 0xFC7 JUMPI RETURNDATASIZE PUSH0 DUP1 RETURNDATACOPY RETURNDATASIZE PUSH0 REVERT JUMPDEST POP POP POP POP PUSH1 0x40 MLOAD RETURNDATASIZE PUSH1 0x1F NOT PUSH1 0x1F DUP3 ADD AND DUP3 ADD DUP1 PUSH1 0x40 MSTORE POP DUP2 ADD SWAP1 PUSH2 0xFEB SWAP2 SWAP1 PUSH2 0x22D0 JUMP JUMPDEST PUSH20 0xFFFFFFFFFFFFFFFFFFFFFFFFFFFFFFFFFFFFFFFF AND DUP2 MSTORE PUSH1 0x20 ADD PUSH1 0x2 PUSH0 DUP6 DUP2 MSTORE PUSH1 0x20 ADD SWAP1 DUP2 MSTORE PUSH1 0x20 ADD PUSH0 KECCAK256 PUSH0 ADD PUSH0 SWAP1 SLOAD SWAP1 PUSH2 0x100 EXP SWAP1 DIV PUSH1 0xFF AND PUSH1 0x3 DUP2 GT ISZERO PUSH2 0x1038 JUMPI PUSH2 0x1037 PUSH2 0x1A96 JUMP JUMPDEST JUMPDEST DUP2 MSTORE PUSH1 0x20 ADD PUSH1 0x2 PUSH0 DUP6 DUP2 MSTORE PUSH1 0x20 ADD SWAP1 DUP2 MSTORE PUSH1 0x20 ADD PUSH0 KECCAK256 PUSH1 0x1 ADD SLOAD DUP2 MSTORE PUSH1 0x20 ADD PUSH1 0x2 PUSH0 DUP6 DUP2 MSTORE PUSH1 0x20 ADD SWAP1 DUP2 MSTORE PUSH1 0x20 ADD PUSH0 KECCAK256 PUSH1 0x2 ADD PUSH0 SWAP1 SLOAD SWAP1 PUSH2 0x100 EXP SWAP1 DIV PUSH20 0xFFFFFFFFFFFFFFFFFFFFFFFFFFFFFFFFFFFFFFFF AND PUSH20 0xFFFFFFFFFFFFFFFFFFFFFFFFFFFFFFFFFFFFFFFF AND DUP2 MSTORE POP SWAP1 POP SWAP2 SWAP1 POP JUMP JUMPDEST PUSH0 DUP1 PUSH0 SWAP1 SLOAD SWAP1 PUSH2 0x100 EXP SWAP1 DIV PUSH20 0xFFFFFFFFFFFFFFFFFFFFFFFFFFFFFFFFFFFFFFFF AND PUSH20 0xFFFFFFFFFFFFFFFFFFFFFFFFFFFFFFFFFFFFFFFF AND PUSH4 0xE985E9C5 CALLER ADDRESS PUSH1 0x40 MLOAD DUP4 PUSH4 0xFFFFFFFF AND PUSH1 0xE0 SHL DUP2 MSTORE PUSH1 0x4 ADD PUSH2 0x1107 SWAP3 SWAP2 SWAP1 PUSH2 0x27F4 JUMP JUMPDEST PUSH1 0x20 PUSH1 0x40 MLOAD DUP1 DUP4 SUB DUP2 DUP7 GAS STATICCALL ISZERO DUP1 ISZERO PUSH2 0x1122 JUMPI RETURNDATASIZE PUSH0 DUP1 RETURNDATACOPY RETURNDATASIZE PUSH0 REVERT JUMPDEST POP POP POP POP PUSH1 0x40 MLOAD RETURNDATASIZE PUSH1 0x1F NOT PUSH1 0x1F DUP3 ADD AND DUP3 ADD DUP1 PUSH1 0x40 MSTORE POP DUP2 ADD SWAP1 PUSH2 0x1146 SWAP2 SWAP1 PUSH2 0x2845 JUMP JUMPDEST SWAP1 POP SWAP1 JUMP JUMPDEST PUSH1 0x60 PUSH0 PUSH1 0x1 DUP1 SLOAD SWAP1 POP SWAP1 POP PUSH0 DUP2 PUSH8 0xFFFFFFFFFFFFFFFF DUP2 GT ISZERO PUSH2 0x1171 JUMPI PUSH2 0x1170 PUSH2 0x17C9 JUMP JUMPDEST JUMPDEST PUSH1 0x40 MLOAD SWAP1 DUP1 DUP3 MSTORE DUP1 PUSH1 0x20 MUL PUSH1 0x20 ADD DUP3 ADD PUSH1 0x40 MSTORE DUP1 ISZERO PUSH2 0x11AA JUMPI DUP2 PUSH1 0x20 ADD JUMPDEST PUSH2 0x1197 PUSH2 0x1731 JUMP JUMPDEST DUP2 MSTORE PUSH1 0x20 ADD SWAP1 PUSH1 0x1 SWAP1 SUB SWAP1 DUP2 PUSH2 0x118F JUMPI SWAP1 POP JUMPDEST POP SWAP1 POP PUSH0 DUP1 JUMPDEST DUP4 DUP2 LT ISZERO PUSH2 0x1283 JUMPI PUSH1 0x3 DUP1 DUP2 GT ISZERO PUSH2 0x11CB JUMPI PUSH2 0x11CA PUSH2 0x1A96 JUMP JUMPDEST JUMPDEST PUSH1 0x2 PUSH0 PUSH1 0x1 DUP5 DUP2 SLOAD DUP2 LT PUSH2 0x11E2 JUMPI PUSH2 0x11E1 PUSH2 0x22FB JUMP JUMPDEST JUMPDEST SWAP1 PUSH0 MSTORE PUSH1 0x20 PUSH0 KECCAK256 ADD SLOAD DUP2 MSTORE PUSH1 0x20 ADD SWAP1 DUP2 MSTORE PUSH1 0x20 ADD PUSH0 KECCAK256 PUSH0 ADD PUSH0 SWAP1 SLOAD SWAP1 PUSH2 0x100 EXP SWAP1 DIV PUSH1 0xFF AND PUSH1 0x3 DUP2 GT ISZERO PUSH2 0x1219 JUMPI PUSH2 0x1218 PUSH2 0x1A96 JUMP JUMPDEST JUMPDEST SUB PUSH2 0x1270 JUMPI PUSH2 0x1243 PUSH1 0x1 DUP3 DUP2 SLOAD DUP2 LT PUSH2 0x1235 JUMPI PUSH2 0x1234 PUSH2 0x22FB JUMP JUMPDEST JUMPDEST SWAP1 PUSH0 MSTORE PUSH1 0x20 PUSH0 KECCAK256 ADD SLOAD PUSH2 0xE9C JUMP JUMPDEST DUP4 DUP4 DUP2 MLOAD DUP2 LT PUSH2 0x1256 JUMPI PUSH2 0x1255 PUSH2 0x22FB JUMP JUMPDEST JUMPDEST PUSH1 0x20 MUL PUSH1 0x20 ADD ADD DUP2 SWAP1 MSTORE POP DUP2 DUP1 PUSH2 0x126C SWAP1 PUSH2 0x2355 JUMP JUMPDEST SWAP3 POP POP JUMPDEST DUP1 DUP1 PUSH2 0x127B SWAP1 PUSH2 0x2355 JUMP JUMPDEST SWAP2 POP POP PUSH2 0x11B0 JUMP JUMPDEST POP DUP1 DUP3 MSTORE DUP2 SWAP4 POP POP POP POP SWAP1 JUMP JUMPDEST PUSH0 DUP1 SLOAD SWAP1 PUSH2 0x100 EXP SWAP1 DIV PUSH20 0xFFFFFFFFFFFFFFFFFFFFFFFFFFFFFFFFFFFFFFFF AND DUP2 JUMP JUMPDEST PUSH1 0x4 PUSH1 0x20 MSTORE DUP2 PUSH0 MSTORE PUSH1 0x40 PUSH0 KECCAK256 DUP2 DUP2 SLOAD DUP2 LT PUSH2 0x12CC JUMPI PUSH0 DUP1 REVERT JUMPDEST SWAP1 PUSH0 MSTORE PUSH1 0x20 PUSH0 KECCAK256 SWAP1 PUSH1 0x2 MUL ADD PUSH0 SWAP2 POP SWAP2 POP POP DUP1 PUSH0 ADD DUP1 SLOAD PUSH2 0x12EC SWAP1 PUSH2 0x1F34 JUMP JUMPDEST DUP1 PUSH1 0x1F ADD PUSH1 0x20 DUP1 SWAP2 DIV MUL PUSH1 0x20 ADD PUSH1 0x40 MLOAD SWAP1 DUP2 ADD PUSH1 0x40 MSTORE DUP1 SWAP3 SWAP2 SWAP1 DUP2 DUP2 MSTORE PUSH1 0x20 ADD DUP3 DUP1 SLOAD PUSH2 0x1318 SWAP1 PUSH2 0x1F34 JUMP JUMPDEST DUP1 ISZERO PUSH2 0x1363 JUMPI DUP1 PUSH1 0x1F LT PUSH2 0x133A JUMPI PUSH2 0x100 DUP1 DUP4 SLOAD DIV MUL DUP4 MSTORE SWAP2 PUSH1 0x20 ADD SWAP2 PUSH2 0x1363 JUMP JUMPDEST DUP3 ADD SWAP2 SWAP1 PUSH0 MSTORE PUSH1 0x20 PUSH0 KECCAK256 SWAP1 JUMPDEST DUP2 SLOAD DUP2 MSTORE SWAP1 PUSH1 0x1 ADD SWAP1 PUSH1 0x20 ADD DUP1 DUP4 GT PUSH2 0x1346 JUMPI DUP3 SWAP1 SUB PUSH1 0x1F AND DUP3 ADD SWAP2 JUMPDEST POP POP POP POP POP SWAP1 DUP1 PUSH1 0x1 ADD SLOAD SWAP1 POP DUP3 JUMP JUMPDEST PUSH1 0x60 PUSH1 0xA DUP3 GT PUSH2 0x13BA JUMPI PUSH1 0x40 MLOAD DUP1 PUSH1 0x40 ADD PUSH1 0x40 MSTORE DUP1 PUSH1 0x8 DUP2 MSTORE PUSH1 0x20 ADD PUSH32 0x756E646572203130000000000000000000000000000000000000000000000000 DUP2 MSTORE POP SWAP1 POP PUSH2 0x1438 JUMP JUMPDEST PUSH1 0x14 DUP3 GT PUSH2 0x13FF JUMPI PUSH1 0x40 MLOAD DUP1 PUSH1 0x40 ADD PUSH1 0x40 MSTORE DUP1 PUSH1 0x8 DUP2 MSTORE PUSH1 0x20 ADD PUSH32 0x756E646572203230000000000000000000000000000000000000000000000000 DUP2 MSTORE POP SWAP1 POP PUSH2 0x1438 JUMP JUMPDEST PUSH1 0x40 MLOAD DUP1 PUSH1 0x40 ADD PUSH1 0x40 MSTORE DUP1 PUSH1 0x5 DUP2 MSTORE PUSH1 0x20 ADD PUSH32 0x7570203230000000000000000000000000000000000000000000000000000000 DUP2 MSTORE POP SWAP1 POP JUMPDEST SWAP2 SWAP1 POP JUMP JUMPDEST PUSH0 DUP1 SLOAD SWAP1 PUSH2 0x100 EXP SWAP1 DIV PUSH20 0xFFFFFFFFFFFFFFFFFFFFFFFFFFFFFFFFFFFFFFFF AND PUSH20 0xFFFFFFFFFFFFFFFFFFFFFFFFFFFFFFFFFFFFFFFF AND PUSH4 0x29D6724E CALLER ADDRESS PUSH1 0x1 PUSH1 0x40 MLOAD DUP5 PUSH4 0xFFFFFFFF AND PUSH1 0xE0 SHL DUP2 MSTORE PUSH1 0x4 ADD PUSH2 0x149A SWAP4 SWAP3 SWAP2 SWAP1 PUSH2 0x2870 JUMP JUMPDEST PUSH0 PUSH1 0x40 MLOAD DUP1 DUP4 SUB DUP2 PUSH0 DUP8 DUP1 EXTCODESIZE ISZERO DUP1 ISZERO PUSH2 0x14B1 JUMPI PUSH0 DUP1 REVERT JUMPDEST POP GAS CALL ISZERO DUP1 ISZERO PUSH2 0x14C3 JUMPI RETURNDATASIZE PUSH0 DUP1 RETURNDATACOPY RETURNDATASIZE PUSH0 REVERT JUMPDEST POP POP POP POP JUMP JUMPDEST PUSH1 0x1 DUP2 DUP2 SLOAD DUP2 LT PUSH2 0x14D8 JUMPI PUSH0 DUP1 REVERT JUMPDEST SWAP1 PUSH0 MSTORE PUSH1 0x20 PUSH0 KECCAK256 ADD PUSH0 SWAP2 POP SWAP1 POP SLOAD DUP2 JUMP JUMPDEST PUSH1 0x2 PUSH1 0x20 MSTORE DUP1 PUSH0 MSTORE PUSH1 0x40 PUSH0 KECCAK256 PUSH0 SWAP2 POP SWAP1 POP DUP1 PUSH0 ADD PUSH0 SWAP1 SLOAD SWAP1 PUSH2 0x100 EXP SWAP1 DIV PUSH1 0xFF AND SWAP1 DUP1 PUSH1 0x1 ADD SLOAD SWAP1 DUP1 PUSH1 0x2 ADD PUSH0 SWAP1 SLOAD SWAP1 PUSH2 0x100 EXP SWAP1 DIV PUSH20 0xFFFFFFFFFFFFFFFFFFFFFFFFFFFFFFFFFFFFFFFF AND SWAP1 POP DUP4 JUMP JUMPDEST PUSH1 0x60 PUSH0 PUSH1 0x3 PUSH0 CALLER PUSH20 0xFFFFFFFFFFFFFFFFFFFFFFFFFFFFFFFFFFFFFFFF AND PUSH20 0xFFFFFFFFFFFFFFFFFFFFFFFFFFFFFFFFFFFFFFFF AND DUP2 MSTORE PUSH1 0x20 ADD SWAP1 DUP2 MSTORE PUSH1 0x20 ADD PUSH0 KECCAK256 DUP1 SLOAD SWAP1 POP SWAP1 POP PUSH0 DUP2 PUSH8 0xFFFFFFFFFFFFFFFF DUP2 GT ISZERO PUSH2 0x159B JUMPI PUSH2 0x159A PUSH2 0x17C9 JUMP JUMPDEST JUMPDEST PUSH1 0x40 MLOAD SWAP1 DUP1 DUP3 MSTORE DUP1 PUSH1 0x20 MUL PUSH1 0x20 ADD DUP3 ADD PUSH1 0x40 MSTORE DUP1 ISZERO PUSH2 0x15D4 JUMPI DUP2 PUSH1 0x20 ADD JUMPDEST PUSH2 0x15C1 PUSH2 0x1731 JUMP JUMPDEST DUP2 MSTORE PUSH1 0x20 ADD SWAP1 PUSH1 0x1 SWAP1 SUB SWAP1 DUP2 PUSH2 0x15B9 JUMPI SWAP1 POP JUMPDEST POP SWAP1 POP PUSH0 DUP1 JUMPDEST DUP4 DUP2 LT ISZERO PUSH2 0x1724 JUMPI PUSH1 0x1 PUSH1 0x3 DUP2 GT ISZERO PUSH2 0x15F6 JUMPI PUSH2 0x15F5 PUSH2 0x1A96 JUMP JUMPDEST JUMPDEST PUSH1 0x2 PUSH0 PUSH1 0x3 PUSH0 CALLER PUSH20 0xFFFFFFFFFFFFFFFFFFFFFFFFFFFFFFFFFFFFFFFF AND PUSH20 0xFFFFFFFFFFFFFFFFFFFFFFFFFFFFFFFFFFFFFFFF AND DUP2 MSTORE PUSH1 0x20 ADD SWAP1 DUP2 MSTORE PUSH1 0x20 ADD PUSH0 KECCAK256 DUP5 DUP2 SLOAD DUP2 LT PUSH2 0x1648 JUMPI PUSH2 0x1647 PUSH2 0x22FB JUMP JUMPDEST JUMPDEST SWAP1 PUSH0 MSTORE PUSH1 0x20 PUSH0 KECCAK256 ADD SLOAD DUP2 MSTORE PUSH1 0x20 ADD SWAP1 DUP2 MSTORE PUSH1 0x20 ADD PUSH0 KECCAK256 PUSH0 ADD PUSH0 SWAP1 SLOAD SWAP1 PUSH2 0x100 EXP SWAP1 DIV PUSH1 0xFF AND PUSH1 0x3 DUP2 GT ISZERO PUSH2 0x167F JUMPI PUSH2 0x167E PUSH2 0x1A96 JUMP JUMPDEST JUMPDEST SUB PUSH2 0x1711 JUMPI PUSH2 0x16E4 PUSH1 0x3 PUSH0 CALLER PUSH20 0xFFFFFFFFFFFFFFFFFFFFFFFFFFFFFFFFFFFFFFFF AND PUSH20 0xFFFFFFFFFFFFFFFFFFFFFFFFFFFFFFFFFFFFFFFF AND DUP2 MSTORE PUSH1 0x20 ADD SWAP1 DUP2 MSTORE PUSH1 0x20 ADD PUSH0 KECCAK256 DUP3 DUP2 SLOAD DUP2 LT PUSH2 0x16D6 JUMPI PUSH2 0x16D5 PUSH2 0x22FB JUMP JUMPDEST JUMPDEST SWAP1 PUSH0 MSTORE PUSH1 0x20 PUSH0 KECCAK256 ADD SLOAD PUSH2 0xE9C JUMP JUMPDEST DUP4 DUP4 DUP2 MLOAD DUP2 LT PUSH2 0x16F7 JUMPI PUSH2 0x16F6 PUSH2 0x22FB JUMP JUMPDEST JUMPDEST PUSH1 0x20 MUL PUSH1 0x20 ADD ADD DUP2 SWAP1 MSTORE POP DUP2 DUP1 PUSH2 0x170D SWAP1 PUSH2 0x2355 JUMP JUMPDEST SWAP3 POP POP JUMPDEST DUP1 DUP1 PUSH2 0x171C SWAP1 PUSH2 0x2355 JUMP JUMPDEST SWAP2 POP POP PUSH2 0x15DA JUMP JUMPDEST POP DUP1 DUP3 MSTORE DUP2 SWAP4 POP POP POP POP SWAP1 JUMP JUMPDEST PUSH1 0x40 MLOAD DUP1 PUSH1 0xC0 ADD PUSH1 0x40 MSTORE DUP1 PUSH0 DUP2 MSTORE PUSH1 0x20 ADD PUSH1 0x60 DUP2 MSTORE PUSH1 0x20 ADD PUSH0 PUSH20 0xFFFFFFFFFFFFFFFFFFFFFFFFFFFFFFFFFFFFFFFF AND DUP2 MSTORE PUSH1 0x20 ADD PUSH0 PUSH1 0x3 DUP2 GT ISZERO PUSH2 0x1778 JUMPI PUSH2 0x1777 PUSH2 0x1A96 JUMP JUMPDEST JUMPDEST DUP2 MSTORE PUSH1 0x20 ADD PUSH0 DUP2 MSTORE PUSH1 0x20 ADD PUSH0 PUSH20 0xFFFFFFFFFFFFFFFFFFFFFFFFFFFFFFFFFFFFFFFF AND DUP2 MSTORE POP SWAP1 JUMP JUMPDEST PUSH0 PUSH1 0x40 MLOAD SWAP1 POP SWAP1 JUMP JUMPDEST PUSH0 DUP1 REVERT JUMPDEST PUSH0 DUP1 REVERT JUMPDEST PUSH0 DUP1 REVERT JUMPDEST PUSH0 DUP1 REVERT JUMPDEST PUSH0 PUSH1 0x1F NOT PUSH1 0x1F DUP4 ADD AND SWAP1 POP SWAP2 SWAP1 POP JUMP JUMPDEST PUSH32 0x4E487B7100000000000000000000000000000000000000000000000000000000 PUSH0 MSTORE PUSH1 0x41 PUSH1 0x4 MSTORE PUSH1 0x24 PUSH0 REVERT JUMPDEST PUSH2 0x17FF DUP3 PUSH2 0x17B9 JUMP JUMPDEST DUP2 ADD DUP2 DUP2 LT PUSH8 0xFFFFFFFFFFFFFFFF DUP3 GT OR ISZERO PUSH2 0x181E JUMPI PUSH2 0x181D PUSH2 0x17C9 JUMP JUMPDEST JUMPDEST DUP1 PUSH1 0x40 MSTORE POP POP POP JUMP JUMPDEST PUSH0 PUSH2 0x1830 PUSH2 0x17A0 JUMP JUMPDEST SWAP1 POP PUSH2 0x183C DUP3 DUP3 PUSH2 0x17F6 JUMP JUMPDEST SWAP2 SWAP1 POP JUMP JUMPDEST PUSH0 PUSH8 0xFFFFFFFFFFFFFFFF DUP3 GT ISZERO PUSH2 0x185B JUMPI PUSH2 0x185A PUSH2 0x17C9 JUMP JUMPDEST JUMPDEST PUSH2 0x1864 DUP3 PUSH2 0x17B9 JUMP JUMPDEST SWAP1 POP PUSH1 0x20 DUP2 ADD SWAP1 POP SWAP2 SWAP1 POP JUMP JUMPDEST DUP3 DUP2 DUP4 CALLDATACOPY PUSH0 DUP4 DUP4 ADD MSTORE POP POP POP JUMP JUMPDEST PUSH0 PUSH2 0x1891 PUSH2 0x188C DUP5 PUSH2 0x1841 JUMP JUMPDEST PUSH2 0x1827 JUMP JUMPDEST SWAP1 POP DUP3 DUP2 MSTORE PUSH1 0x20 DUP2 ADD DUP5 DUP5 DUP5 ADD GT ISZERO PUSH2 0x18AD JUMPI PUSH2 0x18AC PUSH2 0x17B5 JUMP JUMPDEST JUMPDEST PUSH2 0x18B8 DUP5 DUP3 DUP6 PUSH2 0x1871 JUMP JUMPDEST POP SWAP4 SWAP3 POP POP POP JUMP JUMPDEST PUSH0 DUP3 PUSH1 0x1F DUP4 ADD SLT PUSH2 0x18D4 JUMPI PUSH2 0x18D3 PUSH2 0x17B1 JUMP JUMPDEST JUMPDEST DUP2 CALLDATALOAD PUSH2 0x18E4 DUP5 DUP3 PUSH1 0x20 DUP7 ADD PUSH2 0x187F JUMP JUMPDEST SWAP2 POP POP SWAP3 SWAP2 POP POP JUMP JUMPDEST PUSH0 DUP2 SWAP1 POP SWAP2 SWAP1 POP JUMP JUMPDEST PUSH2 0x18FF DUP2 PUSH2 0x18ED JUMP JUMPDEST DUP2 EQ PUSH2 0x1909 JUMPI PUSH0 DUP1 REVERT JUMPDEST POP JUMP JUMPDEST PUSH0 DUP2 CALLDATALOAD SWAP1 POP PUSH2 0x191A DUP2 PUSH2 0x18F6 JUMP JUMPDEST SWAP3 SWAP2 POP POP JUMP JUMPDEST PUSH0 DUP1 PUSH1 0x40 DUP4 DUP6 SUB SLT ISZERO PUSH2 0x1936 JUMPI PUSH2 0x1935 PUSH2 0x17A9 JUMP JUMPDEST JUMPDEST PUSH0 DUP4 ADD CALLDATALOAD PUSH8 0xFFFFFFFFFFFFFFFF DUP2 GT ISZERO PUSH2 0x1953 JUMPI PUSH2 0x1952 PUSH2 0x17AD JUMP JUMPDEST JUMPDEST PUSH2 0x195F DUP6 DUP3 DUP7 ADD PUSH2 0x18C0 JUMP JUMPDEST SWAP3 POP POP PUSH1 0x20 PUSH2 0x1970 DUP6 DUP3 DUP7 ADD PUSH2 0x190C JUMP JUMPDEST SWAP2 POP POP SWAP3 POP SWAP3 SWAP1 POP JUMP JUMPDEST PUSH0 PUSH1 0x20 DUP3 DUP5 SUB SLT ISZERO PUSH2 0x198F JUMPI PUSH2 0x198E PUSH2 0x17A9 JUMP JUMPDEST JUMPDEST PUSH0 PUSH2 0x199C DUP5 DUP3 DUP6 ADD PUSH2 0x190C JUMP JUMPDEST SWAP2 POP POP SWAP3 SWAP2 POP POP JUMP JUMPDEST PUSH0 DUP2 MLOAD SWAP1 POP SWAP2 SWAP1 POP JUMP JUMPDEST PUSH0 DUP3 DUP3 MSTORE PUSH1 0x20 DUP3 ADD SWAP1 POP SWAP3 SWAP2 POP POP JUMP JUMPDEST PUSH0 DUP2 SWAP1 POP PUSH1 0x20 DUP3 ADD SWAP1 POP SWAP2 SWAP1 POP JUMP JUMPDEST PUSH2 0x19D7 DUP2 PUSH2 0x18ED JUMP JUMPDEST DUP3 MSTORE POP POP JUMP JUMPDEST PUSH0 DUP2 MLOAD SWAP1 POP SWAP2 SWAP1 POP JUMP JUMPDEST PUSH0 DUP3 DUP3 MSTORE PUSH1 0x20 DUP3 ADD SWAP1 POP SWAP3 SWAP2 POP POP JUMP JUMPDEST PUSH0 JUMPDEST DUP4 DUP2 LT ISZERO PUSH2 0x1A14 JUMPI DUP1 DUP3 ADD MLOAD DUP2 DUP5 ADD MSTORE PUSH1 0x20 DUP2 ADD SWAP1 POP PUSH2 0x19F9 JUMP JUMPDEST PUSH0 DUP5 DUP5 ADD MSTORE POP POP POP POP JUMP JUMPDEST PUSH0 PUSH2 0x1A29 DUP3 PUSH2 0x19DD JUMP JUMPDEST PUSH2 0x1A33 DUP2 DUP6 PUSH2 0x19E7 JUMP JUMPDEST SWAP4 POP PUSH2 0x1A43 DUP2 DUP6 PUSH1 0x20 DUP7 ADD PUSH2 0x19F7 JUMP JUMPDEST PUSH2 0x1A4C DUP2 PUSH2 0x17B9 JUMP JUMPDEST DUP5 ADD SWAP2 POP POP SWAP3 SWAP2 POP POP JUMP JUMPDEST PUSH0 PUSH20 0xFFFFFFFFFFFFFFFFFFFFFFFFFFFFFFFFFFFFFFFF DUP3 AND SWAP1 POP SWAP2 SWAP1 POP JUMP JUMPDEST PUSH0 PUSH2 0x1A80 DUP3 PUSH2 0x1A57 JUMP JUMPDEST SWAP1 POP SWAP2 SWAP1 POP JUMP JUMPDEST PUSH2 0x1A90 DUP2 PUSH2 0x1A76 JUMP JUMPDEST DUP3 MSTORE POP POP JUMP JUMPDEST PUSH32 0x4E487B7100000000000000000000000000000000000000000000000000000000 PUSH0 MSTORE PUSH1 0x21 PUSH1 0x4 MSTORE PUSH1 0x24 PUSH0 REVERT JUMPDEST PUSH1 0x4 DUP2 LT PUSH2 0x1AD4 JUMPI PUSH2 0x1AD3 PUSH2 0x1A96 JUMP JUMPDEST JUMPDEST POP JUMP JUMPDEST PUSH0 DUP2 SWAP1 POP PUSH2 0x1AE4 DUP3 PUSH2 0x1AC3 JUMP JUMPDEST SWAP2 SWAP1 POP JUMP JUMPDEST PUSH0 PUSH2 0x1AF3 DUP3 PUSH2 0x1AD7 JUMP JUMPDEST SWAP1 POP SWAP2 SWAP1 POP JUMP JUMPDEST PUSH2 0x1B03 DUP2 PUSH2 0x1AE9 JUMP JUMPDEST DUP3 MSTORE POP POP JUMP JUMPDEST PUSH0 PUSH1 0xC0 DUP4 ADD PUSH0 DUP4 ADD MLOAD PUSH2 0x1B1E PUSH0 DUP7 ADD DUP3 PUSH2 0x19CE JUMP JUMPDEST POP PUSH1 0x20 DUP4 ADD MLOAD DUP5 DUP3 SUB PUSH1 0x20 DUP7 ADD MSTORE PUSH2 0x1B36 DUP3 DUP3 PUSH2 0x1A1F JUMP JUMPDEST SWAP2 POP POP PUSH1 0x40 DUP4 ADD MLOAD PUSH2 0x1B4B PUSH1 0x40 DUP7 ADD DUP3 PUSH2 0x1A87 JUMP JUMPDEST POP PUSH1 0x60 DUP4 ADD MLOAD PUSH2 0x1B5E PUSH1 0x60 DUP7 ADD DUP3 PUSH2 0x1AFA JUMP JUMPDEST POP PUSH1 0x80 DUP4 ADD MLOAD PUSH2 0x1B71 PUSH1 0x80 DUP7 ADD DUP3 PUSH2 0x19CE JUMP JUMPDEST POP PUSH1 0xA0 DUP4 ADD MLOAD PUSH2 0x1B84 PUSH1 0xA0 DUP7 ADD DUP3 PUSH2 0x1A87 JUMP JUMPDEST POP DUP1 SWAP2 POP POP SWAP3 SWAP2 POP POP JUMP JUMPDEST PUSH0 PUSH2 0x1B9A DUP4 DUP4 PUSH2 0x1B09 JUMP JUMPDEST SWAP1 POP SWAP3 SWAP2 POP POP JUMP JUMPDEST PUSH0 PUSH1 0x20 DUP3 ADD SWAP1 POP SWAP2 SWAP1 POP JUMP JUMPDEST PUSH0 PUSH2 0x1BB8 DUP3 PUSH2 0x19A5 JUMP JUMPDEST PUSH2 0x1BC2 DUP2 DUP6 PUSH2 0x19AF JUMP JUMPDEST SWAP4 POP DUP4 PUSH1 0x20 DUP3 MUL DUP6 ADD PUSH2 0x1BD4 DUP6 PUSH2 0x19BF JUMP JUMPDEST DUP1 PUSH0 JUMPDEST DUP6 DUP2 LT ISZERO PUSH2 0x1C0F JUMPI DUP5 DUP5 SUB DUP10 MSTORE DUP2 MLOAD PUSH2 0x1BF0 DUP6 DUP3 PUSH2 0x1B8F JUMP JUMPDEST SWAP5 POP PUSH2 0x1BFB DUP4 PUSH2 0x1BA2 JUMP JUMPDEST SWAP3 POP PUSH1 0x20 DUP11 ADD SWAP10 POP POP PUSH1 0x1 DUP2 ADD SWAP1 POP PUSH2 0x1BD7 JUMP JUMPDEST POP DUP3 SWAP8 POP DUP8 SWAP6 POP POP POP POP POP POP SWAP3 SWAP2 POP POP JUMP JUMPDEST PUSH0 PUSH1 0x20 DUP3 ADD SWAP1 POP DUP2 DUP2 SUB PUSH0 DUP4 ADD MSTORE PUSH2 0x1C39 DUP2 DUP5 PUSH2 0x1BAE JUMP JUMPDEST SWAP1 POP SWAP3 SWAP2 POP POP JUMP JUMPDEST PUSH2 0x1C4A DUP2 PUSH2 0x1A76 JUMP JUMPDEST DUP2 EQ PUSH2 0x1C54 JUMPI PUSH0 DUP1 REVERT JUMPDEST POP JUMP JUMPDEST PUSH0 DUP2 CALLDATALOAD SWAP1 POP PUSH2 0x1C65 DUP2 PUSH2 0x1C41 JUMP JUMPDEST SWAP3 SWAP2 POP POP JUMP JUMPDEST PUSH0 DUP1 PUSH1 0x40 DUP4 DUP6 SUB SLT ISZERO PUSH2 0x1C81 JUMPI PUSH2 0x1C80 PUSH2 0x17A9 JUMP JUMPDEST JUMPDEST PUSH0 PUSH2 0x1C8E DUP6 DUP3 DUP7 ADD PUSH2 0x1C57 JUMP JUMPDEST SWAP3 POP POP PUSH1 0x20 PUSH2 0x1C9F DUP6 DUP3 DUP7 ADD PUSH2 0x190C JUMP JUMPDEST SWAP2 POP POP SWAP3 POP SWAP3 SWAP1 POP JUMP JUMPDEST PUSH2 0x1CB2 DUP2 PUSH2 0x18ED JUMP JUMPDEST DUP3 MSTORE POP POP JUMP JUMPDEST PUSH0 PUSH1 0x20 DUP3 ADD SWAP1 POP PUSH2 0x1CCB PUSH0 DUP4 ADD DUP5 PUSH2 0x1CA9 JUMP JUMPDEST SWAP3 SWAP2 POP POP JUMP JUMPDEST PUSH0 PUSH1 0xC0 DUP4 ADD PUSH0 DUP4 ADD MLOAD PUSH2 0x1CE6 PUSH0 DUP7 ADD DUP3 PUSH2 0x19CE JUMP JUMPDEST POP PUSH1 0x20 DUP4 ADD MLOAD DUP5 DUP3 SUB PUSH1 0x20 DUP7 ADD MSTORE PUSH2 0x1CFE DUP3 DUP3 PUSH2 0x1A1F JUMP JUMPDEST SWAP2 POP POP PUSH1 0x40 DUP4 ADD MLOAD PUSH2 0x1D13 PUSH1 0x40 DUP7 ADD DUP3 PUSH2 0x1A87 JUMP JUMPDEST POP PUSH1 0x60 DUP4 ADD MLOAD PUSH2 0x1D26 PUSH1 0x60 DUP7 ADD DUP3 PUSH2 0x1AFA JUMP JUMPDEST POP PUSH1 0x80 DUP4 ADD MLOAD PUSH2 0x1D39 PUSH1 0x80 DUP7 ADD DUP3 PUSH2 0x19CE JUMP JUMPDEST POP PUSH1 0xA0 DUP4 ADD MLOAD PUSH2 0x1D4C PUSH1 0xA0 DUP7 ADD DUP3 PUSH2 0x1A87 JUMP JUMPDEST POP DUP1 SWAP2 POP POP SWAP3 SWAP2 POP POP JUMP JUMPDEST PUSH0 PUSH1 0x20 DUP3 ADD SWAP1 POP DUP2 DUP2 SUB PUSH0 DUP4 ADD MSTORE PUSH2 0x1D6F DUP2 DUP5 PUSH2 0x1CD1 JUMP JUMPDEST SWAP1 POP SWAP3 SWAP2 POP POP JUMP JUMPDEST PUSH0 DUP2 ISZERO ISZERO SWAP1 POP SWAP2 SWAP1 POP JUMP JUMPDEST PUSH2 0x1D8B DUP2 PUSH2 0x1D77 JUMP JUMPDEST DUP3 MSTORE POP POP JUMP JUMPDEST PUSH0 PUSH1 0x20 DUP3 ADD SWAP1 POP PUSH2 0x1DA4 PUSH0 DUP4 ADD DUP5 PUSH2 0x1D82 JUMP JUMPDEST SWAP3 SWAP2 POP POP JUMP JUMPDEST PUSH0 DUP2 SWAP1 POP SWAP2 SWAP1 POP JUMP JUMPDEST PUSH0 PUSH2 0x1DCD PUSH2 0x1DC8 PUSH2 0x1DC3 DUP5 PUSH2 0x1A57 JUMP JUMPDEST PUSH2 0x1DAA JUMP JUMPDEST PUSH2 0x1A57 JUMP JUMPDEST SWAP1 POP SWAP2 SWAP1 POP JUMP JUMPDEST PUSH0 PUSH2 0x1DDE DUP3 PUSH2 0x1DB3 JUMP JUMPDEST SWAP1 POP SWAP2 SWAP1 POP JUMP JUMPDEST PUSH0 PUSH2 0x1DEF DUP3 PUSH2 0x1DD4 JUMP JUMPDEST SWAP1 POP SWAP2 SWAP1 POP JUMP JUMPDEST PUSH2 0x1DFF DUP2 PUSH2 0x1DE5 JUMP JUMPDEST DUP3 MSTORE POP POP JUMP JUMPDEST PUSH0 PUSH1 0x20 DUP3 ADD SWAP1 POP PUSH2 0x1E18 PUSH0 DUP4 ADD DUP5 PUSH2 0x1DF6 JUMP JUMPDEST SWAP3 SWAP2 POP POP JUMP JUMPDEST PUSH0 DUP3 DUP3 MSTORE PUSH1 0x20 DUP3 ADD SWAP1 POP SWAP3 SWAP2 POP POP JUMP JUMPDEST PUSH0 PUSH2 0x1E38 DUP3 PUSH2 0x19DD JUMP JUMPDEST PUSH2 0x1E42 DUP2 DUP6 PUSH2 0x1E1E JUMP JUMPDEST SWAP4 POP PUSH2 0x1E52 DUP2 DUP6 PUSH1 0x20 DUP7 ADD PUSH2 0x19F7 JUMP JUMPDEST PUSH2 0x1E5B DUP2 PUSH2 0x17B9 JUMP JUMPDEST DUP5 ADD SWAP2 POP POP SWAP3 SWAP2 POP POP JUMP JUMPDEST PUSH0 PUSH1 0x40 DUP3 ADD SWAP1 POP DUP2 DUP2 SUB PUSH0 DUP4 ADD MSTORE PUSH2 0x1E7E DUP2 DUP6 PUSH2 0x1E2E JUMP JUMPDEST SWAP1 POP PUSH2 0x1E8D PUSH1 0x20 DUP4 ADD DUP5 PUSH2 0x1CA9 JUMP JUMPDEST SWAP4 SWAP3 POP POP POP JUMP JUMPDEST PUSH0 PUSH1 0x20 DUP3 ADD SWAP1 POP DUP2 DUP2 SUB PUSH0 DUP4 ADD MSTORE PUSH2 0x1EAC DUP2 DUP5 PUSH2 0x1E2E JUMP JUMPDEST SWAP1 POP SWAP3 SWAP2 POP POP JUMP JUMPDEST PUSH2 0x1EBD DUP2 PUSH2 0x1AE9 JUMP JUMPDEST DUP3 MSTORE POP POP JUMP JUMPDEST PUSH2 0x1ECC DUP2 PUSH2 0x1A76 JUMP JUMPDEST DUP3 MSTORE POP POP JUMP JUMPDEST PUSH0 PUSH1 0x60 DUP3 ADD SWAP1 POP PUSH2 0x1EE5 PUSH0 DUP4 ADD DUP7 PUSH2 0x1EB4 JUMP JUMPDEST PUSH2 0x1EF2 PUSH1 0x20 DUP4 ADD DUP6 PUSH2 0x1CA9 JUMP JUMPDEST PUSH2 0x1EFF PUSH1 0x40 DUP4 ADD DUP5 PUSH2 0x1EC3 JUMP JUMPDEST SWAP5 SWAP4 POP POP POP POP JUMP JUMPDEST PUSH32 0x4E487B7100000000000000000000000000000000000000000000000000000000 PUSH0 MSTORE PUSH1 0x22 PUSH1 0x4 MSTORE PUSH1 0x24 PUSH0 REVERT JUMPDEST PUSH0 PUSH1 0x2 DUP3 DIV SWAP1 POP PUSH1 0x1 DUP3 AND DUP1 PUSH2 0x1F4B JUMPI PUSH1 0x7F DUP3 AND SWAP2 POP JUMPDEST PUSH1 0x20 DUP3 LT DUP2 SUB PUSH2 0x1F5E JUMPI PUSH2 0x1F5D PUSH2 0x1F07 JUMP JUMPDEST JUMPDEST POP SWAP2 SWAP1 POP JUMP JUMPDEST PUSH0 DUP2 SWAP1 POP DUP2 PUSH0 MSTORE PUSH1 0x20 PUSH0 KECCAK256 SWAP1 POP SWAP2 SWAP1 POP JUMP JUMPDEST PUSH0 PUSH1 0x20 PUSH1 0x1F DUP4 ADD DIV SWAP1 POP SWAP2 SWAP1 POP JUMP JUMPDEST PUSH0 DUP3 DUP3 SHL SWAP1 POP SWAP3 SWAP2 POP POP JUMP JUMPDEST PUSH0 PUSH1 0x8 DUP4 MUL PUSH2 0x1FC0 PUSH32 0xFFFFFFFFFFFFFFFFFFFFFFFFFFFFFFFFFFFFFFFFFFFFFFFFFFFFFFFFFFFFFFFF DUP3 PUSH2 0x1F85 JUMP JUMPDEST PUSH2 0x1FCA DUP7 DUP4 PUSH2 0x1F85 JUMP JUMPDEST SWAP6 POP DUP1 NOT DUP5 AND SWAP4 POP DUP1 DUP7 AND DUP5 OR SWAP3 POP POP POP SWAP4 SWAP3 POP POP POP JUMP JUMPDEST PUSH0 PUSH2 0x1FFC PUSH2 0x1FF7 PUSH2 0x1FF2 DUP5 PUSH2 0x18ED JUMP JUMPDEST PUSH2 0x1DAA JUMP JUMPDEST PUSH2 0x18ED JUMP JUMPDEST SWAP1 POP SWAP2 SWAP1 POP JUMP JUMPDEST PUSH0 DUP2 SWAP1 POP SWAP2 SWAP1 POP JUMP JUMPDEST PUSH2 0x2015 DUP4 PUSH2 0x1FE2 JUMP JUMPDEST PUSH2 0x2029 PUSH2 0x2021 DUP3 PUSH2 0x2003 JUMP JUMPDEST DUP5 DUP5 SLOAD PUSH2 0x1F91 JUMP JUMPDEST DUP3 SSTORE POP POP POP POP JUMP JUMPDEST PUSH0 SWAP1 JUMP JUMPDEST PUSH2 0x203D PUSH2 0x2031 JUMP JUMPDEST PUSH2 0x2048 DUP2 DUP5 DUP5 PUSH2 0x200C JUMP JUMPDEST POP POP POP JUMP JUMPDEST JUMPDEST DUP2 DUP2 LT ISZERO PUSH2 0x206B JUMPI PUSH2 0x2060 PUSH0 DUP3 PUSH2 0x2035 JUMP JUMPDEST PUSH1 0x1 DUP2 ADD SWAP1 POP PUSH2 0x204E JUMP JUMPDEST POP POP JUMP JUMPDEST PUSH1 0x1F DUP3 GT ISZERO PUSH2 0x20B0 JUMPI PUSH2 0x2081 DUP2 PUSH2 0x1F64 JUMP JUMPDEST PUSH2 0x208A DUP5 PUSH2 0x1F76 JUMP JUMPDEST DUP2 ADD PUSH1 0x20 DUP6 LT ISZERO PUSH2 0x2099 JUMPI DUP2 SWAP1 POP JUMPDEST PUSH2 0x20AD PUSH2 0x20A5 DUP6 PUSH2 0x1F76 JUMP JUMPDEST DUP4 ADD DUP3 PUSH2 0x204D JUMP JUMPDEST POP POP JUMPDEST POP POP POP JUMP JUMPDEST PUSH0 DUP3 DUP3 SHR SWAP1 POP SWAP3 SWAP2 POP POP JUMP JUMPDEST PUSH0 PUSH2 0x20D0 PUSH0 NOT DUP5 PUSH1 0x8 MUL PUSH2 0x20B5 JUMP JUMPDEST NOT DUP1 DUP4 AND SWAP2 POP POP SWAP3 SWAP2 POP POP JUMP JUMPDEST PUSH0 PUSH2 0x20E8 DUP4 DUP4 PUSH2 0x20C1 JUMP JUMPDEST SWAP2 POP DUP3 PUSH1 0x2 MUL DUP3 OR SWAP1 POP SWAP3 SWAP2 POP POP JUMP JUMPDEST PUSH2 0x2101 DUP3 PUSH2 0x19DD JUMP JUMPDEST PUSH8 0xFFFFFFFFFFFFFFFF DUP2 GT ISZERO PUSH2 0x211A JUMPI PUSH2 0x2119 PUSH2 0x17C9 JUMP JUMPDEST JUMPDEST PUSH2 0x2124 DUP3 SLOAD PUSH2 0x1F34 JUMP JUMPDEST PUSH2 0x212F DUP3 DUP3 DUP6 PUSH2 0x206F JUMP JUMPDEST PUSH0 PUSH1 0x20 SWAP1 POP PUSH1 0x1F DUP4 GT PUSH1 0x1 DUP2 EQ PUSH2 0x2160 JUMPI PUSH0 DUP5 ISZERO PUSH2 0x214E JUMPI DUP3 DUP8 ADD MLOAD SWAP1 POP JUMPDEST PUSH2 0x2158 DUP6 DUP3 PUSH2 0x20DD JUMP JUMPDEST DUP7 SSTORE POP PUSH2 0x21BF JUMP JUMPDEST PUSH1 0x1F NOT DUP5 AND PUSH2 0x216E DUP7 PUSH2 0x1F64 JUMP JUMPDEST PUSH0 JUMPDEST DUP3 DUP2 LT ISZERO PUSH2 0x2195 JUMPI DUP5 DUP10 ADD MLOAD DUP3 SSTORE PUSH1 0x1 DUP3 ADD SWAP2 POP PUSH1 0x20 DUP6 ADD SWAP5 POP PUSH1 0x20 DUP2 ADD SWAP1 POP PUSH2 0x2170 JUMP JUMPDEST DUP7 DUP4 LT ISZERO PUSH2 0x21B2 JUMPI DUP5 DUP10 ADD MLOAD PUSH2 0x21AE PUSH1 0x1F DUP10 AND DUP3 PUSH2 0x20C1 JUMP JUMPDEST DUP4 SSTORE POP JUMPDEST PUSH1 0x1 PUSH1 0x2 DUP9 MUL ADD DUP9 SSTORE POP POP POP JUMPDEST POP POP POP POP POP POP JUMP JUMPDEST PUSH32 0x7374617465000000000000000000000000000000000000000000000000000000 PUSH0 DUP3 ADD MSTORE POP JUMP JUMPDEST PUSH0 PUSH2 0x21FB PUSH1 0x5 DUP4 PUSH2 0x1E1E JUMP JUMPDEST SWAP2 POP PUSH2 0x2206 DUP3 PUSH2 0x21C7 JUMP JUMPDEST PUSH1 0x20 DUP3 ADD SWAP1 POP SWAP2 SWAP1 POP JUMP JUMPDEST PUSH0 PUSH1 0x20 DUP3 ADD SWAP1 POP DUP2 DUP2 SUB PUSH0 DUP4 ADD MSTORE PUSH2 0x2228 DUP2 PUSH2 0x21EF JUMP JUMPDEST SWAP1 POP SWAP2 SWAP1 POP JUMP JUMPDEST PUSH0 PUSH1 0x20 DUP3 ADD SWAP1 POP PUSH2 0x2242 PUSH0 DUP4 ADD DUP5 PUSH2 0x1EC3 JUMP JUMPDEST SWAP3 SWAP2 POP POP JUMP JUMPDEST PUSH0 DUP2 MLOAD SWAP1 POP PUSH2 0x2256 DUP2 PUSH2 0x18F6 JUMP JUMPDEST SWAP3 SWAP2 POP POP JUMP JUMPDEST PUSH0 PUSH1 0x20 DUP3 DUP5 SUB SLT ISZERO PUSH2 0x2271 JUMPI PUSH2 0x2270 PUSH2 0x17A9 JUMP JUMPDEST JUMPDEST PUSH0 PUSH2 0x227E DUP5 DUP3 DUP6 ADD PUSH2 0x2248 JUMP JUMPDEST SWAP2 POP POP SWAP3 SWAP2 POP POP JUMP JUMPDEST PUSH0 PUSH1 0x60 DUP3 ADD SWAP1 POP PUSH2 0x229A PUSH0 DUP4 ADD DUP7 PUSH2 0x1EC3 JUMP JUMPDEST PUSH2 0x22A7 PUSH1 0x20 DUP4 ADD DUP6 PUSH2 0x1EC3 JUMP JUMPDEST PUSH2 0x22B4 PUSH1 0x40 DUP4 ADD DUP5 PUSH2 0x1CA9 JUMP JUMPDEST SWAP5 SWAP4 POP POP POP POP JUMP JUMPDEST PUSH0 DUP2 MLOAD SWAP1 POP PUSH2 0x22CA DUP2 PUSH2 0x1C41 JUMP JUMPDEST SWAP3 SWAP2 POP POP JUMP JUMPDEST PUSH0 PUSH1 0x20 DUP3 DUP5 SUB SLT ISZERO PUSH2 0x22E5 JUMPI PUSH2 0x22E4 PUSH2 0x17A9 JUMP JUMPDEST JUMPDEST PUSH0 PUSH2 0x22F2 DUP5 DUP3 DUP6 ADD PUSH2 0x22BC JUMP JUMPDEST SWAP2 POP POP SWAP3 SWAP2 POP POP JUMP JUMPDEST PUSH32 0x4E487B7100000000000000000000000000000000000000000000000000000000 PUSH0 MSTORE PUSH1 0x32 PUSH1 0x4 MSTORE PUSH1 0x24 PUSH0 REVERT JUMPDEST PUSH32 0x4E487B7100000000000000000000000000000000000000000000000000000000 PUSH0 MSTORE PUSH1 0x11 PUSH1 0x4 MSTORE PUSH1 0x24 PUSH0 REVERT JUMPDEST PUSH0 PUSH2 0x235F DUP3 PUSH2 0x18ED JUMP JUMPDEST SWAP2 POP PUSH32 0xFFFFFFFFFFFFFFFFFFFFFFFFFFFFFFFFFFFFFFFFFFFFFFFFFFFFFFFFFFFFFFFF DUP3 SUB PUSH2 0x2391 JUMPI PUSH2 0x2390 PUSH2 0x2328 JUMP JUMPDEST JUMPDEST PUSH1 0x1 DUP3 ADD SWAP1 POP SWAP2 SWAP1 POP JUMP JUMPDEST PUSH0 DUP2 SWAP1 POP SWAP3 SWAP2 POP POP JUMP JUMPDEST PUSH0 PUSH2 0x23B0 DUP3 PUSH2 0x19DD JUMP JUMPDEST PUSH2 0x23BA DUP2 DUP6 PUSH2 0x239C JUMP JUMPDEST SWAP4 POP PUSH2 0x23CA DUP2 DUP6 PUSH1 0x20 DUP7 ADD PUSH2 0x19F7 JUMP JUMPDEST DUP1 DUP5 ADD SWAP2 POP POP SWAP3 SWAP2 POP POP JUMP JUMPDEST PUSH0 PUSH2 0x23E1 DUP3 DUP5 PUSH2 0x23A6 JUMP JUMPDEST SWAP2 POP DUP2 SWAP1 POP SWAP3 SWAP2 POP POP JUMP JUMPDEST PUSH0 DUP2 SLOAD PUSH2 0x23F8 DUP2 PUSH2 0x1F34 JUMP JUMPDEST PUSH2 0x2402 DUP2 DUP7 PUSH2 0x239C JUMP JUMPDEST SWAP5 POP PUSH1 0x1 DUP3 AND PUSH0 DUP2 EQ PUSH2 0x241C JUMPI PUSH1 0x1 DUP2 EQ PUSH2 0x2431 JUMPI PUSH2 0x2463 JUMP JUMPDEST PUSH1 0xFF NOT DUP4 AND DUP7 MSTORE DUP2 ISZERO ISZERO DUP3 MUL DUP7 ADD SWAP4 POP PUSH2 0x2463 JUMP JUMPDEST PUSH2 0x243A DUP6 PUSH2 0x1F64 JUMP JUMPDEST PUSH0 JUMPDEST DUP4 DUP2 LT ISZERO PUSH2 0x245B JUMPI DUP2 SLOAD DUP2 DUP10 ADD MSTORE PUSH1 0x1 DUP3 ADD SWAP2 POP PUSH1 0x20 DUP2 ADD SWAP1 POP PUSH2 0x243C JUMP JUMPDEST DUP4 DUP9 ADD SWAP6 POP POP POP JUMPDEST POP POP POP SWAP3 SWAP2 POP POP JUMP JUMPDEST PUSH0 PUSH2 0x2477 DUP3 DUP5 PUSH2 0x23EC JUMP JUMPDEST SWAP2 POP DUP2 SWAP1 POP SWAP3 SWAP2 POP POP JUMP JUMPDEST PUSH32 0x766F6C756D650000000000000000000000000000000000000000000000000000 PUSH0 DUP3 ADD MSTORE POP JUMP JUMPDEST PUSH0 PUSH2 0x24B6 PUSH1 0x6 DUP4 PUSH2 0x1E1E JUMP JUMPDEST SWAP2 POP PUSH2 0x24C1 DUP3 PUSH2 0x2482 JUMP JUMPDEST PUSH1 0x20 DUP3 ADD SWAP1 POP SWAP2 SWAP1 POP JUMP JUMPDEST PUSH0 PUSH1 0x20 DUP3 ADD SWAP1 POP DUP2 DUP2 SUB PUSH0 DUP4 ADD MSTORE PUSH2 0x24E3 DUP2 PUSH2 0x24AA JUMP JUMPDEST SWAP1 POP SWAP2 SWAP1 POP JUMP JUMPDEST PUSH0 DUP2 PUSH1 0x1 SHR SWAP1 POP SWAP2 SWAP1 POP JUMP JUMPDEST PUSH0 DUP1 DUP3 SWAP2 POP DUP4 SWAP1 POP JUMPDEST PUSH1 0x1 DUP6 GT ISZERO PUSH2 0x253F JUMPI DUP1 DUP7 DIV DUP2 GT ISZERO PUSH2 0x251B JUMPI PUSH2 0x251A PUSH2 0x2328 JUMP JUMPDEST JUMPDEST PUSH1 0x1 DUP6 AND ISZERO PUSH2 0x252A JUMPI DUP1 DUP3 MUL SWAP2 POP JUMPDEST DUP1 DUP2 MUL SWAP1 POP PUSH2 0x2538 DUP6 PUSH2 0x24EA JUMP JUMPDEST SWAP5 POP PUSH2 0x24FF JUMP JUMPDEST SWAP5 POP SWAP5 SWAP3 POP POP POP JUMP JUMPDEST PUSH0 DUP3 PUSH2 0x2557 JUMPI PUSH1 0x1 SWAP1 POP PUSH2 0x2612 JUMP JUMPDEST DUP2 PUSH2 0x2564 JUMPI PUSH0 SWAP1 POP PUSH2 0x2612 JUMP JUMPDEST DUP2 PUSH1 0x1 DUP2 EQ PUSH2 0x257A JUMPI PUSH1 0x2 DUP2 EQ PUSH2 0x2584 JUMPI PUSH2 0x25B3 JUMP JUMPDEST PUSH1 0x1 SWAP2 POP POP PUSH2 0x2612 JUMP JUMPDEST PUSH1 0xFF DUP5 GT ISZERO PUSH2 0x2596 JUMPI PUSH2 0x2595 PUSH2 0x2328 JUMP JUMPDEST JUMPDEST DUP4 PUSH1 0x2 EXP SWAP2 POP DUP5 DUP3 GT ISZERO PUSH2 0x25AD JUMPI PUSH2 0x25AC PUSH2 0x2328 JUMP JUMPDEST JUMPDEST POP PUSH2 0x2612 JUMP JUMPDEST POP PUSH1 0x20 DUP4 LT PUSH2 0x133 DUP4 LT AND PUSH1 0x4E DUP5 LT PUSH1 0xB DUP5 LT AND OR ISZERO PUSH2 0x25E8 JUMPI DUP3 DUP3 EXP SWAP1 POP DUP4 DUP2 GT ISZERO PUSH2 0x25E3 JUMPI PUSH2 0x25E2 PUSH2 0x2328 JUMP JUMPDEST JUMPDEST PUSH2 0x2612 JUMP JUMPDEST PUSH2 0x25F5 DUP5 DUP5 DUP5 PUSH1 0x1 PUSH2 0x24F6 JUMP JUMPDEST SWAP3 POP SWAP1 POP DUP2 DUP5 DIV DUP2 GT ISZERO PUSH2 0x260C JUMPI PUSH2 0x260B PUSH2 0x2328 JUMP JUMPDEST JUMPDEST DUP2 DUP2 MUL SWAP1 POP JUMPDEST SWAP4 SWAP3 POP POP POP JUMP JUMPDEST PUSH0 PUSH2 0x2623 DUP3 PUSH2 0x18ED JUMP JUMPDEST SWAP2 POP PUSH2 0x262E DUP4 PUSH2 0x18ED JUMP JUMPDEST SWAP3 POP PUSH2 0x265B PUSH32 0xFFFFFFFFFFFFFFFFFFFFFFFFFFFFFFFFFFFFFFFFFFFFFFFFFFFFFFFFFFFFFFFF DUP5 DUP5 PUSH2 0x2548 JUMP JUMPDEST SWAP1 POP SWAP3 SWAP2 POP POP JUMP JUMPDEST PUSH0 PUSH2 0x266D DUP3 PUSH2 0x18ED JUMP JUMPDEST SWAP2 POP PUSH2 0x2678 DUP4 PUSH2 0x18ED JUMP JUMPDEST SWAP3 POP DUP3 DUP3 MUL PUSH2 0x2686 DUP2 PUSH2 0x18ED JUMP JUMPDEST SWAP2 POP DUP3 DUP3 DIV DUP5 EQ DUP4 ISZERO OR PUSH2 0x269D JUMPI PUSH2 0x269C PUSH2 0x2328 JUMP JUMPDEST JUMPDEST POP SWAP3 SWAP2 POP POP JUMP JUMPDEST PUSH0 PUSH2 0x26AE DUP3 PUSH2 0x18ED JUMP JUMPDEST SWAP2 POP PUSH2 0x26B9 DUP4 PUSH2 0x18ED JUMP JUMPDEST SWAP3 POP DUP3 DUP3 SUB SWAP1 POP DUP2 DUP2 GT ISZERO PUSH2 0x26D1 JUMPI PUSH2 0x26D0 PUSH2 0x2328 JUMP JUMPDEST JUMPDEST SWAP3 SWAP2 POP POP JUMP JUMPDEST PUSH32 0x7072696365000000000000000000000000000000000000000000000000000000 PUSH0 DUP3 ADD MSTORE POP JUMP JUMPDEST PUSH0 PUSH2 0x270B PUSH1 0x5 DUP4 PUSH2 0x1E1E JUMP JUMPDEST SWAP2 POP PUSH2 0x2716 DUP3 PUSH2 0x26D7 JUMP JUMPDEST PUSH1 0x20 DUP3 ADD SWAP1 POP SWAP2 SWAP1 POP JUMP JUMPDEST PUSH0 PUSH1 0x20 DUP3 ADD SWAP1 POP DUP2 DUP2 SUB PUSH0 DUP4 ADD MSTORE PUSH2 0x2738 DUP2 PUSH2 0x26FF JUMP JUMPDEST SWAP1 POP SWAP2 SWAP1 POP JUMP JUMPDEST PUSH0 PUSH2 0x2751 PUSH2 0x274C DUP5 PUSH2 0x1841 JUMP JUMPDEST PUSH2 0x1827 JUMP JUMPDEST SWAP1 POP DUP3 DUP2 MSTORE PUSH1 0x20 DUP2 ADD DUP5 DUP5 DUP5 ADD GT ISZERO PUSH2 0x276D JUMPI PUSH2 0x276C PUSH2 0x17B5 JUMP JUMPDEST JUMPDEST PUSH2 0x2778 DUP5 DUP3 DUP6 PUSH2 0x19F7 JUMP JUMPDEST POP SWAP4 SWAP3 POP POP POP JUMP JUMPDEST PUSH0 DUP3 PUSH1 0x1F DUP4 ADD SLT PUSH2 0x2794 JUMPI PUSH2 0x2793 PUSH2 0x17B1 JUMP JUMPDEST JUMPDEST DUP2 MLOAD PUSH2 0x27A4 DUP5 DUP3 PUSH1 0x20 DUP7 ADD PUSH2 0x273F JUMP JUMPDEST SWAP2 POP POP SWAP3 SWAP2 POP POP JUMP JUMPDEST PUSH0 PUSH1 0x20 DUP3 DUP5 SUB SLT ISZERO PUSH2 0x27C2 JUMPI PUSH2 0x27C1 PUSH2 0x17A9 JUMP JUMPDEST JUMPDEST PUSH0 DUP3 ADD MLOAD PUSH8 0xFFFFFFFFFFFFFFFF DUP2 GT ISZERO PUSH2 0x27DF JUMPI PUSH2 0x27DE PUSH2 0x17AD JUMP JUMPDEST JUMPDEST PUSH2 0x27EB DUP5 DUP3 DUP6 ADD PUSH2 0x2780 JUMP JUMPDEST SWAP2 POP POP SWAP3 SWAP2 POP POP JUMP JUMPDEST PUSH0 PUSH1 0x40 DUP3 ADD SWAP1 POP PUSH2 0x2807 PUSH0 DUP4 ADD DUP6 PUSH2 0x1EC3 JUMP JUMPDEST PUSH2 0x2814 PUSH1 0x20 DUP4 ADD DUP5 PUSH2 0x1EC3 JUMP JUMPDEST SWAP4 SWAP3 POP POP POP JUMP JUMPDEST PUSH2 0x2824 DUP2 PUSH2 0x1D77 JUMP JUMPDEST DUP2 EQ PUSH2 0x282E JUMPI PUSH0 DUP1 REVERT JUMPDEST POP JUMP JUMPDEST PUSH0 DUP2 MLOAD SWAP1 POP PUSH2 0x283F DUP2 PUSH2 0x281B JUMP JUMPDEST SWAP3 SWAP2 POP POP JUMP JUMPDEST PUSH0 PUSH1 0x20 DUP3 DUP5 SUB SLT ISZERO PUSH2 0x285A JUMPI PUSH2 0x2859 PUSH2 0x17A9 JUMP JUMPDEST JUMPDEST PUSH0 PUSH2 0x2867 DUP5 DUP3 DUP6 ADD PUSH2 0x2831 JUMP JUMPDEST SWAP2 POP POP SWAP3 SWAP2 POP POP JUMP JUMPDEST PUSH0 PUSH1 0x60 DUP3 ADD SWAP1 POP PUSH2 0x2883 PUSH0 DUP4 ADD DUP7 PUSH2 0x1EC3 JUMP JUMPDEST PUSH2 0x2890 PUSH1 0x20 DUP4 ADD DUP6 PUSH2 0x1EC3 JUMP JUMPDEST PUSH2 0x289D PUSH1 0x40 DUP4 ADD DUP5 PUSH2 0x1D82 JUMP JUMPDEST SWAP5 SWAP4 POP POP POP POP JUMP INVALID LOG2 PUSH5 0x6970667358 0x22 SLT KECCAK256 0xD4 PUSH12 0xB264E45AC4EFF9B5CE66751B DUP14 0xDB PUSH22 0xE9A4501D4BBADDDA77CA1F9E35E39364736F6C634300 ADDMOD EQ STOP CALLER "
		},
		"gasEstimates": {
			"creation": {
				"codeDepositCost": "2091800",
				"executionCost": "infinite",
				"totalCost": "infinite"
			},
			"external": {
				"_nft()": "infinite",
				"_saleNFTmint(string,uint256)": "infinite",
				"accept(uint256)": "infinite",
				"buyNFT(uint256)": "29245",
				"getBuyNFTList()": "infinite",
				"getRanking(uint256)": "infinite",
				"getSaleNFTList()": "infinite",
				"getSaledNFTList()": "infinite",
				"getTokenReturned(uint256)": "infinite",
				"registerData(string,uint256)": "infinite",
				"salesNFT()": "infinite",
				"sellers(address,uint256)": "infinite",
				"setApprovalForAll()": "infinite",
				"tokenDatas(address,uint256)": "infinite",
				"tokenIds(uint256)": "infinite",
				"tokenSaleDatas(uint256)": "infinite"
			}
		},
		"methodIdentifiers": {
			"_nft()": "98300e18",
			"_saleNFTmint(string,uint256)": "3fde9f5b",
			"accept(uint256)": "19b05f49",
			"buyNFT(uint256)": "51ed8288",
			"getBuyNFTList()": "80c7954f",
			"getRanking(uint256)": "bea2dc14",
			"getSaleNFTList()": "330816f2",
			"getSaledNFTList()": "e90ad883",
			"getTokenReturned(uint256)": "60d1105f",
			"registerData(string,uint256)": "07305b35",
			"salesNFT()": "6aa5e376",
			"sellers(address,uint256)": "54f6079a",
			"setApprovalForAll()": "cc9562a5",
			"tokenDatas(address,uint256)": "9f1564da",
			"tokenIds(uint256)": "d58778d6",
			"tokenSaleDatas(uint256)": "e50ad45b"
		}
	},
	"abi": [
		{
			"inputs": [
				{
					"internalType": "address",
					"name": "_nftCA",
					"type": "address"
				}
			],
			"stateMutability": "nonpayable",
			"type": "constructor"
		},
		{
			"inputs": [],
			"name": "_nft",
			"outputs": [
				{
					"internalType": "contract MyNFT",
					"name": "",
					"type": "address"
				}
			],
			"stateMutability": "view",
			"type": "function"
		},
		{
			"inputs": [
				{
					"internalType": "string",
					"name": "jsonHash",
					"type": "string"
				},
				{
					"internalType": "uint256",
					"name": "price",
					"type": "uint256"
				}
			],
			"name": "_saleNFTmint",
			"outputs": [],
			"stateMutability": "nonpayable",
			"type": "function"
		},
		{
			"inputs": [
				{
					"internalType": "uint256",
					"name": "tokenId",
					"type": "uint256"
				}
			],
			"name": "accept",
			"outputs": [],
			"stateMutability": "nonpayable",
			"type": "function"
		},
		{
			"inputs": [
				{
					"internalType": "uint256",
					"name": "tokenId",
					"type": "uint256"
				}
			],
			"name": "buyNFT",
			"outputs": [],
			"stateMutability": "payable",
			"type": "function"
		},
		{
			"inputs": [],
			"name": "getBuyNFTList",
			"outputs": [
				{
					"components": [
						{
							"internalType": "uint256",
							"name": "tokenId",
							"type": "uint256"
						},
						{
							"internalType": "string",
							"name": "jsonUri",
							"type": "string"
						},
						{
							"internalType": "address",
							"name": "seller",
							"type": "address"
						},
						{
							"internalType": "enum SaleNFT.SaleState",
							"name": "state",
							"type": "uint8"
						},
						{
							"internalType": "uint256",
							"name": "price",
							"type": "uint256"
						},
						{
							"internalType": "address",
							"name": "buyer",
							"type": "address"
						}
					],
					"internalType": "struct SaleNFT.TokenReturned[]",
					"name": "",
					"type": "tuple[]"
				}
			],
			"stateMutability": "view",
			"type": "function"
		},
		{
			"inputs": [
				{
					"internalType": "uint256",
					"name": "volume",
					"type": "uint256"
				}
			],
			"name": "getRanking",
			"outputs": [
				{
					"internalType": "string",
					"name": "",
					"type": "string"
				}
			],
			"stateMutability": "pure",
			"type": "function"
		},
		{
			"inputs": [],
			"name": "getSaleNFTList",
			"outputs": [
				{
					"components": [
						{
							"internalType": "uint256",
							"name": "tokenId",
							"type": "uint256"
						},
						{
							"internalType": "string",
							"name": "jsonUri",
							"type": "string"
						},
						{
							"internalType": "address",
							"name": "seller",
							"type": "address"
						},
						{
							"internalType": "enum SaleNFT.SaleState",
							"name": "state",
							"type": "uint8"
						},
						{
							"internalType": "uint256",
							"name": "price",
							"type": "uint256"
						},
						{
							"internalType": "address",
							"name": "buyer",
							"type": "address"
						}
					],
					"internalType": "struct SaleNFT.TokenReturned[]",
					"name": "",
					"type": "tuple[]"
				}
			],
			"stateMutability": "view",
			"type": "function"
		},
		{
			"inputs": [],
			"name": "getSaledNFTList",
			"outputs": [
				{
					"components": [
						{
							"internalType": "uint256",
							"name": "tokenId",
							"type": "uint256"
						},
						{
							"internalType": "string",
							"name": "jsonUri",
							"type": "string"
						},
						{
							"internalType": "address",
							"name": "seller",
							"type": "address"
						},
						{
							"internalType": "enum SaleNFT.SaleState",
							"name": "state",
							"type": "uint8"
						},
						{
							"internalType": "uint256",
							"name": "price",
							"type": "uint256"
						},
						{
							"internalType": "address",
							"name": "buyer",
							"type": "address"
						}
					],
					"internalType": "struct SaleNFT.TokenReturned[]",
					"name": "",
					"type": "tuple[]"
				}
			],
			"stateMutability": "view",
			"type": "function"
		},
		{
			"inputs": [
				{
					"internalType": "uint256",
					"name": "tokenId",
					"type": "uint256"
				}
			],
			"name": "getTokenReturned",
			"outputs": [
				{
					"components": [
						{
							"internalType": "uint256",
							"name": "tokenId",
							"type": "uint256"
						},
						{
							"internalType": "string",
							"name": "jsonUri",
							"type": "string"
						},
						{
							"internalType": "address",
							"name": "seller",
							"type": "address"
						},
						{
							"internalType": "enum SaleNFT.SaleState",
							"name": "state",
							"type": "uint8"
						},
						{
							"internalType": "uint256",
							"name": "price",
							"type": "uint256"
						},
						{
							"internalType": "address",
							"name": "buyer",
							"type": "address"
						}
					],
					"internalType": "struct SaleNFT.TokenReturned",
					"name": "",
					"type": "tuple"
				}
			],
			"stateMutability": "view",
			"type": "function"
		},
		{
			"inputs": [
				{
					"internalType": "string",
					"name": "jsonHash",
					"type": "string"
				},
				{
					"internalType": "uint256",
					"name": "volume",
					"type": "uint256"
				}
			],
			"name": "registerData",
			"outputs": [],
			"stateMutability": "nonpayable",
			"type": "function"
		},
		{
			"inputs": [],
			"name": "salesNFT",
			"outputs": [
				{
					"internalType": "bool",
					"name": "",
					"type": "bool"
				}
			],
			"stateMutability": "view",
			"type": "function"
		},
		{
			"inputs": [
				{
					"internalType": "address",
					"name": "",
					"type": "address"
				},
				{
					"internalType": "uint256",
					"name": "",
					"type": "uint256"
				}
			],
			"name": "sellers",
			"outputs": [
				{
					"internalType": "uint256",
					"name": "",
					"type": "uint256"
				}
			],
			"stateMutability": "view",
			"type": "function"
		},
		{
			"inputs": [],
			"name": "setApprovalForAll",
			"outputs": [],
			"stateMutability": "nonpayable",
			"type": "function"
		},
		{
			"inputs": [
				{
					"internalType": "address",
					"name": "",
					"type": "address"
				},
				{
					"internalType": "uint256",
					"name": "",
					"type": "uint256"
				}
			],
			"name": "tokenDatas",
			"outputs": [
				{
					"internalType": "string",
					"name": "jsonHash",
					"type": "string"
				},
				{
					"internalType": "uint256",
					"name": "volume",
					"type": "uint256"
				}
			],
			"stateMutability": "view",
			"type": "function"
		},
		{
			"inputs": [
				{
					"internalType": "uint256",
					"name": "",
					"type": "uint256"
				}
			],
			"name": "tokenIds",
			"outputs": [
				{
					"internalType": "uint256",
					"name": "",
					"type": "uint256"
				}
			],
			"stateMutability": "view",
			"type": "function"
		},
		{
			"inputs": [
				{
					"internalType": "uint256",
					"name": "",
					"type": "uint256"
				}
			],
			"name": "tokenSaleDatas",
			"outputs": [
				{
					"internalType": "enum SaleNFT.SaleState",
					"name": "state",
					"type": "uint8"
				},
				{
					"internalType": "uint256",
					"name": "price",
					"type": "uint256"
				},
				{
					"internalType": "address",
					"name": "buyer",
					"type": "address"
				}
			],
			"stateMutability": "view",
			"type": "function"
		}
	]
}